{
	"contracts/Token.sol": {
		"Token": {
			"abi": [
				{
					"inputs": [
						{
							"internalType": "string",
							"name": "_NAME",
							"type": "string"
						},
						{
							"internalType": "string",
							"name": "_SYMBOL",
							"type": "string"
						},
						{
							"internalType": "uint256",
							"name": "_supply",
							"type": "uint256"
						},
						{
							"internalType": "uint256",
							"name": "_txFee",
							"type": "uint256"
						},
						{
							"internalType": "uint256",
							"name": "_lpFee",
							"type": "uint256"
						},
						{
							"internalType": "uint256",
							"name": "_MAXAMOUNT",
							"type": "uint256"
						},
						{
							"internalType": "uint256",
							"name": "SELLMAXAMOUNT",
							"type": "uint256"
						},
						{
							"internalType": "address",
							"name": "routerAddress",
							"type": "address"
						},
						{
							"internalType": "address",
							"name": "tokenOwner",
							"type": "address"
						}
					],
					"stateMutability": "nonpayable",
					"type": "constructor"
				},
				{
					"anonymous": false,
					"inputs": [
						{
							"indexed": true,
							"internalType": "address",
							"name": "owner",
							"type": "address"
						},
						{
							"indexed": true,
							"internalType": "address",
							"name": "spender",
							"type": "address"
						},
						{
							"indexed": false,
							"internalType": "uint256",
							"name": "value",
							"type": "uint256"
						}
					],
					"name": "Approval",
					"type": "event"
				},
				{
					"anonymous": false,
					"inputs": [
						{
							"indexed": false,
							"internalType": "uint256",
							"name": "minTokensBeforeSwap",
							"type": "uint256"
						}
					],
					"name": "MinTokensBeforeSwapUpdated",
					"type": "event"
				},
				{
					"anonymous": false,
					"inputs": [
						{
							"indexed": true,
							"internalType": "address",
							"name": "previousOwner",
							"type": "address"
						},
						{
							"indexed": true,
							"internalType": "address",
							"name": "newOwner",
							"type": "address"
						}
					],
					"name": "OwnershipTransferred",
					"type": "event"
				},
				{
					"anonymous": false,
					"inputs": [
						{
							"indexed": false,
							"internalType": "uint256",
							"name": "tokensSwapped",
							"type": "uint256"
						},
						{
							"indexed": false,
							"internalType": "uint256",
							"name": "ethReceived",
							"type": "uint256"
						},
						{
							"indexed": false,
							"internalType": "uint256",
							"name": "tokensIntoLiqudity",
							"type": "uint256"
						}
					],
					"name": "SwapAndLiquify",
					"type": "event"
				},
				{
					"anonymous": false,
					"inputs": [
						{
							"indexed": false,
							"internalType": "bool",
							"name": "enabled",
							"type": "bool"
						}
					],
					"name": "SwapAndLiquifyEnabledUpdated",
					"type": "event"
				},
				{
					"anonymous": false,
					"inputs": [
						{
							"indexed": true,
							"internalType": "address",
							"name": "from",
							"type": "address"
						},
						{
							"indexed": true,
							"internalType": "address",
							"name": "to",
							"type": "address"
						},
						{
							"indexed": false,
							"internalType": "uint256",
							"name": "value",
							"type": "uint256"
						}
					],
					"name": "Transfer",
					"type": "event"
				},
				{
					"inputs": [],
					"name": "_liquidityFee",
					"outputs": [
						{
							"internalType": "uint256",
							"name": "",
							"type": "uint256"
						}
					],
					"stateMutability": "view",
					"type": "function"
				},
				{
					"inputs": [],
					"name": "_maxTxAmount",
					"outputs": [
						{
							"internalType": "uint256",
							"name": "",
							"type": "uint256"
						}
					],
					"stateMutability": "view",
					"type": "function"
				},
				{
					"inputs": [],
					"name": "_owner",
					"outputs": [
						{
							"internalType": "address",
							"name": "",
							"type": "address"
						}
					],
					"stateMutability": "view",
					"type": "function"
				},
				{
					"inputs": [],
					"name": "_taxFee",
					"outputs": [
						{
							"internalType": "uint256",
							"name": "",
							"type": "uint256"
						}
					],
					"stateMutability": "view",
					"type": "function"
				},
				{
					"inputs": [
						{
							"internalType": "address",
							"name": "owner",
							"type": "address"
						},
						{
							"internalType": "address",
							"name": "spender",
							"type": "address"
						}
					],
					"name": "allowance",
					"outputs": [
						{
							"internalType": "uint256",
							"name": "",
							"type": "uint256"
						}
					],
					"stateMutability": "view",
					"type": "function"
				},
				{
					"inputs": [
						{
							"internalType": "address",
							"name": "spender",
							"type": "address"
						},
						{
							"internalType": "uint256",
							"name": "amount",
							"type": "uint256"
						}
					],
					"name": "approve",
					"outputs": [
						{
							"internalType": "bool",
							"name": "",
							"type": "bool"
						}
					],
					"stateMutability": "nonpayable",
					"type": "function"
				},
				{
					"inputs": [
						{
							"internalType": "address",
							"name": "account",
							"type": "address"
						}
					],
					"name": "balanceOf",
					"outputs": [
						{
							"internalType": "uint256",
							"name": "",
							"type": "uint256"
						}
					],
					"stateMutability": "view",
					"type": "function"
				},
				{
					"inputs": [],
					"name": "claimTokens",
					"outputs": [],
					"stateMutability": "nonpayable",
					"type": "function"
				},
				{
					"inputs": [],
					"name": "decimals",
					"outputs": [
						{
							"internalType": "uint256",
							"name": "",
							"type": "uint256"
						}
					],
					"stateMutability": "view",
					"type": "function"
				},
				{
					"inputs": [
						{
							"internalType": "address",
							"name": "spender",
							"type": "address"
						},
						{
							"internalType": "uint256",
							"name": "subtractedValue",
							"type": "uint256"
						}
					],
					"name": "decreaseAllowance",
					"outputs": [
						{
							"internalType": "bool",
							"name": "",
							"type": "bool"
						}
					],
					"stateMutability": "nonpayable",
					"type": "function"
				},
				{
					"inputs": [
						{
							"internalType": "uint256",
							"name": "tAmount",
							"type": "uint256"
						}
					],
					"name": "deliver",
					"outputs": [],
					"stateMutability": "nonpayable",
					"type": "function"
				},
				{
					"inputs": [
						{
							"internalType": "address",
							"name": "account",
							"type": "address"
						}
					],
					"name": "excludeFromFee",
					"outputs": [],
					"stateMutability": "nonpayable",
					"type": "function"
				},
				{
					"inputs": [
						{
							"internalType": "address",
							"name": "account",
							"type": "address"
						}
					],
					"name": "excludeFromReward",
					"outputs": [],
					"stateMutability": "nonpayable",
					"type": "function"
				},
				{
					"inputs": [],
					"name": "geUnlockTime",
					"outputs": [
						{
							"internalType": "uint256",
							"name": "",
							"type": "uint256"
						}
					],
					"stateMutability": "view",
					"type": "function"
				},
				{
					"inputs": [
						{
							"internalType": "address",
							"name": "account",
							"type": "address"
						}
					],
					"name": "includeInFee",
					"outputs": [],
					"stateMutability": "nonpayable",
					"type": "function"
				},
				{
					"inputs": [
						{
							"internalType": "address",
							"name": "account",
							"type": "address"
						}
					],
					"name": "includeInReward",
					"outputs": [],
					"stateMutability": "nonpayable",
					"type": "function"
				},
				{
					"inputs": [
						{
							"internalType": "address",
							"name": "spender",
							"type": "address"
						},
						{
							"internalType": "uint256",
							"name": "addedValue",
							"type": "uint256"
						}
					],
					"name": "increaseAllowance",
					"outputs": [
						{
							"internalType": "bool",
							"name": "",
							"type": "bool"
						}
					],
					"stateMutability": "nonpayable",
					"type": "function"
				},
				{
					"inputs": [
						{
							"internalType": "address",
							"name": "account",
							"type": "address"
						}
					],
					"name": "isExcludedFromFee",
					"outputs": [
						{
							"internalType": "bool",
							"name": "",
							"type": "bool"
						}
					],
					"stateMutability": "view",
					"type": "function"
				},
				{
					"inputs": [
						{
							"internalType": "address",
							"name": "account",
							"type": "address"
						}
					],
					"name": "isExcludedFromReward",
					"outputs": [
						{
							"internalType": "bool",
							"name": "",
							"type": "bool"
						}
					],
					"stateMutability": "view",
					"type": "function"
				},
				{
					"inputs": [
						{
							"internalType": "uint256",
							"name": "time",
							"type": "uint256"
						}
					],
					"name": "lock",
					"outputs": [],
					"stateMutability": "nonpayable",
					"type": "function"
				},
				{
					"inputs": [],
					"name": "name",
					"outputs": [
						{
							"internalType": "string",
							"name": "",
							"type": "string"
						}
					],
					"stateMutability": "view",
					"type": "function"
				},
				{
					"inputs": [],
					"name": "numTokensSellToAddToLiquidity",
					"outputs": [
						{
							"internalType": "uint256",
							"name": "",
							"type": "uint256"
						}
					],
					"stateMutability": "view",
					"type": "function"
				},
				{
					"inputs": [],
					"name": "owner",
					"outputs": [
						{
							"internalType": "address",
							"name": "",
							"type": "address"
						}
					],
					"stateMutability": "view",
					"type": "function"
				},
				{
					"inputs": [
						{
							"internalType": "uint256",
							"name": "tAmount",
							"type": "uint256"
						},
						{
							"internalType": "bool",
							"name": "deductTransferFee",
							"type": "bool"
						}
					],
					"name": "reflectionFromToken",
					"outputs": [
						{
							"internalType": "uint256",
							"name": "",
							"type": "uint256"
						}
					],
					"stateMutability": "view",
					"type": "function"
				},
				{
					"inputs": [],
					"name": "renounceOwnership",
					"outputs": [],
					"stateMutability": "nonpayable",
					"type": "function"
				},
				{
					"inputs": [
						{
							"internalType": "uint256",
							"name": "liquidityFee",
							"type": "uint256"
						}
					],
					"name": "setLiquidityFeePercent",
					"outputs": [],
					"stateMutability": "nonpayable",
					"type": "function"
				},
				{
					"inputs": [
						{
							"internalType": "uint256",
							"name": "maxTxPercent",
							"type": "uint256"
						}
					],
					"name": "setMaxTxPercent",
					"outputs": [],
					"stateMutability": "nonpayable",
					"type": "function"
				},
				{
					"inputs": [
						{
							"internalType": "uint256",
							"name": "swapNumber",
							"type": "uint256"
						}
					],
					"name": "setNumTokensSellToAddToLiquidity",
					"outputs": [],
					"stateMutability": "nonpayable",
					"type": "function"
				},
				{
					"inputs": [
						{
							"internalType": "bool",
							"name": "_enabled",
							"type": "bool"
						}
					],
					"name": "setSwapAndLiquifyEnabled",
					"outputs": [],
					"stateMutability": "nonpayable",
					"type": "function"
				},
				{
					"inputs": [
						{
							"internalType": "uint256",
							"name": "taxFee",
							"type": "uint256"
						}
					],
					"name": "setTaxFeePercent",
					"outputs": [],
					"stateMutability": "nonpayable",
					"type": "function"
				},
				{
					"inputs": [],
					"name": "swapAndLiquifyEnabled",
					"outputs": [
						{
							"internalType": "bool",
							"name": "",
							"type": "bool"
						}
					],
					"stateMutability": "view",
					"type": "function"
				},
				{
					"inputs": [],
					"name": "symbol",
					"outputs": [
						{
							"internalType": "string",
							"name": "",
							"type": "string"
						}
					],
					"stateMutability": "view",
					"type": "function"
				},
				{
					"inputs": [
						{
							"internalType": "uint256",
							"name": "rAmount",
							"type": "uint256"
						}
					],
					"name": "tokenFromReflection",
					"outputs": [
						{
							"internalType": "uint256",
							"name": "",
							"type": "uint256"
						}
					],
					"stateMutability": "view",
					"type": "function"
				},
				{
					"inputs": [],
					"name": "totalFees",
					"outputs": [
						{
							"internalType": "uint256",
							"name": "",
							"type": "uint256"
						}
					],
					"stateMutability": "view",
					"type": "function"
				},
				{
					"inputs": [],
					"name": "totalSupply",
					"outputs": [
						{
							"internalType": "uint256",
							"name": "",
							"type": "uint256"
						}
					],
					"stateMutability": "view",
					"type": "function"
				},
				{
					"inputs": [
						{
							"internalType": "address",
							"name": "recipient",
							"type": "address"
						},
						{
							"internalType": "uint256",
							"name": "amount",
							"type": "uint256"
						}
					],
					"name": "transfer",
					"outputs": [
						{
							"internalType": "bool",
							"name": "",
							"type": "bool"
						}
					],
					"stateMutability": "nonpayable",
					"type": "function"
				},
				{
					"inputs": [
						{
							"internalType": "address",
							"name": "sender",
							"type": "address"
						},
						{
							"internalType": "address",
							"name": "recipient",
							"type": "address"
						},
						{
							"internalType": "uint256",
							"name": "amount",
							"type": "uint256"
						}
					],
					"name": "transferFrom",
					"outputs": [
						{
							"internalType": "bool",
							"name": "",
							"type": "bool"
						}
					],
					"stateMutability": "nonpayable",
					"type": "function"
				},
				{
					"inputs": [
						{
							"internalType": "address",
							"name": "newOwner",
							"type": "address"
						}
					],
					"name": "transferOwnership",
					"outputs": [],
					"stateMutability": "nonpayable",
					"type": "function"
				},
				{
					"inputs": [],
					"name": "uniswapV2Pair",
					"outputs": [
						{
							"internalType": "address",
							"name": "",
							"type": "address"
						}
					],
					"stateMutability": "view",
					"type": "function"
				},
				{
					"inputs": [],
					"name": "uniswapV2Router",
					"outputs": [
						{
							"internalType": "contract IUniswapV2Router02",
							"name": "",
							"type": "address"
						}
					],
					"stateMutability": "view",
					"type": "function"
				},
				{
					"inputs": [],
					"name": "unlock",
					"outputs": [],
					"stateMutability": "nonpayable",
					"type": "function"
				},
				{
					"stateMutability": "payable",
					"type": "receive"
				}
			],
			"devdoc": {
				"kind": "dev",
				"methods": {
					"allowance(address,address)": {
						"details": "Returns the remaining number of tokens that `spender` will be allowed to spend on behalf of `owner` through {transferFrom}. This is zero by default. This value changes when {approve} or {transferFrom} are called."
					},
					"approve(address,uint256)": {
						"details": "Sets `amount` as the allowance of `spender` over the caller's tokens. Returns a boolean value indicating whether the operation succeeded. IMPORTANT: Beware that changing an allowance with this method brings the risk that someone may use both the old and the new allowance by unfortunate transaction ordering. One possible solution to mitigate this race condition is to first reduce the spender's allowance to 0 and set the desired value afterwards: https://github.com/ethereum/EIPs/issues/20#issuecomment-263524729 Emits an {Approval} event."
					},
					"balanceOf(address)": {
						"details": "Returns the amount of tokens owned by `account`."
					},
					"owner()": {
						"details": "Returns the address of the current owner."
					},
					"renounceOwnership()": {
						"details": "Leaves the contract without owner. It will not be possible to call `onlyOwner` functions anymore. Can only be called by the current owner. NOTE: Renouncing ownership will leave the contract without an owner, thereby removing any functionality that is only available to the owner."
					},
					"transfer(address,uint256)": {
						"details": "Moves `amount` tokens from the caller's account to `recipient`. Returns a boolean value indicating whether the operation succeeded. Emits a {Transfer} event."
					},
					"transferFrom(address,address,uint256)": {
						"details": "Moves `amount` tokens from `sender` to `recipient` using the allowance mechanism. `amount` is then deducted from the caller's allowance. Returns a boolean value indicating whether the operation succeeded. Emits a {Transfer} event."
					},
					"transferOwnership(address)": {
						"details": "Transfers ownership of the contract to a new account (`newOwner`). Can only be called by the current owner."
					}
				},
				"version": 1
			},
			"evm": {
				"assembly": "    /* \"contracts/Token.sol\":25339:44468  contract Token is Context, IERC20, Ownable {\r... */\n  mstore(0x40, 0xc0)\n    /* \"contracts/Token.sol\":26317:26357  bool public swapAndLiquifyEnabled = true */\n  0x13\n  dup1\n  sload\n  not(0xff00)\n  and\n  0x0100\n  or\n  swap1\n  sstore\n    /* \"contracts/Token.sol\":26845:28237  constructor (\r... */\n  callvalue\n  dup1\n  iszero\n  tag_1\n  jumpi\n  0x00\n  dup1\n  revert\ntag_1:\n  pop\n  mload(0x40)\n  sub(codesize, bytecodeSize)\n  dup1\n  bytecodeSize\n  dup4\n  codecopy\n  dup2\n  dup2\n  add\n  0x40\n  mstore\n  0x0120\n  dup2\n  lt\n  iszero\n  tag_2\n  jumpi\n  0x00\n  dup1\n  revert\ntag_2:\n  dup2\n  add\n  swap1\n  dup1\n  dup1\n  mload\n  mload(0x40)\n  swap4\n  swap3\n  swap2\n  swap1\n  dup5\n  0x0100000000\n  dup3\n  gt\n  iszero\n  tag_3\n  jumpi\n  0x00\n  dup1\n  revert\ntag_3:\n  swap1\n  dup4\n  add\n  swap1\n  0x20\n  dup3\n  add\n  dup6\n  dup2\n  gt\n  iszero\n  tag_4\n  jumpi\n  0x00\n  dup1\n  revert\ntag_4:\n  dup3\n  mload\n  0x0100000000\n  dup2\n  gt\n  dup3\n  dup3\n  add\n  dup9\n  lt\n  or\n  iszero\n  tag_5\n  jumpi\n  0x00\n  dup1\n  revert\ntag_5:\n  dup3\n  mstore\n  pop\n  dup2\n  mload\n  0x20\n  swap2\n  dup3\n  add\n  swap3\n  swap1\n  swap2\n  add\n  swap1\n  dup1\n  dup4\n  dup4\n  0x00\ntag_6:\n  dup4\n  dup2\n  lt\n  iszero\n  tag_8\n  jumpi\n  dup2\n  dup2\n  add\n  mload\n  dup4\n  dup3\n  add\n  mstore\n  0x20\n  add\n  jump(tag_6)\ntag_8:\n  pop\n  pop\n  pop\n  pop\n  swap1\n  pop\n  swap1\n  dup2\n  add\n  swap1\n  0x1f\n  and\n  dup1\n  iszero\n  tag_9\n  jumpi\n  dup1\n  dup3\n  sub\n  dup1\n  mload\n  0x01\n  dup4\n  0x20\n  sub\n  0x0100\n  exp\n  sub\n  not\n  and\n  dup2\n  mstore\n  0x20\n  add\n  swap2\n  pop\ntag_9:\n  pop\n  0x40\n  mstore\n  0x20\n  add\n  dup1\n  mload\n  mload(0x40)\n  swap4\n  swap3\n  swap2\n  swap1\n  dup5\n  0x0100000000\n  dup3\n  gt\n  iszero\n  tag_10\n  jumpi\n  0x00\n  dup1\n  revert\ntag_10:\n  swap1\n  dup4\n  add\n  swap1\n  0x20\n  dup3\n  add\n  dup6\n  dup2\n  gt\n  iszero\n  tag_11\n  jumpi\n  0x00\n  dup1\n  revert\ntag_11:\n  dup3\n  mload\n  0x0100000000\n  dup2\n  gt\n  dup3\n  dup3\n  add\n  dup9\n  lt\n  or\n  iszero\n  tag_12\n  jumpi\n  0x00\n  dup1\n  revert\ntag_12:\n  dup3\n  mstore\n  pop\n  dup2\n  mload\n  0x20\n  swap2\n  dup3\n  add\n  swap3\n  swap1\n  swap2\n  add\n  swap1\n  dup1\n  dup4\n  dup4\n  0x00\ntag_13:\n  dup4\n  dup2\n  lt\n  iszero\n  tag_15\n  jumpi\n  dup2\n  dup2\n  add\n  mload\n  dup4\n  dup3\n  add\n  mstore\n  0x20\n  add\n  jump(tag_13)\ntag_15:\n  pop\n  pop\n  pop\n  pop\n  swap1\n  pop\n  swap1\n  dup2\n  add\n  swap1\n  0x1f\n  and\n  dup1\n  iszero\n  tag_16\n  jumpi\n  dup1\n  dup3\n  sub\n  dup1\n  mload\n  0x01\n  dup4\n  0x20\n  sub\n  0x0100\n  exp\n  sub\n  not\n  and\n  dup2\n  mstore\n  0x20\n  add\n  swap2\n  pop\ntag_16:\n  pop\n  0x40\n  swap1\n  dup2\n  mstore\n  0x20\n  dup3\n  dup2\n  add\n  mload\n  swap2\n  dup4\n  add\n  mload\n  0x60\n  dup5\n  add\n  mload\n  0x80\n  dup6\n  add\n  mload\n  0xa0\n  dup7\n  add\n  mload\n  0xc0\n  dup8\n  add\n  mload\n  0xe0\n  swap1\n  swap8\n  add\n  mload\n    /* \"contracts/Token.sol\":27146:27159  _name = _NAME */\n  dup12\n  mload\n    /* \"contracts/Token.sol\":26845:28237  constructor (\r... */\n  swap7\n  swap10\n  pop\n  swap4\n  swap8\n  pop\n  swap2\n  swap6\n  swap1\n  swap5\n  swap2\n  swap4\n  swap1\n  swap3\n  swap2\n    /* \"contracts/Token.sol\":27146:27159  _name = _NAME */\n  tag_19\n  swap2\n    /* \"contracts/Token.sol\":27146:27151  _name */\n  0x0c\n  swap2\n    /* \"contracts/Token.sol\":27146:27159  _name = _NAME */\n  swap1\n  dup13\n  add\n  swap1\n  tag_20\n  jump\t// in\ntag_19:\n  pop\n    /* \"contracts/Token.sol\":27170:27187  _symbol = _SYMBOL */\n  dup8\n  mload\n  tag_21\n  swap1\n    /* \"contracts/Token.sol\":27170:27177  _symbol */\n  0x0d\n  swap1\n    /* \"contracts/Token.sol\":27170:27187  _symbol = _SYMBOL */\n  0x20\n  dup12\n  add\n  swap1\n  tag_20\n  jump\t// in\ntag_21:\n  pop\n    /* \"contracts/Token.sol\":27218:27226  10 ** 18 */\n  0x0de0b6b3a7640000\n    /* \"contracts/Token.sol\":27208:27226  _supply * 10 ** 18 */\n  dup8\n  mul\n    /* \"contracts/Token.sol\":27198:27205  _tTotal */\n  0x09\n    /* \"contracts/Token.sol\":27198:27226  _tTotal = _supply * 10 ** 18 */\n  dup2\n  swap1\n  sstore\n  not(0x00)\n    /* \"contracts/Token.sol\":27208:27226  _supply * 10 ** 18 */\n  dup2\n    /* \"contracts/Token.sol\":27255:27268  MAX % _tTotal */\n  tag_22\n  jumpi\n  invalid\ntag_22:\n  mod\n    /* \"contracts/Token.sol\":27248:27269  MAX - (MAX % _tTotal) */\n  not\n    /* \"contracts/Token.sol\":27237:27244  _rTotal */\n  0x0a\n    /* \"contracts/Token.sol\":27237:27270  _rTotal = (MAX - (MAX % _tTotal)) */\n  dup2\n  dup2\n  sstore\n    /* \"contracts/Token.sol\":27281:27288  _taxFee */\n  0x0f\n    /* \"contracts/Token.sol\":27281:27297  _taxFee = _txFee */\n  dup9\n  swap1\n  sstore\n    /* \"contracts/Token.sol\":27308:27321  _liquidityFee */\n  0x11\n    /* \"contracts/Token.sol\":27308:27330  _liquidityFee = _lpFee */\n  dup8\n  swap1\n  sstore\n    /* \"contracts/Token.sol\":27341:27356  _previousTaxFee */\n  0x10\n    /* \"contracts/Token.sol\":27341:27365  _previousTaxFee = _txFee */\n  dup9\n  swap1\n  sstore\n    /* \"contracts/Token.sol\":27376:27397  _previousLiquidityFee */\n  0x12\n    /* \"contracts/Token.sol\":27376:27406  _previousLiquidityFee = _lpFee */\n  dup8\n  swap1\n  sstore\n    /* \"contracts/Token.sol\":27451:27460  _decimals */\n  sload(0x0e)\n    /* \"contracts/Token.sol\":27445:27460  10 ** _decimals */\n  swap1\n  exp\n    /* \"contracts/Token.sol\":27432:27460  _MAXAMOUNT * 10 ** _decimals */\n  dup6\n  dup2\n  mul\n    /* \"contracts/Token.sol\":27417:27429  _maxTxAmount */\n  0x14\n    /* \"contracts/Token.sol\":27417:27460  _maxTxAmount = _MAXAMOUNT * 10 ** _decimals */\n  sstore\n    /* \"contracts/Token.sol\":27503:27534  SELLMAXAMOUNT * 10 ** _decimals */\n  dup5\n  mul\n    /* \"contracts/Token.sol\":27471:27500  numTokensSellToAddToLiquidity */\n  0x15\n    /* \"contracts/Token.sol\":27471:27534  numTokensSellToAddToLiquidity = SELLMAXAMOUNT * 10 ** _decimals */\n  sstore\n  sub(shl(0xa0, 0x01), 0x01)\n    /* \"contracts/Token.sol\":27565:27584  _rOwned[tokenOwner] */\n  dup1\n  dup4\n  and\n    /* \"contracts/Token.sol\":25828:25829  0 */\n  0x00\n    /* \"contracts/Token.sol\":27565:27584  _rOwned[tokenOwner] */\n  swap1\n  dup2\n  mstore\n    /* \"contracts/Token.sol\":27565:27572  _rOwned */\n  0x03\n    /* \"contracts/Token.sol\":27565:27584  _rOwned[tokenOwner] */\n  0x20\n  swap1\n  dup2\n  mstore\n  0x40\n  swap2\n  dup3\n  swap1\n  keccak256\n    /* \"contracts/Token.sol\":27565:27594  _rOwned[tokenOwner] = _rTotal */\n  swap4\n  swap1\n  swap4\n  sstore\n    /* \"contracts/Token.sol\":27785:27811  _uniswapV2Router.factory() */\n  dup1\n  mload\n  shl(0xe0, 0xc45a0155)\n  dup2\n  mstore\n  swap1\n  mload\n    /* \"contracts/Token.sol\":27672:27685  routerAddress */\n  dup6\n  swap4\n    /* \"contracts/Token.sol\":27785:27809  _uniswapV2Router.factory */\n  swap3\n  dup5\n  and\n  swap3\n  0xc45a0155\n  swap3\n    /* \"contracts/Token.sol\":27785:27811  _uniswapV2Router.factory() */\n  0x04\n  dup1\n  dup3\n  add\n  swap4\n  swap2\n  dup3\n  swap1\n  sub\n  add\n  dup2\n    /* \"contracts/Token.sol\":27785:27809  _uniswapV2Router.factory */\n  dup7\n    /* \"contracts/Token.sol\":27785:27811  _uniswapV2Router.factory() */\n  dup1\n  extcodesize\n  iszero\n  dup1\n  iszero\n  tag_23\n  jumpi\n  0x00\n  dup1\n  revert\ntag_23:\n  pop\n  gas\n  staticcall\n  iszero\n  dup1\n  iszero\n  tag_25\n  jumpi\n  returndatasize\n  0x00\n  dup1\n  returndatacopy\n  revert(0x00, returndatasize)\ntag_25:\n  pop\n  pop\n  pop\n  pop\n  mload(0x40)\n  returndatasize\n  0x20\n  dup2\n  lt\n  iszero\n  tag_26\n  jumpi\n  0x00\n  dup1\n  revert\ntag_26:\n  pop\n  mload\n    /* \"contracts/Token.sol\":27853:27876  _uniswapV2Router.WETH() */\n  0x40\n  dup1\n  mload\n  shl(0xe3, 0x15ab88c9)\n  dup2\n  mstore\n  swap1\n  mload\n  sub(shl(0xa0, 0x01), 0x01)\n    /* \"contracts/Token.sol\":27767:27837  IUniswapV2Factory(_uniswapV2Router.factory())\r... */\n  swap3\n  dup4\n  and\n  swap3\n  0xc9c65396\n  swap3\n    /* \"contracts/Token.sol\":27846:27850  this */\n  address\n  swap3\n    /* \"contracts/Token.sol\":27853:27874  _uniswapV2Router.WETH */\n  swap2\n  dup7\n  and\n  swap2\n  0xad5c4648\n  swap2\n    /* \"contracts/Token.sol\":27853:27876  _uniswapV2Router.WETH() */\n  0x04\n  dup1\n  dup3\n  add\n  swap3\n    /* \"contracts/Token.sol\":27785:27811  _uniswapV2Router.factory() */\n  0x20\n  swap3\n    /* \"contracts/Token.sol\":27853:27876  _uniswapV2Router.WETH() */\n  swap1\n  swap2\n  swap1\n  dup3\n  swap1\n  sub\n  add\n  dup2\n    /* \"contracts/Token.sol\":27853:27874  _uniswapV2Router.WETH */\n  dup7\n    /* \"contracts/Token.sol\":27853:27876  _uniswapV2Router.WETH() */\n  dup1\n  extcodesize\n  iszero\n  dup1\n  iszero\n  tag_27\n  jumpi\n  0x00\n  dup1\n  revert\ntag_27:\n  pop\n  gas\n  staticcall\n  iszero\n  dup1\n  iszero\n  tag_29\n  jumpi\n  returndatasize\n  0x00\n  dup1\n  returndatacopy\n  revert(0x00, returndatasize)\ntag_29:\n  pop\n  pop\n  pop\n  pop\n  mload(0x40)\n  returndatasize\n  0x20\n  dup2\n  lt\n  iszero\n  tag_30\n  jumpi\n  0x00\n  dup1\n  revert\ntag_30:\n  pop\n  mload\n    /* \"contracts/Token.sol\":27767:27877  IUniswapV2Factory(_uniswapV2Router.factory())\r... */\n  0x40\n  dup1\n  mload\n  not(sub(shl(0xe0, 0x01), 0x01))\n  0xe0\n  dup7\n  swap1\n  shl\n  and\n  dup2\n  mstore\n  sub(shl(0xa0, 0x01), 0x01)\n  swap4\n  dup5\n  and\n  0x04\n  dup3\n  add\n  mstore\n  swap3\n  swap1\n  swap2\n  and\n  0x24\n  dup4\n  add\n  mstore\n  mload\n  0x44\n  dup1\n  dup4\n  add\n  swap3\n    /* \"contracts/Token.sol\":27853:27876  _uniswapV2Router.WETH() */\n  0x20\n  swap3\n    /* \"contracts/Token.sol\":27767:27877  IUniswapV2Factory(_uniswapV2Router.factory())\r... */\n  swap2\n  swap1\n  dup3\n  swap1\n  sub\n  add\n  dup2\n  0x00\n  dup8\n  dup1\n  extcodesize\n  iszero\n  dup1\n  iszero\n  tag_31\n  jumpi\n  0x00\n  dup1\n  revert\ntag_31:\n  pop\n  gas\n  call\n  iszero\n  dup1\n  iszero\n  tag_33\n  jumpi\n  returndatasize\n  0x00\n  dup1\n  returndatacopy\n  revert(0x00, returndatasize)\ntag_33:\n  pop\n  pop\n  pop\n  pop\n  mload(0x40)\n  returndatasize\n  0x20\n  dup2\n  lt\n  iszero\n  tag_34\n  jumpi\n  0x00\n  dup1\n  revert\ntag_34:\n  pop\n  mload\n  not(sub(shl(0x60, 0x01), 0x01))\n    /* \"contracts/Token.sol\":27751:27877  uniswapV2Pair = IUniswapV2Factory(_uniswapV2Router.factory())\r... */\n  0x60\n  swap2\n  dup3\n  shl\n  dup2\n  and\n  0xa0\n  mstore\n    /* \"contracts/Token.sol\":27941:27975  uniswapV2Router = _uniswapV2Router */\n  swap1\n  dup3\n  swap1\n  shl\n  and\n  0x80\n  mstore\n  sub(shl(0xa0, 0x01), 0x01)\n    /* \"contracts/Token.sol\":28048:28078  _isExcludedFromFee[tokenOwner] */\n  dup3\n  and\n  0x00\n  dup2\n  dup2\n  mstore\n    /* \"contracts/Token.sol\":28048:28066  _isExcludedFromFee */\n  0x06\n    /* \"contracts/Token.sol\":27767:27877  IUniswapV2Factory(_uniswapV2Router.factory())\r... */\n  0x20\n    /* \"contracts/Token.sol\":28048:28078  _isExcludedFromFee[tokenOwner] */\n  swap1\n  dup2\n  mstore\n  0x40\n  dup1\n  dup4\n  keccak256\n    /* \"contracts/Token.sol\":28048:28085  _isExcludedFromFee[tokenOwner] = true */\n  dup1\n  sload\n  not(0xff)\n  swap1\n  dup2\n  and\n    /* \"contracts/Token.sol\":28081:28085  true */\n  0x01\n    /* \"contracts/Token.sol\":28048:28085  _isExcludedFromFee[tokenOwner] = true */\n  swap1\n  dup2\n  or\n  swap1\n  swap3\n  sstore\n    /* \"contracts/Token.sol\":28123:28127  this */\n  address\n    /* \"contracts/Token.sol\":28096:28129  _isExcludedFromFee[address(this)] */\n  dup6\n  mstore\n  dup3\n  dup6\n  keccak256\n    /* \"contracts/Token.sol\":28096:28136  _isExcludedFromFee[address(this)] = true */\n  dup1\n  sload\n  swap1\n  swap2\n  and\n  swap1\n  swap2\n  or\n  swap1\n  sstore\n    /* \"contracts/Token.sol\":28153:28172  _owner = tokenOwner */\n  dup3\n  sload\n  not(sub(shl(0xa0, 0x01), 0x01))\n  and\n  dup5\n  or\n  dup4\n  sstore\n    /* \"contracts/Token.sol\":28221:28228  _tTotal */\n  sload(0x09)\n    /* \"contracts/Token.sol\":28188:28229  Transfer(address(0), tokenOwner, _tTotal) */\n  dup2\n  mload\n  swap1\n  dup2\n  mstore\n  swap1\n  mload\n  0xddf252ad1be2c89b69c2b068fc378daa952ba7f163c4a11628f55a4df523b3ef\n  swap3\n  swap2\n  dup2\n  swap1\n  sub\n  swap1\n  swap2\n  add\n  swap1\n  log3\n    /* \"contracts/Token.sol\":26845:28237  constructor (\r... */\n  pop\n  pop\n  pop\n  pop\n  pop\n  pop\n  pop\n  pop\n  pop\n  pop\n    /* \"contracts/Token.sol\":25339:44468  contract Token is Context, IERC20, Ownable {\r... */\n  jump(tag_35)\ntag_20:\n  dup3\n  dup1\n  sload\n  0x01\n  dup2\n  0x01\n  and\n  iszero\n  0x0100\n  mul\n  sub\n  and\n  0x02\n  swap1\n  div\n  swap1\n  0x00\n  mstore\n  keccak256(0x00, 0x20)\n  swap1\n  0x1f\n  add\n  0x20\n  swap1\n  div\n  dup2\n  add\n  swap3\n  dup3\n  0x1f\n  lt\n  tag_37\n  jumpi\n  dup1\n  mload\n  not(0xff)\n  and\n  dup4\n  dup1\n  add\n  or\n  dup6\n  sstore\n  jump(tag_39)\ntag_37:\n  dup3\n  dup1\n  add\n  0x01\n  add\n  dup6\n  sstore\n  dup3\n  iszero\n  tag_39\n  jumpi\n  swap2\n  dup3\n  add\ntag_38:\n  dup3\n  dup2\n  gt\n  iszero\n  tag_39\n  jumpi\n  dup3\n  mload\n  dup3\n  sstore\n  swap2\n  0x20\n  add\n  swap2\n  swap1\n  0x01\n  add\n  swap1\n  jump(tag_38)\ntag_39:\n  pop\n  tag_40\n  swap3\n  swap2\n  pop\n  tag_41\n  jump\t// in\ntag_40:\n  pop\n  swap1\n  jump\t// out\ntag_41:\ntag_42:\n  dup1\n  dup3\n  gt\n  iszero\n  tag_40\n  jumpi\n  0x00\n  dup2\n  sstore\n  0x01\n  add\n  jump(tag_42)\ntag_35:\n  shr(0x60, mload(0x80))\n  shr(0x60, mload(0xa0))\n  codecopy(0x00, dataOffset(sub_0), dataSize(sub_0))\n  assignImmutable(\"0xf17089ced8c0c2239e63f2bbb45b3ebcf864ae70eb1ca01545337030cdeed50a\")\n  assignImmutable(\"0x373ab5f6f5686eaf15420a778a209383e0ee0196a782fa3fd3ec96f326a92e6e\")\n  return(0x00, dataSize(sub_0))\nstop\n\nsub_0: assembly {\n        /* \"contracts/Token.sol\":25339:44468  contract Token is Context, IERC20, Ownable {\r... */\n      mstore(0x40, 0x80)\n      jumpi(tag_1, lt(calldatasize, 0x04))\n      shr(0xe0, calldataload(0x00))\n      dup1\n      0x061c82d0\n      eq\n      tag_3\n      jumpi\n      dup1\n      0x06fdde03\n      eq\n      tag_4\n      jumpi\n      dup1\n      0x095ea7b3\n      eq\n      tag_5\n      jumpi\n      dup1\n      0x13114a9d\n      eq\n      tag_6\n      jumpi\n      dup1\n      0x1694505e\n      eq\n      tag_7\n      jumpi\n      dup1\n      0x18160ddd\n      eq\n      tag_8\n      jumpi\n      dup1\n      0x23b872dd\n      eq\n      tag_9\n      jumpi\n      dup1\n      0x2d838119\n      eq\n      tag_10\n      jumpi\n      dup1\n      0x313ce567\n      eq\n      tag_11\n      jumpi\n      dup1\n      0x3685d419\n      eq\n      tag_12\n      jumpi\n      dup1\n      0x39509351\n      eq\n      tag_13\n      jumpi\n      dup1\n      0x3b124fe7\n      eq\n      tag_14\n      jumpi\n      dup1\n      0x3bd5d173\n      eq\n      tag_15\n      jumpi\n      dup1\n      0x437823ec\n      eq\n      tag_16\n      jumpi\n      dup1\n      0x4549b039\n      eq\n      tag_17\n      jumpi\n      dup1\n      0x48c54b9d\n      eq\n      tag_18\n      jumpi\n      dup1\n      0x49bd5a5e\n      eq\n      tag_19\n      jumpi\n      dup1\n      0x4a74bb02\n      eq\n      tag_20\n      jumpi\n      dup1\n      0x52390c02\n      eq\n      tag_21\n      jumpi\n      dup1\n      0x5342acb4\n      eq\n      tag_22\n      jumpi\n      dup1\n      0x6bc87c3a\n      eq\n      tag_23\n      jumpi\n      dup1\n      0x70a08231\n      eq\n      tag_24\n      jumpi\n      dup1\n      0x715018a6\n      eq\n      tag_25\n      jumpi\n      dup1\n      0x7d1db4a5\n      eq\n      tag_26\n      jumpi\n      dup1\n      0x88f82020\n      eq\n      tag_27\n      jumpi\n      dup1\n      0x8da5cb5b\n      eq\n      tag_28\n      jumpi\n      dup1\n      0x8ee88c53\n      eq\n      tag_29\n      jumpi\n      dup1\n      0x95d89b41\n      eq\n      tag_30\n      jumpi\n      dup1\n      0xa457c2d7\n      eq\n      tag_31\n      jumpi\n      dup1\n      0xa69df4b5\n      eq\n      tag_32\n      jumpi\n      dup1\n      0xa9059cbb\n      eq\n      tag_33\n      jumpi\n      dup1\n      0xb2bdfa7b\n      eq\n      tag_34\n      jumpi\n      dup1\n      0xb6c52324\n      eq\n      tag_35\n      jumpi\n      dup1\n      0xc49b9a80\n      eq\n      tag_36\n      jumpi\n      dup1\n      0xd12a7688\n      eq\n      tag_37\n      jumpi\n      dup1\n      0xd543dbeb\n      eq\n      tag_38\n      jumpi\n      dup1\n      0xdd467064\n      eq\n      tag_39\n      jumpi\n      dup1\n      0xdd62ed3e\n      eq\n      tag_40\n      jumpi\n      dup1\n      0xea2f0b37\n      eq\n      tag_41\n      jumpi\n      dup1\n      0xf0f165af\n      eq\n      tag_42\n      jumpi\n      dup1\n      0xf2fde38b\n      eq\n      tag_43\n      jumpi\n      jump(tag_2)\n    tag_1:\n      jumpi(tag_2, calldatasize)\n      stop\n    tag_2:\n      0x00\n      dup1\n      revert\n        /* \"contracts/Token.sol\":33310:33408  function setTaxFeePercent(uint256 taxFee) external onlyOwner() {\r... */\n    tag_3:\n      callvalue\n      dup1\n      iszero\n      tag_46\n      jumpi\n      0x00\n      dup1\n      revert\n    tag_46:\n      pop\n      tag_47\n      0x04\n      dup1\n      calldatasize\n      sub\n      0x20\n      dup2\n      lt\n      iszero\n      tag_48\n      jumpi\n      0x00\n      dup1\n      revert\n    tag_48:\n      pop\n      calldataload\n      tag_49\n      jump\t// in\n    tag_47:\n      stop\n        /* \"contracts/Token.sol\":28247:28330  function name() public view returns (string memory) {\r... */\n    tag_4:\n      callvalue\n      dup1\n      iszero\n      tag_50\n      jumpi\n      0x00\n      dup1\n      revert\n    tag_50:\n      pop\n      tag_51\n      tag_52\n      jump\t// in\n    tag_51:\n      0x40\n      dup1\n      mload\n      0x20\n      dup1\n      dup3\n      mstore\n      dup4\n      mload\n      dup2\n      dup4\n      add\n      mstore\n      dup4\n      mload\n      swap2\n      swap3\n      dup4\n      swap3\n      swap1\n      dup4\n      add\n      swap2\n      dup6\n      add\n      swap1\n      dup1\n      dup4\n      dup4\n      0x00\n    tag_53:\n      dup4\n      dup2\n      lt\n      iszero\n      tag_55\n      jumpi\n      dup2\n      dup2\n      add\n      mload\n      dup4\n      dup3\n      add\n      mstore\n      0x20\n      add\n      jump(tag_53)\n    tag_55:\n      pop\n      pop\n      pop\n      pop\n      swap1\n      pop\n      swap1\n      dup2\n      add\n      swap1\n      0x1f\n      and\n      dup1\n      iszero\n      tag_56\n      jumpi\n      dup1\n      dup3\n      sub\n      dup1\n      mload\n      0x01\n      dup4\n      0x20\n      sub\n      0x0100\n      exp\n      sub\n      not\n      and\n      dup2\n      mstore\n      0x20\n      add\n      swap2\n      pop\n    tag_56:\n      pop\n      swap3\n      pop\n      pop\n      pop\n      mload(0x40)\n      dup1\n      swap2\n      sub\n      swap1\n      return\n        /* \"contracts/Token.sol\":29161:29322  function approve(address spender, uint256 amount) public override returns (bool) {\r... */\n    tag_5:\n      callvalue\n      dup1\n      iszero\n      tag_57\n      jumpi\n      0x00\n      dup1\n      revert\n    tag_57:\n      pop\n      tag_58\n      0x04\n      dup1\n      calldatasize\n      sub\n      0x40\n      dup2\n      lt\n      iszero\n      tag_59\n      jumpi\n      0x00\n      dup1\n      revert\n    tag_59:\n      pop\n      sub(shl(0xa0, 0x01), 0x01)\n      dup2\n      calldataload\n      and\n      swap1\n      0x20\n      add\n      calldataload\n      tag_60\n      jump\t// in\n    tag_58:\n      0x40\n      dup1\n      mload\n      swap2\n      iszero\n      iszero\n      dup3\n      mstore\n      mload\n      swap1\n      dup2\n      swap1\n      sub\n      0x20\n      add\n      swap1\n      return\n        /* \"contracts/Token.sol\":30282:30369  function totalFees() public view returns (uint256) {\r... */\n    tag_6:\n      callvalue\n      dup1\n      iszero\n      tag_61\n      jumpi\n      0x00\n      dup1\n      revert\n    tag_61:\n      pop\n      tag_62\n      tag_63\n      jump\t// in\n    tag_62:\n      0x40\n      dup1\n      mload\n      swap2\n      dup3\n      mstore\n      mload\n      swap1\n      dup2\n      swap1\n      sub\n      0x20\n      add\n      swap1\n      return\n        /* \"contracts/Token.sol\":26180:26231  IUniswapV2Router02 public immutable uniswapV2Router */\n    tag_7:\n      callvalue\n      dup1\n      iszero\n      tag_64\n      jumpi\n      0x00\n      dup1\n      revert\n    tag_64:\n      pop\n      tag_65\n      tag_66\n      jump\t// in\n    tag_65:\n      0x40\n      dup1\n      mload\n      sub(shl(0xa0, 0x01), 0x01)\n      swap1\n      swap3\n      and\n      dup3\n      mstore\n      mload\n      swap1\n      dup2\n      swap1\n      sub\n      0x20\n      add\n      swap1\n      return\n        /* \"contracts/Token.sol\":28526:28621  function totalSupply() public view override returns (uint256) {\r... */\n    tag_8:\n      callvalue\n      dup1\n      iszero\n      tag_67\n      jumpi\n      0x00\n      dup1\n      revert\n    tag_67:\n      pop\n      tag_62\n      tag_69\n      jump\t// in\n        /* \"contracts/Token.sol\":29330:29643  function transferFrom(address sender, address recipient, uint256 amount) public override returns (bool) {\r... */\n    tag_9:\n      callvalue\n      dup1\n      iszero\n      tag_70\n      jumpi\n      0x00\n      dup1\n      revert\n    tag_70:\n      pop\n      tag_58\n      0x04\n      dup1\n      calldatasize\n      sub\n      0x60\n      dup2\n      lt\n      iszero\n      tag_72\n      jumpi\n      0x00\n      dup1\n      revert\n    tag_72:\n      pop\n      sub(shl(0xa0, 0x01), 0x01)\n      dup2\n      calldataload\n      dup2\n      and\n      swap2\n      0x20\n      dup2\n      add\n      calldataload\n      swap1\n      swap2\n      and\n      swap1\n      0x40\n      add\n      calldataload\n      tag_73\n      jump\t// in\n        /* \"contracts/Token.sol\":31206:31459  function tokenFromReflection(uint256 rAmount) public view returns(uint256) {\r... */\n    tag_10:\n      callvalue\n      dup1\n      iszero\n      tag_74\n      jumpi\n      0x00\n      dup1\n      revert\n    tag_74:\n      pop\n      tag_62\n      0x04\n      dup1\n      calldatasize\n      sub\n      0x20\n      dup2\n      lt\n      iszero\n      tag_76\n      jumpi\n      0x00\n      dup1\n      revert\n    tag_76:\n      pop\n      calldataload\n      tag_77\n      jump\t// in\n        /* \"contracts/Token.sol\":28433:28518  function decimals() public view returns (uint256) {\r... */\n    tag_11:\n      callvalue\n      dup1\n      iszero\n      tag_78\n      jumpi\n      0x00\n      dup1\n      revert\n    tag_78:\n      pop\n      tag_62\n      tag_80\n      jump\t// in\n        /* \"contracts/Token.sol\":31922:32401  function includeInReward(address account) external onlyOwner() {\r... */\n    tag_12:\n      callvalue\n      dup1\n      iszero\n      tag_81\n      jumpi\n      0x00\n      dup1\n      revert\n    tag_81:\n      pop\n      tag_47\n      0x04\n      dup1\n      calldatasize\n      sub\n      0x20\n      dup2\n      lt\n      iszero\n      tag_83\n      jumpi\n      0x00\n      dup1\n      revert\n    tag_83:\n      pop\n      calldataload\n      sub(shl(0xa0, 0x01), 0x01)\n      and\n      tag_84\n      jump\t// in\n        /* \"contracts/Token.sol\":29651:29869  function increaseAllowance(address spender, uint256 addedValue) public virtual returns (bool) {\r... */\n    tag_13:\n      callvalue\n      dup1\n      iszero\n      tag_85\n      jumpi\n      0x00\n      dup1\n      revert\n    tag_85:\n      pop\n      tag_58\n      0x04\n      dup1\n      calldatasize\n      sub\n      0x40\n      dup2\n      lt\n      iszero\n      tag_87\n      jumpi\n      0x00\n      dup1\n      revert\n    tag_87:\n      pop\n      sub(shl(0xa0, 0x01), 0x01)\n      dup2\n      calldataload\n      and\n      swap1\n      0x20\n      add\n      calldataload\n      tag_88\n      jump\t// in\n        /* \"contracts/Token.sol\":26026:26048  uint256 public _taxFee */\n    tag_14:\n      callvalue\n      dup1\n      iszero\n      tag_89\n      jumpi\n      0x00\n      dup1\n      revert\n    tag_89:\n      pop\n      tag_62\n      tag_91\n      jump\t// in\n        /* \"contracts/Token.sol\":30377:30754  function deliver(uint256 tAmount) public {\r... */\n    tag_15:\n      callvalue\n      dup1\n      iszero\n      tag_92\n      jumpi\n      0x00\n      dup1\n      revert\n    tag_92:\n      pop\n      tag_47\n      0x04\n      dup1\n      calldatasize\n      sub\n      0x20\n      dup2\n      lt\n      iszero\n      tag_94\n      jumpi\n      0x00\n      dup1\n      revert\n    tag_94:\n      pop\n      calldataload\n      tag_95\n      jump\t// in\n        /* \"contracts/Token.sol\":33065:33176  function excludeFromFee(address account) public onlyOwner {\r... */\n    tag_16:\n      callvalue\n      dup1\n      iszero\n      tag_96\n      jumpi\n      0x00\n      dup1\n      revert\n    tag_96:\n      pop\n      tag_47\n      0x04\n      dup1\n      calldatasize\n      sub\n      0x20\n      dup2\n      lt\n      iszero\n      tag_98\n      jumpi\n      0x00\n      dup1\n      revert\n    tag_98:\n      pop\n      calldataload\n      sub(shl(0xa0, 0x01), 0x01)\n      and\n      tag_99\n      jump\t// in\n        /* \"contracts/Token.sol\":30762:31198  function reflectionFromToken(uint256 tAmount, bool deductTransferFee) public view returns(uint256) {\r... */\n    tag_17:\n      callvalue\n      dup1\n      iszero\n      tag_100\n      jumpi\n      0x00\n      dup1\n      revert\n    tag_100:\n      pop\n      tag_62\n      0x04\n      dup1\n      calldatasize\n      sub\n      0x40\n      dup2\n      lt\n      iszero\n      tag_102\n      jumpi\n      0x00\n      dup1\n      revert\n    tag_102:\n      pop\n      dup1\n      calldataload\n      swap1\n      0x20\n      add\n      calldataload\n      iszero\n      iszero\n      tag_103\n      jump\t// in\n        /* \"contracts/Token.sol\":36611:36721  function claimTokens() public onlyOwner {\r... */\n    tag_18:\n      callvalue\n      dup1\n      iszero\n      tag_104\n      jumpi\n      0x00\n      dup1\n      revert\n    tag_104:\n      pop\n      tag_47\n      tag_106\n      jump\t// in\n        /* \"contracts/Token.sol\":26238:26276  address public immutable uniswapV2Pair */\n    tag_19:\n      callvalue\n      dup1\n      iszero\n      tag_107\n      jumpi\n      0x00\n      dup1\n      revert\n    tag_107:\n      pop\n      tag_65\n      tag_109\n      jump\t// in\n        /* \"contracts/Token.sol\":26317:26357  bool public swapAndLiquifyEnabled = true */\n    tag_20:\n      callvalue\n      dup1\n      iszero\n      tag_110\n      jumpi\n      0x00\n      dup1\n      revert\n    tag_110:\n      pop\n      tag_58\n      tag_112\n      jump\t// in\n        /* \"contracts/Token.sol\":31467:31914  function excludeFromReward(address account) public onlyOwner() {\r... */\n    tag_21:\n      callvalue\n      dup1\n      iszero\n      tag_113\n      jumpi\n      0x00\n      dup1\n      revert\n    tag_113:\n      pop\n      tag_47\n      0x04\n      dup1\n      calldatasize\n      sub\n      0x20\n      dup2\n      lt\n      iszero\n      tag_115\n      jumpi\n      0x00\n      dup1\n      revert\n    tag_115:\n      pop\n      calldataload\n      sub(shl(0xa0, 0x01), 0x01)\n      and\n      tag_116\n      jump\t// in\n        /* \"contracts/Token.sol\":37472:37595  function isExcludedFromFee(address account) public view returns(bool) {\r... */\n    tag_22:\n      callvalue\n      dup1\n      iszero\n      tag_117\n      jumpi\n      0x00\n      dup1\n      revert\n    tag_117:\n      pop\n      tag_58\n      0x04\n      dup1\n      calldatasize\n      sub\n      0x20\n      dup2\n      lt\n      iszero\n      tag_119\n      jumpi\n      0x00\n      dup1\n      revert\n    tag_119:\n      pop\n      calldataload\n      sub(shl(0xa0, 0x01), 0x01)\n      and\n      tag_120\n      jump\t// in\n        /* \"contracts/Token.sol\":26099:26127  uint256 public _liquidityFee */\n    tag_23:\n      callvalue\n      dup1\n      iszero\n      tag_121\n      jumpi\n      0x00\n      dup1\n      revert\n    tag_121:\n      pop\n      tag_62\n      tag_123\n      jump\t// in\n        /* \"contracts/Token.sol\":28629:28827  function balanceOf(address account) public view override returns (uint256) {\r... */\n    tag_24:\n      callvalue\n      dup1\n      iszero\n      tag_124\n      jumpi\n      0x00\n      dup1\n      revert\n    tag_124:\n      pop\n      tag_62\n      0x04\n      dup1\n      calldatasize\n      sub\n      0x20\n      dup2\n      lt\n      iszero\n      tag_126\n      jumpi\n      0x00\n      dup1\n      revert\n    tag_126:\n      pop\n      calldataload\n      sub(shl(0xa0, 0x01), 0x01)\n      and\n      tag_127\n      jump\t// in\n        /* \"contracts/Token.sol\":15934:16082  function renounceOwnership() public virtual onlyOwner {\r... */\n    tag_25:\n      callvalue\n      dup1\n      iszero\n      tag_128\n      jumpi\n      0x00\n      dup1\n      revert\n    tag_128:\n      pop\n      tag_47\n      tag_130\n      jump\t// in\n        /* \"contracts/Token.sol\":26370:26397  uint256 public _maxTxAmount */\n    tag_26:\n      callvalue\n      dup1\n      iszero\n      tag_131\n      jumpi\n      0x00\n      dup1\n      revert\n    tag_131:\n      pop\n      tag_62\n      tag_133\n      jump\t// in\n        /* \"contracts/Token.sol\":30154:30274  function isExcludedFromReward(address account) public view returns (bool) {\r... */\n    tag_27:\n      callvalue\n      dup1\n      iszero\n      tag_134\n      jumpi\n      0x00\n      dup1\n      revert\n    tag_134:\n      pop\n      tag_58\n      0x04\n      dup1\n      calldatasize\n      sub\n      0x20\n      dup2\n      lt\n      iszero\n      tag_136\n      jumpi\n      0x00\n      dup1\n      revert\n    tag_136:\n      pop\n      calldataload\n      sub(shl(0xa0, 0x01), 0x01)\n      and\n      tag_137\n      jump\t// in\n        /* \"contracts/Token.sol\":15291:15370  function owner() public view returns (address) {\r... */\n    tag_28:\n      callvalue\n      dup1\n      iszero\n      tag_138\n      jumpi\n      0x00\n      dup1\n      revert\n    tag_138:\n      pop\n      tag_65\n      tag_140\n      jump\t// in\n        /* \"contracts/Token.sol\":33420:33542  function setLiquidityFeePercent(uint256 liquidityFee) external onlyOwner() {\r... */\n    tag_29:\n      callvalue\n      dup1\n      iszero\n      tag_141\n      jumpi\n      0x00\n      dup1\n      revert\n    tag_141:\n      pop\n      tag_47\n      0x04\n      dup1\n      calldatasize\n      sub\n      0x20\n      dup2\n      lt\n      iszero\n      tag_143\n      jumpi\n      0x00\n      dup1\n      revert\n    tag_143:\n      pop\n      calldataload\n      tag_144\n      jump\t// in\n        /* \"contracts/Token.sol\":28338:28425  function symbol() public view returns (string memory) {\r... */\n    tag_30:\n      callvalue\n      dup1\n      iszero\n      tag_145\n      jumpi\n      0x00\n      dup1\n      revert\n    tag_145:\n      pop\n      tag_51\n      tag_147\n      jump\t// in\n        /* \"contracts/Token.sol\":29877:30146  function decreaseAllowance(address spender, uint256 subtractedValue) public virtual returns (bool) {\r... */\n    tag_31:\n      callvalue\n      dup1\n      iszero\n      tag_152\n      jumpi\n      0x00\n      dup1\n      revert\n    tag_152:\n      pop\n      tag_58\n      0x04\n      dup1\n      calldatasize\n      sub\n      0x40\n      dup2\n      lt\n      iszero\n      tag_154\n      jumpi\n      0x00\n      dup1\n      revert\n    tag_154:\n      pop\n      sub(shl(0xa0, 0x01), 0x01)\n      dup2\n      calldataload\n      and\n      swap1\n      0x20\n      add\n      calldataload\n      tag_155\n      jump\t// in\n        /* \"contracts/Token.sol\":16944:17237  function unlock() public virtual {\r... */\n    tag_32:\n      callvalue\n      dup1\n      iszero\n      tag_156\n      jumpi\n      0x00\n      dup1\n      revert\n    tag_156:\n      pop\n      tag_47\n      tag_158\n      jump\t// in\n        /* \"contracts/Token.sol\":28835:29002  function transfer(address recipient, uint256 amount) public override returns (bool) {\r... */\n    tag_33:\n      callvalue\n      dup1\n      iszero\n      tag_159\n      jumpi\n      0x00\n      dup1\n      revert\n    tag_159:\n      pop\n      tag_58\n      0x04\n      dup1\n      calldatasize\n      sub\n      0x40\n      dup2\n      lt\n      iszero\n      tag_161\n      jumpi\n      0x00\n      dup1\n      revert\n    tag_161:\n      pop\n      sub(shl(0xa0, 0x01), 0x01)\n      dup2\n      calldataload\n      and\n      swap1\n      0x20\n      add\n      calldataload\n      tag_162\n      jump\t// in\n        /* \"contracts/Token.sol\":15025:15046  address public _owner */\n    tag_34:\n      callvalue\n      dup1\n      iszero\n      tag_163\n      jumpi\n      0x00\n      dup1\n      revert\n    tag_163:\n      pop\n      tag_65\n      tag_165\n      jump\t// in\n        /* \"contracts/Token.sol\":16489:16578  function geUnlockTime() public view returns (uint256) {\r... */\n    tag_35:\n      callvalue\n      dup1\n      iszero\n      tag_166\n      jumpi\n      0x00\n      dup1\n      revert\n    tag_166:\n      pop\n      tag_62\n      tag_168\n      jump\t// in\n        /* \"contracts/Token.sol\":33860:34031  function setSwapAndLiquifyEnabled(bool _enabled) public onlyOwner {\r... */\n    tag_36:\n      callvalue\n      dup1\n      iszero\n      tag_169\n      jumpi\n      0x00\n      dup1\n      revert\n    tag_169:\n      pop\n      tag_47\n      0x04\n      dup1\n      calldatasize\n      sub\n      0x20\n      dup2\n      lt\n      iszero\n      tag_171\n      jumpi\n      0x00\n      dup1\n      revert\n    tag_171:\n      pop\n      calldataload\n      iszero\n      iszero\n      tag_172\n      jump\t// in\n        /* \"contracts/Token.sol\":26404:26448  uint256 public numTokensSellToAddToLiquidity */\n    tag_37:\n      callvalue\n      dup1\n      iszero\n      tag_173\n      jumpi\n      0x00\n      dup1\n      revert\n    tag_173:\n      pop\n      tag_62\n      tag_175\n      jump\t// in\n        /* \"contracts/Token.sol\":33723:33852  function setMaxTxPercent(uint256 maxTxPercent) public onlyOwner {\r... */\n    tag_38:\n      callvalue\n      dup1\n      iszero\n      tag_176\n      jumpi\n      0x00\n      dup1\n      revert\n    tag_176:\n      pop\n      tag_47\n      0x04\n      dup1\n      calldatasize\n      sub\n      0x20\n      dup2\n      lt\n      iszero\n      tag_178\n      jumpi\n      0x00\n      dup1\n      revert\n    tag_178:\n      pop\n      calldataload\n      tag_179\n      jump\t// in\n        /* \"contracts/Token.sol\":16654:16868  function lock(uint256 time) public virtual onlyOwner {\r... */\n    tag_39:\n      callvalue\n      dup1\n      iszero\n      tag_180\n      jumpi\n      0x00\n      dup1\n      revert\n    tag_180:\n      pop\n      tag_47\n      0x04\n      dup1\n      calldatasize\n      sub\n      0x20\n      dup2\n      lt\n      iszero\n      tag_182\n      jumpi\n      0x00\n      dup1\n      revert\n    tag_182:\n      pop\n      calldataload\n      tag_183\n      jump\t// in\n        /* \"contracts/Token.sol\":29010:29153  function allowance(address owner, address spender) public view override returns (uint256) {\r... */\n    tag_40:\n      callvalue\n      dup1\n      iszero\n      tag_184\n      jumpi\n      0x00\n      dup1\n      revert\n    tag_184:\n      pop\n      tag_62\n      0x04\n      dup1\n      calldatasize\n      sub\n      0x40\n      dup2\n      lt\n      iszero\n      tag_186\n      jumpi\n      0x00\n      dup1\n      revert\n    tag_186:\n      pop\n      sub(shl(0xa0, 0x01), 0x01)\n      dup2\n      calldataload\n      dup2\n      and\n      swap2\n      0x20\n      add\n      calldataload\n      and\n      tag_187\n      jump\t// in\n        /* \"contracts/Token.sol\":33188:33298  function includeInFee(address account) public onlyOwner {\r... */\n    tag_41:\n      callvalue\n      dup1\n      iszero\n      tag_188\n      jumpi\n      0x00\n      dup1\n      revert\n    tag_188:\n      pop\n      tag_47\n      0x04\n      dup1\n      calldatasize\n      sub\n      0x20\n      dup2\n      lt\n      iszero\n      tag_190\n      jumpi\n      0x00\n      dup1\n      revert\n    tag_190:\n      pop\n      calldataload\n      sub(shl(0xa0, 0x01), 0x01)\n      and\n      tag_191\n      jump\t// in\n        /* \"contracts/Token.sol\":33554:33712  function setNumTokensSellToAddToLiquidity(uint256 swapNumber) public onlyOwner {\r... */\n    tag_42:\n      callvalue\n      dup1\n      iszero\n      tag_192\n      jumpi\n      0x00\n      dup1\n      revert\n    tag_192:\n      pop\n      tag_47\n      0x04\n      dup1\n      calldatasize\n      sub\n      0x20\n      dup2\n      lt\n      iszero\n      tag_194\n      jumpi\n      0x00\n      dup1\n      revert\n    tag_194:\n      pop\n      calldataload\n      tag_195\n      jump\t// in\n        /* \"contracts/Token.sol\":16237:16481  function transferOwnership(address newOwner) public virtual onlyOwner {\r... */\n    tag_43:\n      callvalue\n      dup1\n      iszero\n      tag_196\n      jumpi\n      0x00\n      dup1\n      revert\n    tag_196:\n      pop\n      tag_47\n      0x04\n      dup1\n      calldatasize\n      sub\n      0x20\n      dup2\n      lt\n      iszero\n      tag_198\n      jumpi\n      0x00\n      dup1\n      revert\n    tag_198:\n      pop\n      calldataload\n      sub(shl(0xa0, 0x01), 0x01)\n      and\n      tag_199\n      jump\t// in\n        /* \"contracts/Token.sol\":33310:33408  function setTaxFeePercent(uint256 taxFee) external onlyOwner() {\r... */\n    tag_49:\n        /* \"contracts/Token.sol\":15513:15525  _msgSender() */\n      tag_201\n        /* \"contracts/Token.sol\":15513:15523  _msgSender */\n      tag_202\n        /* \"contracts/Token.sol\":15513:15525  _msgSender() */\n      jump\t// in\n    tag_201:\n        /* \"contracts/Token.sol\":15503:15509  _owner */\n      sload(0x00)\n      sub(shl(0xa0, 0x01), 0x01)\n      swap1\n      dup2\n      and\n        /* \"contracts/Token.sol\":15503:15525  _owner == _msgSender() */\n      swap2\n      and\n      eq\n        /* \"contracts/Token.sol\":15495:15562  require(_owner == _msgSender(), \"Ownable: caller is not the owner\") */\n      tag_203\n      jumpi\n      0x40\n      dup1\n      mload\n      shl(0xe5, 0x461bcd)\n      dup2\n      mstore\n      0x20\n      0x04\n      dup3\n      add\n      dup2\n      swap1\n      mstore\n      0x24\n      dup3\n      add\n      mstore\n      0x00\n      dup1\n      mload\n      0x20\n      data_9924ebdf1add33d25d4ef888e16131f0a5687b0580a36c21b5c301a6c462effe\n      dup4\n      codecopy\n      dup2\n      mload\n      swap2\n      mstore\n      0x44\n      dup3\n      add\n      mstore\n      swap1\n      mload\n      swap1\n      dup2\n      swap1\n      sub\n      0x64\n      add\n      swap1\n      revert\n    tag_203:\n        /* \"contracts/Token.sol\":33384:33391  _taxFee */\n      0x0f\n        /* \"contracts/Token.sol\":33384:33400  _taxFee = taxFee */\n      sstore\n        /* \"contracts/Token.sol\":33310:33408  function setTaxFeePercent(uint256 taxFee) external onlyOwner() {\r... */\n      jump\t// out\n        /* \"contracts/Token.sol\":28247:28330  function name() public view returns (string memory) {\r... */\n    tag_52:\n        /* \"contracts/Token.sol\":28317:28322  _name */\n      0x0c\n        /* \"contracts/Token.sol\":28310:28322  return _name */\n      dup1\n      sload\n      0x40\n      dup1\n      mload\n      0x20\n      0x1f\n      0x02\n      not(0x00)\n      0x0100\n      0x01\n      dup9\n      and\n      iszero\n      mul\n      add\n      swap1\n      swap6\n      and\n      swap5\n      swap1\n      swap5\n      div\n      swap4\n      dup5\n      add\n      dup2\n      swap1\n      div\n      dup2\n      mul\n      dup3\n      add\n      dup2\n      add\n      swap1\n      swap3\n      mstore\n      dup3\n      dup2\n      mstore\n        /* \"contracts/Token.sol\":28284:28297  string memory */\n      0x60\n      swap4\n        /* \"contracts/Token.sol\":28310:28322  return _name */\n      swap1\n      swap3\n        /* \"contracts/Token.sol\":28317:28322  _name */\n      swap1\n      swap2\n        /* \"contracts/Token.sol\":28310:28322  return _name */\n      dup4\n      add\n        /* \"contracts/Token.sol\":28317:28322  _name */\n      dup3\n        /* \"contracts/Token.sol\":28310:28322  return _name */\n      dup3\n      dup1\n      iszero\n      tag_206\n      jumpi\n      dup1\n      0x1f\n      lt\n      tag_207\n      jumpi\n      0x0100\n      dup1\n      dup4\n      sload\n      div\n      mul\n      dup4\n      mstore\n      swap2\n      0x20\n      add\n      swap2\n      jump(tag_206)\n    tag_207:\n      dup3\n      add\n      swap2\n      swap1\n      0x00\n      mstore\n      keccak256(0x00, 0x20)\n      swap1\n    tag_208:\n      dup2\n      sload\n      dup2\n      mstore\n      swap1\n      0x01\n      add\n      swap1\n      0x20\n      add\n      dup1\n      dup4\n      gt\n      tag_208\n      jumpi\n      dup3\n      swap1\n      sub\n      0x1f\n      and\n      dup3\n      add\n      swap2\n    tag_206:\n      pop\n      pop\n      pop\n      pop\n      pop\n      swap1\n      pop\n        /* \"contracts/Token.sol\":28247:28330  function name() public view returns (string memory) {\r... */\n      swap1\n      jump\t// out\n        /* \"contracts/Token.sol\":29161:29322  function approve(address spender, uint256 amount) public override returns (bool) {\r... */\n    tag_60:\n        /* \"contracts/Token.sol\":29236:29240  bool */\n      0x00\n        /* \"contracts/Token.sol\":29253:29292  _approve(_msgSender(), spender, amount) */\n      tag_210\n        /* \"contracts/Token.sol\":29262:29274  _msgSender() */\n      tag_211\n        /* \"contracts/Token.sol\":29262:29272  _msgSender */\n      tag_202\n        /* \"contracts/Token.sol\":29262:29274  _msgSender() */\n      jump\t// in\n    tag_211:\n        /* \"contracts/Token.sol\":29276:29283  spender */\n      dup5\n        /* \"contracts/Token.sol\":29285:29291  amount */\n      dup5\n        /* \"contracts/Token.sol\":29253:29261  _approve */\n      tag_212\n        /* \"contracts/Token.sol\":29253:29292  _approve(_msgSender(), spender, amount) */\n      jump\t// in\n    tag_210:\n      pop\n        /* \"contracts/Token.sol\":29310:29314  true */\n      0x01\n        /* \"contracts/Token.sol\":29161:29322  function approve(address spender, uint256 amount) public override returns (bool) {\r... */\n    tag_209:\n      swap3\n      swap2\n      pop\n      pop\n      jump\t// out\n        /* \"contracts/Token.sol\":30282:30369  function totalFees() public view returns (uint256) {\r... */\n    tag_63:\n        /* \"contracts/Token.sol\":30351:30361  _tFeeTotal */\n      sload(0x0b)\n        /* \"contracts/Token.sol\":30282:30369  function totalFees() public view returns (uint256) {\r... */\n      swap1\n      jump\t// out\n        /* \"contracts/Token.sol\":26180:26231  IUniswapV2Router02 public immutable uniswapV2Router */\n    tag_66:\n      immutable(\"0x373ab5f6f5686eaf15420a778a209383e0ee0196a782fa3fd3ec96f326a92e6e\")\n      dup2\n      jump\t// out\n        /* \"contracts/Token.sol\":28526:28621  function totalSupply() public view override returns (uint256) {\r... */\n    tag_69:\n        /* \"contracts/Token.sol\":28606:28613  _tTotal */\n      sload(0x09)\n        /* \"contracts/Token.sol\":28526:28621  function totalSupply() public view override returns (uint256) {\r... */\n      swap1\n      jump\t// out\n        /* \"contracts/Token.sol\":29330:29643  function transferFrom(address sender, address recipient, uint256 amount) public override returns (bool) {\r... */\n    tag_73:\n        /* \"contracts/Token.sol\":29428:29432  bool */\n      0x00\n        /* \"contracts/Token.sol\":29445:29481  _transfer(sender, recipient, amount) */\n      tag_216\n        /* \"contracts/Token.sol\":29455:29461  sender */\n      dup5\n        /* \"contracts/Token.sol\":29463:29472  recipient */\n      dup5\n        /* \"contracts/Token.sol\":29474:29480  amount */\n      dup5\n        /* \"contracts/Token.sol\":29445:29454  _transfer */\n      tag_217\n        /* \"contracts/Token.sol\":29445:29481  _transfer(sender, recipient, amount) */\n      jump\t// in\n    tag_216:\n        /* \"contracts/Token.sol\":29492:29613  _approve(sender, _msgSender(), _allowances[sender][_msgSender()].sub(amount, \"ERC20: transfer amount exceeds allowance\")) */\n      tag_218\n        /* \"contracts/Token.sol\":29501:29507  sender */\n      dup5\n        /* \"contracts/Token.sol\":29509:29521  _msgSender() */\n      tag_219\n        /* \"contracts/Token.sol\":29509:29519  _msgSender */\n      tag_202\n        /* \"contracts/Token.sol\":29509:29521  _msgSender() */\n      jump\t// in\n    tag_219:\n        /* \"contracts/Token.sol\":29523:29612  _allowances[sender][_msgSender()].sub(amount, \"ERC20: transfer amount exceeds allowance\") */\n      tag_220\n        /* \"contracts/Token.sol\":29561:29567  amount */\n      dup6\n        /* \"contracts/Token.sol\":29523:29612  _allowances[sender][_msgSender()].sub(amount, \"ERC20: transfer amount exceeds allowance\") */\n      mload(0x40)\n      dup1\n      0x60\n      add\n      0x40\n      mstore\n      dup1\n      0x28\n      dup2\n      mstore\n      0x20\n      add\n      data_974d1b4421da69cc60b481194f0dad36a5bb4e23da810da7a7fb30cdba178330\n      0x28\n      swap2\n      codecopy\n      sub(shl(0xa0, 0x01), 0x01)\n        /* \"contracts/Token.sol\":29523:29542  _allowances[sender] */\n      dup11\n      and\n      0x00\n      swap1\n      dup2\n      mstore\n        /* \"contracts/Token.sol\":29523:29534  _allowances */\n      0x05\n        /* \"contracts/Token.sol\":29523:29542  _allowances[sender] */\n      0x20\n      mstore\n      0x40\n      dup2\n      keccak256\n      swap1\n        /* \"contracts/Token.sol\":29543:29555  _msgSender() */\n      tag_221\n        /* \"contracts/Token.sol\":29543:29553  _msgSender */\n      tag_202\n        /* \"contracts/Token.sol\":29543:29555  _msgSender() */\n      jump\t// in\n    tag_221:\n      sub(shl(0xa0, 0x01), 0x01)\n        /* \"contracts/Token.sol\":29523:29556  _allowances[sender][_msgSender()] */\n      and\n      dup2\n      mstore\n      0x20\n      dup2\n      add\n      swap2\n      swap1\n      swap2\n      mstore\n      0x40\n      add\n      0x00\n      keccak256\n      sload\n      swap2\n        /* \"contracts/Token.sol\":29523:29612  _allowances[sender][_msgSender()].sub(amount, \"ERC20: transfer amount exceeds allowance\") */\n      swap1\n        /* \"contracts/Token.sol\":29523:29560  _allowances[sender][_msgSender()].sub */\n      tag_222\n        /* \"contracts/Token.sol\":29523:29612  _allowances[sender][_msgSender()].sub(amount, \"ERC20: transfer amount exceeds allowance\") */\n      jump\t// in\n    tag_220:\n        /* \"contracts/Token.sol\":29492:29500  _approve */\n      tag_212\n        /* \"contracts/Token.sol\":29492:29613  _approve(sender, _msgSender(), _allowances[sender][_msgSender()].sub(amount, \"ERC20: transfer amount exceeds allowance\")) */\n      jump\t// in\n    tag_218:\n      pop\n        /* \"contracts/Token.sol\":29631:29635  true */\n      0x01\n        /* \"contracts/Token.sol\":29330:29643  function transferFrom(address sender, address recipient, uint256 amount) public override returns (bool) {\r... */\n      swap4\n      swap3\n      pop\n      pop\n      pop\n      jump\t// out\n        /* \"contracts/Token.sol\":31206:31459  function tokenFromReflection(uint256 rAmount) public view returns(uint256) {\r... */\n    tag_77:\n        /* \"contracts/Token.sol\":31272:31279  uint256 */\n      0x00\n        /* \"contracts/Token.sol\":31311:31318  _rTotal */\n      sload(0x0a)\n        /* \"contracts/Token.sol\":31300:31307  rAmount */\n      dup3\n        /* \"contracts/Token.sol\":31300:31318  rAmount <= _rTotal */\n      gt\n      iszero\n        /* \"contracts/Token.sol\":31292:31365  require(rAmount <= _rTotal, \"Amount must be less than total reflections\") */\n      tag_224\n      jumpi\n      mload(0x40)\n      shl(0xe5, 0x461bcd)\n      dup2\n      mstore\n      0x04\n      add\n      dup1\n      dup1\n      0x20\n      add\n      dup3\n      dup2\n      sub\n      dup3\n      mstore\n      0x2a\n      dup2\n      mstore\n      0x20\n      add\n      dup1\n      data_22f7af55a509c3b14f0d528f087748dec8a8bf425135e3f5dc28c6a31ec6d812\n      0x2a\n      swap2\n      codecopy\n      0x40\n      add\n      swap2\n      pop\n      pop\n      mload(0x40)\n      dup1\n      swap2\n      sub\n      swap1\n      revert\n    tag_224:\n        /* \"contracts/Token.sol\":31376:31395  uint256 currentRate */\n      0x00\n        /* \"contracts/Token.sol\":31399:31409  _getRate() */\n      tag_225\n        /* \"contracts/Token.sol\":31399:31407  _getRate */\n      tag_226\n        /* \"contracts/Token.sol\":31399:31409  _getRate() */\n      jump\t// in\n    tag_225:\n        /* \"contracts/Token.sol\":31376:31409  uint256 currentRate =  _getRate() */\n      swap1\n      pop\n        /* \"contracts/Token.sol\":31427:31451  rAmount.div(currentRate) */\n      tag_227\n        /* \"contracts/Token.sol\":31427:31434  rAmount */\n      dup4\n        /* \"contracts/Token.sol\":31376:31409  uint256 currentRate =  _getRate() */\n      dup3\n        /* \"contracts/Token.sol\":31427:31438  rAmount.div */\n      tag_228\n        /* \"contracts/Token.sol\":31427:31451  rAmount.div(currentRate) */\n      jump\t// in\n    tag_227:\n        /* \"contracts/Token.sol\":31420:31451  return rAmount.div(currentRate) */\n      swap2\n      pop\n      pop\n        /* \"contracts/Token.sol\":31206:31459  function tokenFromReflection(uint256 rAmount) public view returns(uint256) {\r... */\n    tag_223:\n      swap2\n      swap1\n      pop\n      jump\t// out\n        /* \"contracts/Token.sol\":28433:28518  function decimals() public view returns (uint256) {\r... */\n    tag_80:\n        /* \"contracts/Token.sol\":28501:28510  _decimals */\n      sload(0x0e)\n        /* \"contracts/Token.sol\":28433:28518  function decimals() public view returns (uint256) {\r... */\n      swap1\n      jump\t// out\n        /* \"contracts/Token.sol\":31922:32401  function includeInReward(address account) external onlyOwner() {\r... */\n    tag_84:\n        /* \"contracts/Token.sol\":15513:15525  _msgSender() */\n      tag_231\n        /* \"contracts/Token.sol\":15513:15523  _msgSender */\n      tag_202\n        /* \"contracts/Token.sol\":15513:15525  _msgSender() */\n      jump\t// in\n    tag_231:\n        /* \"contracts/Token.sol\":15503:15509  _owner */\n      sload(0x00)\n      sub(shl(0xa0, 0x01), 0x01)\n      swap1\n      dup2\n      and\n        /* \"contracts/Token.sol\":15503:15525  _owner == _msgSender() */\n      swap2\n      and\n      eq\n        /* \"contracts/Token.sol\":15495:15562  require(_owner == _msgSender(), \"Ownable: caller is not the owner\") */\n      tag_232\n      jumpi\n      0x40\n      dup1\n      mload\n      shl(0xe5, 0x461bcd)\n      dup2\n      mstore\n      0x20\n      0x04\n      dup3\n      add\n      dup2\n      swap1\n      mstore\n      0x24\n      dup3\n      add\n      mstore\n      0x00\n      dup1\n      mload\n      0x20\n      data_9924ebdf1add33d25d4ef888e16131f0a5687b0580a36c21b5c301a6c462effe\n      dup4\n      codecopy\n      dup2\n      mload\n      swap2\n      mstore\n      0x44\n      dup3\n      add\n      mstore\n      swap1\n      mload\n      swap1\n      dup2\n      swap1\n      sub\n      0x64\n      add\n      swap1\n      revert\n    tag_232:\n      sub(shl(0xa0, 0x01), 0x01)\n        /* \"contracts/Token.sol\":32004:32024  _isExcluded[account] */\n      dup2\n      and\n      0x00\n      swap1\n      dup2\n      mstore\n        /* \"contracts/Token.sol\":32004:32015  _isExcluded */\n      0x07\n        /* \"contracts/Token.sol\":32004:32024  _isExcluded[account] */\n      0x20\n      mstore\n      0x40\n      swap1\n      keccak256\n      sload\n      0xff\n      and\n        /* \"contracts/Token.sol\":31996:32056  require(_isExcluded[account], \"Account is already excluded\") */\n      tag_234\n      jumpi\n      0x40\n      dup1\n      mload\n      shl(0xe5, 0x461bcd)\n      dup2\n      mstore\n      0x20\n      0x04\n      dup3\n      add\n      mstore\n      0x1b\n      0x24\n      dup3\n      add\n      mstore\n      shl(0x2a, 0x1058d8dbdd5b9d081a5cc8185b1c9958591e48195e18db1d591959)\n      0x44\n      dup3\n      add\n      mstore\n      swap1\n      mload\n      swap1\n      dup2\n      swap1\n      sub\n      0x64\n      add\n      swap1\n      revert\n    tag_234:\n        /* \"contracts/Token.sol\":32072:32081  uint256 i */\n      0x00\n        /* \"contracts/Token.sol\":32067:32394  for (uint256 i = 0; i < _excluded.length; i++) {\r... */\n    tag_235:\n        /* \"contracts/Token.sol\":32091:32100  _excluded */\n      0x08\n        /* \"contracts/Token.sol\":32091:32107  _excluded.length */\n      sload\n        /* \"contracts/Token.sol\":32087:32107  i < _excluded.length */\n      dup2\n      lt\n        /* \"contracts/Token.sol\":32067:32394  for (uint256 i = 0; i < _excluded.length; i++) {\r... */\n      iszero\n      tag_236\n      jumpi\n        /* \"contracts/Token.sol\":32149:32156  account */\n      dup2\n      sub(shl(0xa0, 0x01), 0x01)\n        /* \"contracts/Token.sol\":32133:32156  _excluded[i] == account */\n      and\n        /* \"contracts/Token.sol\":32133:32142  _excluded */\n      0x08\n        /* \"contracts/Token.sol\":32143:32144  i */\n      dup3\n        /* \"contracts/Token.sol\":32133:32145  _excluded[i] */\n      dup2\n      sload\n      dup2\n      lt\n      tag_238\n      jumpi\n      invalid\n    tag_238:\n      0x00\n      swap2\n      dup3\n      mstore\n      0x20\n      swap1\n      swap2\n      keccak256\n      add\n      sload\n      sub(shl(0xa0, 0x01), 0x01)\n      and\n        /* \"contracts/Token.sol\":32133:32156  _excluded[i] == account */\n      eq\n        /* \"contracts/Token.sol\":32129:32383  if (_excluded[i] == account) {\r... */\n      iszero\n      tag_240\n      jumpi\n        /* \"contracts/Token.sol\":32192:32201  _excluded */\n      0x08\n        /* \"contracts/Token.sol\":32202:32218  _excluded.length */\n      dup1\n      sload\n      not(0x00)\n        /* \"contracts/Token.sol\":32202:32222  _excluded.length - 1 */\n      dup2\n      add\n      swap1\n        /* \"contracts/Token.sol\":32192:32223  _excluded[_excluded.length - 1] */\n      dup2\n      lt\n      tag_241\n      jumpi\n      invalid\n    tag_241:\n      0x00\n      swap2\n      dup3\n      mstore\n      0x20\n      swap1\n      swap2\n      keccak256\n      add\n      sload\n        /* \"contracts/Token.sol\":32177:32186  _excluded */\n      0x08\n        /* \"contracts/Token.sol\":32177:32189  _excluded[i] */\n      dup1\n      sload\n      sub(shl(0xa0, 0x01), 0x01)\n        /* \"contracts/Token.sol\":32192:32223  _excluded[_excluded.length - 1] */\n      swap1\n      swap3\n      and\n      swap2\n        /* \"contracts/Token.sol\":32187:32188  i */\n      dup4\n      swap1\n        /* \"contracts/Token.sol\":32177:32189  _excluded[i] */\n      dup2\n      lt\n      tag_243\n      jumpi\n      invalid\n    tag_243:\n      0x00\n      swap2\n      dup3\n      mstore\n      0x20\n      dup1\n      dup4\n      keccak256\n      swap2\n      swap1\n      swap2\n      add\n        /* \"contracts/Token.sol\":32177:32223  _excluded[i] = _excluded[_excluded.length - 1] */\n      dup1\n      sload\n      not(sub(shl(0xa0, 0x01), 0x01))\n      and\n      sub(shl(0xa0, 0x01), 0x01)\n      swap5\n      dup6\n      and\n      or\n      swap1\n      sstore\n        /* \"contracts/Token.sol\":32242:32258  _tOwned[account] */\n      swap2\n      dup5\n      and\n      dup2\n      mstore\n        /* \"contracts/Token.sol\":32242:32249  _tOwned */\n      0x04\n        /* \"contracts/Token.sol\":32242:32258  _tOwned[account] */\n      dup3\n      mstore\n      0x40\n      dup1\n      dup3\n      keccak256\n        /* \"contracts/Token.sol\":32242:32262  _tOwned[account] = 0 */\n      dup3\n      swap1\n      sstore\n        /* \"contracts/Token.sol\":32281:32292  _isExcluded */\n      0x07\n        /* \"contracts/Token.sol\":32281:32301  _isExcluded[account] */\n      swap1\n      swap3\n      mstore\n      keccak256\n        /* \"contracts/Token.sol\":32281:32309  _isExcluded[account] = false */\n      dup1\n      sload\n      not(0xff)\n      and\n      swap1\n      sstore\n        /* \"contracts/Token.sol\":32328:32337  _excluded */\n      0x08\n        /* \"contracts/Token.sol\":32328:32343  _excluded.pop() */\n      dup1\n      sload\n      dup1\n      tag_245\n      jumpi\n      invalid\n    tag_245:\n      0x00\n      dup3\n      dup2\n      mstore\n      0x20\n      swap1\n      keccak256\n      dup2\n      add\n      not(0x00)\n      swap1\n      dup2\n      add\n      dup1\n      sload\n      not(sub(shl(0xa0, 0x01), 0x01))\n      and\n      swap1\n      sstore\n      add\n      swap1\n      sstore\n        /* \"contracts/Token.sol\":32362:32367  break */\n      jump(tag_236)\n        /* \"contracts/Token.sol\":32129:32383  if (_excluded[i] == account) {\r... */\n    tag_240:\n        /* \"contracts/Token.sol\":32109:32112  i++ */\n      0x01\n      add\n        /* \"contracts/Token.sol\":32067:32394  for (uint256 i = 0; i < _excluded.length; i++) {\r... */\n      jump(tag_235)\n    tag_236:\n      pop\n        /* \"contracts/Token.sol\":31922:32401  function includeInReward(address account) external onlyOwner() {\r... */\n      pop\n      jump\t// out\n        /* \"contracts/Token.sol\":29651:29869  function increaseAllowance(address spender, uint256 addedValue) public virtual returns (bool) {\r... */\n    tag_88:\n        /* \"contracts/Token.sol\":29739:29743  bool */\n      0x00\n        /* \"contracts/Token.sol\":29756:29839  _approve(_msgSender(), spender, _allowances[_msgSender()][spender].add(addedValue)) */\n      tag_210\n        /* \"contracts/Token.sol\":29765:29777  _msgSender() */\n      tag_249\n        /* \"contracts/Token.sol\":29765:29775  _msgSender */\n      tag_202\n        /* \"contracts/Token.sol\":29765:29777  _msgSender() */\n      jump\t// in\n    tag_249:\n        /* \"contracts/Token.sol\":29779:29786  spender */\n      dup5\n        /* \"contracts/Token.sol\":29788:29838  _allowances[_msgSender()][spender].add(addedValue) */\n      tag_220\n        /* \"contracts/Token.sol\":29827:29837  addedValue */\n      dup6\n        /* \"contracts/Token.sol\":29788:29799  _allowances */\n      0x05\n        /* \"contracts/Token.sol\":29788:29813  _allowances[_msgSender()] */\n      0x00\n        /* \"contracts/Token.sol\":29800:29812  _msgSender() */\n      tag_251\n        /* \"contracts/Token.sol\":29800:29810  _msgSender */\n      tag_202\n        /* \"contracts/Token.sol\":29800:29812  _msgSender() */\n      jump\t// in\n    tag_251:\n      sub(shl(0xa0, 0x01), 0x01)\n        /* \"contracts/Token.sol\":29788:29813  _allowances[_msgSender()] */\n      swap1\n      dup2\n      and\n      dup3\n      mstore\n      0x20\n      dup1\n      dup4\n      add\n      swap4\n      swap1\n      swap4\n      mstore\n      0x40\n      swap2\n      dup3\n      add\n      0x00\n      swap1\n      dup2\n      keccak256\n        /* \"contracts/Token.sol\":29788:29822  _allowances[_msgSender()][spender] */\n      swap2\n      dup13\n      and\n      dup2\n      mstore\n      swap3\n      mstore\n      swap1\n      keccak256\n      sload\n      swap1\n        /* \"contracts/Token.sol\":29788:29826  _allowances[_msgSender()][spender].add */\n      tag_252\n        /* \"contracts/Token.sol\":29788:29838  _allowances[_msgSender()][spender].add(addedValue) */\n      jump\t// in\n        /* \"contracts/Token.sol\":26026:26048  uint256 public _taxFee */\n    tag_91:\n      sload(0x0f)\n      dup2\n      jump\t// out\n        /* \"contracts/Token.sol\":30377:30754  function deliver(uint256 tAmount) public {\r... */\n    tag_95:\n        /* \"contracts/Token.sol\":30429:30443  address sender */\n      0x00\n        /* \"contracts/Token.sol\":30446:30458  _msgSender() */\n      tag_254\n        /* \"contracts/Token.sol\":30446:30456  _msgSender */\n      tag_202\n        /* \"contracts/Token.sol\":30446:30458  _msgSender() */\n      jump\t// in\n    tag_254:\n      sub(shl(0xa0, 0x01), 0x01)\n        /* \"contracts/Token.sol\":30478:30497  _isExcluded[sender] */\n      dup2\n      and\n      0x00\n      swap1\n      dup2\n      mstore\n        /* \"contracts/Token.sol\":30478:30489  _isExcluded */\n      0x07\n        /* \"contracts/Token.sol\":30478:30497  _isExcluded[sender] */\n      0x20\n      mstore\n      0x40\n      swap1\n      keccak256\n      sload\n        /* \"contracts/Token.sol\":30429:30458  address sender = _msgSender() */\n      swap1\n      swap2\n      pop\n        /* \"contracts/Token.sol\":30478:30497  _isExcluded[sender] */\n      0xff\n      and\n        /* \"contracts/Token.sol\":30477:30497  !_isExcluded[sender] */\n      iszero\n        /* \"contracts/Token.sol\":30469:30546  require(!_isExcluded[sender], \"Excluded addresses cannot call this function\") */\n      tag_255\n      jumpi\n      mload(0x40)\n      shl(0xe5, 0x461bcd)\n      dup2\n      mstore\n      0x04\n      add\n      dup1\n      dup1\n      0x20\n      add\n      dup3\n      dup2\n      sub\n      dup3\n      mstore\n      0x2c\n      dup2\n      mstore\n      0x20\n      add\n      dup1\n      data_ecefcaf5fbcf9ca6dcdb02298ba1da96f4ead317b0a4779917ecb2e5e7dc3ac4\n      0x2c\n      swap2\n      codecopy\n      0x40\n      add\n      swap2\n      pop\n      pop\n      mload(0x40)\n      dup1\n      swap2\n      sub\n      swap1\n      revert\n    tag_255:\n        /* \"contracts/Token.sol\":30558:30573  uint256 rAmount */\n      0x00\n        /* \"contracts/Token.sol\":30582:30601  _getValues(tAmount) */\n      tag_256\n        /* \"contracts/Token.sol\":30593:30600  tAmount */\n      dup4\n        /* \"contracts/Token.sol\":30582:30592  _getValues */\n      tag_257\n        /* \"contracts/Token.sol\":30582:30601  _getValues(tAmount) */\n      jump\t// in\n    tag_256:\n      pop\n      pop\n      pop\n      pop\n      sub(shl(0xa0, 0x01), 0x01)\n        /* \"contracts/Token.sol\":30630:30645  _rOwned[sender] */\n      dup5\n      and\n      0x00\n      swap1\n      dup2\n      mstore\n        /* \"contracts/Token.sol\":30630:30637  _rOwned */\n      0x03\n        /* \"contracts/Token.sol\":30630:30645  _rOwned[sender] */\n      0x20\n      mstore\n      0x40\n      swap1\n      keccak256\n      sload\n        /* \"contracts/Token.sol\":30557:30601  (uint256 rAmount,,,,,) = _getValues(tAmount) */\n      swap2\n      swap3\n      pop\n        /* \"contracts/Token.sol\":30630:30658  _rOwned[sender].sub(rAmount) */\n      tag_258\n      swap2\n        /* \"contracts/Token.sol\":30630:30645  _rOwned[sender] */\n      swap1\n      pop\n        /* \"contracts/Token.sol\":30557:30601  (uint256 rAmount,,,,,) = _getValues(tAmount) */\n      dup3\n        /* \"contracts/Token.sol\":30630:30649  _rOwned[sender].sub */\n      tag_259\n        /* \"contracts/Token.sol\":30630:30658  _rOwned[sender].sub(rAmount) */\n      jump\t// in\n    tag_258:\n      sub(shl(0xa0, 0x01), 0x01)\n        /* \"contracts/Token.sol\":30612:30627  _rOwned[sender] */\n      dup4\n      and\n      0x00\n      swap1\n      dup2\n      mstore\n        /* \"contracts/Token.sol\":30612:30619  _rOwned */\n      0x03\n        /* \"contracts/Token.sol\":30612:30627  _rOwned[sender] */\n      0x20\n      mstore\n      0x40\n      swap1\n      keccak256\n        /* \"contracts/Token.sol\":30612:30658  _rOwned[sender] = _rOwned[sender].sub(rAmount) */\n      sstore\n        /* \"contracts/Token.sol\":30679:30686  _rTotal */\n      sload(0x0a)\n        /* \"contracts/Token.sol\":30679:30699  _rTotal.sub(rAmount) */\n      tag_260\n      swap1\n        /* \"contracts/Token.sol\":30691:30698  rAmount */\n      dup3\n        /* \"contracts/Token.sol\":30679:30690  _rTotal.sub */\n      tag_259\n        /* \"contracts/Token.sol\":30679:30699  _rTotal.sub(rAmount) */\n      jump\t// in\n    tag_260:\n        /* \"contracts/Token.sol\":30669:30676  _rTotal */\n      0x0a\n        /* \"contracts/Token.sol\":30669:30699  _rTotal = _rTotal.sub(rAmount) */\n      sstore\n        /* \"contracts/Token.sol\":30723:30733  _tFeeTotal */\n      sload(0x0b)\n        /* \"contracts/Token.sol\":30723:30746  _tFeeTotal.add(tAmount) */\n      tag_261\n      swap1\n        /* \"contracts/Token.sol\":30738:30745  tAmount */\n      dup5\n        /* \"contracts/Token.sol\":30723:30737  _tFeeTotal.add */\n      tag_252\n        /* \"contracts/Token.sol\":30723:30746  _tFeeTotal.add(tAmount) */\n      jump\t// in\n    tag_261:\n        /* \"contracts/Token.sol\":30710:30720  _tFeeTotal */\n      0x0b\n        /* \"contracts/Token.sol\":30710:30746  _tFeeTotal = _tFeeTotal.add(tAmount) */\n      sstore\n      pop\n      pop\n      pop\n        /* \"contracts/Token.sol\":30377:30754  function deliver(uint256 tAmount) public {\r... */\n      jump\t// out\n        /* \"contracts/Token.sol\":33065:33176  function excludeFromFee(address account) public onlyOwner {\r... */\n    tag_99:\n        /* \"contracts/Token.sol\":15513:15525  _msgSender() */\n      tag_263\n        /* \"contracts/Token.sol\":15513:15523  _msgSender */\n      tag_202\n        /* \"contracts/Token.sol\":15513:15525  _msgSender() */\n      jump\t// in\n    tag_263:\n        /* \"contracts/Token.sol\":15503:15509  _owner */\n      sload(0x00)\n      sub(shl(0xa0, 0x01), 0x01)\n      swap1\n      dup2\n      and\n        /* \"contracts/Token.sol\":15503:15525  _owner == _msgSender() */\n      swap2\n      and\n      eq\n        /* \"contracts/Token.sol\":15495:15562  require(_owner == _msgSender(), \"Ownable: caller is not the owner\") */\n      tag_264\n      jumpi\n      0x40\n      dup1\n      mload\n      shl(0xe5, 0x461bcd)\n      dup2\n      mstore\n      0x20\n      0x04\n      dup3\n      add\n      dup2\n      swap1\n      mstore\n      0x24\n      dup3\n      add\n      mstore\n      0x00\n      dup1\n      mload\n      0x20\n      data_9924ebdf1add33d25d4ef888e16131f0a5687b0580a36c21b5c301a6c462effe\n      dup4\n      codecopy\n      dup2\n      mload\n      swap2\n      mstore\n      0x44\n      dup3\n      add\n      mstore\n      swap1\n      mload\n      swap1\n      dup2\n      swap1\n      sub\n      0x64\n      add\n      swap1\n      revert\n    tag_264:\n      sub(shl(0xa0, 0x01), 0x01)\n        /* \"contracts/Token.sol\":33134:33161  _isExcludedFromFee[account] */\n      and\n      0x00\n      swap1\n      dup2\n      mstore\n        /* \"contracts/Token.sol\":33134:33152  _isExcludedFromFee */\n      0x06\n        /* \"contracts/Token.sol\":33134:33161  _isExcludedFromFee[account] */\n      0x20\n      mstore\n      0x40\n      swap1\n      keccak256\n        /* \"contracts/Token.sol\":33134:33168  _isExcludedFromFee[account] = true */\n      dup1\n      sload\n      not(0xff)\n      and\n        /* \"contracts/Token.sol\":33164:33168  true */\n      0x01\n        /* \"contracts/Token.sol\":33134:33168  _isExcludedFromFee[account] = true */\n      or\n      swap1\n      sstore\n        /* \"contracts/Token.sol\":33065:33176  function excludeFromFee(address account) public onlyOwner {\r... */\n      jump\t// out\n        /* \"contracts/Token.sol\":30762:31198  function reflectionFromToken(uint256 tAmount, bool deductTransferFee) public view returns(uint256) {\r... */\n    tag_103:\n        /* \"contracts/Token.sol\":30852:30859  uint256 */\n      0x00\n        /* \"contracts/Token.sol\":30891:30898  _tTotal */\n      sload(0x09)\n        /* \"contracts/Token.sol\":30880:30887  tAmount */\n      dup4\n        /* \"contracts/Token.sol\":30880:30898  tAmount <= _tTotal */\n      gt\n      iszero\n        /* \"contracts/Token.sol\":30872:30934  require(tAmount <= _tTotal, \"Amount must be less than supply\") */\n      tag_267\n      jumpi\n      0x40\n      dup1\n      mload\n      shl(0xe5, 0x461bcd)\n      dup2\n      mstore\n      0x20\n      0x04\n      dup3\n      add\n      mstore\n      0x1f\n      0x24\n      dup3\n      add\n      mstore\n      0x416d6f756e74206d757374206265206c657373207468616e20737570706c7900\n      0x44\n      dup3\n      add\n      mstore\n      swap1\n      mload\n      swap1\n      dup2\n      swap1\n      sub\n      0x64\n      add\n      swap1\n      revert\n    tag_267:\n        /* \"contracts/Token.sol\":30950:30967  deductTransferFee */\n      dup2\n        /* \"contracts/Token.sol\":30945:31191  if (!deductTransferFee) {\r... */\n      tag_268\n      jumpi\n        /* \"contracts/Token.sol\":30985:31000  uint256 rAmount */\n      0x00\n        /* \"contracts/Token.sol\":31009:31028  _getValues(tAmount) */\n      tag_269\n        /* \"contracts/Token.sol\":31020:31027  tAmount */\n      dup5\n        /* \"contracts/Token.sol\":31009:31019  _getValues */\n      tag_257\n        /* \"contracts/Token.sol\":31009:31028  _getValues(tAmount) */\n      jump\t// in\n    tag_269:\n      pop\n        /* \"contracts/Token.sol\":30984:31028  (uint256 rAmount,,,,,) = _getValues(tAmount) */\n      swap4\n      swap6\n      pop\n        /* \"contracts/Token.sol\":31043:31057  return rAmount */\n      tag_209\n      swap5\n      pop\n      pop\n      pop\n      pop\n      pop\n      jump\n        /* \"contracts/Token.sol\":30945:31191  if (!deductTransferFee) {\r... */\n    tag_268:\n        /* \"contracts/Token.sol\":31092:31115  uint256 rTransferAmount */\n      0x00\n        /* \"contracts/Token.sol\":31123:31142  _getValues(tAmount) */\n      tag_271\n        /* \"contracts/Token.sol\":31134:31141  tAmount */\n      dup5\n        /* \"contracts/Token.sol\":31123:31133  _getValues */\n      tag_257\n        /* \"contracts/Token.sol\":31123:31142  _getValues(tAmount) */\n      jump\t// in\n    tag_271:\n      pop\n        /* \"contracts/Token.sol\":31090:31142  (,uint256 rTransferAmount,,,,) = _getValues(tAmount) */\n      swap3\n      swap6\n      pop\n        /* \"contracts/Token.sol\":31157:31179  return rTransferAmount */\n      tag_209\n      swap5\n      pop\n      pop\n      pop\n      pop\n      pop\n      jump\n        /* \"contracts/Token.sol\":36611:36721  function claimTokens() public onlyOwner {\r... */\n    tag_106:\n        /* \"contracts/Token.sol\":15513:15525  _msgSender() */\n      tag_273\n        /* \"contracts/Token.sol\":15513:15523  _msgSender */\n      tag_202\n        /* \"contracts/Token.sol\":15513:15525  _msgSender() */\n      jump\t// in\n    tag_273:\n        /* \"contracts/Token.sol\":15503:15509  _owner */\n      sload(0x00)\n      sub(shl(0xa0, 0x01), 0x01)\n      swap1\n      dup2\n      and\n        /* \"contracts/Token.sol\":15503:15525  _owner == _msgSender() */\n      swap2\n      and\n      eq\n        /* \"contracts/Token.sol\":15495:15562  require(_owner == _msgSender(), \"Ownable: caller is not the owner\") */\n      tag_274\n      jumpi\n      0x40\n      dup1\n      mload\n      shl(0xe5, 0x461bcd)\n      dup2\n      mstore\n      0x20\n      0x04\n      dup3\n      add\n      dup2\n      swap1\n      mstore\n      0x24\n      dup3\n      add\n      mstore\n      0x00\n      dup1\n      mload\n      0x20\n      data_9924ebdf1add33d25d4ef888e16131f0a5687b0580a36c21b5c301a6c462effe\n      dup4\n      codecopy\n      dup2\n      mload\n      swap2\n      mstore\n      0x44\n      dup3\n      add\n      mstore\n      swap1\n      mload\n      swap1\n      dup2\n      swap1\n      sub\n      0x64\n      add\n      swap1\n      revert\n    tag_274:\n        /* \"contracts/Token.sol\":36674:36680  _owner */\n      0x00\n      dup1\n      sload\n        /* \"contracts/Token.sol\":36666:36713  payable(_owner).transfer(address(this).balance) */\n      mload(0x40)\n      sub(shl(0xa0, 0x01), 0x01)\n        /* \"contracts/Token.sol\":36674:36680  _owner */\n      swap1\n      swap2\n      and\n      swap2\n        /* \"contracts/Token.sol\":36691:36712  address(this).balance */\n      selfbalance\n        /* \"contracts/Token.sol\":36666:36713  payable(_owner).transfer(address(this).balance) */\n      dup1\n      iszero\n      0x08fc\n      mul\n      swap3\n        /* \"contracts/Token.sol\":36691:36712  address(this).balance */\n      swap1\n      swap2\n        /* \"contracts/Token.sol\":36666:36713  payable(_owner).transfer(address(this).balance) */\n      dup2\n        /* \"contracts/Token.sol\":36674:36680  _owner */\n      dup2\n        /* \"contracts/Token.sol\":36666:36713  payable(_owner).transfer(address(this).balance) */\n      dup2\n        /* \"contracts/Token.sol\":36691:36712  address(this).balance */\n      dup6\n        /* \"contracts/Token.sol\":36674:36680  _owner */\n      dup9\n        /* \"contracts/Token.sol\":36666:36713  payable(_owner).transfer(address(this).balance) */\n      dup9\n      call\n      swap4\n      pop\n      pop\n      pop\n      pop\n      iszero\n      dup1\n      iszero\n      tag_277\n      jumpi\n      returndatasize\n      0x00\n      dup1\n      returndatacopy\n      revert(0x00, returndatasize)\n    tag_277:\n      pop\n        /* \"contracts/Token.sol\":36611:36721  function claimTokens() public onlyOwner {\r... */\n      jump\t// out\n        /* \"contracts/Token.sol\":26238:26276  address public immutable uniswapV2Pair */\n    tag_109:\n      immutable(\"0xf17089ced8c0c2239e63f2bbb45b3ebcf864ae70eb1ca01545337030cdeed50a\")\n      dup2\n      jump\t// out\n        /* \"contracts/Token.sol\":26317:26357  bool public swapAndLiquifyEnabled = true */\n    tag_112:\n      sload(0x13)\n      0x0100\n      swap1\n      div\n      0xff\n      and\n      dup2\n      jump\t// out\n        /* \"contracts/Token.sol\":31467:31914  function excludeFromReward(address account) public onlyOwner() {\r... */\n    tag_116:\n        /* \"contracts/Token.sol\":15513:15525  _msgSender() */\n      tag_279\n        /* \"contracts/Token.sol\":15513:15523  _msgSender */\n      tag_202\n        /* \"contracts/Token.sol\":15513:15525  _msgSender() */\n      jump\t// in\n    tag_279:\n        /* \"contracts/Token.sol\":15503:15509  _owner */\n      sload(0x00)\n      sub(shl(0xa0, 0x01), 0x01)\n      swap1\n      dup2\n      and\n        /* \"contracts/Token.sol\":15503:15525  _owner == _msgSender() */\n      swap2\n      and\n      eq\n        /* \"contracts/Token.sol\":15495:15562  require(_owner == _msgSender(), \"Ownable: caller is not the owner\") */\n      tag_280\n      jumpi\n      0x40\n      dup1\n      mload\n      shl(0xe5, 0x461bcd)\n      dup2\n      mstore\n      0x20\n      0x04\n      dup3\n      add\n      dup2\n      swap1\n      mstore\n      0x24\n      dup3\n      add\n      mstore\n      0x00\n      dup1\n      mload\n      0x20\n      data_9924ebdf1add33d25d4ef888e16131f0a5687b0580a36c21b5c301a6c462effe\n      dup4\n      codecopy\n      dup2\n      mload\n      swap2\n      mstore\n      0x44\n      dup3\n      add\n      mstore\n      swap1\n      mload\n      swap1\n      dup2\n      swap1\n      sub\n      0x64\n      add\n      swap1\n      revert\n    tag_280:\n      sub(shl(0xa0, 0x01), 0x01)\n        /* \"contracts/Token.sol\":31664:31684  _isExcluded[account] */\n      dup2\n      and\n      0x00\n      swap1\n      dup2\n      mstore\n        /* \"contracts/Token.sol\":31664:31675  _isExcluded */\n      0x07\n        /* \"contracts/Token.sol\":31664:31684  _isExcluded[account] */\n      0x20\n      mstore\n      0x40\n      swap1\n      keccak256\n      sload\n      0xff\n      and\n        /* \"contracts/Token.sol\":31663:31684  !_isExcluded[account] */\n      iszero\n        /* \"contracts/Token.sol\":31655:31716  require(!_isExcluded[account], \"Account is already excluded\") */\n      tag_282\n      jumpi\n      0x40\n      dup1\n      mload\n      shl(0xe5, 0x461bcd)\n      dup2\n      mstore\n      0x20\n      0x04\n      dup3\n      add\n      mstore\n      0x1b\n      0x24\n      dup3\n      add\n      mstore\n      shl(0x2a, 0x1058d8dbdd5b9d081a5cc8185b1c9958591e48195e18db1d591959)\n      0x44\n      dup3\n      add\n      mstore\n      swap1\n      mload\n      swap1\n      dup2\n      swap1\n      sub\n      0x64\n      add\n      swap1\n      revert\n    tag_282:\n      sub(shl(0xa0, 0x01), 0x01)\n        /* \"contracts/Token.sol\":31730:31746  _rOwned[account] */\n      dup2\n      and\n        /* \"contracts/Token.sol\":31749:31750  0 */\n      0x00\n        /* \"contracts/Token.sol\":31730:31746  _rOwned[account] */\n      swap1\n      dup2\n      mstore\n        /* \"contracts/Token.sol\":31730:31737  _rOwned */\n      0x03\n        /* \"contracts/Token.sol\":31730:31746  _rOwned[account] */\n      0x20\n      mstore\n      0x40\n      swap1\n      keccak256\n      sload\n        /* \"contracts/Token.sol\":31730:31750  _rOwned[account] > 0 */\n      iszero\n        /* \"contracts/Token.sol\":31727:31835  if(_rOwned[account] > 0) {\r... */\n      tag_283\n      jumpi\n      sub(shl(0xa0, 0x01), 0x01)\n        /* \"contracts/Token.sol\":31806:31822  _rOwned[account] */\n      dup2\n      and\n      0x00\n      swap1\n      dup2\n      mstore\n        /* \"contracts/Token.sol\":31806:31813  _rOwned */\n      0x03\n        /* \"contracts/Token.sol\":31806:31822  _rOwned[account] */\n      0x20\n      mstore\n      0x40\n      swap1\n      keccak256\n      sload\n        /* \"contracts/Token.sol\":31786:31823  tokenFromReflection(_rOwned[account]) */\n      tag_284\n      swap1\n        /* \"contracts/Token.sol\":31786:31805  tokenFromReflection */\n      tag_77\n        /* \"contracts/Token.sol\":31786:31823  tokenFromReflection(_rOwned[account]) */\n      jump\t// in\n    tag_284:\n      sub(shl(0xa0, 0x01), 0x01)\n        /* \"contracts/Token.sol\":31767:31783  _tOwned[account] */\n      dup3\n      and\n      0x00\n      swap1\n      dup2\n      mstore\n        /* \"contracts/Token.sol\":31767:31774  _tOwned */\n      0x04\n        /* \"contracts/Token.sol\":31767:31783  _tOwned[account] */\n      0x20\n      mstore\n      0x40\n      swap1\n      keccak256\n        /* \"contracts/Token.sol\":31767:31823  _tOwned[account] = tokenFromReflection(_rOwned[account]) */\n      sstore\n        /* \"contracts/Token.sol\":31727:31835  if(_rOwned[account] > 0) {\r... */\n    tag_283:\n      sub(shl(0xa0, 0x01), 0x01)\n        /* \"contracts/Token.sol\":31845:31865  _isExcluded[account] */\n      and\n      0x00\n      dup2\n      dup2\n      mstore\n        /* \"contracts/Token.sol\":31845:31856  _isExcluded */\n      0x07\n        /* \"contracts/Token.sol\":31845:31865  _isExcluded[account] */\n      0x20\n      mstore\n      0x40\n      dup2\n      keccak256\n        /* \"contracts/Token.sol\":31845:31872  _isExcluded[account] = true */\n      dup1\n      sload\n      not(0xff)\n      and\n        /* \"contracts/Token.sol\":31868:31872  true */\n      0x01\n        /* \"contracts/Token.sol\":31845:31872  _isExcluded[account] = true */\n      swap1\n      dup2\n      or\n      swap1\n      swap2\n      sstore\n        /* \"contracts/Token.sol\":31883:31892  _excluded */\n      0x08\n        /* \"contracts/Token.sol\":31883:31906  _excluded.push(account) */\n      dup1\n      sload\n      swap2\n      dup3\n      add\n      dup2\n      sstore\n      swap1\n      swap2\n      mstore\n      0xf3f7a9fe364faab93b216da50a3214154f22a0a2b415b23a84c8169e8b636ee3\n      add\n      dup1\n      sload\n      not(sub(shl(0xa0, 0x01), 0x01))\n      and\n      swap1\n      swap2\n      or\n      swap1\n      sstore\n        /* \"contracts/Token.sol\":31467:31914  function excludeFromReward(address account) public onlyOwner() {\r... */\n      jump\t// out\n        /* \"contracts/Token.sol\":37472:37595  function isExcludedFromFee(address account) public view returns(bool) {\r... */\n    tag_120:\n      sub(shl(0xa0, 0x01), 0x01)\n        /* \"contracts/Token.sol\":37560:37587  _isExcludedFromFee[account] */\n      and\n        /* \"contracts/Token.sol\":37536:37540  bool */\n      0x00\n        /* \"contracts/Token.sol\":37560:37587  _isExcludedFromFee[account] */\n      swap1\n      dup2\n      mstore\n        /* \"contracts/Token.sol\":37560:37578  _isExcludedFromFee */\n      0x06\n        /* \"contracts/Token.sol\":37560:37587  _isExcludedFromFee[account] */\n      0x20\n      mstore\n      0x40\n      swap1\n      keccak256\n      sload\n      0xff\n      and\n      swap1\n        /* \"contracts/Token.sol\":37472:37595  function isExcludedFromFee(address account) public view returns(bool) {\r... */\n      jump\t// out\n        /* \"contracts/Token.sol\":26099:26127  uint256 public _liquidityFee */\n    tag_123:\n      sload(0x11)\n      dup2\n      jump\t// out\n        /* \"contracts/Token.sol\":28629:28827  function balanceOf(address account) public view override returns (uint256) {\r... */\n    tag_127:\n      sub(shl(0xa0, 0x01), 0x01)\n        /* \"contracts/Token.sol\":28719:28739  _isExcluded[account] */\n      dup2\n      and\n        /* \"contracts/Token.sol\":28695:28702  uint256 */\n      0x00\n        /* \"contracts/Token.sol\":28719:28739  _isExcluded[account] */\n      swap1\n      dup2\n      mstore\n        /* \"contracts/Token.sol\":28719:28730  _isExcluded */\n      0x07\n        /* \"contracts/Token.sol\":28719:28739  _isExcluded[account] */\n      0x20\n      mstore\n      0x40\n      dup2\n      keccak256\n      sload\n      0xff\n      and\n        /* \"contracts/Token.sol\":28715:28764  if (_isExcluded[account]) return _tOwned[account] */\n      iszero\n      tag_288\n      jumpi\n      pop\n      sub(shl(0xa0, 0x01), 0x01)\n        /* \"contracts/Token.sol\":28748:28764  _tOwned[account] */\n      dup2\n      and\n      0x00\n      swap1\n      dup2\n      mstore\n        /* \"contracts/Token.sol\":28748:28755  _tOwned */\n      0x04\n        /* \"contracts/Token.sol\":28748:28764  _tOwned[account] */\n      0x20\n      mstore\n      0x40\n      swap1\n      keccak256\n      sload\n        /* \"contracts/Token.sol\":28741:28764  return _tOwned[account] */\n      jump(tag_223)\n        /* \"contracts/Token.sol\":28715:28764  if (_isExcluded[account]) return _tOwned[account] */\n    tag_288:\n      sub(shl(0xa0, 0x01), 0x01)\n        /* \"contracts/Token.sol\":28802:28818  _rOwned[account] */\n      dup3\n      and\n      0x00\n      swap1\n      dup2\n      mstore\n        /* \"contracts/Token.sol\":28802:28809  _rOwned */\n      0x03\n        /* \"contracts/Token.sol\":28802:28818  _rOwned[account] */\n      0x20\n      mstore\n      0x40\n      swap1\n      keccak256\n      sload\n        /* \"contracts/Token.sol\":28782:28819  tokenFromReflection(_rOwned[account]) */\n      tag_209\n      swap1\n        /* \"contracts/Token.sol\":28782:28801  tokenFromReflection */\n      tag_77\n        /* \"contracts/Token.sol\":28782:28819  tokenFromReflection(_rOwned[account]) */\n      jump\t// in\n        /* \"contracts/Token.sol\":15934:16082  function renounceOwnership() public virtual onlyOwner {\r... */\n    tag_130:\n        /* \"contracts/Token.sol\":15513:15525  _msgSender() */\n      tag_291\n        /* \"contracts/Token.sol\":15513:15523  _msgSender */\n      tag_202\n        /* \"contracts/Token.sol\":15513:15525  _msgSender() */\n      jump\t// in\n    tag_291:\n        /* \"contracts/Token.sol\":15503:15509  _owner */\n      sload(0x00)\n      sub(shl(0xa0, 0x01), 0x01)\n      swap1\n      dup2\n      and\n        /* \"contracts/Token.sol\":15503:15525  _owner == _msgSender() */\n      swap2\n      and\n      eq\n        /* \"contracts/Token.sol\":15495:15562  require(_owner == _msgSender(), \"Ownable: caller is not the owner\") */\n      tag_292\n      jumpi\n      0x40\n      dup1\n      mload\n      shl(0xe5, 0x461bcd)\n      dup2\n      mstore\n      0x20\n      0x04\n      dup3\n      add\n      dup2\n      swap1\n      mstore\n      0x24\n      dup3\n      add\n      mstore\n      0x00\n      dup1\n      mload\n      0x20\n      data_9924ebdf1add33d25d4ef888e16131f0a5687b0580a36c21b5c301a6c462effe\n      dup4\n      codecopy\n      dup2\n      mload\n      swap2\n      mstore\n      0x44\n      dup3\n      add\n      mstore\n      swap1\n      mload\n      swap1\n      dup2\n      swap1\n      sub\n      0x64\n      add\n      swap1\n      revert\n    tag_292:\n        /* \"contracts/Token.sol\":16041:16042  0 */\n      0x00\n        /* \"contracts/Token.sol\":16025:16031  _owner */\n      dup1\n      sload\n        /* \"contracts/Token.sol\":16004:16044  OwnershipTransferred(_owner, address(0)) */\n      mload(0x40)\n      sub(shl(0xa0, 0x01), 0x01)\n        /* \"contracts/Token.sol\":16025:16031  _owner */\n      swap1\n      swap2\n      and\n      swap1\n      0x00\n      dup1\n      mload\n      0x20\n      data_9c064737b570a74c2bac5d21056d93ac53115214216cd14d4a0fc9b60be81231\n      dup4\n      codecopy\n      dup2\n      mload\n      swap2\n      mstore\n        /* \"contracts/Token.sol\":16004:16044  OwnershipTransferred(_owner, address(0)) */\n      swap1\n        /* \"contracts/Token.sol\":16041:16042  0 */\n      dup4\n      swap1\n        /* \"contracts/Token.sol\":16004:16044  OwnershipTransferred(_owner, address(0)) */\n      log3\n        /* \"contracts/Token.sol\":16072:16073  0 */\n      0x00\n        /* \"contracts/Token.sol\":16055:16074  _owner = address(0) */\n      dup1\n      sload\n      not(sub(shl(0xa0, 0x01), 0x01))\n      and\n      swap1\n      sstore\n        /* \"contracts/Token.sol\":15934:16082  function renounceOwnership() public virtual onlyOwner {\r... */\n      jump\t// out\n        /* \"contracts/Token.sol\":26370:26397  uint256 public _maxTxAmount */\n    tag_133:\n      sload(0x14)\n      dup2\n      jump\t// out\n        /* \"contracts/Token.sol\":30154:30274  function isExcludedFromReward(address account) public view returns (bool) {\r... */\n    tag_137:\n      sub(shl(0xa0, 0x01), 0x01)\n        /* \"contracts/Token.sol\":30246:30266  _isExcluded[account] */\n      and\n        /* \"contracts/Token.sol\":30222:30226  bool */\n      0x00\n        /* \"contracts/Token.sol\":30246:30266  _isExcluded[account] */\n      swap1\n      dup2\n      mstore\n        /* \"contracts/Token.sol\":30246:30257  _isExcluded */\n      0x07\n        /* \"contracts/Token.sol\":30246:30266  _isExcluded[account] */\n      0x20\n      mstore\n      0x40\n      swap1\n      keccak256\n      sload\n      0xff\n      and\n      swap1\n        /* \"contracts/Token.sol\":30154:30274  function isExcludedFromReward(address account) public view returns (bool) {\r... */\n      jump\t// out\n        /* \"contracts/Token.sol\":15291:15370  function owner() public view returns (address) {\r... */\n    tag_140:\n        /* \"contracts/Token.sol\":15329:15336  address */\n      0x00\n        /* \"contracts/Token.sol\":15356:15362  _owner */\n      sload\n      sub(shl(0xa0, 0x01), 0x01)\n      and\n        /* \"contracts/Token.sol\":15291:15370  function owner() public view returns (address) {\r... */\n      swap1\n      jump\t// out\n        /* \"contracts/Token.sol\":33420:33542  function setLiquidityFeePercent(uint256 liquidityFee) external onlyOwner() {\r... */\n    tag_144:\n        /* \"contracts/Token.sol\":15513:15525  _msgSender() */\n      tag_297\n        /* \"contracts/Token.sol\":15513:15523  _msgSender */\n      tag_202\n        /* \"contracts/Token.sol\":15513:15525  _msgSender() */\n      jump\t// in\n    tag_297:\n        /* \"contracts/Token.sol\":15503:15509  _owner */\n      sload(0x00)\n      sub(shl(0xa0, 0x01), 0x01)\n      swap1\n      dup2\n      and\n        /* \"contracts/Token.sol\":15503:15525  _owner == _msgSender() */\n      swap2\n      and\n      eq\n        /* \"contracts/Token.sol\":15495:15562  require(_owner == _msgSender(), \"Ownable: caller is not the owner\") */\n      tag_298\n      jumpi\n      0x40\n      dup1\n      mload\n      shl(0xe5, 0x461bcd)\n      dup2\n      mstore\n      0x20\n      0x04\n      dup3\n      add\n      dup2\n      swap1\n      mstore\n      0x24\n      dup3\n      add\n      mstore\n      0x00\n      dup1\n      mload\n      0x20\n      data_9924ebdf1add33d25d4ef888e16131f0a5687b0580a36c21b5c301a6c462effe\n      dup4\n      codecopy\n      dup2\n      mload\n      swap2\n      mstore\n      0x44\n      dup3\n      add\n      mstore\n      swap1\n      mload\n      swap1\n      dup2\n      swap1\n      sub\n      0x64\n      add\n      swap1\n      revert\n    tag_298:\n        /* \"contracts/Token.sol\":33506:33519  _liquidityFee */\n      0x11\n        /* \"contracts/Token.sol\":33506:33534  _liquidityFee = liquidityFee */\n      sstore\n        /* \"contracts/Token.sol\":33420:33542  function setLiquidityFeePercent(uint256 liquidityFee) external onlyOwner() {\r... */\n      jump\t// out\n        /* \"contracts/Token.sol\":28338:28425  function symbol() public view returns (string memory) {\r... */\n    tag_147:\n        /* \"contracts/Token.sol\":28410:28417  _symbol */\n      0x0d\n        /* \"contracts/Token.sol\":28403:28417  return _symbol */\n      dup1\n      sload\n      0x40\n      dup1\n      mload\n      0x20\n      0x1f\n      0x02\n      not(0x00)\n      0x0100\n      0x01\n      dup9\n      and\n      iszero\n      mul\n      add\n      swap1\n      swap6\n      and\n      swap5\n      swap1\n      swap5\n      div\n      swap4\n      dup5\n      add\n      dup2\n      swap1\n      div\n      dup2\n      mul\n      dup3\n      add\n      dup2\n      add\n      swap1\n      swap3\n      mstore\n      dup3\n      dup2\n      mstore\n        /* \"contracts/Token.sol\":28377:28390  string memory */\n      0x60\n      swap4\n        /* \"contracts/Token.sol\":28403:28417  return _symbol */\n      swap1\n      swap3\n        /* \"contracts/Token.sol\":28410:28417  _symbol */\n      swap1\n      swap2\n        /* \"contracts/Token.sol\":28403:28417  return _symbol */\n      dup4\n      add\n        /* \"contracts/Token.sol\":28410:28417  _symbol */\n      dup3\n        /* \"contracts/Token.sol\":28403:28417  return _symbol */\n      dup3\n      dup1\n      iszero\n      tag_206\n      jumpi\n      dup1\n      0x1f\n      lt\n      tag_207\n      jumpi\n      0x0100\n      dup1\n      dup4\n      sload\n      div\n      mul\n      dup4\n      mstore\n      swap2\n      0x20\n      add\n      swap2\n      jump(tag_206)\n        /* \"contracts/Token.sol\":29877:30146  function decreaseAllowance(address spender, uint256 subtractedValue) public virtual returns (bool) {\r... */\n    tag_155:\n        /* \"contracts/Token.sol\":29970:29974  bool */\n      0x00\n        /* \"contracts/Token.sol\":29987:30116  _approve(_msgSender(), spender, _allowances[_msgSender()][spender].sub(subtractedValue, \"ERC20: decreased allowance below zero\")) */\n      tag_210\n        /* \"contracts/Token.sol\":29996:30008  _msgSender() */\n      tag_306\n        /* \"contracts/Token.sol\":29996:30006  _msgSender */\n      tag_202\n        /* \"contracts/Token.sol\":29996:30008  _msgSender() */\n      jump\t// in\n    tag_306:\n        /* \"contracts/Token.sol\":30010:30017  spender */\n      dup5\n        /* \"contracts/Token.sol\":30019:30115  _allowances[_msgSender()][spender].sub(subtractedValue, \"ERC20: decreased allowance below zero\") */\n      tag_220\n        /* \"contracts/Token.sol\":30058:30073  subtractedValue */\n      dup6\n        /* \"contracts/Token.sol\":30019:30115  _allowances[_msgSender()][spender].sub(subtractedValue, \"ERC20: decreased allowance below zero\") */\n      mload(0x40)\n      dup1\n      0x60\n      add\n      0x40\n      mstore\n      dup1\n      0x25\n      dup2\n      mstore\n      0x20\n      add\n      data_f8b476f7d28209d77d4a4ac1fe36b9f8259aa1bb6bddfa6e89de7e51615cf8a8\n      0x25\n      swap2\n      codecopy\n        /* \"contracts/Token.sol\":30019:30030  _allowances */\n      0x05\n        /* \"contracts/Token.sol\":30019:30044  _allowances[_msgSender()] */\n      0x00\n        /* \"contracts/Token.sol\":30031:30043  _msgSender() */\n      tag_308\n        /* \"contracts/Token.sol\":30031:30041  _msgSender */\n      tag_202\n        /* \"contracts/Token.sol\":30031:30043  _msgSender() */\n      jump\t// in\n    tag_308:\n      sub(shl(0xa0, 0x01), 0x01)\n        /* \"contracts/Token.sol\":30019:30044  _allowances[_msgSender()] */\n      swap1\n      dup2\n      and\n      dup3\n      mstore\n      0x20\n      dup1\n      dup4\n      add\n      swap4\n      swap1\n      swap4\n      mstore\n      0x40\n      swap2\n      dup3\n      add\n      0x00\n      swap1\n      dup2\n      keccak256\n        /* \"contracts/Token.sol\":30019:30053  _allowances[_msgSender()][spender] */\n      swap2\n      dup14\n      and\n      dup2\n      mstore\n      swap3\n      mstore\n      swap1\n      keccak256\n      sload\n      swap2\n        /* \"contracts/Token.sol\":30019:30115  _allowances[_msgSender()][spender].sub(subtractedValue, \"ERC20: decreased allowance below zero\") */\n      swap1\n        /* \"contracts/Token.sol\":30019:30057  _allowances[_msgSender()][spender].sub */\n      tag_222\n        /* \"contracts/Token.sol\":30019:30115  _allowances[_msgSender()][spender].sub(subtractedValue, \"ERC20: decreased allowance below zero\") */\n      jump\t// in\n        /* \"contracts/Token.sol\":16944:17237  function unlock() public virtual {\r... */\n    tag_158:\n        /* \"contracts/Token.sol\":16996:17010  _previousOwner */\n      and(sub(shl(0xa0, 0x01), 0x01), sload(0x01))\n        /* \"contracts/Token.sol\":17014:17024  msg.sender */\n      caller\n        /* \"contracts/Token.sol\":16996:17024  _previousOwner == msg.sender */\n      eq\n        /* \"contracts/Token.sol\":16988:17064  require(_previousOwner == msg.sender, \"You don't have permission to unlock\") */\n      tag_310\n      jumpi\n      mload(0x40)\n      shl(0xe5, 0x461bcd)\n      dup2\n      mstore\n      0x04\n      add\n      dup1\n      dup1\n      0x20\n      add\n      dup3\n      dup2\n      sub\n      dup3\n      mstore\n      0x23\n      dup2\n      mstore\n      0x20\n      add\n      dup1\n      data_f4eb59be3df39931213d374c3658377dca3f0d2b46b7bc965af767c57c74b611\n      0x23\n      swap2\n      codecopy\n      0x40\n      add\n      swap2\n      pop\n      pop\n      mload(0x40)\n      dup1\n      swap2\n      sub\n      swap1\n      revert\n    tag_310:\n        /* \"contracts/Token.sol\":17089:17098  _lockTime */\n      sload(0x02)\n        /* \"contracts/Token.sol\":17083:17086  now */\n      timestamp\n        /* \"contracts/Token.sol\":17083:17098  now > _lockTime */\n      gt\n        /* \"contracts/Token.sol\":17075:17135  require(now > _lockTime , \"Contract is locked until 7 days\") */\n      tag_311\n      jumpi\n      0x40\n      dup1\n      mload\n      shl(0xe5, 0x461bcd)\n      dup2\n      mstore\n      0x20\n      0x04\n      dup3\n      add\n      mstore\n      0x1f\n      0x24\n      dup3\n      add\n      mstore\n      0x436f6e7472616374206973206c6f636b656420756e74696c2037206461797300\n      0x44\n      dup3\n      add\n      mstore\n      swap1\n      mload\n      swap1\n      dup2\n      swap1\n      sub\n      0x64\n      add\n      swap1\n      revert\n    tag_311:\n        /* \"contracts/Token.sol\":17180:17194  _previousOwner */\n      sload(0x01)\n      0x00\n        /* \"contracts/Token.sol\":17172:17178  _owner */\n      dup1\n      sload\n        /* \"contracts/Token.sol\":17151:17195  OwnershipTransferred(_owner, _previousOwner) */\n      mload(0x40)\n      sub(shl(0xa0, 0x01), 0x01)\n        /* \"contracts/Token.sol\":17180:17194  _previousOwner */\n      swap4\n      dup5\n      and\n      swap4\n        /* \"contracts/Token.sol\":17172:17178  _owner */\n      swap1\n      swap2\n      and\n      swap2\n      0x00\n      dup1\n      mload\n      0x20\n      data_9c064737b570a74c2bac5d21056d93ac53115214216cd14d4a0fc9b60be81231\n      dup4\n      codecopy\n      dup2\n      mload\n      swap2\n      mstore\n        /* \"contracts/Token.sol\":17151:17195  OwnershipTransferred(_owner, _previousOwner) */\n      swap2\n      log3\n        /* \"contracts/Token.sol\":17215:17229  _previousOwner */\n      sload(0x01)\n      0x00\n        /* \"contracts/Token.sol\":17206:17229  _owner = _previousOwner */\n      dup1\n      sload\n      not(sub(shl(0xa0, 0x01), 0x01))\n      and\n      sub(shl(0xa0, 0x01), 0x01)\n        /* \"contracts/Token.sol\":17215:17229  _previousOwner */\n      swap1\n      swap3\n      and\n        /* \"contracts/Token.sol\":17206:17229  _owner = _previousOwner */\n      swap2\n      swap1\n      swap2\n      or\n      swap1\n      sstore\n        /* \"contracts/Token.sol\":16944:17237  function unlock() public virtual {\r... */\n      jump\t// out\n        /* \"contracts/Token.sol\":28835:29002  function transfer(address recipient, uint256 amount) public override returns (bool) {\r... */\n    tag_162:\n        /* \"contracts/Token.sol\":28913:28917  bool */\n      0x00\n        /* \"contracts/Token.sol\":28930:28972  _transfer(_msgSender(), recipient, amount) */\n      tag_210\n        /* \"contracts/Token.sol\":28940:28952  _msgSender() */\n      tag_314\n        /* \"contracts/Token.sol\":28940:28950  _msgSender */\n      tag_202\n        /* \"contracts/Token.sol\":28940:28952  _msgSender() */\n      jump\t// in\n    tag_314:\n        /* \"contracts/Token.sol\":28954:28963  recipient */\n      dup5\n        /* \"contracts/Token.sol\":28965:28971  amount */\n      dup5\n        /* \"contracts/Token.sol\":28930:28939  _transfer */\n      tag_217\n        /* \"contracts/Token.sol\":28930:28972  _transfer(_msgSender(), recipient, amount) */\n      jump\t// in\n        /* \"contracts/Token.sol\":15025:15046  address public _owner */\n    tag_165:\n      and(sub(shl(0xa0, 0x01), 0x01), sload(0x00))\n      dup2\n      jump\t// out\n        /* \"contracts/Token.sol\":16489:16578  function geUnlockTime() public view returns (uint256) {\r... */\n    tag_168:\n        /* \"contracts/Token.sol\":16561:16570  _lockTime */\n      sload(0x02)\n        /* \"contracts/Token.sol\":16489:16578  function geUnlockTime() public view returns (uint256) {\r... */\n      swap1\n      jump\t// out\n        /* \"contracts/Token.sol\":33860:34031  function setSwapAndLiquifyEnabled(bool _enabled) public onlyOwner {\r... */\n    tag_172:\n        /* \"contracts/Token.sol\":15513:15525  _msgSender() */\n      tag_317\n        /* \"contracts/Token.sol\":15513:15523  _msgSender */\n      tag_202\n        /* \"contracts/Token.sol\":15513:15525  _msgSender() */\n      jump\t// in\n    tag_317:\n        /* \"contracts/Token.sol\":15503:15509  _owner */\n      sload(0x00)\n      sub(shl(0xa0, 0x01), 0x01)\n      swap1\n      dup2\n      and\n        /* \"contracts/Token.sol\":15503:15525  _owner == _msgSender() */\n      swap2\n      and\n      eq\n        /* \"contracts/Token.sol\":15495:15562  require(_owner == _msgSender(), \"Ownable: caller is not the owner\") */\n      tag_318\n      jumpi\n      0x40\n      dup1\n      mload\n      shl(0xe5, 0x461bcd)\n      dup2\n      mstore\n      0x20\n      0x04\n      dup3\n      add\n      dup2\n      swap1\n      mstore\n      0x24\n      dup3\n      add\n      mstore\n      0x00\n      dup1\n      mload\n      0x20\n      data_9924ebdf1add33d25d4ef888e16131f0a5687b0580a36c21b5c301a6c462effe\n      dup4\n      codecopy\n      dup2\n      mload\n      swap2\n      mstore\n      0x44\n      dup3\n      add\n      mstore\n      swap1\n      mload\n      swap1\n      dup2\n      swap1\n      sub\n      0x64\n      add\n      swap1\n      revert\n    tag_318:\n        /* \"contracts/Token.sol\":33937:33958  swapAndLiquifyEnabled */\n      0x13\n        /* \"contracts/Token.sol\":33937:33969  swapAndLiquifyEnabled = _enabled */\n      dup1\n      sload\n      dup3\n      iszero\n      iszero\n      0x0100\n      dup2\n      mul\n      not(0xff00)\n      swap1\n      swap3\n      and\n      swap2\n      swap1\n      swap2\n      or\n      swap1\n      swap2\n      sstore\n        /* \"contracts/Token.sol\":33985:34023  SwapAndLiquifyEnabledUpdated(_enabled) */\n      0x40\n      dup1\n      mload\n      swap2\n      dup3\n      mstore\n      mload\n      0x53726dfcaf90650aa7eb35524f4d3220f07413c8d6cb404cc8c18bf5591bc159\n      swap2\n      dup2\n      swap1\n      sub\n      0x20\n      add\n      swap1\n      log1\n        /* \"contracts/Token.sol\":33860:34031  function setSwapAndLiquifyEnabled(bool _enabled) public onlyOwner {\r... */\n      pop\n      jump\t// out\n        /* \"contracts/Token.sol\":26404:26448  uint256 public numTokensSellToAddToLiquidity */\n    tag_175:\n      sload(0x15)\n      dup2\n      jump\t// out\n        /* \"contracts/Token.sol\":33723:33852  function setMaxTxPercent(uint256 maxTxPercent) public onlyOwner {\r... */\n    tag_179:\n        /* \"contracts/Token.sol\":15513:15525  _msgSender() */\n      tag_321\n        /* \"contracts/Token.sol\":15513:15523  _msgSender */\n      tag_202\n        /* \"contracts/Token.sol\":15513:15525  _msgSender() */\n      jump\t// in\n    tag_321:\n        /* \"contracts/Token.sol\":15503:15509  _owner */\n      sload(0x00)\n      sub(shl(0xa0, 0x01), 0x01)\n      swap1\n      dup2\n      and\n        /* \"contracts/Token.sol\":15503:15525  _owner == _msgSender() */\n      swap2\n      and\n      eq\n        /* \"contracts/Token.sol\":15495:15562  require(_owner == _msgSender(), \"Ownable: caller is not the owner\") */\n      tag_322\n      jumpi\n      0x40\n      dup1\n      mload\n      shl(0xe5, 0x461bcd)\n      dup2\n      mstore\n      0x20\n      0x04\n      dup3\n      add\n      dup2\n      swap1\n      mstore\n      0x24\n      dup3\n      add\n      mstore\n      0x00\n      dup1\n      mload\n      0x20\n      data_9924ebdf1add33d25d4ef888e16131f0a5687b0580a36c21b5c301a6c462effe\n      dup4\n      codecopy\n      dup2\n      mload\n      swap2\n      mstore\n      0x44\n      dup3\n      add\n      mstore\n      swap1\n      mload\n      swap1\n      dup2\n      swap1\n      sub\n      0x64\n      add\n      swap1\n      revert\n    tag_322:\n        /* \"contracts/Token.sol\":33835:33844  _decimals */\n      sload(0x0e)\n        /* \"contracts/Token.sol\":33829:33831  10 */\n      0x0a\n        /* \"contracts/Token.sol\":33829:33844  10 ** _decimals */\n      exp\n        /* \"contracts/Token.sol\":33813:33844  maxTxPercent  * 10 ** _decimals */\n      mul\n        /* \"contracts/Token.sol\":33798:33810  _maxTxAmount */\n      0x14\n        /* \"contracts/Token.sol\":33798:33844  _maxTxAmount = maxTxPercent  * 10 ** _decimals */\n      sstore\n        /* \"contracts/Token.sol\":33723:33852  function setMaxTxPercent(uint256 maxTxPercent) public onlyOwner {\r... */\n      jump\t// out\n        /* \"contracts/Token.sol\":16654:16868  function lock(uint256 time) public virtual onlyOwner {\r... */\n    tag_183:\n        /* \"contracts/Token.sol\":15513:15525  _msgSender() */\n      tag_325\n        /* \"contracts/Token.sol\":15513:15523  _msgSender */\n      tag_202\n        /* \"contracts/Token.sol\":15513:15525  _msgSender() */\n      jump\t// in\n    tag_325:\n        /* \"contracts/Token.sol\":15503:15509  _owner */\n      sload(0x00)\n      sub(shl(0xa0, 0x01), 0x01)\n      swap1\n      dup2\n      and\n        /* \"contracts/Token.sol\":15503:15525  _owner == _msgSender() */\n      swap2\n      and\n      eq\n        /* \"contracts/Token.sol\":15495:15562  require(_owner == _msgSender(), \"Ownable: caller is not the owner\") */\n      tag_326\n      jumpi\n      0x40\n      dup1\n      mload\n      shl(0xe5, 0x461bcd)\n      dup2\n      mstore\n      0x20\n      0x04\n      dup3\n      add\n      dup2\n      swap1\n      mstore\n      0x24\n      dup3\n      add\n      mstore\n      0x00\n      dup1\n      mload\n      0x20\n      data_9924ebdf1add33d25d4ef888e16131f0a5687b0580a36c21b5c301a6c462effe\n      dup4\n      codecopy\n      dup2\n      mload\n      swap2\n      mstore\n      0x44\n      dup3\n      add\n      mstore\n      swap1\n      mload\n      swap1\n      dup2\n      swap1\n      sub\n      0x64\n      add\n      swap1\n      revert\n    tag_326:\n        /* \"contracts/Token.sol\":16735:16741  _owner */\n      0x00\n      dup1\n      sload\n      0x01\n        /* \"contracts/Token.sol\":16718:16741  _previousOwner = _owner */\n      dup1\n      sload\n      not(sub(shl(0xa0, 0x01), 0x01))\n      swap1\n      dup2\n      and\n      sub(shl(0xa0, 0x01), 0x01)\n        /* \"contracts/Token.sol\":16735:16741  _owner */\n      dup5\n      and\n        /* \"contracts/Token.sol\":16718:16741  _previousOwner = _owner */\n      or\n      swap1\n      swap2\n      sstore\n        /* \"contracts/Token.sol\":16752:16771  _owner = address(0) */\n      and\n      dup2\n      sstore\n        /* \"contracts/Token.sol\":16794:16797  now */\n      timestamp\n        /* \"contracts/Token.sol\":16794:16804  now + time */\n      dup3\n      add\n        /* \"contracts/Token.sol\":16782:16791  _lockTime */\n      0x02\n        /* \"contracts/Token.sol\":16782:16804  _lockTime = now + time */\n      sstore\n        /* \"contracts/Token.sol\":16820:16860  OwnershipTransferred(_owner, address(0)) */\n      mload(0x40)\n        /* \"contracts/Token.sol\":16735:16741  _owner */\n      dup2\n      swap1\n      0x00\n      dup1\n      mload\n      0x20\n      data_9c064737b570a74c2bac5d21056d93ac53115214216cd14d4a0fc9b60be81231\n      dup4\n      codecopy\n      dup2\n      mload\n      swap2\n      mstore\n        /* \"contracts/Token.sol\":16820:16860  OwnershipTransferred(_owner, address(0)) */\n      swap1\n        /* \"contracts/Token.sol\":16735:16741  _owner */\n      dup3\n      swap1\n        /* \"contracts/Token.sol\":16820:16860  OwnershipTransferred(_owner, address(0)) */\n      log3\n        /* \"contracts/Token.sol\":16654:16868  function lock(uint256 time) public virtual onlyOwner {\r... */\n      pop\n      jump\t// out\n        /* \"contracts/Token.sol\":29010:29153  function allowance(address owner, address spender) public view override returns (uint256) {\r... */\n    tag_187:\n      sub(shl(0xa0, 0x01), 0x01)\n        /* \"contracts/Token.sol\":29118:29136  _allowances[owner] */\n      swap2\n      dup3\n      and\n        /* \"contracts/Token.sol\":29091:29098  uint256 */\n      0x00\n        /* \"contracts/Token.sol\":29118:29136  _allowances[owner] */\n      swap1\n      dup2\n      mstore\n        /* \"contracts/Token.sol\":29118:29129  _allowances */\n      0x05\n        /* \"contracts/Token.sol\":29118:29136  _allowances[owner] */\n      0x20\n      swap1\n      dup2\n      mstore\n      0x40\n      dup1\n      dup4\n      keccak256\n        /* \"contracts/Token.sol\":29118:29145  _allowances[owner][spender] */\n      swap4\n      swap1\n      swap5\n      and\n      dup3\n      mstore\n      swap2\n      swap1\n      swap2\n      mstore\n      keccak256\n      sload\n      swap1\n        /* \"contracts/Token.sol\":29010:29153  function allowance(address owner, address spender) public view override returns (uint256) {\r... */\n      jump\t// out\n        /* \"contracts/Token.sol\":33188:33298  function includeInFee(address account) public onlyOwner {\r... */\n    tag_191:\n        /* \"contracts/Token.sol\":15513:15525  _msgSender() */\n      tag_330\n        /* \"contracts/Token.sol\":15513:15523  _msgSender */\n      tag_202\n        /* \"contracts/Token.sol\":15513:15525  _msgSender() */\n      jump\t// in\n    tag_330:\n        /* \"contracts/Token.sol\":15503:15509  _owner */\n      sload(0x00)\n      sub(shl(0xa0, 0x01), 0x01)\n      swap1\n      dup2\n      and\n        /* \"contracts/Token.sol\":15503:15525  _owner == _msgSender() */\n      swap2\n      and\n      eq\n        /* \"contracts/Token.sol\":15495:15562  require(_owner == _msgSender(), \"Ownable: caller is not the owner\") */\n      tag_331\n      jumpi\n      0x40\n      dup1\n      mload\n      shl(0xe5, 0x461bcd)\n      dup2\n      mstore\n      0x20\n      0x04\n      dup3\n      add\n      dup2\n      swap1\n      mstore\n      0x24\n      dup3\n      add\n      mstore\n      0x00\n      dup1\n      mload\n      0x20\n      data_9924ebdf1add33d25d4ef888e16131f0a5687b0580a36c21b5c301a6c462effe\n      dup4\n      codecopy\n      dup2\n      mload\n      swap2\n      mstore\n      0x44\n      dup3\n      add\n      mstore\n      swap1\n      mload\n      swap1\n      dup2\n      swap1\n      sub\n      0x64\n      add\n      swap1\n      revert\n    tag_331:\n      sub(shl(0xa0, 0x01), 0x01)\n        /* \"contracts/Token.sol\":33255:33282  _isExcludedFromFee[account] */\n      and\n        /* \"contracts/Token.sol\":33285:33290  false */\n      0x00\n        /* \"contracts/Token.sol\":33255:33282  _isExcludedFromFee[account] */\n      swap1\n      dup2\n      mstore\n        /* \"contracts/Token.sol\":33255:33273  _isExcludedFromFee */\n      0x06\n        /* \"contracts/Token.sol\":33255:33282  _isExcludedFromFee[account] */\n      0x20\n      mstore\n      0x40\n      swap1\n      keccak256\n        /* \"contracts/Token.sol\":33255:33290  _isExcludedFromFee[account] = false */\n      dup1\n      sload\n      not(0xff)\n      and\n      swap1\n      sstore\n        /* \"contracts/Token.sol\":33188:33298  function includeInFee(address account) public onlyOwner {\r... */\n      jump\t// out\n        /* \"contracts/Token.sol\":33554:33712  function setNumTokensSellToAddToLiquidity(uint256 swapNumber) public onlyOwner {\r... */\n    tag_195:\n        /* \"contracts/Token.sol\":15513:15525  _msgSender() */\n      tag_334\n        /* \"contracts/Token.sol\":15513:15523  _msgSender */\n      tag_202\n        /* \"contracts/Token.sol\":15513:15525  _msgSender() */\n      jump\t// in\n    tag_334:\n        /* \"contracts/Token.sol\":15503:15509  _owner */\n      sload(0x00)\n      sub(shl(0xa0, 0x01), 0x01)\n      swap1\n      dup2\n      and\n        /* \"contracts/Token.sol\":15503:15525  _owner == _msgSender() */\n      swap2\n      and\n      eq\n        /* \"contracts/Token.sol\":15495:15562  require(_owner == _msgSender(), \"Ownable: caller is not the owner\") */\n      tag_335\n      jumpi\n      0x40\n      dup1\n      mload\n      shl(0xe5, 0x461bcd)\n      dup2\n      mstore\n      0x20\n      0x04\n      dup3\n      add\n      dup2\n      swap1\n      mstore\n      0x24\n      dup3\n      add\n      mstore\n      0x00\n      dup1\n      mload\n      0x20\n      data_9924ebdf1add33d25d4ef888e16131f0a5687b0580a36c21b5c301a6c462effe\n      dup4\n      codecopy\n      dup2\n      mload\n      swap2\n      mstore\n      0x44\n      dup3\n      add\n      mstore\n      swap1\n      mload\n      swap1\n      dup2\n      swap1\n      sub\n      0x64\n      add\n      swap1\n      revert\n    tag_335:\n        /* \"contracts/Token.sol\":33695:33704  _decimals */\n      sload(0x0e)\n        /* \"contracts/Token.sol\":33689:33691  10 */\n      0x0a\n        /* \"contracts/Token.sol\":33689:33704  10 ** _decimals */\n      exp\n        /* \"contracts/Token.sol\":33676:33704  swapNumber * 10 ** _decimals */\n      mul\n        /* \"contracts/Token.sol\":33644:33673  numTokensSellToAddToLiquidity */\n      0x15\n        /* \"contracts/Token.sol\":33644:33704  numTokensSellToAddToLiquidity = swapNumber * 10 ** _decimals */\n      sstore\n        /* \"contracts/Token.sol\":33554:33712  function setNumTokensSellToAddToLiquidity(uint256 swapNumber) public onlyOwner {\r... */\n      jump\t// out\n        /* \"contracts/Token.sol\":16237:16481  function transferOwnership(address newOwner) public virtual onlyOwner {\r... */\n    tag_199:\n        /* \"contracts/Token.sol\":15513:15525  _msgSender() */\n      tag_338\n        /* \"contracts/Token.sol\":15513:15523  _msgSender */\n      tag_202\n        /* \"contracts/Token.sol\":15513:15525  _msgSender() */\n      jump\t// in\n    tag_338:\n        /* \"contracts/Token.sol\":15503:15509  _owner */\n      sload(0x00)\n      sub(shl(0xa0, 0x01), 0x01)\n      swap1\n      dup2\n      and\n        /* \"contracts/Token.sol\":15503:15525  _owner == _msgSender() */\n      swap2\n      and\n      eq\n        /* \"contracts/Token.sol\":15495:15562  require(_owner == _msgSender(), \"Ownable: caller is not the owner\") */\n      tag_339\n      jumpi\n      0x40\n      dup1\n      mload\n      shl(0xe5, 0x461bcd)\n      dup2\n      mstore\n      0x20\n      0x04\n      dup3\n      add\n      dup2\n      swap1\n      mstore\n      0x24\n      dup3\n      add\n      mstore\n      0x00\n      dup1\n      mload\n      0x20\n      data_9924ebdf1add33d25d4ef888e16131f0a5687b0580a36c21b5c301a6c462effe\n      dup4\n      codecopy\n      dup2\n      mload\n      swap2\n      mstore\n      0x44\n      dup3\n      add\n      mstore\n      swap1\n      mload\n      swap1\n      dup2\n      swap1\n      sub\n      0x64\n      add\n      swap1\n      revert\n    tag_339:\n      sub(shl(0xa0, 0x01), 0x01)\n        /* \"contracts/Token.sol\":16326:16348  newOwner != address(0) */\n      dup2\n      and\n        /* \"contracts/Token.sol\":16318:16391  require(newOwner != address(0), \"Ownable: new owner is the zero address\") */\n      tag_341\n      jumpi\n      mload(0x40)\n      shl(0xe5, 0x461bcd)\n      dup2\n      mstore\n      0x04\n      add\n      dup1\n      dup1\n      0x20\n      add\n      dup3\n      dup2\n      sub\n      dup3\n      mstore\n      0x26\n      dup2\n      mstore\n      0x20\n      add\n      dup1\n      data_245f15ff17f551913a7a18385165551503906a406f905ac1c2437281a7cd0cfe\n      0x26\n      swap2\n      codecopy\n      0x40\n      add\n      swap2\n      pop\n      pop\n      mload(0x40)\n      dup1\n      swap2\n      sub\n      swap1\n      revert\n    tag_341:\n        /* \"contracts/Token.sol\":16428:16434  _owner */\n      0x00\n      dup1\n      sload\n        /* \"contracts/Token.sol\":16407:16445  OwnershipTransferred(_owner, newOwner) */\n      mload(0x40)\n      sub(shl(0xa0, 0x01), 0x01)\n      dup1\n      dup6\n      and\n      swap4\n        /* \"contracts/Token.sol\":16428:16434  _owner */\n      swap3\n      and\n      swap2\n      0x00\n      dup1\n      mload\n      0x20\n      data_9c064737b570a74c2bac5d21056d93ac53115214216cd14d4a0fc9b60be81231\n      dup4\n      codecopy\n      dup2\n      mload\n      swap2\n      mstore\n        /* \"contracts/Token.sol\":16407:16445  OwnershipTransferred(_owner, newOwner) */\n      swap2\n      log3\n        /* \"contracts/Token.sol\":16456:16462  _owner */\n      0x00\n        /* \"contracts/Token.sol\":16456:16473  _owner = newOwner */\n      dup1\n      sload\n      not(sub(shl(0xa0, 0x01), 0x01))\n      and\n      sub(shl(0xa0, 0x01), 0x01)\n      swap3\n      swap1\n      swap3\n      and\n      swap2\n      swap1\n      swap2\n      or\n      swap1\n      sstore\n        /* \"contracts/Token.sol\":16237:16481  function transferOwnership(address newOwner) public virtual onlyOwner {\r... */\n      jump\t// out\n        /* \"contracts/Token.sol\":7968:8074  function _msgSender() internal view virtual returns (address payable) {\r... */\n    tag_202:\n        /* \"contracts/Token.sol\":8056:8066  msg.sender */\n      caller\n        /* \"contracts/Token.sol\":7968:8074  function _msgSender() internal view virtual returns (address payable) {\r... */\n      swap1\n      jump\t// out\n        /* \"contracts/Token.sol\":37603:37940  function _approve(address owner, address spender, uint256 amount) private {\r... */\n    tag_212:\n      sub(shl(0xa0, 0x01), 0x01)\n        /* \"contracts/Token.sol\":37696:37715  owner != address(0) */\n      dup4\n      and\n        /* \"contracts/Token.sol\":37688:37756  require(owner != address(0), \"ERC20: approve from the zero address\") */\n      tag_344\n      jumpi\n      mload(0x40)\n      shl(0xe5, 0x461bcd)\n      dup2\n      mstore\n      0x04\n      add\n      dup1\n      dup1\n      0x20\n      add\n      dup3\n      dup2\n      sub\n      dup3\n      mstore\n      0x24\n      dup2\n      mstore\n      0x20\n      add\n      dup1\n      data_c953f4879035ed60e766b34720f656aab5c697b141d924c283124ecedb91c208\n      0x24\n      swap2\n      codecopy\n      0x40\n      add\n      swap2\n      pop\n      pop\n      mload(0x40)\n      dup1\n      swap2\n      sub\n      swap1\n      revert\n    tag_344:\n      sub(shl(0xa0, 0x01), 0x01)\n        /* \"contracts/Token.sol\":37775:37796  spender != address(0) */\n      dup3\n      and\n        /* \"contracts/Token.sol\":37767:37835  require(spender != address(0), \"ERC20: approve to the zero address\") */\n      tag_345\n      jumpi\n      mload(0x40)\n      shl(0xe5, 0x461bcd)\n      dup2\n      mstore\n      0x04\n      add\n      dup1\n      dup1\n      0x20\n      add\n      dup3\n      dup2\n      sub\n      dup3\n      mstore\n      0x22\n      dup2\n      mstore\n      0x20\n      add\n      dup1\n      data_24883cc5fe64ace9d0df1893501ecb93c77180f0ff69cca79affb3c316dc8029\n      0x22\n      swap2\n      codecopy\n      0x40\n      add\n      swap2\n      pop\n      pop\n      mload(0x40)\n      dup1\n      swap2\n      sub\n      swap1\n      revert\n    tag_345:\n      sub(shl(0xa0, 0x01), 0x01)\n        /* \"contracts/Token.sol\":37848:37866  _allowances[owner] */\n      dup1\n      dup5\n      and\n      0x00\n      dup2\n      dup2\n      mstore\n        /* \"contracts/Token.sol\":37848:37859  _allowances */\n      0x05\n        /* \"contracts/Token.sol\":37848:37866  _allowances[owner] */\n      0x20\n      swap1\n      dup2\n      mstore\n      0x40\n      dup1\n      dup4\n      keccak256\n        /* \"contracts/Token.sol\":37848:37875  _allowances[owner][spender] */\n      swap5\n      dup8\n      and\n      dup1\n      dup5\n      mstore\n      swap5\n      dup3\n      mstore\n      swap2\n      dup3\n      swap1\n      keccak256\n        /* \"contracts/Token.sol\":37848:37884  _allowances[owner][spender] = amount */\n      dup6\n      swap1\n      sstore\n        /* \"contracts/Token.sol\":37900:37932  Approval(owner, spender, amount) */\n      dup2\n      mload\n      dup6\n      dup2\n      mstore\n      swap2\n      mload\n      0x8c5be1e5ebec7d5bd14f71427d1e84f3dd0314c0f7b2291e5b200ac8c7c3b925\n      swap3\n      dup2\n      swap1\n      sub\n      swap1\n      swap2\n      add\n      swap1\n      log3\n        /* \"contracts/Token.sol\":37603:37940  function _approve(address owner, address spender, uint256 amount) private {\r... */\n      pop\n      pop\n      pop\n      jump\t// out\n        /* \"contracts/Token.sol\":37948:39761  function _transfer(\r... */\n    tag_217:\n      sub(shl(0xa0, 0x01), 0x01)\n        /* \"contracts/Token.sol\":38070:38088  from != address(0) */\n      dup4\n      and\n        /* \"contracts/Token.sol\":38062:38130  require(from != address(0), \"ERC20: transfer from the zero address\") */\n      tag_347\n      jumpi\n      mload(0x40)\n      shl(0xe5, 0x461bcd)\n      dup2\n      mstore\n      0x04\n      add\n      dup1\n      dup1\n      0x20\n      add\n      dup3\n      dup2\n      sub\n      dup3\n      mstore\n      0x25\n      dup2\n      mstore\n      0x20\n      add\n      dup1\n      data_baecc556b46f4ed0f2b4cb599d60785ac8563dd2dc0a5bf12edea1c39e5e1fea\n      0x25\n      swap2\n      codecopy\n      0x40\n      add\n      swap2\n      pop\n      pop\n      mload(0x40)\n      dup1\n      swap2\n      sub\n      swap1\n      revert\n    tag_347:\n      sub(shl(0xa0, 0x01), 0x01)\n        /* \"contracts/Token.sol\":38149:38165  to != address(0) */\n      dup3\n      and\n        /* \"contracts/Token.sol\":38141:38205  require(to != address(0), \"ERC20: transfer to the zero address\") */\n      tag_348\n      jumpi\n      mload(0x40)\n      shl(0xe5, 0x461bcd)\n      dup2\n      mstore\n      0x04\n      add\n      dup1\n      dup1\n      0x20\n      add\n      dup3\n      dup2\n      sub\n      dup3\n      mstore\n      0x23\n      dup2\n      mstore\n      0x20\n      add\n      dup1\n      data_0557e210f7a69a685100a7e4e3d0a7024c546085cee28910fd17d0b081d9516f\n      0x23\n      swap2\n      codecopy\n      0x40\n      add\n      swap2\n      pop\n      pop\n      mload(0x40)\n      dup1\n      swap2\n      sub\n      swap1\n      revert\n    tag_348:\n        /* \"contracts/Token.sol\":38233:38234  0 */\n      0x00\n        /* \"contracts/Token.sol\":38224:38230  amount */\n      dup2\n        /* \"contracts/Token.sol\":38224:38234  amount > 0 */\n      gt\n        /* \"contracts/Token.sol\":38216:38280  require(amount > 0, \"Transfer amount must be greater than zero\") */\n      tag_349\n      jumpi\n      mload(0x40)\n      shl(0xe5, 0x461bcd)\n      dup2\n      mstore\n      0x04\n      add\n      dup1\n      dup1\n      0x20\n      add\n      dup3\n      dup2\n      sub\n      dup3\n      mstore\n      0x29\n      dup2\n      mstore\n      0x20\n      add\n      dup1\n      data_9edb5ab58321f35d2386ea65721c9b107daa2c273610fc16d394af2a320ba785\n      0x29\n      swap2\n      codecopy\n      0x40\n      add\n      swap2\n      pop\n      pop\n      mload(0x40)\n      dup1\n      swap2\n      sub\n      swap1\n      revert\n    tag_349:\n        /* \"contracts/Token.sol\":38302:38309  owner() */\n      tag_350\n        /* \"contracts/Token.sol\":38302:38307  owner */\n      tag_140\n        /* \"contracts/Token.sol\":38302:38309  owner() */\n      jump\t// in\n    tag_350:\n      sub(shl(0xa0, 0x01), 0x01)\n        /* \"contracts/Token.sol\":38294:38309  from != owner() */\n      and\n        /* \"contracts/Token.sol\":38294:38298  from */\n      dup4\n      sub(shl(0xa0, 0x01), 0x01)\n        /* \"contracts/Token.sol\":38294:38309  from != owner() */\n      and\n      eq\n      iszero\n        /* \"contracts/Token.sol\":38294:38326  from != owner() && to != owner() */\n      dup1\n      iszero\n      tag_351\n      jumpi\n      pop\n        /* \"contracts/Token.sol\":38319:38326  owner() */\n      tag_352\n        /* \"contracts/Token.sol\":38319:38324  owner */\n      tag_140\n        /* \"contracts/Token.sol\":38319:38326  owner() */\n      jump\t// in\n    tag_352:\n      sub(shl(0xa0, 0x01), 0x01)\n        /* \"contracts/Token.sol\":38313:38326  to != owner() */\n      and\n        /* \"contracts/Token.sol\":38313:38315  to */\n      dup3\n      sub(shl(0xa0, 0x01), 0x01)\n        /* \"contracts/Token.sol\":38313:38326  to != owner() */\n      and\n      eq\n      iszero\n        /* \"contracts/Token.sol\":38294:38326  from != owner() && to != owner() */\n    tag_351:\n        /* \"contracts/Token.sol\":38291:38416  if(from != owner() && to != owner())\r... */\n      iszero\n      tag_354\n      jumpi\n        /* \"contracts/Token.sol\":38359:38371  _maxTxAmount */\n      sload(0x14)\n        /* \"contracts/Token.sol\":38349:38355  amount */\n      dup2\n        /* \"contracts/Token.sol\":38349:38371  amount <= _maxTxAmount */\n      gt\n      iszero\n        /* \"contracts/Token.sol\":38341:38416  require(amount <= _maxTxAmount, \"Transfer amount exceeds the maxTxAmount.\") */\n      tag_354\n      jumpi\n      mload(0x40)\n      shl(0xe5, 0x461bcd)\n      dup2\n      mstore\n      0x04\n      add\n      dup1\n      dup1\n      0x20\n      add\n      dup3\n      dup2\n      sub\n      dup3\n      mstore\n      0x28\n      dup2\n      mstore\n      0x20\n      add\n      dup1\n      data_72052210969ce5fd88e52b5e685de9548acef9bb1b6d02e29c1765d0674948dd\n      0x28\n      swap2\n      codecopy\n      0x40\n      add\n      swap2\n      pop\n      pop\n      mload(0x40)\n      dup1\n      swap2\n      sub\n      swap1\n      revert\n    tag_354:\n        /* \"contracts/Token.sol\":38711:38739  uint256 contractTokenBalance */\n      0x00\n        /* \"contracts/Token.sol\":38742:38766  balanceOf(address(this)) */\n      tag_355\n        /* \"contracts/Token.sol\":38760:38764  this */\n      address\n        /* \"contracts/Token.sol\":38742:38751  balanceOf */\n      tag_127\n        /* \"contracts/Token.sol\":38742:38766  balanceOf(address(this)) */\n      jump\t// in\n    tag_355:\n        /* \"contracts/Token.sol\":38711:38766  uint256 contractTokenBalance = balanceOf(address(this)) */\n      swap1\n      pop\n        /* \"contracts/Token.sol\":38814:38826  _maxTxAmount */\n      sload(0x14)\n        /* \"contracts/Token.sol\":38790:38810  contractTokenBalance */\n      dup2\n        /* \"contracts/Token.sol\":38790:38826  contractTokenBalance >= _maxTxAmount */\n      lt\n        /* \"contracts/Token.sol\":38787:38899  if(contractTokenBalance >= _maxTxAmount)\r... */\n      tag_356\n      jumpi\n      pop\n        /* \"contracts/Token.sol\":38875:38887  _maxTxAmount */\n      sload(0x14)\n        /* \"contracts/Token.sol\":38787:38899  if(contractTokenBalance >= _maxTxAmount)\r... */\n    tag_356:\n        /* \"contracts/Token.sol\":38970:38999  numTokensSellToAddToLiquidity */\n      sload(0x15)\n        /* \"contracts/Token.sol\":38946:38999  contractTokenBalance >= numTokensSellToAddToLiquidity */\n      dup2\n      lt\n      dup1\n      iszero\n      swap1\n      dup2\n      swap1\n        /* \"contracts/Token.sol\":39028:39081  overMinTokenBalance &&\r... */\n      tag_357\n      jumpi\n      pop\n        /* \"contracts/Token.sol\":39065:39081  inSwapAndLiquify */\n      and(0xff, sload(0x13))\n        /* \"contracts/Token.sol\":39064:39081  !inSwapAndLiquify */\n      iszero\n        /* \"contracts/Token.sol\":39028:39081  overMinTokenBalance &&\r... */\n    tag_357:\n        /* \"contracts/Token.sol\":39028:39119  overMinTokenBalance &&\r... */\n      dup1\n      iszero\n      tag_358\n      jumpi\n      pop\n        /* \"contracts/Token.sol\":39106:39119  uniswapV2Pair */\n      immutable(\"0xf17089ced8c0c2239e63f2bbb45b3ebcf864ae70eb1ca01545337030cdeed50a\")\n      sub(shl(0xa0, 0x01), 0x01)\n        /* \"contracts/Token.sol\":39098:39119  from != uniswapV2Pair */\n      and\n        /* \"contracts/Token.sol\":39098:39102  from */\n      dup6\n      sub(shl(0xa0, 0x01), 0x01)\n        /* \"contracts/Token.sol\":39098:39119  from != uniswapV2Pair */\n      and\n      eq\n      iszero\n        /* \"contracts/Token.sol\":39028:39119  overMinTokenBalance &&\r... */\n    tag_358:\n        /* \"contracts/Token.sol\":39028:39157  overMinTokenBalance &&\r... */\n      dup1\n      iszero\n      tag_359\n      jumpi\n      pop\n        /* \"contracts/Token.sol\":39136:39157  swapAndLiquifyEnabled */\n      sload(0x13)\n      0x0100\n      swap1\n      div\n      0xff\n      and\n        /* \"contracts/Token.sol\":39028:39157  overMinTokenBalance &&\r... */\n    tag_359:\n        /* \"contracts/Token.sol\":39010:39328  if (\r... */\n      iszero\n      tag_361\n      jumpi\n        /* \"contracts/Token.sol\":39207:39236  numTokensSellToAddToLiquidity */\n      sload(0x15)\n        /* \"contracts/Token.sol\":39184:39236  contractTokenBalance = numTokensSellToAddToLiquidity */\n      swap2\n      pop\n        /* \"contracts/Token.sol\":39280:39316  swapAndLiquify(contractTokenBalance) */\n      tag_361\n        /* \"contracts/Token.sol\":39295:39315  contractTokenBalance */\n      dup3\n        /* \"contracts/Token.sol\":39280:39294  swapAndLiquify */\n      tag_362\n        /* \"contracts/Token.sol\":39280:39316  swapAndLiquify(contractTokenBalance) */\n      jump\t// in\n    tag_361:\n      sub(shl(0xa0, 0x01), 0x01)\n        /* \"contracts/Token.sol\":39536:39560  _isExcludedFromFee[from] */\n      dup6\n      and\n        /* \"contracts/Token.sol\":39409:39421  bool takeFee */\n      0x00\n        /* \"contracts/Token.sol\":39536:39560  _isExcludedFromFee[from] */\n      swap1\n      dup2\n      mstore\n        /* \"contracts/Token.sol\":39536:39554  _isExcludedFromFee */\n      0x06\n        /* \"contracts/Token.sol\":39536:39560  _isExcludedFromFee[from] */\n      0x20\n      mstore\n      0x40\n      swap1\n      keccak256\n      sload\n        /* \"contracts/Token.sol\":39424:39428  true */\n      0x01\n      swap1\n        /* \"contracts/Token.sol\":39536:39560  _isExcludedFromFee[from] */\n      0xff\n      and\n      dup1\n        /* \"contracts/Token.sol\":39536:39586  _isExcludedFromFee[from] || _isExcludedFromFee[to] */\n      tag_363\n      jumpi\n      pop\n      sub(shl(0xa0, 0x01), 0x01)\n        /* \"contracts/Token.sol\":39564:39586  _isExcludedFromFee[to] */\n      dup6\n      and\n      0x00\n      swap1\n      dup2\n      mstore\n        /* \"contracts/Token.sol\":39564:39582  _isExcludedFromFee */\n      0x06\n        /* \"contracts/Token.sol\":39564:39586  _isExcludedFromFee[to] */\n      0x20\n      mstore\n      0x40\n      swap1\n      keccak256\n      sload\n      0xff\n      and\n        /* \"contracts/Token.sol\":39536:39586  _isExcludedFromFee[from] || _isExcludedFromFee[to] */\n    tag_363:\n        /* \"contracts/Token.sol\":39533:39629  if(_isExcludedFromFee[from] || _isExcludedFromFee[to]){\r... */\n      iszero\n      tag_364\n      jumpi\n      pop\n        /* \"contracts/Token.sol\":39612:39617  false */\n      0x00\n        /* \"contracts/Token.sol\":39533:39629  if(_isExcludedFromFee[from] || _isExcludedFromFee[to]){\r... */\n    tag_364:\n        /* \"contracts/Token.sol\":39715:39753  _tokenTransfer(from,to,amount,takeFee) */\n      tag_365\n        /* \"contracts/Token.sol\":39730:39734  from */\n      dup7\n        /* \"contracts/Token.sol\":39735:39737  to */\n      dup7\n        /* \"contracts/Token.sol\":39738:39744  amount */\n      dup7\n        /* \"contracts/Token.sol\":39745:39752  takeFee */\n      dup5\n        /* \"contracts/Token.sol\":39715:39729  _tokenTransfer */\n      tag_366\n        /* \"contracts/Token.sol\":39715:39753  _tokenTransfer(from,to,amount,takeFee) */\n      jump\t// in\n    tag_365:\n        /* \"contracts/Token.sol\":37948:39761  function _transfer(\r... */\n      pop\n      pop\n      pop\n      pop\n      pop\n      pop\n      jump\t// out\n        /* \"contracts/Token.sol\":4378:4570  function sub(uint256 a, uint256 b, string memory errorMessage) internal pure returns (uint256) {\r... */\n    tag_222:\n        /* \"contracts/Token.sol\":4464:4471  uint256 */\n      0x00\n        /* \"contracts/Token.sol\":4500:4512  errorMessage */\n      dup2\n        /* \"contracts/Token.sol\":4492:4498  b <= a */\n      dup5\n      dup5\n      gt\n      iszero\n        /* \"contracts/Token.sol\":4484:4513  require(b <= a, errorMessage) */\n      tag_368\n      jumpi\n      mload(0x40)\n      shl(0xe5, 0x461bcd)\n      dup2\n      mstore\n      0x04\n      add\n      dup1\n      dup1\n      0x20\n      add\n      dup3\n      dup2\n      sub\n      dup3\n      mstore\n      dup4\n      dup2\n      dup2\n      mload\n      dup2\n      mstore\n      0x20\n      add\n      swap2\n      pop\n      dup1\n      mload\n      swap1\n      0x20\n      add\n      swap1\n      dup1\n      dup4\n      dup4\n      0x00\n    tag_369:\n      dup4\n      dup2\n      lt\n      iszero\n      tag_371\n      jumpi\n      dup2\n      dup2\n      add\n      mload\n      dup4\n      dup3\n      add\n      mstore\n      0x20\n      add\n      jump(tag_369)\n    tag_371:\n      pop\n      pop\n      pop\n      pop\n      swap1\n      pop\n      swap1\n      dup2\n      add\n      swap1\n      0x1f\n      and\n      dup1\n      iszero\n      tag_372\n      jumpi\n      dup1\n      dup3\n      sub\n      dup1\n      mload\n      0x01\n      dup4\n      0x20\n      sub\n      0x0100\n      exp\n      sub\n      not\n      and\n      dup2\n      mstore\n      0x20\n      add\n      swap2\n      pop\n    tag_372:\n      pop\n      swap3\n      pop\n      pop\n      pop\n      mload(0x40)\n      dup1\n      swap2\n      sub\n      swap1\n      revert\n    tag_368:\n      pop\n      pop\n      pop\n        /* \"contracts/Token.sol\":4536:4541  a - b */\n      swap1\n      sub\n      swap1\n        /* \"contracts/Token.sol\":4378:4570  function sub(uint256 a, uint256 b, string memory errorMessage) internal pure returns (uint256) {\r... */\n      jump\t// out\n        /* \"contracts/Token.sol\":35494:35657  function _getRate() private view returns(uint256) {\r... */\n    tag_226:\n        /* \"contracts/Token.sol\":35535:35542  uint256 */\n      0x00\n        /* \"contracts/Token.sol\":35556:35571  uint256 rSupply */\n      dup1\n        /* \"contracts/Token.sol\":35573:35588  uint256 tSupply */\n      0x00\n        /* \"contracts/Token.sol\":35592:35611  _getCurrentSupply() */\n      tag_374\n        /* \"contracts/Token.sol\":35592:35609  _getCurrentSupply */\n      tag_375\n        /* \"contracts/Token.sol\":35592:35611  _getCurrentSupply() */\n      jump\t// in\n    tag_374:\n        /* \"contracts/Token.sol\":35555:35611  (uint256 rSupply, uint256 tSupply) = _getCurrentSupply() */\n      swap1\n      swap3\n      pop\n      swap1\n      pop\n        /* \"contracts/Token.sol\":35629:35649  rSupply.div(tSupply) */\n      tag_376\n        /* \"contracts/Token.sol\":35555:35611  (uint256 rSupply, uint256 tSupply) = _getCurrentSupply() */\n      dup3\n      dup3\n        /* \"contracts/Token.sol\":35629:35640  rSupply.div */\n      tag_228\n        /* \"contracts/Token.sol\":35629:35649  rSupply.div(tSupply) */\n      jump\t// in\n    tag_376:\n        /* \"contracts/Token.sol\":35622:35649  return rSupply.div(tSupply) */\n      swap3\n      pop\n      pop\n      pop\n        /* \"contracts/Token.sol\":35494:35657  function _getRate() private view returns(uint256) {\r... */\n      swap1\n      jump\t// out\n        /* \"contracts/Token.sol\":5776:5908  function div(uint256 a, uint256 b) internal pure returns (uint256) {\r... */\n    tag_228:\n        /* \"contracts/Token.sol\":5834:5841  uint256 */\n      0x00\n        /* \"contracts/Token.sol\":5861:5900  div(a, b, \"SafeMath: division by zero\") */\n      tag_378\n        /* \"contracts/Token.sol\":5865:5866  a */\n      dup4\n        /* \"contracts/Token.sol\":5868:5869  b */\n      dup4\n        /* \"contracts/Token.sol\":5861:5900  div(a, b, \"SafeMath: division by zero\") */\n      mload(0x40)\n      dup1\n      0x40\n      add\n      0x40\n      mstore\n      dup1\n      0x1a\n      dup2\n      mstore\n      0x20\n      add\n      shl(0x30, 0x536166654d6174683a206469766973696f6e206279207a65726f)\n      dup2\n      mstore\n      pop\n        /* \"contracts/Token.sol\":5861:5864  div */\n      tag_379\n        /* \"contracts/Token.sol\":5861:5900  div(a, b, \"SafeMath: division by zero\") */\n      jump\t// in\n    tag_378:\n        /* \"contracts/Token.sol\":5854:5900  return div(a, b, \"SafeMath: division by zero\") */\n      swap4\n        /* \"contracts/Token.sol\":5776:5908  function div(uint256 a, uint256 b) internal pure returns (uint256) {\r... */\n      swap3\n      pop\n      pop\n      pop\n      jump\t// out\n        /* \"contracts/Token.sol\":3475:3656  function add(uint256 a, uint256 b) internal pure returns (uint256) {\r... */\n    tag_252:\n        /* \"contracts/Token.sol\":3533:3540  uint256 */\n      0x00\n        /* \"contracts/Token.sol\":3565:3570  a + b */\n      dup3\n      dup3\n      add\n        /* \"contracts/Token.sol\":3589:3595  c >= a */\n      dup4\n      dup2\n      lt\n      iszero\n        /* \"contracts/Token.sol\":3581:3627  require(c >= a, \"SafeMath: addition overflow\") */\n      tag_378\n      jumpi\n      0x40\n      dup1\n      mload\n      shl(0xe5, 0x461bcd)\n      dup2\n      mstore\n      0x20\n      0x04\n      dup3\n      add\n      mstore\n      0x1b\n      0x24\n      dup3\n      add\n      mstore\n      shl(0x28, 0x536166654d6174683a206164646974696f6e206f766572666c6f77)\n      0x44\n      dup3\n      add\n      mstore\n      swap1\n      mload\n      swap1\n      dup2\n      swap1\n      sub\n      0x64\n      add\n      swap1\n      revert\n        /* \"contracts/Token.sol\":34292:34711  function _getValues(uint256 tAmount) private view returns (uint256, uint256, uint256, uint256, uint256, uint256) {\r... */\n    tag_257:\n        /* \"contracts/Token.sol\":34351:34358  uint256 */\n      0x00\n        /* \"contracts/Token.sol\":34360:34367  uint256 */\n      dup1\n        /* \"contracts/Token.sol\":34369:34376  uint256 */\n      0x00\n        /* \"contracts/Token.sol\":34378:34385  uint256 */\n      dup1\n        /* \"contracts/Token.sol\":34387:34394  uint256 */\n      0x00\n        /* \"contracts/Token.sol\":34396:34403  uint256 */\n      dup1\n        /* \"contracts/Token.sol\":34417:34440  uint256 tTransferAmount */\n      0x00\n        /* \"contracts/Token.sol\":34442:34454  uint256 tFee */\n      dup1\n        /* \"contracts/Token.sol\":34456:34474  uint256 tLiquidity */\n      0x00\n        /* \"contracts/Token.sol\":34478:34498  _getTValues(tAmount) */\n      tag_383\n        /* \"contracts/Token.sol\":34490:34497  tAmount */\n      dup11\n        /* \"contracts/Token.sol\":34478:34489  _getTValues */\n      tag_384\n        /* \"contracts/Token.sol\":34478:34498  _getTValues(tAmount) */\n      jump\t// in\n    tag_383:\n        /* \"contracts/Token.sol\":34416:34498  (uint256 tTransferAmount, uint256 tFee, uint256 tLiquidity) = _getTValues(tAmount) */\n      swap3\n      pop\n      swap3\n      pop\n      swap3\n      pop\n        /* \"contracts/Token.sol\":34510:34525  uint256 rAmount */\n      0x00\n        /* \"contracts/Token.sol\":34527:34550  uint256 rTransferAmount */\n      dup1\n        /* \"contracts/Token.sol\":34552:34564  uint256 rFee */\n      0x00\n        /* \"contracts/Token.sol\":34568:34618  _getRValues(tAmount, tFee, tLiquidity, _getRate()) */\n      tag_385\n        /* \"contracts/Token.sol\":34580:34587  tAmount */\n      dup14\n        /* \"contracts/Token.sol\":34589:34593  tFee */\n      dup7\n        /* \"contracts/Token.sol\":34595:34605  tLiquidity */\n      dup7\n        /* \"contracts/Token.sol\":34607:34617  _getRate() */\n      tag_386\n        /* \"contracts/Token.sol\":34607:34615  _getRate */\n      tag_226\n        /* \"contracts/Token.sol\":34607:34617  _getRate() */\n      jump\t// in\n    tag_386:\n        /* \"contracts/Token.sol\":34568:34579  _getRValues */\n      tag_387\n        /* \"contracts/Token.sol\":34568:34618  _getRValues(tAmount, tFee, tLiquidity, _getRate()) */\n      jump\t// in\n    tag_385:\n        /* \"contracts/Token.sol\":34509:34618  (uint256 rAmount, uint256 rTransferAmount, uint256 rFee) = _getRValues(tAmount, tFee, tLiquidity, _getRate()) */\n      swap2\n      swap16\n      swap1\n      swap15\n      pop\n      swap1\n      swap13\n      pop\n        /* \"contracts/Token.sol\":34669:34684  tTransferAmount */\n      swap6\n      swap11\n      pop\n        /* \"contracts/Token.sol\":34686:34690  tFee */\n      swap4\n      swap9\n      pop\n        /* \"contracts/Token.sol\":34692:34702  tLiquidity */\n      swap2\n      swap7\n      pop\n        /* \"contracts/Token.sol\":34292:34711  function _getValues(uint256 tAmount) private view returns (uint256, uint256, uint256, uint256, uint256, uint256) {\r... */\n      swap3\n      swap5\n      pop\n      pop\n      pop\n      pop\n      pop\n      jump\t// out\n        /* \"contracts/Token.sol\":3939:4075  function sub(uint256 a, uint256 b) internal pure returns (uint256) {\r... */\n    tag_259:\n        /* \"contracts/Token.sol\":3997:4004  uint256 */\n      0x00\n        /* \"contracts/Token.sol\":4024:4067  sub(a, b, \"SafeMath: subtraction overflow\") */\n      tag_378\n        /* \"contracts/Token.sol\":4028:4029  a */\n      dup4\n        /* \"contracts/Token.sol\":4031:4032  b */\n      dup4\n        /* \"contracts/Token.sol\":4024:4067  sub(a, b, \"SafeMath: subtraction overflow\") */\n      mload(0x40)\n      dup1\n      0x40\n      add\n      0x40\n      mstore\n      dup1\n      0x1e\n      dup2\n      mstore\n      0x20\n      add\n      0x536166654d6174683a207375627472616374696f6e206f766572666c6f770000\n      dup2\n      mstore\n      pop\n        /* \"contracts/Token.sol\":4024:4027  sub */\n      tag_222\n        /* \"contracts/Token.sol\":4024:4067  sub(a, b, \"SafeMath: subtraction overflow\") */\n      jump\t// in\n        /* \"contracts/Token.sol\":39769:40754  function swapAndLiquify(uint256 contractTokenBalance) private lockTheSwap {\r... */\n    tag_362:\n        /* \"contracts/Token.sol\":26755:26771  inSwapAndLiquify */\n      0x13\n        /* \"contracts/Token.sol\":26755:26778  inSwapAndLiquify = true */\n      dup1\n      sload\n      not(0xff)\n      and\n        /* \"contracts/Token.sol\":26774:26778  true */\n      0x01\n        /* \"contracts/Token.sol\":26755:26778  inSwapAndLiquify = true */\n      or\n      swap1\n      sstore\n        /* \"contracts/Token.sol\":26755:26771  inSwapAndLiquify */\n      0x00\n        /* \"contracts/Token.sol\":39920:39947  contractTokenBalance.div(2) */\n      tag_392\n        /* \"contracts/Token.sol\":39920:39940  contractTokenBalance */\n      dup3\n        /* \"contracts/Token.sol\":39945:39946  2 */\n      0x02\n        /* \"contracts/Token.sol\":39920:39944  contractTokenBalance.div */\n      tag_228\n        /* \"contracts/Token.sol\":39920:39947  contractTokenBalance.div(2) */\n      jump\t// in\n    tag_392:\n        /* \"contracts/Token.sol\":39905:39947  uint256 half = contractTokenBalance.div(2) */\n      swap1\n      pop\n        /* \"contracts/Token.sol\":39958:39975  uint256 otherHalf */\n      0x00\n        /* \"contracts/Token.sol\":39978:40008  contractTokenBalance.sub(half) */\n      tag_393\n        /* \"contracts/Token.sol\":39978:39998  contractTokenBalance */\n      dup4\n        /* \"contracts/Token.sol\":39905:39947  uint256 half = contractTokenBalance.div(2) */\n      dup4\n        /* \"contracts/Token.sol\":39978:40002  contractTokenBalance.sub */\n      tag_259\n        /* \"contracts/Token.sol\":39978:40008  contractTokenBalance.sub(half) */\n      jump\t// in\n    tag_393:\n        /* \"contracts/Token.sol\":39958:40008  uint256 otherHalf = contractTokenBalance.sub(half) */\n      swap1\n      pop\n        /* \"contracts/Token.sol\":40311:40332  address(this).balance */\n      selfbalance\n        /* \"contracts/Token.sol\":40377:40399  swapTokensForEth(half) */\n      tag_394\n        /* \"contracts/Token.sol\":40394:40398  half */\n      dup4\n        /* \"contracts/Token.sol\":40377:40393  swapTokensForEth */\n      tag_395\n        /* \"contracts/Token.sol\":40377:40399  swapTokensForEth(half) */\n      jump\t// in\n    tag_394:\n        /* \"contracts/Token.sol\":40530:40548  uint256 newBalance */\n      0x00\n        /* \"contracts/Token.sol\":40551:40592  address(this).balance.sub(initialBalance) */\n      tag_396\n        /* \"contracts/Token.sol\":40551:40572  address(this).balance */\n      selfbalance\n        /* \"contracts/Token.sol\":40577:40591  initialBalance */\n      dup4\n        /* \"contracts/Token.sol\":40551:40576  address(this).balance.sub */\n      tag_259\n        /* \"contracts/Token.sol\":40551:40592  address(this).balance.sub(initialBalance) */\n      jump\t// in\n    tag_396:\n        /* \"contracts/Token.sol\":40530:40592  uint256 newBalance = address(this).balance.sub(initialBalance) */\n      swap1\n      pop\n        /* \"contracts/Token.sol\":40642:40677  addLiquidity(otherHalf, newBalance) */\n      tag_397\n        /* \"contracts/Token.sol\":40655:40664  otherHalf */\n      dup4\n        /* \"contracts/Token.sol\":40666:40676  newBalance */\n      dup3\n        /* \"contracts/Token.sol\":40642:40654  addLiquidity */\n      tag_398\n        /* \"contracts/Token.sol\":40642:40677  addLiquidity(otherHalf, newBalance) */\n      jump\t// in\n    tag_397:\n        /* \"contracts/Token.sol\":40703:40746  SwapAndLiquify(half, newBalance, otherHalf) */\n      0x40\n      dup1\n      mload\n      dup6\n      dup2\n      mstore\n      0x20\n      dup2\n      add\n      dup4\n      swap1\n      mstore\n      dup1\n      dup3\n      add\n      dup6\n      swap1\n      mstore\n      swap1\n      mload\n      0x17bbfb9a6069321b6ded73bd96327c9e6b7212a5cd51ff219cd61370acafb561\n      swap2\n      dup2\n      swap1\n      sub\n      0x60\n      add\n      swap1\n      log1\n      pop\n      pop\n        /* \"contracts/Token.sol\":26801:26817  inSwapAndLiquify */\n      0x13\n        /* \"contracts/Token.sol\":26801:26825  inSwapAndLiquify = false */\n      dup1\n      sload\n      not(0xff)\n      and\n      swap1\n      sstore\n      pop\n      pop\n      pop\n        /* \"contracts/Token.sol\":39769:40754  function swapAndLiquify(uint256 contractTokenBalance) private lockTheSwap {\r... */\n      jump\t// out\n        /* \"contracts/Token.sol\":41953:42787  function _tokenTransfer(address sender, address recipient, uint256 amount,bool takeFee) private {\r... */\n    tag_366:\n        /* \"contracts/Token.sol\":42064:42071  takeFee */\n      dup1\n        /* \"contracts/Token.sol\":42060:42100  if(!takeFee)\r... */\n      tag_401\n      jumpi\n        /* \"contracts/Token.sol\":42086:42100  removeAllFee() */\n      tag_401\n        /* \"contracts/Token.sol\":42086:42098  removeAllFee */\n      tag_402\n        /* \"contracts/Token.sol\":42086:42100  removeAllFee() */\n      jump\t// in\n    tag_401:\n      sub(shl(0xa0, 0x01), 0x01)\n        /* \"contracts/Token.sol\":42125:42144  _isExcluded[sender] */\n      dup5\n      and\n      0x00\n      swap1\n      dup2\n      mstore\n        /* \"contracts/Token.sol\":42125:42136  _isExcluded */\n      0x07\n        /* \"contracts/Token.sol\":42125:42144  _isExcluded[sender] */\n      0x20\n      mstore\n      0x40\n      swap1\n      keccak256\n      sload\n      0xff\n      and\n        /* \"contracts/Token.sol\":42125:42171  _isExcluded[sender] && !_isExcluded[recipient] */\n      dup1\n      iszero\n      tag_403\n      jumpi\n      pop\n      sub(shl(0xa0, 0x01), 0x01)\n        /* \"contracts/Token.sol\":42149:42171  _isExcluded[recipient] */\n      dup4\n      and\n      0x00\n      swap1\n      dup2\n      mstore\n        /* \"contracts/Token.sol\":42149:42160  _isExcluded */\n      0x07\n        /* \"contracts/Token.sol\":42149:42171  _isExcluded[recipient] */\n      0x20\n      mstore\n      0x40\n      swap1\n      keccak256\n      sload\n      0xff\n      and\n        /* \"contracts/Token.sol\":42148:42171  !_isExcluded[recipient] */\n      iszero\n        /* \"contracts/Token.sol\":42125:42171  _isExcluded[sender] && !_isExcluded[recipient] */\n    tag_403:\n        /* \"contracts/Token.sol\":42121:42718  if (_isExcluded[sender] && !_isExcluded[recipient]) {\r... */\n      iszero\n      tag_404\n      jumpi\n        /* \"contracts/Token.sol\":42188:42236  _transferFromExcluded(sender, recipient, amount) */\n      tag_405\n        /* \"contracts/Token.sol\":42210:42216  sender */\n      dup5\n        /* \"contracts/Token.sol\":42218:42227  recipient */\n      dup5\n        /* \"contracts/Token.sol\":42229:42235  amount */\n      dup5\n        /* \"contracts/Token.sol\":42188:42209  _transferFromExcluded */\n      tag_406\n        /* \"contracts/Token.sol\":42188:42236  _transferFromExcluded(sender, recipient, amount) */\n      jump\t// in\n    tag_405:\n        /* \"contracts/Token.sol\":42121:42718  if (_isExcluded[sender] && !_isExcluded[recipient]) {\r... */\n      jump(tag_423)\n    tag_404:\n      sub(shl(0xa0, 0x01), 0x01)\n        /* \"contracts/Token.sol\":42259:42278  _isExcluded[sender] */\n      dup5\n      and\n      0x00\n      swap1\n      dup2\n      mstore\n        /* \"contracts/Token.sol\":42259:42270  _isExcluded */\n      0x07\n        /* \"contracts/Token.sol\":42259:42278  _isExcluded[sender] */\n      0x20\n      mstore\n      0x40\n      swap1\n      keccak256\n      sload\n      0xff\n      and\n        /* \"contracts/Token.sol\":42258:42278  !_isExcluded[sender] */\n      iszero\n        /* \"contracts/Token.sol\":42258:42304  !_isExcluded[sender] && _isExcluded[recipient] */\n      dup1\n      iszero\n      tag_408\n      jumpi\n      pop\n      sub(shl(0xa0, 0x01), 0x01)\n        /* \"contracts/Token.sol\":42282:42304  _isExcluded[recipient] */\n      dup4\n      and\n      0x00\n      swap1\n      dup2\n      mstore\n        /* \"contracts/Token.sol\":42282:42293  _isExcluded */\n      0x07\n        /* \"contracts/Token.sol\":42282:42304  _isExcluded[recipient] */\n      0x20\n      mstore\n      0x40\n      swap1\n      keccak256\n      sload\n      0xff\n      and\n        /* \"contracts/Token.sol\":42258:42304  !_isExcluded[sender] && _isExcluded[recipient] */\n    tag_408:\n        /* \"contracts/Token.sol\":42254:42718  if (!_isExcluded[sender] && _isExcluded[recipient]) {\r... */\n      iszero\n      tag_409\n      jumpi\n        /* \"contracts/Token.sol\":42321:42367  _transferToExcluded(sender, recipient, amount) */\n      tag_405\n        /* \"contracts/Token.sol\":42341:42347  sender */\n      dup5\n        /* \"contracts/Token.sol\":42349:42358  recipient */\n      dup5\n        /* \"contracts/Token.sol\":42360:42366  amount */\n      dup5\n        /* \"contracts/Token.sol\":42321:42340  _transferToExcluded */\n      tag_411\n        /* \"contracts/Token.sol\":42321:42367  _transferToExcluded(sender, recipient, amount) */\n      jump\t// in\n        /* \"contracts/Token.sol\":42254:42718  if (!_isExcluded[sender] && _isExcluded[recipient]) {\r... */\n    tag_409:\n      sub(shl(0xa0, 0x01), 0x01)\n        /* \"contracts/Token.sol\":42390:42409  _isExcluded[sender] */\n      dup5\n      and\n      0x00\n      swap1\n      dup2\n      mstore\n        /* \"contracts/Token.sol\":42390:42401  _isExcluded */\n      0x07\n        /* \"contracts/Token.sol\":42390:42409  _isExcluded[sender] */\n      0x20\n      mstore\n      0x40\n      swap1\n      keccak256\n      sload\n      0xff\n      and\n        /* \"contracts/Token.sol\":42389:42409  !_isExcluded[sender] */\n      iszero\n        /* \"contracts/Token.sol\":42389:42436  !_isExcluded[sender] && !_isExcluded[recipient] */\n      dup1\n      iszero\n      tag_413\n      jumpi\n      pop\n      sub(shl(0xa0, 0x01), 0x01)\n        /* \"contracts/Token.sol\":42414:42436  _isExcluded[recipient] */\n      dup4\n      and\n      0x00\n      swap1\n      dup2\n      mstore\n        /* \"contracts/Token.sol\":42414:42425  _isExcluded */\n      0x07\n        /* \"contracts/Token.sol\":42414:42436  _isExcluded[recipient] */\n      0x20\n      mstore\n      0x40\n      swap1\n      keccak256\n      sload\n      0xff\n      and\n        /* \"contracts/Token.sol\":42413:42436  !_isExcluded[recipient] */\n      iszero\n        /* \"contracts/Token.sol\":42389:42436  !_isExcluded[sender] && !_isExcluded[recipient] */\n    tag_413:\n        /* \"contracts/Token.sol\":42385:42718  if (!_isExcluded[sender] && !_isExcluded[recipient]) {\r... */\n      iszero\n      tag_414\n      jumpi\n        /* \"contracts/Token.sol\":42453:42497  _transferStandard(sender, recipient, amount) */\n      tag_405\n        /* \"contracts/Token.sol\":42471:42477  sender */\n      dup5\n        /* \"contracts/Token.sol\":42479:42488  recipient */\n      dup5\n        /* \"contracts/Token.sol\":42490:42496  amount */\n      dup5\n        /* \"contracts/Token.sol\":42453:42470  _transferStandard */\n      tag_416\n        /* \"contracts/Token.sol\":42453:42497  _transferStandard(sender, recipient, amount) */\n      jump\t// in\n        /* \"contracts/Token.sol\":42385:42718  if (!_isExcluded[sender] && !_isExcluded[recipient]) {\r... */\n    tag_414:\n      sub(shl(0xa0, 0x01), 0x01)\n        /* \"contracts/Token.sol\":42519:42538  _isExcluded[sender] */\n      dup5\n      and\n      0x00\n      swap1\n      dup2\n      mstore\n        /* \"contracts/Token.sol\":42519:42530  _isExcluded */\n      0x07\n        /* \"contracts/Token.sol\":42519:42538  _isExcluded[sender] */\n      0x20\n      mstore\n      0x40\n      swap1\n      keccak256\n      sload\n      0xff\n      and\n        /* \"contracts/Token.sol\":42519:42564  _isExcluded[sender] && _isExcluded[recipient] */\n      dup1\n      iszero\n      tag_418\n      jumpi\n      pop\n      sub(shl(0xa0, 0x01), 0x01)\n        /* \"contracts/Token.sol\":42542:42564  _isExcluded[recipient] */\n      dup4\n      and\n      0x00\n      swap1\n      dup2\n      mstore\n        /* \"contracts/Token.sol\":42542:42553  _isExcluded */\n      0x07\n        /* \"contracts/Token.sol\":42542:42564  _isExcluded[recipient] */\n      0x20\n      mstore\n      0x40\n      swap1\n      keccak256\n      sload\n      0xff\n      and\n        /* \"contracts/Token.sol\":42519:42564  _isExcluded[sender] && _isExcluded[recipient] */\n    tag_418:\n        /* \"contracts/Token.sol\":42515:42718  if (_isExcluded[sender] && _isExcluded[recipient]) {\r... */\n      iszero\n      tag_419\n      jumpi\n        /* \"contracts/Token.sol\":42581:42629  _transferBothExcluded(sender, recipient, amount) */\n      tag_405\n        /* \"contracts/Token.sol\":42603:42609  sender */\n      dup5\n        /* \"contracts/Token.sol\":42611:42620  recipient */\n      dup5\n        /* \"contracts/Token.sol\":42622:42628  amount */\n      dup5\n        /* \"contracts/Token.sol\":42581:42602  _transferBothExcluded */\n      tag_421\n        /* \"contracts/Token.sol\":42581:42629  _transferBothExcluded(sender, recipient, amount) */\n      jump\t// in\n        /* \"contracts/Token.sol\":42515:42718  if (_isExcluded[sender] && _isExcluded[recipient]) {\r... */\n    tag_419:\n        /* \"contracts/Token.sol\":42662:42706  _transferStandard(sender, recipient, amount) */\n      tag_423\n        /* \"contracts/Token.sol\":42680:42686  sender */\n      dup5\n        /* \"contracts/Token.sol\":42688:42697  recipient */\n      dup5\n        /* \"contracts/Token.sol\":42699:42705  amount */\n      dup5\n        /* \"contracts/Token.sol\":42662:42679  _transferStandard */\n      tag_416\n        /* \"contracts/Token.sol\":42662:42706  _transferStandard(sender, recipient, amount) */\n      jump\t// in\n    tag_423:\n        /* \"contracts/Token.sol\":42742:42749  takeFee */\n      dup1\n        /* \"contracts/Token.sol\":42738:42779  if(!takeFee)\r... */\n      tag_425\n      jumpi\n        /* \"contracts/Token.sol\":42764:42779  restoreAllFee() */\n      tag_425\n        /* \"contracts/Token.sol\":42764:42777  restoreAllFee */\n      tag_426\n        /* \"contracts/Token.sol\":42764:42779  restoreAllFee() */\n      jump\t// in\n    tag_425:\n        /* \"contracts/Token.sol\":41953:42787  function _tokenTransfer(address sender, address recipient, uint256 amount,bool takeFee) private {\r... */\n      pop\n      pop\n      pop\n      pop\n      jump\t// out\n        /* \"contracts/Token.sol\":35665:36226  function _getCurrentSupply() private view returns(uint256, uint256) {\r... */\n    tag_375:\n        /* \"contracts/Token.sol\":35762:35769  _rTotal */\n      sload(0x0a)\n        /* \"contracts/Token.sol\":35798:35805  _tTotal */\n      sload(0x09)\n        /* \"contracts/Token.sol\":35715:35722  uint256 */\n      0x00\n      swap2\n      dup3\n      swap2\n      dup3\n        /* \"contracts/Token.sol\":35822:36111  for (uint256 i = 0; i < _excluded.length; i++) {\r... */\n    tag_428:\n        /* \"contracts/Token.sol\":35846:35855  _excluded */\n      0x08\n        /* \"contracts/Token.sol\":35846:35862  _excluded.length */\n      sload\n        /* \"contracts/Token.sol\":35842:35862  i < _excluded.length */\n      dup2\n      lt\n        /* \"contracts/Token.sol\":35822:36111  for (uint256 i = 0; i < _excluded.length; i++) {\r... */\n      iszero\n      tag_429\n      jumpi\n        /* \"contracts/Token.sol\":35912:35919  rSupply */\n      dup3\n        /* \"contracts/Token.sol\":35888:35895  _rOwned */\n      0x03\n        /* \"contracts/Token.sol\":35888:35909  _rOwned[_excluded[i]] */\n      0x00\n        /* \"contracts/Token.sol\":35896:35905  _excluded */\n      0x08\n        /* \"contracts/Token.sol\":35906:35907  i */\n      dup5\n        /* \"contracts/Token.sol\":35896:35908  _excluded[i] */\n      dup2\n      sload\n      dup2\n      lt\n      tag_431\n      jumpi\n      invalid\n    tag_431:\n      0x00\n      swap2\n      dup3\n      mstore\n      0x20\n      dup1\n      dup4\n      keccak256\n      swap1\n      swap2\n      add\n      sload\n      sub(shl(0xa0, 0x01), 0x01)\n      and\n        /* \"contracts/Token.sol\":35888:35909  _rOwned[_excluded[i]] */\n      dup4\n      mstore\n      dup3\n      add\n      swap3\n      swap1\n      swap3\n      mstore\n      0x40\n      add\n      swap1\n      keccak256\n      sload\n        /* \"contracts/Token.sol\":35888:35919  _rOwned[_excluded[i]] > rSupply */\n      gt\n      dup1\n        /* \"contracts/Token.sol\":35888:35954  _rOwned[_excluded[i]] > rSupply || _tOwned[_excluded[i]] > tSupply */\n      tag_433\n      jumpi\n      pop\n        /* \"contracts/Token.sol\":35947:35954  tSupply */\n      dup2\n        /* \"contracts/Token.sol\":35923:35930  _tOwned */\n      0x04\n        /* \"contracts/Token.sol\":35923:35944  _tOwned[_excluded[i]] */\n      0x00\n        /* \"contracts/Token.sol\":35931:35940  _excluded */\n      0x08\n        /* \"contracts/Token.sol\":35941:35942  i */\n      dup5\n        /* \"contracts/Token.sol\":35931:35943  _excluded[i] */\n      dup2\n      sload\n      dup2\n      lt\n      tag_434\n      jumpi\n      invalid\n    tag_434:\n      0x00\n      swap2\n      dup3\n      mstore\n      0x20\n      dup1\n      dup4\n      keccak256\n      swap1\n      swap2\n      add\n      sload\n      sub(shl(0xa0, 0x01), 0x01)\n      and\n        /* \"contracts/Token.sol\":35923:35944  _tOwned[_excluded[i]] */\n      dup4\n      mstore\n      dup3\n      add\n      swap3\n      swap1\n      swap3\n      mstore\n      0x40\n      add\n      swap1\n      keccak256\n      sload\n        /* \"contracts/Token.sol\":35923:35954  _tOwned[_excluded[i]] > tSupply */\n      gt\n        /* \"contracts/Token.sol\":35888:35954  _rOwned[_excluded[i]] > rSupply || _tOwned[_excluded[i]] > tSupply */\n    tag_433:\n        /* \"contracts/Token.sol\":35884:35981  if (_rOwned[_excluded[i]] > rSupply || _tOwned[_excluded[i]] > tSupply) return (_rTotal, _tTotal) */\n      iszero\n      tag_436\n      jumpi\n        /* \"contracts/Token.sol\":35964:35971  _rTotal */\n      sload(0x0a)\n        /* \"contracts/Token.sol\":35973:35980  _tTotal */\n      sload(0x09)\n        /* \"contracts/Token.sol\":35956:35981  return (_rTotal, _tTotal) */\n      swap5\n      pop\n      swap5\n      pop\n      pop\n      pop\n      pop\n      jump(tag_427)\n        /* \"contracts/Token.sol\":35884:35981  if (_rOwned[_excluded[i]] > rSupply || _tOwned[_excluded[i]] > tSupply) return (_rTotal, _tTotal) */\n    tag_436:\n        /* \"contracts/Token.sol\":36006:36040  rSupply.sub(_rOwned[_excluded[i]]) */\n      tag_437\n        /* \"contracts/Token.sol\":36018:36025  _rOwned */\n      0x03\n        /* \"contracts/Token.sol\":36018:36039  _rOwned[_excluded[i]] */\n      0x00\n        /* \"contracts/Token.sol\":36026:36035  _excluded */\n      0x08\n        /* \"contracts/Token.sol\":36036:36037  i */\n      dup5\n        /* \"contracts/Token.sol\":36026:36038  _excluded[i] */\n      dup2\n      sload\n      dup2\n      lt\n      tag_438\n      jumpi\n      invalid\n    tag_438:\n      0x00\n      swap2\n      dup3\n      mstore\n      0x20\n      dup1\n      dup4\n      keccak256\n      swap1\n      swap2\n      add\n      sload\n      sub(shl(0xa0, 0x01), 0x01)\n      and\n        /* \"contracts/Token.sol\":36018:36039  _rOwned[_excluded[i]] */\n      dup4\n      mstore\n      dup3\n      add\n      swap3\n      swap1\n      swap3\n      mstore\n      0x40\n      add\n      swap1\n      keccak256\n      sload\n        /* \"contracts/Token.sol\":36006:36013  rSupply */\n      dup5\n      swap1\n        /* \"contracts/Token.sol\":36006:36017  rSupply.sub */\n      tag_259\n        /* \"contracts/Token.sol\":36006:36040  rSupply.sub(_rOwned[_excluded[i]]) */\n      jump\t// in\n    tag_437:\n        /* \"contracts/Token.sol\":35996:36040  rSupply = rSupply.sub(_rOwned[_excluded[i]]) */\n      swap3\n      pop\n        /* \"contracts/Token.sol\":36065:36099  tSupply.sub(_tOwned[_excluded[i]]) */\n      tag_440\n        /* \"contracts/Token.sol\":36077:36084  _tOwned */\n      0x04\n        /* \"contracts/Token.sol\":36077:36098  _tOwned[_excluded[i]] */\n      0x00\n        /* \"contracts/Token.sol\":36085:36094  _excluded */\n      0x08\n        /* \"contracts/Token.sol\":36095:36096  i */\n      dup5\n        /* \"contracts/Token.sol\":36085:36097  _excluded[i] */\n      dup2\n      sload\n      dup2\n      lt\n      tag_441\n      jumpi\n      invalid\n    tag_441:\n      0x00\n      swap2\n      dup3\n      mstore\n      0x20\n      dup1\n      dup4\n      keccak256\n      swap1\n      swap2\n      add\n      sload\n      sub(shl(0xa0, 0x01), 0x01)\n      and\n        /* \"contracts/Token.sol\":36077:36098  _tOwned[_excluded[i]] */\n      dup4\n      mstore\n      dup3\n      add\n      swap3\n      swap1\n      swap3\n      mstore\n      0x40\n      add\n      swap1\n      keccak256\n      sload\n        /* \"contracts/Token.sol\":36065:36072  tSupply */\n      dup4\n      swap1\n        /* \"contracts/Token.sol\":36065:36076  tSupply.sub */\n      tag_259\n        /* \"contracts/Token.sol\":36065:36099  tSupply.sub(_tOwned[_excluded[i]]) */\n      jump\t// in\n    tag_440:\n        /* \"contracts/Token.sol\":36055:36099  tSupply = tSupply.sub(_tOwned[_excluded[i]]) */\n      swap2\n      pop\n        /* \"contracts/Token.sol\":35864:35867  i++ */\n      0x01\n      add\n        /* \"contracts/Token.sol\":35822:36111  for (uint256 i = 0; i < _excluded.length; i++) {\r... */\n      jump(tag_428)\n    tag_429:\n      pop\n        /* \"contracts/Token.sol\":36147:36154  _tTotal */\n      sload(0x09)\n        /* \"contracts/Token.sol\":36135:36142  _rTotal */\n      sload(0x0a)\n        /* \"contracts/Token.sol\":36135:36155  _rTotal.div(_tTotal) */\n      tag_443\n      swap2\n        /* \"contracts/Token.sol\":36135:36146  _rTotal.div */\n      tag_228\n        /* \"contracts/Token.sol\":36135:36155  _rTotal.div(_tTotal) */\n      jump\t// in\n    tag_443:\n        /* \"contracts/Token.sol\":36125:36132  rSupply */\n      dup3\n        /* \"contracts/Token.sol\":36125:36155  rSupply < _rTotal.div(_tTotal) */\n      lt\n        /* \"contracts/Token.sol\":36121:36182  if (rSupply < _rTotal.div(_tTotal)) return (_rTotal, _tTotal) */\n      iszero\n      tag_444\n      jumpi\n        /* \"contracts/Token.sol\":36165:36172  _rTotal */\n      sload(0x0a)\n        /* \"contracts/Token.sol\":36174:36181  _tTotal */\n      sload(0x09)\n        /* \"contracts/Token.sol\":36157:36182  return (_rTotal, _tTotal) */\n      swap4\n      pop\n      swap4\n      pop\n      pop\n      pop\n      jump(tag_427)\n        /* \"contracts/Token.sol\":36121:36182  if (rSupply < _rTotal.div(_tTotal)) return (_rTotal, _tTotal) */\n    tag_444:\n        /* \"contracts/Token.sol\":36201:36208  rSupply */\n      swap1\n      swap3\n      pop\n        /* \"contracts/Token.sol\":36210:36217  tSupply */\n      swap1\n      pop\n        /* \"contracts/Token.sol\":35665:36226  function _getCurrentSupply() private view returns(uint256, uint256) {\r... */\n    tag_427:\n      swap1\n      swap2\n      jump\t// out\n        /* \"contracts/Token.sol\":6404:6682  function div(uint256 a, uint256 b, string memory errorMessage) internal pure returns (uint256) {\r... */\n    tag_379:\n        /* \"contracts/Token.sol\":6490:6497  uint256 */\n      0x00\n        /* \"contracts/Token.sol\":6525:6537  errorMessage */\n      dup2\n        /* \"contracts/Token.sol\":6518:6523  b > 0 */\n      dup4\n        /* \"contracts/Token.sol\":6510:6538  require(b > 0, errorMessage) */\n      tag_446\n      jumpi\n      mload(0x40)\n      shl(0xe5, 0x461bcd)\n      dup2\n      mstore\n      0x20\n      0x04\n      dup3\n      add\n      dup2\n      dup2\n      mstore\n      dup4\n      mload\n      0x24\n      dup5\n      add\n      mstore\n      dup4\n      mload\n      swap1\n      swap3\n      dup4\n      swap3\n      0x44\n      swap1\n      swap2\n      add\n      swap2\n      swap1\n      dup6\n      add\n      swap1\n      dup1\n      dup4\n      dup4\n      0x00\n      dup4\n      iszero\n      tag_371\n      jumpi\n      dup2\n      dup2\n      add\n      mload\n      dup4\n      dup3\n      add\n      mstore\n      0x20\n      add\n      jump(tag_369)\n    tag_446:\n      pop\n        /* \"contracts/Token.sol\":6549:6558  uint256 c */\n      0x00\n        /* \"contracts/Token.sol\":6565:6566  b */\n      dup4\n        /* \"contracts/Token.sol\":6561:6562  a */\n      dup6\n        /* \"contracts/Token.sol\":6561:6566  a / b */\n      dup2\n      tag_451\n      jumpi\n      invalid\n    tag_451:\n      div\n      swap6\n        /* \"contracts/Token.sol\":6404:6682  function div(uint256 a, uint256 b, string memory errorMessage) internal pure returns (uint256) {\r... */\n      swap5\n      pop\n      pop\n      pop\n      pop\n      pop\n      jump\t// out\n        /* \"contracts/Token.sol\":34719:35049  function _getTValues(uint256 tAmount) private view returns (uint256, uint256, uint256) {\r... */\n    tag_384:\n        /* \"contracts/Token.sol\":34779:34786  uint256 */\n      0x00\n        /* \"contracts/Token.sol\":34788:34795  uint256 */\n      dup1\n        /* \"contracts/Token.sol\":34797:34804  uint256 */\n      0x00\n        /* \"contracts/Token.sol\":34817:34829  uint256 tFee */\n      dup1\n        /* \"contracts/Token.sol\":34832:34856  calculateTaxFee(tAmount) */\n      tag_453\n        /* \"contracts/Token.sol\":34848:34855  tAmount */\n      dup6\n        /* \"contracts/Token.sol\":34832:34847  calculateTaxFee */\n      tag_454\n        /* \"contracts/Token.sol\":34832:34856  calculateTaxFee(tAmount) */\n      jump\t// in\n    tag_453:\n        /* \"contracts/Token.sol\":34817:34856  uint256 tFee = calculateTaxFee(tAmount) */\n      swap1\n      pop\n        /* \"contracts/Token.sol\":34867:34885  uint256 tLiquidity */\n      0x00\n        /* \"contracts/Token.sol\":34888:34918  calculateLiquidityFee(tAmount) */\n      tag_455\n        /* \"contracts/Token.sol\":34910:34917  tAmount */\n      dup7\n        /* \"contracts/Token.sol\":34888:34909  calculateLiquidityFee */\n      tag_456\n        /* \"contracts/Token.sol\":34888:34918  calculateLiquidityFee(tAmount) */\n      jump\t// in\n    tag_455:\n        /* \"contracts/Token.sol\":34867:34918  uint256 tLiquidity = calculateLiquidityFee(tAmount) */\n      swap1\n      pop\n        /* \"contracts/Token.sol\":34929:34952  uint256 tTransferAmount */\n      0x00\n        /* \"contracts/Token.sol\":34955:34988  tAmount.sub(tFee).sub(tLiquidity) */\n      tag_457\n        /* \"contracts/Token.sol\":34867:34918  uint256 tLiquidity = calculateLiquidityFee(tAmount) */\n      dup3\n        /* \"contracts/Token.sol\":34955:34972  tAmount.sub(tFee) */\n      tag_458\n        /* \"contracts/Token.sol\":34955:34962  tAmount */\n      dup10\n        /* \"contracts/Token.sol\":34967:34971  tFee */\n      dup7\n        /* \"contracts/Token.sol\":34955:34966  tAmount.sub */\n      tag_259\n        /* \"contracts/Token.sol\":34955:34972  tAmount.sub(tFee) */\n      jump\t// in\n    tag_458:\n        /* \"contracts/Token.sol\":34955:34976  tAmount.sub(tFee).sub */\n      swap1\n      tag_259\n        /* \"contracts/Token.sol\":34955:34988  tAmount.sub(tFee).sub(tLiquidity) */\n      jump\t// in\n    tag_457:\n        /* \"contracts/Token.sol\":34929:34988  uint256 tTransferAmount = tAmount.sub(tFee).sub(tLiquidity) */\n      swap8\n        /* \"contracts/Token.sol\":35024:35028  tFee */\n      swap3\n      swap7\n      pop\n        /* \"contracts/Token.sol\":35030:35040  tLiquidity */\n      swap1\n      swap5\n      pop\n        /* \"contracts/Token.sol\":34719:35049  function _getTValues(uint256 tAmount) private view returns (uint256, uint256, uint256) {\r... */\n      swap1\n      swap3\n      pop\n      pop\n      pop\n      jump\t// out\n        /* \"contracts/Token.sol\":35057:35486  function _getRValues(uint256 tAmount, uint256 tFee, uint256 tLiquidity, uint256 currentRate) private pure returns (uint256, uint256, uint256) {\r... */\n    tag_387:\n        /* \"contracts/Token.sol\":35172:35179  uint256 */\n      0x00\n      dup1\n      dup1\n      dup1\n        /* \"contracts/Token.sol\":35228:35252  tAmount.mul(currentRate) */\n      tag_460\n        /* \"contracts/Token.sol\":35228:35235  tAmount */\n      dup9\n        /* \"contracts/Token.sol\":35240:35251  currentRate */\n      dup7\n        /* \"contracts/Token.sol\":35228:35239  tAmount.mul */\n      tag_461\n        /* \"contracts/Token.sol\":35228:35252  tAmount.mul(currentRate) */\n      jump\t// in\n    tag_460:\n        /* \"contracts/Token.sol\":35210:35252  uint256 rAmount = tAmount.mul(currentRate) */\n      swap1\n      pop\n        /* \"contracts/Token.sol\":35263:35275  uint256 rFee */\n      0x00\n        /* \"contracts/Token.sol\":35278:35299  tFee.mul(currentRate) */\n      tag_462\n        /* \"contracts/Token.sol\":35278:35282  tFee */\n      dup9\n        /* \"contracts/Token.sol\":35287:35298  currentRate */\n      dup8\n        /* \"contracts/Token.sol\":35278:35286  tFee.mul */\n      tag_461\n        /* \"contracts/Token.sol\":35278:35299  tFee.mul(currentRate) */\n      jump\t// in\n    tag_462:\n        /* \"contracts/Token.sol\":35263:35299  uint256 rFee = tFee.mul(currentRate) */\n      swap1\n      pop\n        /* \"contracts/Token.sol\":35310:35328  uint256 rLiquidity */\n      0x00\n        /* \"contracts/Token.sol\":35331:35358  tLiquidity.mul(currentRate) */\n      tag_463\n        /* \"contracts/Token.sol\":35331:35341  tLiquidity */\n      dup9\n        /* \"contracts/Token.sol\":35346:35357  currentRate */\n      dup9\n        /* \"contracts/Token.sol\":35331:35345  tLiquidity.mul */\n      tag_461\n        /* \"contracts/Token.sol\":35331:35358  tLiquidity.mul(currentRate) */\n      jump\t// in\n    tag_463:\n        /* \"contracts/Token.sol\":35310:35358  uint256 rLiquidity = tLiquidity.mul(currentRate) */\n      swap1\n      pop\n        /* \"contracts/Token.sol\":35369:35392  uint256 rTransferAmount */\n      0x00\n        /* \"contracts/Token.sol\":35395:35428  rAmount.sub(rFee).sub(rLiquidity) */\n      tag_464\n        /* \"contracts/Token.sol\":35310:35358  uint256 rLiquidity = tLiquidity.mul(currentRate) */\n      dup3\n        /* \"contracts/Token.sol\":35395:35412  rAmount.sub(rFee) */\n      tag_458\n        /* \"contracts/Token.sol\":35395:35402  rAmount */\n      dup7\n        /* \"contracts/Token.sol\":35407:35411  rFee */\n      dup7\n        /* \"contracts/Token.sol\":35395:35406  rAmount.sub */\n      tag_259\n        /* \"contracts/Token.sol\":35395:35412  rAmount.sub(rFee) */\n      jump\t// in\n        /* \"contracts/Token.sol\":35395:35428  rAmount.sub(rFee).sub(rLiquidity) */\n    tag_464:\n        /* \"contracts/Token.sol\":35447:35454  rAmount */\n      swap4\n      swap12\n      swap4\n      swap11\n      pop\n        /* \"contracts/Token.sol\":35473:35477  rFee */\n      swap2\n      swap9\n      pop\n        /* \"contracts/Token.sol\":35057:35486  function _getRValues(uint256 tAmount, uint256 tFee, uint256 tLiquidity, uint256 currentRate) private pure returns (uint256, uint256, uint256) {\r... */\n      swap2\n      swap7\n      pop\n      pop\n      pop\n      pop\n      pop\n      pop\n      pop\n      jump\t// out\n        /* \"contracts/Token.sol\":40762:41351  function swapTokensForEth(uint256 tokenAmount) private {\r... */\n    tag_395:\n        /* \"contracts/Token.sol\":40912:40928  new address[](2) */\n      0x40\n      dup1\n      mload\n        /* \"contracts/Token.sol\":40926:40927  2 */\n      0x02\n        /* \"contracts/Token.sol\":40912:40928  new address[](2) */\n      dup1\n      dup3\n      mstore\n        /* \"contracts/Token.sol\":40888:40909  address[] memory path */\n      0x60\n        /* \"contracts/Token.sol\":40912:40928  new address[](2) */\n      dup1\n      dup4\n      add\n      dup5\n      mstore\n        /* \"contracts/Token.sol\":40888:40909  address[] memory path */\n      swap3\n        /* \"contracts/Token.sol\":40912:40928  new address[](2) */\n      0x20\n      dup4\n      add\n      swap1\n      dup1\n      calldatasize\n      dup4\n      calldatacopy\n      add\n      swap1\n      pop\n      pop\n        /* \"contracts/Token.sol\":40888:40928  address[] memory path = new address[](2) */\n      swap1\n      pop\n        /* \"contracts/Token.sol\":40957:40961  this */\n      address\n        /* \"contracts/Token.sol\":40939:40943  path */\n      dup2\n        /* \"contracts/Token.sol\":40944:40945  0 */\n      0x00\n        /* \"contracts/Token.sol\":40939:40946  path[0] */\n      dup2\n      mload\n      dup2\n      lt\n      tag_469\n      jumpi\n      invalid\n    tag_469:\n      0x20\n      mul\n      0x20\n      add\n      add\n        /* \"contracts/Token.sol\":40939:40962  path[0] = address(this) */\n      swap1\n      sub(shl(0xa0, 0x01), 0x01)\n      and\n      swap1\n      dup2\n      sub(shl(0xa0, 0x01), 0x01)\n      and\n      dup2\n      mstore\n      pop\n      pop\n        /* \"contracts/Token.sol\":40983:40998  uniswapV2Router */\n      immutable(\"0x373ab5f6f5686eaf15420a778a209383e0ee0196a782fa3fd3ec96f326a92e6e\")\n      sub(shl(0xa0, 0x01), 0x01)\n        /* \"contracts/Token.sol\":40983:41003  uniswapV2Router.WETH */\n      and\n      0xad5c4648\n        /* \"contracts/Token.sol\":40983:41005  uniswapV2Router.WETH() */\n      mload(0x40)\n      dup2\n      0xffffffff\n      and\n      0xe0\n      shl\n      dup2\n      mstore\n      0x04\n      add\n      0x20\n      mload(0x40)\n      dup1\n      dup4\n      sub\n      dup2\n      dup7\n      dup1\n      extcodesize\n      iszero\n      dup1\n      iszero\n      tag_470\n      jumpi\n      0x00\n      dup1\n      revert\n    tag_470:\n      pop\n      gas\n      staticcall\n      iszero\n      dup1\n      iszero\n      tag_472\n      jumpi\n      returndatasize\n      0x00\n      dup1\n      returndatacopy\n      revert(0x00, returndatasize)\n    tag_472:\n      pop\n      pop\n      pop\n      pop\n      mload(0x40)\n      returndatasize\n      0x20\n      dup2\n      lt\n      iszero\n      tag_473\n      jumpi\n      0x00\n      dup1\n      revert\n    tag_473:\n      pop\n      mload\n        /* \"contracts/Token.sol\":40973:40980  path[1] */\n      dup2\n      mload\n        /* \"contracts/Token.sol\":40973:40977  path */\n      dup3\n      swap1\n        /* \"contracts/Token.sol\":40978:40979  1 */\n      0x01\n      swap1\n        /* \"contracts/Token.sol\":40973:40980  path[1] */\n      dup2\n      lt\n      tag_474\n      jumpi\n      invalid\n    tag_474:\n      0x20\n      mul\n      0x20\n      add\n      add\n        /* \"contracts/Token.sol\":40973:41005  path[1] = uniswapV2Router.WETH() */\n      swap1\n      sub(shl(0xa0, 0x01), 0x01)\n      and\n      swap1\n      dup2\n      sub(shl(0xa0, 0x01), 0x01)\n      and\n      dup2\n      mstore\n      pop\n      pop\n        /* \"contracts/Token.sol\":41018:41080  _approve(address(this), address(uniswapV2Router), tokenAmount) */\n      tag_475\n        /* \"contracts/Token.sol\":41035:41039  this */\n      address\n        /* \"contracts/Token.sol\":41050:41065  uniswapV2Router */\n      immutable(\"0x373ab5f6f5686eaf15420a778a209383e0ee0196a782fa3fd3ec96f326a92e6e\")\n        /* \"contracts/Token.sol\":41068:41079  tokenAmount */\n      dup5\n        /* \"contracts/Token.sol\":41018:41026  _approve */\n      tag_212\n        /* \"contracts/Token.sol\":41018:41080  _approve(address(this), address(uniswapV2Router), tokenAmount) */\n      jump\t// in\n    tag_475:\n        /* \"contracts/Token.sol\":41119:41134  uniswapV2Router */\n      immutable(\"0x373ab5f6f5686eaf15420a778a209383e0ee0196a782fa3fd3ec96f326a92e6e\")\n      sub(shl(0xa0, 0x01), 0x01)\n        /* \"contracts/Token.sol\":41119:41185  uniswapV2Router.swapExactTokensForETHSupportingFeeOnTransferTokens */\n      and\n      0x791ac947\n        /* \"contracts/Token.sol\":41200:41211  tokenAmount */\n      dup4\n        /* \"contracts/Token.sol\":41226:41227  0 */\n      0x00\n        /* \"contracts/Token.sol\":41270:41274  path */\n      dup5\n        /* \"contracts/Token.sol\":41297:41301  this */\n      address\n        /* \"contracts/Token.sol\":41317:41332  block.timestamp */\n      timestamp\n        /* \"contracts/Token.sol\":41119:41343  uniswapV2Router.swapExactTokensForETHSupportingFeeOnTransferTokens(\r... */\n      mload(0x40)\n      dup7\n      0xffffffff\n      and\n      0xe0\n      shl\n      dup2\n      mstore\n      0x04\n      add\n      dup1\n      dup7\n      dup2\n      mstore\n      0x20\n      add\n      dup6\n      dup2\n      mstore\n      0x20\n      add\n      dup1\n      0x20\n      add\n      dup5\n      sub(shl(0xa0, 0x01), 0x01)\n      and\n      dup2\n      mstore\n      0x20\n      add\n      dup4\n      dup2\n      mstore\n      0x20\n      add\n      dup3\n      dup2\n      sub\n      dup3\n      mstore\n      dup6\n      dup2\n      dup2\n      mload\n      dup2\n      mstore\n      0x20\n      add\n      swap2\n      pop\n      dup1\n      mload\n      swap1\n      0x20\n      add\n      swap1\n      0x20\n      mul\n      dup1\n      dup4\n      dup4\n      0x00\n    tag_476:\n      dup4\n      dup2\n      lt\n      iszero\n      tag_478\n      jumpi\n      dup2\n      dup2\n      add\n      mload\n      dup4\n      dup3\n      add\n      mstore\n      0x20\n      add\n      jump(tag_476)\n    tag_478:\n      pop\n      pop\n      pop\n      pop\n      swap1\n      pop\n      add\n      swap7\n      pop\n      pop\n      pop\n      pop\n      pop\n      pop\n      pop\n      0x00\n      mload(0x40)\n      dup1\n      dup4\n      sub\n      dup2\n      0x00\n      dup8\n      dup1\n      extcodesize\n      iszero\n      dup1\n      iszero\n      tag_479\n      jumpi\n      0x00\n      dup1\n      revert\n    tag_479:\n      pop\n      gas\n      call\n      iszero\n      dup1\n      iszero\n      tag_365\n      jumpi\n      returndatasize\n      0x00\n      dup1\n      returndatacopy\n      revert(0x00, returndatasize)\n        /* \"contracts/Token.sol\":41359:41872  function addLiquidity(uint256 tokenAmount, uint256 ethAmount) private {\r... */\n    tag_398:\n        /* \"contracts/Token.sol\":41507:41569  _approve(address(this), address(uniswapV2Router), tokenAmount) */\n      tag_483\n        /* \"contracts/Token.sol\":41524:41528  this */\n      address\n        /* \"contracts/Token.sol\":41539:41554  uniswapV2Router */\n      immutable(\"0x373ab5f6f5686eaf15420a778a209383e0ee0196a782fa3fd3ec96f326a92e6e\")\n        /* \"contracts/Token.sol\":41557:41568  tokenAmount */\n      dup5\n        /* \"contracts/Token.sol\":41507:41515  _approve */\n      tag_212\n        /* \"contracts/Token.sol\":41507:41569  _approve(address(this), address(uniswapV2Router), tokenAmount) */\n      jump\t// in\n    tag_483:\n        /* \"contracts/Token.sol\":41612:41627  uniswapV2Router */\n      immutable(\"0x373ab5f6f5686eaf15420a778a209383e0ee0196a782fa3fd3ec96f326a92e6e\")\n      sub(shl(0xa0, 0x01), 0x01)\n        /* \"contracts/Token.sol\":41612:41643  uniswapV2Router.addLiquidityETH */\n      and\n      0xf305d719\n        /* \"contracts/Token.sol\":41651:41660  ethAmount */\n      dup3\n        /* \"contracts/Token.sol\":41684:41688  this */\n      address\n        /* \"contracts/Token.sol\":41704:41715  tokenAmount */\n      dup6\n        /* \"contracts/Token.sol\":41730:41731  0 */\n      0x00\n        /* \"contracts/Token.sol\":41773:41774  0 */\n      dup1\n        /* \"contracts/Token.sol\":41816:41823  owner() */\n      tag_484\n        /* \"contracts/Token.sol\":41816:41821  owner */\n      tag_140\n        /* \"contracts/Token.sol\":41816:41823  owner() */\n      jump\t// in\n    tag_484:\n        /* \"contracts/Token.sol\":41838:41853  block.timestamp */\n      timestamp\n        /* \"contracts/Token.sol\":41612:41864  uniswapV2Router.addLiquidityETH{value: ethAmount}(\r... */\n      mload(0x40)\n      dup9\n      0xffffffff\n      and\n      0xe0\n      shl\n      dup2\n      mstore\n      0x04\n      add\n      dup1\n      dup8\n      sub(shl(0xa0, 0x01), 0x01)\n      and\n      dup2\n      mstore\n      0x20\n      add\n      dup7\n      dup2\n      mstore\n      0x20\n      add\n      dup6\n      dup2\n      mstore\n      0x20\n      add\n      dup5\n      dup2\n      mstore\n      0x20\n      add\n      dup4\n      sub(shl(0xa0, 0x01), 0x01)\n      and\n      dup2\n      mstore\n      0x20\n      add\n      dup3\n      dup2\n      mstore\n      0x20\n      add\n      swap7\n      pop\n      pop\n      pop\n      pop\n      pop\n      pop\n      pop\n      0x60\n      mload(0x40)\n      dup1\n      dup4\n      sub\n      dup2\n      dup6\n      dup9\n      dup1\n      extcodesize\n      iszero\n      dup1\n      iszero\n      tag_485\n      jumpi\n      0x00\n      dup1\n      revert\n    tag_485:\n      pop\n      gas\n      call\n      iszero\n      dup1\n      iszero\n      tag_487\n      jumpi\n      returndatasize\n      0x00\n      dup1\n      returndatacopy\n      revert(0x00, returndatasize)\n    tag_487:\n      pop\n      pop\n      pop\n      pop\n      pop\n      mload(0x40)\n      returndatasize\n      0x60\n      dup2\n      lt\n      iszero\n      tag_425\n      jumpi\n      0x00\n      dup1\n      revert\n        /* \"contracts/Token.sol\":37073:37323  function removeAllFee() private {\r... */\n    tag_402:\n        /* \"contracts/Token.sol\":37119:37126  _taxFee */\n      sload(0x0f)\n        /* \"contracts/Token.sol\":37119:37131  _taxFee == 0 */\n      iszero\n        /* \"contracts/Token.sol\":37119:37153  _taxFee == 0 && _liquidityFee == 0 */\n      dup1\n      iszero\n      tag_490\n      jumpi\n      pop\n        /* \"contracts/Token.sol\":37135:37148  _liquidityFee */\n      sload(0x11)\n        /* \"contracts/Token.sol\":37135:37153  _liquidityFee == 0 */\n      iszero\n        /* \"contracts/Token.sol\":37119:37153  _taxFee == 0 && _liquidityFee == 0 */\n    tag_490:\n        /* \"contracts/Token.sol\":37116:37162  if(_taxFee == 0 && _liquidityFee == 0) return; */\n      iszero\n      tag_491\n      jumpi\n        /* \"contracts/Token.sol\":37155:37162  return; */\n      jump(tag_489)\n        /* \"contracts/Token.sol\":37116:37162  if(_taxFee == 0 && _liquidityFee == 0) return; */\n    tag_491:\n        /* \"contracts/Token.sol\":37200:37207  _taxFee */\n      0x0f\n      dup1\n      sload\n        /* \"contracts/Token.sol\":37182:37197  _previousTaxFee */\n      0x10\n        /* \"contracts/Token.sol\":37182:37207  _previousTaxFee = _taxFee */\n      sstore\n        /* \"contracts/Token.sol\":37242:37255  _liquidityFee */\n      0x11\n      dup1\n      sload\n        /* \"contracts/Token.sol\":37218:37239  _previousLiquidityFee */\n      0x12\n        /* \"contracts/Token.sol\":37218:37255  _previousLiquidityFee = _liquidityFee */\n      sstore\n      0x00\n        /* \"contracts/Token.sol\":37276:37287  _taxFee = 0 */\n      swap2\n      dup3\n      swap1\n      sstore\n        /* \"contracts/Token.sol\":37298:37315  _liquidityFee = 0 */\n      sstore\n        /* \"contracts/Token.sol\":37073:37323  function removeAllFee() private {\r... */\n    tag_489:\n      jump\t// out\n        /* \"contracts/Token.sol\":43899:44465  function _transferFromExcluded(address sender, address recipient, uint256 tAmount) private {\r... */\n    tag_406:\n        /* \"contracts/Token.sol\":44002:44017  uint256 rAmount */\n      0x00\n        /* \"contracts/Token.sol\":44019:44042  uint256 rTransferAmount */\n      dup1\n        /* \"contracts/Token.sol\":44044:44056  uint256 rFee */\n      0x00\n        /* \"contracts/Token.sol\":44058:44081  uint256 tTransferAmount */\n      dup1\n        /* \"contracts/Token.sol\":44083:44095  uint256 tFee */\n      0x00\n        /* \"contracts/Token.sol\":44097:44115  uint256 tLiquidity */\n      dup1\n        /* \"contracts/Token.sol\":44119:44138  _getValues(tAmount) */\n      tag_493\n        /* \"contracts/Token.sol\":44130:44137  tAmount */\n      dup8\n        /* \"contracts/Token.sol\":44119:44129  _getValues */\n      tag_257\n        /* \"contracts/Token.sol\":44119:44138  _getValues(tAmount) */\n      jump\t// in\n    tag_493:\n      sub(shl(0xa0, 0x01), 0x01)\n        /* \"contracts/Token.sol\":44167:44182  _tOwned[sender] */\n      dup16\n      and\n      0x00\n      swap1\n      dup2\n      mstore\n        /* \"contracts/Token.sol\":44167:44174  _tOwned */\n      0x04\n        /* \"contracts/Token.sol\":44167:44182  _tOwned[sender] */\n      0x20\n      mstore\n      0x40\n      swap1\n      keccak256\n      sload\n        /* \"contracts/Token.sol\":44001:44138  (uint256 rAmount, uint256 rTransferAmount, uint256 rFee, uint256 tTransferAmount, uint256 tFee, uint256 tLiquidity) = _getValues(tAmount) */\n      swap6\n      swap12\n      pop\n      swap4\n      swap10\n      pop\n      swap2\n      swap8\n      pop\n      swap6\n      pop\n      swap4\n      pop\n      swap2\n      pop\n        /* \"contracts/Token.sol\":44167:44195  _tOwned[sender].sub(tAmount) */\n      tag_494\n      swap1\n        /* \"contracts/Token.sol\":44187:44194  tAmount */\n      dup9\n        /* \"contracts/Token.sol\":44167:44186  _tOwned[sender].sub */\n      tag_259\n        /* \"contracts/Token.sol\":44167:44195  _tOwned[sender].sub(tAmount) */\n      jump\t// in\n    tag_494:\n      sub(shl(0xa0, 0x01), 0x01)\n        /* \"contracts/Token.sol\":44149:44164  _tOwned[sender] */\n      dup11\n      and\n      0x00\n      swap1\n      dup2\n      mstore\n        /* \"contracts/Token.sol\":44149:44156  _tOwned */\n      0x04\n        /* \"contracts/Token.sol\":44149:44164  _tOwned[sender] */\n      0x20\n      swap1\n      dup2\n      mstore\n      0x40\n      dup1\n      dup4\n      keccak256\n        /* \"contracts/Token.sol\":44149:44195  _tOwned[sender] = _tOwned[sender].sub(tAmount) */\n      swap4\n      swap1\n      swap4\n      sstore\n        /* \"contracts/Token.sol\":44224:44231  _rOwned */\n      0x03\n        /* \"contracts/Token.sol\":44224:44239  _rOwned[sender] */\n      swap1\n      mstore\n      keccak256\n      sload\n        /* \"contracts/Token.sol\":44224:44252  _rOwned[sender].sub(rAmount) */\n      tag_495\n      swap1\n        /* \"contracts/Token.sol\":44244:44251  rAmount */\n      dup8\n        /* \"contracts/Token.sol\":44224:44243  _rOwned[sender].sub */\n      tag_259\n        /* \"contracts/Token.sol\":44224:44252  _rOwned[sender].sub(rAmount) */\n      jump\t// in\n    tag_495:\n      sub(shl(0xa0, 0x01), 0x01)\n        /* \"contracts/Token.sol\":44206:44221  _rOwned[sender] */\n      dup1\n      dup12\n      and\n      0x00\n      swap1\n      dup2\n      mstore\n        /* \"contracts/Token.sol\":44206:44213  _rOwned */\n      0x03\n        /* \"contracts/Token.sol\":44206:44221  _rOwned[sender] */\n      0x20\n      mstore\n      0x40\n      dup1\n      dup3\n      keccak256\n        /* \"contracts/Token.sol\":44206:44252  _rOwned[sender] = _rOwned[sender].sub(rAmount) */\n      swap4\n      swap1\n      swap4\n      sstore\n        /* \"contracts/Token.sol\":44284:44302  _rOwned[recipient] */\n      swap1\n      dup11\n      and\n      dup2\n      mstore\n      keccak256\n      sload\n        /* \"contracts/Token.sol\":44284:44323  _rOwned[recipient].add(rTransferAmount) */\n      tag_496\n      swap1\n        /* \"contracts/Token.sol\":44307:44322  rTransferAmount */\n      dup7\n        /* \"contracts/Token.sol\":44284:44306  _rOwned[recipient].add */\n      tag_252\n        /* \"contracts/Token.sol\":44284:44323  _rOwned[recipient].add(rTransferAmount) */\n      jump\t// in\n    tag_496:\n      sub(shl(0xa0, 0x01), 0x01)\n        /* \"contracts/Token.sol\":44263:44281  _rOwned[recipient] */\n      dup10\n      and\n      0x00\n      swap1\n      dup2\n      mstore\n        /* \"contracts/Token.sol\":44263:44270  _rOwned */\n      0x03\n        /* \"contracts/Token.sol\":44263:44281  _rOwned[recipient] */\n      0x20\n      mstore\n      0x40\n      swap1\n      keccak256\n        /* \"contracts/Token.sol\":44263:44323  _rOwned[recipient] = _rOwned[recipient].add(rTransferAmount) */\n      sstore\n        /* \"contracts/Token.sol\":44337:44363  _takeLiquidity(tLiquidity) */\n      tag_497\n        /* \"contracts/Token.sol\":44352:44362  tLiquidity */\n      dup2\n        /* \"contracts/Token.sol\":44337:44351  _takeLiquidity */\n      tag_498\n        /* \"contracts/Token.sol\":44337:44363  _takeLiquidity(tLiquidity) */\n      jump\t// in\n    tag_497:\n        /* \"contracts/Token.sol\":44374:44397  _reflectFee(rFee, tFee) */\n      tag_499\n        /* \"contracts/Token.sol\":44386:44390  rFee */\n      dup5\n        /* \"contracts/Token.sol\":44392:44396  tFee */\n      dup4\n        /* \"contracts/Token.sol\":44374:44385  _reflectFee */\n      tag_500\n        /* \"contracts/Token.sol\":44374:44397  _reflectFee(rFee, tFee) */\n      jump\t// in\n    tag_499:\n        /* \"contracts/Token.sol\":44430:44439  recipient */\n      dup8\n      sub(shl(0xa0, 0x01), 0x01)\n        /* \"contracts/Token.sol\":44413:44457  Transfer(sender, recipient, tTransferAmount) */\n      and\n        /* \"contracts/Token.sol\":44422:44428  sender */\n      dup10\n      sub(shl(0xa0, 0x01), 0x01)\n        /* \"contracts/Token.sol\":44413:44457  Transfer(sender, recipient, tTransferAmount) */\n      and\n      0xddf252ad1be2c89b69c2b068fc378daa952ba7f163c4a11628f55a4df523b3ef\n        /* \"contracts/Token.sol\":44441:44456  tTransferAmount */\n      dup6\n        /* \"contracts/Token.sol\":44413:44457  Transfer(sender, recipient, tTransferAmount) */\n      mload(0x40)\n      dup1\n      dup3\n      dup2\n      mstore\n      0x20\n      add\n      swap2\n      pop\n      pop\n      mload(0x40)\n      dup1\n      swap2\n      sub\n      swap1\n      log3\n        /* \"contracts/Token.sol\":43899:44465  function _transferFromExcluded(address sender, address recipient, uint256 tAmount) private {\r... */\n      pop\n      pop\n      pop\n      pop\n      pop\n      pop\n      pop\n      pop\n      pop\n      jump\t// out\n        /* \"contracts/Token.sol\":43305:43891  function _transferToExcluded(address sender, address recipient, uint256 tAmount) private {\r... */\n    tag_411:\n        /* \"contracts/Token.sol\":43406:43421  uint256 rAmount */\n      0x00\n        /* \"contracts/Token.sol\":43423:43446  uint256 rTransferAmount */\n      dup1\n        /* \"contracts/Token.sol\":43448:43460  uint256 rFee */\n      0x00\n        /* \"contracts/Token.sol\":43462:43485  uint256 tTransferAmount */\n      dup1\n        /* \"contracts/Token.sol\":43487:43499  uint256 tFee */\n      0x00\n        /* \"contracts/Token.sol\":43501:43519  uint256 tLiquidity */\n      dup1\n        /* \"contracts/Token.sol\":43523:43542  _getValues(tAmount) */\n      tag_502\n        /* \"contracts/Token.sol\":43534:43541  tAmount */\n      dup8\n        /* \"contracts/Token.sol\":43523:43533  _getValues */\n      tag_257\n        /* \"contracts/Token.sol\":43523:43542  _getValues(tAmount) */\n      jump\t// in\n    tag_502:\n      sub(shl(0xa0, 0x01), 0x01)\n        /* \"contracts/Token.sol\":43571:43586  _rOwned[sender] */\n      dup16\n      and\n      0x00\n      swap1\n      dup2\n      mstore\n        /* \"contracts/Token.sol\":43571:43578  _rOwned */\n      0x03\n        /* \"contracts/Token.sol\":43571:43586  _rOwned[sender] */\n      0x20\n      mstore\n      0x40\n      swap1\n      keccak256\n      sload\n        /* \"contracts/Token.sol\":43405:43542  (uint256 rAmount, uint256 rTransferAmount, uint256 rFee, uint256 tTransferAmount, uint256 tFee, uint256 tLiquidity) = _getValues(tAmount) */\n      swap6\n      swap12\n      pop\n      swap4\n      swap10\n      pop\n      swap2\n      swap8\n      pop\n      swap6\n      pop\n      swap4\n      pop\n      swap2\n      pop\n        /* \"contracts/Token.sol\":43571:43599  _rOwned[sender].sub(rAmount) */\n      tag_503\n      swap1\n        /* \"contracts/Token.sol\":43405:43542  (uint256 rAmount, uint256 rTransferAmount, uint256 rFee, uint256 tTransferAmount, uint256 tFee, uint256 tLiquidity) = _getValues(tAmount) */\n      dup8\n        /* \"contracts/Token.sol\":43571:43590  _rOwned[sender].sub */\n      tag_259\n        /* \"contracts/Token.sol\":43571:43599  _rOwned[sender].sub(rAmount) */\n      jump\t// in\n    tag_503:\n      sub(shl(0xa0, 0x01), 0x01)\n        /* \"contracts/Token.sol\":43553:43568  _rOwned[sender] */\n      dup1\n      dup12\n      and\n      0x00\n      swap1\n      dup2\n      mstore\n        /* \"contracts/Token.sol\":43553:43560  _rOwned */\n      0x03\n        /* \"contracts/Token.sol\":43553:43568  _rOwned[sender] */\n      0x20\n      swap1\n      dup2\n      mstore\n      0x40\n      dup1\n      dup4\n      keccak256\n        /* \"contracts/Token.sol\":43553:43599  _rOwned[sender] = _rOwned[sender].sub(rAmount) */\n      swap5\n      swap1\n      swap5\n      sstore\n        /* \"contracts/Token.sol\":43631:43649  _tOwned[recipient] */\n      swap2\n      dup12\n      and\n      dup2\n      mstore\n        /* \"contracts/Token.sol\":43631:43638  _tOwned */\n      0x04\n        /* \"contracts/Token.sol\":43631:43649  _tOwned[recipient] */\n      swap1\n      swap2\n      mstore\n      keccak256\n      sload\n        /* \"contracts/Token.sol\":43631:43670  _tOwned[recipient].add(tTransferAmount) */\n      tag_504\n      swap1\n        /* \"contracts/Token.sol\":43654:43669  tTransferAmount */\n      dup5\n        /* \"contracts/Token.sol\":43631:43653  _tOwned[recipient].add */\n      tag_252\n        /* \"contracts/Token.sol\":43631:43670  _tOwned[recipient].add(tTransferAmount) */\n      jump\t// in\n    tag_504:\n      sub(shl(0xa0, 0x01), 0x01)\n        /* \"contracts/Token.sol\":43610:43628  _tOwned[recipient] */\n      dup10\n      and\n      0x00\n      swap1\n      dup2\n      mstore\n        /* \"contracts/Token.sol\":43610:43617  _tOwned */\n      0x04\n        /* \"contracts/Token.sol\":43610:43628  _tOwned[recipient] */\n      0x20\n      swap1\n      dup2\n      mstore\n      0x40\n      dup1\n      dup4\n      keccak256\n        /* \"contracts/Token.sol\":43610:43670  _tOwned[recipient] = _tOwned[recipient].add(tTransferAmount) */\n      swap4\n      swap1\n      swap4\n      sstore\n        /* \"contracts/Token.sol\":43702:43709  _rOwned */\n      0x03\n        /* \"contracts/Token.sol\":43702:43720  _rOwned[recipient] */\n      swap1\n      mstore\n      keccak256\n      sload\n        /* \"contracts/Token.sol\":43702:43741  _rOwned[recipient].add(rTransferAmount) */\n      tag_496\n      swap1\n        /* \"contracts/Token.sol\":43725:43740  rTransferAmount */\n      dup7\n        /* \"contracts/Token.sol\":43702:43724  _rOwned[recipient].add */\n      tag_252\n        /* \"contracts/Token.sol\":43702:43741  _rOwned[recipient].add(rTransferAmount) */\n      jump\t// in\n        /* \"contracts/Token.sol\":42795:43297  function _transferStandard(address sender, address recipient, uint256 tAmount) private {\r... */\n    tag_416:\n        /* \"contracts/Token.sol\":42894:42909  uint256 rAmount */\n      0x00\n        /* \"contracts/Token.sol\":42911:42934  uint256 rTransferAmount */\n      dup1\n        /* \"contracts/Token.sol\":42936:42948  uint256 rFee */\n      0x00\n        /* \"contracts/Token.sol\":42950:42973  uint256 tTransferAmount */\n      dup1\n        /* \"contracts/Token.sol\":42975:42987  uint256 tFee */\n      0x00\n        /* \"contracts/Token.sol\":42989:43007  uint256 tLiquidity */\n      dup1\n        /* \"contracts/Token.sol\":43011:43030  _getValues(tAmount) */\n      tag_509\n        /* \"contracts/Token.sol\":43022:43029  tAmount */\n      dup8\n        /* \"contracts/Token.sol\":43011:43021  _getValues */\n      tag_257\n        /* \"contracts/Token.sol\":43011:43030  _getValues(tAmount) */\n      jump\t// in\n    tag_509:\n      sub(shl(0xa0, 0x01), 0x01)\n        /* \"contracts/Token.sol\":43059:43074  _rOwned[sender] */\n      dup16\n      and\n      0x00\n      swap1\n      dup2\n      mstore\n        /* \"contracts/Token.sol\":43059:43066  _rOwned */\n      0x03\n        /* \"contracts/Token.sol\":43059:43074  _rOwned[sender] */\n      0x20\n      mstore\n      0x40\n      swap1\n      keccak256\n      sload\n        /* \"contracts/Token.sol\":42893:43030  (uint256 rAmount, uint256 rTransferAmount, uint256 rFee, uint256 tTransferAmount, uint256 tFee, uint256 tLiquidity) = _getValues(tAmount) */\n      swap6\n      swap12\n      pop\n      swap4\n      swap10\n      pop\n      swap2\n      swap8\n      pop\n      swap6\n      pop\n      swap4\n      pop\n      swap2\n      pop\n        /* \"contracts/Token.sol\":43059:43087  _rOwned[sender].sub(rAmount) */\n      tag_495\n      swap1\n        /* \"contracts/Token.sol\":42893:43030  (uint256 rAmount, uint256 rTransferAmount, uint256 rFee, uint256 tTransferAmount, uint256 tFee, uint256 tLiquidity) = _getValues(tAmount) */\n      dup8\n        /* \"contracts/Token.sol\":43059:43078  _rOwned[sender].sub */\n      tag_259\n        /* \"contracts/Token.sol\":43059:43087  _rOwned[sender].sub(rAmount) */\n      jump\t// in\n        /* \"contracts/Token.sol\":32411:33053  function _transferBothExcluded(address sender, address recipient, uint256 tAmount) private {\r... */\n    tag_421:\n        /* \"contracts/Token.sol\":32514:32529  uint256 rAmount */\n      0x00\n        /* \"contracts/Token.sol\":32531:32554  uint256 rTransferAmount */\n      dup1\n        /* \"contracts/Token.sol\":32556:32568  uint256 rFee */\n      0x00\n        /* \"contracts/Token.sol\":32570:32593  uint256 tTransferAmount */\n      dup1\n        /* \"contracts/Token.sol\":32595:32607  uint256 tFee */\n      0x00\n        /* \"contracts/Token.sol\":32609:32627  uint256 tLiquidity */\n      dup1\n        /* \"contracts/Token.sol\":32631:32650  _getValues(tAmount) */\n      tag_515\n        /* \"contracts/Token.sol\":32642:32649  tAmount */\n      dup8\n        /* \"contracts/Token.sol\":32631:32641  _getValues */\n      tag_257\n        /* \"contracts/Token.sol\":32631:32650  _getValues(tAmount) */\n      jump\t// in\n    tag_515:\n      sub(shl(0xa0, 0x01), 0x01)\n        /* \"contracts/Token.sol\":32679:32694  _tOwned[sender] */\n      dup16\n      and\n      0x00\n      swap1\n      dup2\n      mstore\n        /* \"contracts/Token.sol\":32679:32686  _tOwned */\n      0x04\n        /* \"contracts/Token.sol\":32679:32694  _tOwned[sender] */\n      0x20\n      mstore\n      0x40\n      swap1\n      keccak256\n      sload\n        /* \"contracts/Token.sol\":32513:32650  (uint256 rAmount, uint256 rTransferAmount, uint256 rFee, uint256 tTransferAmount, uint256 tFee, uint256 tLiquidity) = _getValues(tAmount) */\n      swap6\n      swap12\n      pop\n      swap4\n      swap10\n      pop\n      swap2\n      swap8\n      pop\n      swap6\n      pop\n      swap4\n      pop\n      swap2\n      pop\n        /* \"contracts/Token.sol\":32679:32707  _tOwned[sender].sub(tAmount) */\n      tag_516\n      swap1\n        /* \"contracts/Token.sol\":32699:32706  tAmount */\n      dup9\n        /* \"contracts/Token.sol\":32679:32698  _tOwned[sender].sub */\n      tag_259\n        /* \"contracts/Token.sol\":32679:32707  _tOwned[sender].sub(tAmount) */\n      jump\t// in\n    tag_516:\n      sub(shl(0xa0, 0x01), 0x01)\n        /* \"contracts/Token.sol\":32661:32676  _tOwned[sender] */\n      dup11\n      and\n      0x00\n      swap1\n      dup2\n      mstore\n        /* \"contracts/Token.sol\":32661:32668  _tOwned */\n      0x04\n        /* \"contracts/Token.sol\":32661:32676  _tOwned[sender] */\n      0x20\n      swap1\n      dup2\n      mstore\n      0x40\n      dup1\n      dup4\n      keccak256\n        /* \"contracts/Token.sol\":32661:32707  _tOwned[sender] = _tOwned[sender].sub(tAmount) */\n      swap4\n      swap1\n      swap4\n      sstore\n        /* \"contracts/Token.sol\":32736:32743  _rOwned */\n      0x03\n        /* \"contracts/Token.sol\":32736:32751  _rOwned[sender] */\n      swap1\n      mstore\n      keccak256\n      sload\n        /* \"contracts/Token.sol\":32736:32764  _rOwned[sender].sub(rAmount) */\n      tag_503\n      swap1\n        /* \"contracts/Token.sol\":32756:32763  rAmount */\n      dup8\n        /* \"contracts/Token.sol\":32736:32755  _rOwned[sender].sub */\n      tag_259\n        /* \"contracts/Token.sol\":32736:32764  _rOwned[sender].sub(rAmount) */\n      jump\t// in\n        /* \"contracts/Token.sol\":37335:37460  function restoreAllFee() private {\r... */\n    tag_426:\n        /* \"contracts/Token.sol\":37389:37404  _previousTaxFee */\n      sload(0x10)\n        /* \"contracts/Token.sol\":37379:37386  _taxFee */\n      0x0f\n        /* \"contracts/Token.sol\":37379:37404  _taxFee = _previousTaxFee */\n      sstore\n        /* \"contracts/Token.sol\":37431:37452  _previousLiquidityFee */\n      sload(0x12)\n        /* \"contracts/Token.sol\":37415:37428  _liquidityFee */\n      0x11\n        /* \"contracts/Token.sol\":37415:37452  _liquidityFee = _previousLiquidityFee */\n      sstore\n        /* \"contracts/Token.sol\":37335:37460  function restoreAllFee() private {\r... */\n      jump\t// out\n        /* \"contracts/Token.sol\":36733:36887  function calculateTaxFee(uint256 _amount) private view returns (uint256) {\r... */\n    tag_454:\n        /* \"contracts/Token.sol\":36797:36804  uint256 */\n      0x00\n        /* \"contracts/Token.sol\":36824:36879  _amount.mul(_taxFee).div(\r... */\n      tag_209\n        /* \"contracts/Token.sol\":36863:36868  10**2 */\n      0x64\n        /* \"contracts/Token.sol\":36824:36844  _amount.mul(_taxFee) */\n      tag_525\n        /* \"contracts/Token.sol\":36836:36843  _taxFee */\n      sload(0x0f)\n        /* \"contracts/Token.sol\":36824:36831  _amount */\n      dup6\n        /* \"contracts/Token.sol\":36824:36835  _amount.mul */\n      tag_461\n      swap1\n        /* \"contracts/Token.sol\":36824:36844  _amount.mul(_taxFee) */\n      swap2\n      swap1\n      0xffffffff\n      and\n      jump\t// in\n    tag_525:\n        /* \"contracts/Token.sol\":36824:36848  _amount.mul(_taxFee).div */\n      swap1\n      tag_228\n        /* \"contracts/Token.sol\":36824:36879  _amount.mul(_taxFee).div(\r... */\n      jump\t// in\n        /* \"contracts/Token.sol\":36895:37061  function calculateLiquidityFee(uint256 _amount) private view returns (uint256) {\r... */\n    tag_456:\n        /* \"contracts/Token.sol\":36965:36972  uint256 */\n      0x00\n        /* \"contracts/Token.sol\":36992:37053  _amount.mul(_liquidityFee).div(\r... */\n      tag_209\n        /* \"contracts/Token.sol\":37037:37042  10**2 */\n      0x64\n        /* \"contracts/Token.sol\":36992:37018  _amount.mul(_liquidityFee) */\n      tag_525\n        /* \"contracts/Token.sol\":37004:37017  _liquidityFee */\n      sload(0x11)\n        /* \"contracts/Token.sol\":36992:36999  _amount */\n      dup6\n        /* \"contracts/Token.sol\":36992:37003  _amount.mul */\n      tag_461\n      swap1\n        /* \"contracts/Token.sol\":36992:37018  _amount.mul(_liquidityFee) */\n      swap2\n      swap1\n      0xffffffff\n      and\n      jump\t// in\n        /* \"contracts/Token.sol\":4829:5300  function mul(uint256 a, uint256 b) internal pure returns (uint256) {\r... */\n    tag_461:\n        /* \"contracts/Token.sol\":4887:4894  uint256 */\n      0x00\n        /* \"contracts/Token.sol\":5132:5138  a == 0 */\n      dup3\n        /* \"contracts/Token.sol\":5128:5175  if (a == 0) {\r... */\n      tag_530\n      jumpi\n      pop\n        /* \"contracts/Token.sol\":5162:5163  0 */\n      0x00\n        /* \"contracts/Token.sol\":5155:5163  return 0 */\n      jump(tag_209)\n        /* \"contracts/Token.sol\":5128:5175  if (a == 0) {\r... */\n    tag_530:\n        /* \"contracts/Token.sol\":5199:5204  a * b */\n      dup3\n      dup3\n      mul\n        /* \"contracts/Token.sol\":5203:5204  b */\n      dup3\n        /* \"contracts/Token.sol\":5199:5200  a */\n      dup5\n        /* \"contracts/Token.sol\":5199:5204  a * b */\n      dup3\n        /* \"contracts/Token.sol\":5199:5200  a */\n      dup2\n        /* \"contracts/Token.sol\":5223:5228  c / a */\n      tag_531\n      jumpi\n      invalid\n    tag_531:\n      div\n        /* \"contracts/Token.sol\":5223:5233  c / a == b */\n      eq\n        /* \"contracts/Token.sol\":5215:5271  require(c / a == b, \"SafeMath: multiplication overflow\") */\n      tag_378\n      jumpi\n      mload(0x40)\n      shl(0xe5, 0x461bcd)\n      dup2\n      mstore\n      0x04\n      add\n      dup1\n      dup1\n      0x20\n      add\n      dup3\n      dup2\n      sub\n      dup3\n      mstore\n      0x21\n      dup2\n      mstore\n      0x20\n      add\n      dup1\n      data_9113bb53c2876a3805b2c9242029423fc540a728243ce887ab24c82cf119fba3\n      0x21\n      swap2\n      codecopy\n      0x40\n      add\n      swap2\n      pop\n      pop\n      mload(0x40)\n      dup1\n      swap2\n      sub\n      swap1\n      revert\n        /* \"contracts/Token.sol\":36238:36593  function _takeLiquidity(uint256 tLiquidity) private {\r... */\n    tag_498:\n        /* \"contracts/Token.sol\":36301:36320  uint256 currentRate */\n      0x00\n        /* \"contracts/Token.sol\":36324:36334  _getRate() */\n      tag_534\n        /* \"contracts/Token.sol\":36324:36332  _getRate */\n      tag_226\n        /* \"contracts/Token.sol\":36324:36334  _getRate() */\n      jump\t// in\n    tag_534:\n        /* \"contracts/Token.sol\":36301:36334  uint256 currentRate =  _getRate() */\n      swap1\n      pop\n        /* \"contracts/Token.sol\":36345:36363  uint256 rLiquidity */\n      0x00\n        /* \"contracts/Token.sol\":36366:36393  tLiquidity.mul(currentRate) */\n      tag_535\n        /* \"contracts/Token.sol\":36366:36376  tLiquidity */\n      dup4\n        /* \"contracts/Token.sol\":36301:36334  uint256 currentRate =  _getRate() */\n      dup4\n        /* \"contracts/Token.sol\":36366:36380  tLiquidity.mul */\n      tag_461\n        /* \"contracts/Token.sol\":36366:36393  tLiquidity.mul(currentRate) */\n      jump\t// in\n    tag_535:\n        /* \"contracts/Token.sol\":36445:36449  this */\n      address\n        /* \"contracts/Token.sol\":36429:36451  _rOwned[address(this)] */\n      0x00\n      swap1\n      dup2\n      mstore\n        /* \"contracts/Token.sol\":36429:36436  _rOwned */\n      0x03\n        /* \"contracts/Token.sol\":36429:36451  _rOwned[address(this)] */\n      0x20\n      mstore\n      0x40\n      swap1\n      keccak256\n      sload\n        /* \"contracts/Token.sol\":36345:36393  uint256 rLiquidity = tLiquidity.mul(currentRate) */\n      swap1\n      swap2\n      pop\n        /* \"contracts/Token.sol\":36429:36467  _rOwned[address(this)].add(rLiquidity) */\n      tag_536\n      swap1\n        /* \"contracts/Token.sol\":36345:36393  uint256 rLiquidity = tLiquidity.mul(currentRate) */\n      dup3\n        /* \"contracts/Token.sol\":36429:36455  _rOwned[address(this)].add */\n      tag_252\n        /* \"contracts/Token.sol\":36429:36467  _rOwned[address(this)].add(rLiquidity) */\n      jump\t// in\n    tag_536:\n        /* \"contracts/Token.sol\":36420:36424  this */\n      address\n        /* \"contracts/Token.sol\":36404:36426  _rOwned[address(this)] */\n      0x00\n      swap1\n      dup2\n      mstore\n        /* \"contracts/Token.sol\":36404:36411  _rOwned */\n      0x03\n        /* \"contracts/Token.sol\":36404:36426  _rOwned[address(this)] */\n      0x20\n      swap1\n      dup2\n      mstore\n      0x40\n      dup1\n      dup4\n      keccak256\n        /* \"contracts/Token.sol\":36404:36467  _rOwned[address(this)] = _rOwned[address(this)].add(rLiquidity) */\n      swap4\n      swap1\n      swap4\n      sstore\n        /* \"contracts/Token.sol\":36481:36492  _isExcluded */\n      0x07\n        /* \"contracts/Token.sol\":36481:36507  _isExcluded[address(this)] */\n      swap1\n      mstore\n      keccak256\n      sload\n      0xff\n      and\n        /* \"contracts/Token.sol\":36478:36585  if(_isExcluded[address(this)])\r... */\n      iszero\n      tag_537\n      jumpi\n        /* \"contracts/Token.sol\":36563:36567  this */\n      address\n        /* \"contracts/Token.sol\":36547:36569  _tOwned[address(this)] */\n      0x00\n      swap1\n      dup2\n      mstore\n        /* \"contracts/Token.sol\":36547:36554  _tOwned */\n      0x04\n        /* \"contracts/Token.sol\":36547:36569  _tOwned[address(this)] */\n      0x20\n      mstore\n      0x40\n      swap1\n      keccak256\n      sload\n        /* \"contracts/Token.sol\":36547:36585  _tOwned[address(this)].add(tLiquidity) */\n      tag_538\n      swap1\n        /* \"contracts/Token.sol\":36574:36584  tLiquidity */\n      dup5\n        /* \"contracts/Token.sol\":36547:36573  _tOwned[address(this)].add */\n      tag_252\n        /* \"contracts/Token.sol\":36547:36585  _tOwned[address(this)].add(tLiquidity) */\n      jump\t// in\n    tag_538:\n        /* \"contracts/Token.sol\":36538:36542  this */\n      address\n        /* \"contracts/Token.sol\":36522:36544  _tOwned[address(this)] */\n      0x00\n      swap1\n      dup2\n      mstore\n        /* \"contracts/Token.sol\":36522:36529  _tOwned */\n      0x04\n        /* \"contracts/Token.sol\":36522:36544  _tOwned[address(this)] */\n      0x20\n      mstore\n      0x40\n      swap1\n      keccak256\n        /* \"contracts/Token.sol\":36522:36585  _tOwned[address(this)] = _tOwned[address(this)].add(tLiquidity) */\n      sstore\n        /* \"contracts/Token.sol\":36478:36585  if(_isExcluded[address(this)])\r... */\n    tag_537:\n        /* \"contracts/Token.sol\":36238:36593  function _takeLiquidity(uint256 tLiquidity) private {\r... */\n      pop\n      pop\n      pop\n      jump\t// out\n        /* \"contracts/Token.sol\":34137:34284  function _reflectFee(uint256 rFee, uint256 tFee) private {\r... */\n    tag_500:\n        /* \"contracts/Token.sol\":34215:34222  _rTotal */\n      sload(0x0a)\n        /* \"contracts/Token.sol\":34215:34232  _rTotal.sub(rFee) */\n      tag_540\n      swap1\n        /* \"contracts/Token.sol\":34227:34231  rFee */\n      dup4\n        /* \"contracts/Token.sol\":34215:34226  _rTotal.sub */\n      tag_259\n        /* \"contracts/Token.sol\":34215:34232  _rTotal.sub(rFee) */\n      jump\t// in\n    tag_540:\n        /* \"contracts/Token.sol\":34205:34212  _rTotal */\n      0x0a\n        /* \"contracts/Token.sol\":34205:34232  _rTotal = _rTotal.sub(rFee) */\n      sstore\n        /* \"contracts/Token.sol\":34256:34266  _tFeeTotal */\n      sload(0x0b)\n        /* \"contracts/Token.sol\":34256:34276  _tFeeTotal.add(tFee) */\n      tag_541\n      swap1\n        /* \"contracts/Token.sol\":34271:34275  tFee */\n      dup3\n        /* \"contracts/Token.sol\":34256:34270  _tFeeTotal.add */\n      tag_252\n        /* \"contracts/Token.sol\":34256:34276  _tFeeTotal.add(tFee) */\n      jump\t// in\n    tag_541:\n        /* \"contracts/Token.sol\":34243:34253  _tFeeTotal */\n      0x0b\n        /* \"contracts/Token.sol\":34243:34276  _tFeeTotal = _tFeeTotal.add(tFee) */\n      sstore\n      pop\n      pop\n        /* \"contracts/Token.sol\":34137:34284  function _reflectFee(uint256 rFee, uint256 tFee) private {\r... */\n      jump\t// out\n    stop\n    data_0557e210f7a69a685100a7e4e3d0a7024c546085cee28910fd17d0b081d9516f 45524332303a207472616e7366657220746f20746865207a65726f2061646472657373\n    data_22f7af55a509c3b14f0d528f087748dec8a8bf425135e3f5dc28c6a31ec6d812 416d6f756e74206d757374206265206c657373207468616e20746f74616c207265666c656374696f6e73\n    data_245f15ff17f551913a7a18385165551503906a406f905ac1c2437281a7cd0cfe 4f776e61626c653a206e6577206f776e657220697320746865207a65726f2061646472657373\n    data_24883cc5fe64ace9d0df1893501ecb93c77180f0ff69cca79affb3c316dc8029 45524332303a20617070726f766520746f20746865207a65726f2061646472657373\n    data_72052210969ce5fd88e52b5e685de9548acef9bb1b6d02e29c1765d0674948dd 5472616e7366657220616d6f756e74206578636565647320746865206d61785478416d6f756e742e\n    data_9113bb53c2876a3805b2c9242029423fc540a728243ce887ab24c82cf119fba3 536166654d6174683a206d756c7469706c69636174696f6e206f766572666c6f77\n    data_974d1b4421da69cc60b481194f0dad36a5bb4e23da810da7a7fb30cdba178330 45524332303a207472616e7366657220616d6f756e74206578636565647320616c6c6f77616e6365\n    data_9924ebdf1add33d25d4ef888e16131f0a5687b0580a36c21b5c301a6c462effe 4f776e61626c653a2063616c6c6572206973206e6f7420746865206f776e6572\n    data_9c064737b570a74c2bac5d21056d93ac53115214216cd14d4a0fc9b60be81231 8be0079c531659141344cd1fd0a4f28419497f9722a3daafe3b4186f6b6457e0\n    data_9edb5ab58321f35d2386ea65721c9b107daa2c273610fc16d394af2a320ba785 5472616e7366657220616d6f756e74206d7573742062652067726561746572207468616e207a65726f\n    data_baecc556b46f4ed0f2b4cb599d60785ac8563dd2dc0a5bf12edea1c39e5e1fea 45524332303a207472616e736665722066726f6d20746865207a65726f2061646472657373\n    data_c953f4879035ed60e766b34720f656aab5c697b141d924c283124ecedb91c208 45524332303a20617070726f76652066726f6d20746865207a65726f2061646472657373\n    data_ecefcaf5fbcf9ca6dcdb02298ba1da96f4ead317b0a4779917ecb2e5e7dc3ac4 4578636c75646564206164647265737365732063616e6e6f742063616c6c20746869732066756e6374696f6e\n    data_f4eb59be3df39931213d374c3658377dca3f0d2b46b7bc965af767c57c74b611 596f7520646f6e27742068617665207065726d697373696f6e20746f20756e6c6f636b\n    data_f8b476f7d28209d77d4a4ac1fe36b9f8259aa1bb6bddfa6e89de7e51615cf8a8 45524332303a2064656372656173656420616c6c6f77616e63652062656c6f77207a65726f\n\n    auxdata: 0xa264697066735822122078a2b6916da19509f71a0f03432ef0da6cad9e36facfbe6644e5a8001604b06a64736f6c634300060c0033\n}\n",
				"bytecode": {
					"linkReferences": {},
					"object": "60c06040526013805461ff0019166101001790553480156200002057600080fd5b50604051620030933803806200309383398181016040526101208110156200004757600080fd5b81019080805160405193929190846401000000008211156200006857600080fd5b9083019060208201858111156200007e57600080fd5b82516401000000008111828201881017156200009957600080fd5b82525081516020918201929091019080838360005b83811015620000c8578181015183820152602001620000ae565b50505050905090810190601f168015620000f65780820380516001836020036101000a031916815260200191505b50604052602001805160405193929190846401000000008211156200011a57600080fd5b9083019060208201858111156200013057600080fd5b82516401000000008111828201881017156200014b57600080fd5b82525081516020918201929091019080838360005b838110156200017a57818101518382015260200162000160565b50505050905090810190601f168015620001a85780820380516001836020036101000a031916815260200191505b506040908152602082810151918301516060840151608085015160a086015160c087015160e0909701518b51969950939750919590949193909291620001f591600c91908c01906200047e565b5087516200020b90600d9060208b01906200047e565b50670de0b6b3a764000087026009819055600019816200022757fe5b0619600a818155600f889055601187905560108890556012879055600e54900a85810260145584026015556001600160a01b0380831660009081526003602090815260409182902093909355805163c45a015560e01b8152905185939284169263c45a01559260048082019391829003018186803b158015620002a957600080fd5b505afa158015620002be573d6000803e3d6000fd5b505050506040513d6020811015620002d557600080fd5b5051604080516315ab88c960e31b815290516001600160a01b039283169263c9c653969230929186169163ad5c464891600480820192602092909190829003018186803b1580156200032657600080fd5b505afa1580156200033b573d6000803e3d6000fd5b505050506040513d60208110156200035257600080fd5b5051604080516001600160e01b031960e086901b1681526001600160a01b0393841660048201529290911660248301525160448083019260209291908290030181600087803b158015620003a557600080fd5b505af1158015620003ba573d6000803e3d6000fd5b505050506040513d6020811015620003d157600080fd5b50516001600160601b0319606091821b811660a0529082901b166080526001600160a01b0382166000818152600660209081526040808320805460ff1990811660019081179092553085528285208054909116909117905582546001600160a01b03191684178355600954815190815290517fddf252ad1be2c89b69c2b068fc378daa952ba7f163c4a11628f55a4df523b3ef929181900390910190a3505050505050505050506200051a565b828054600181600116156101000203166002900490600052602060002090601f016020900481019282601f10620004c157805160ff1916838001178555620004f1565b82800160010185558215620004f1579182015b82811115620004f1578251825591602001919060010190620004d4565b50620004ff92915062000503565b5090565b5b80821115620004ff576000815560010162000504565b60805160601c60a05160601c612b316200056260003980610f595280611aac5250806109b0528061220a52806122c252806122e952806123cf52806123f65250612b316000f3fe6080604052600436106101da5760003560e01c8063061c82d0146101e657806306fdde0314610212578063095ea7b31461029c57806313114a9d146102e95780631694505e1461031057806318160ddd1461034157806323b872dd146103565780632d83811914610399578063313ce567146103c35780633685d419146103d8578063395093511461040b5780633b124fe7146104445780633bd5d17314610459578063437823ec146104835780634549b039146104b657806348c54b9d146104e857806349bd5a5e146104fd5780634a74bb021461051257806352390c02146105275780635342acb41461055a5780636bc87c3a1461058d57806370a08231146105a2578063715018a6146105d55780637d1db4a5146105ea57806388f82020146105ff5780638da5cb5b146106325780638ee88c531461064757806395d89b4114610671578063a457c2d714610686578063a69df4b5146106bf578063a9059cbb146106d4578063b2bdfa7b1461070d578063b6c5232414610722578063c49b9a8014610737578063d12a768814610763578063d543dbeb14610778578063dd467064146107a2578063dd62ed3e146107cc578063ea2f0b3714610807578063f0f165af1461083a578063f2fde38b14610864576101e1565b366101e157005b600080fd5b3480156101f257600080fd5b506102106004803603602081101561020957600080fd5b5035610897565b005b34801561021e57600080fd5b506102276108f4565b6040805160208082528351818301528351919283929083019185019080838360005b83811015610261578181015183820152602001610249565b50505050905090810190601f16801561028e5780820380516001836020036101000a031916815260200191505b509250505060405180910390f35b3480156102a857600080fd5b506102d5600480360360408110156102bf57600080fd5b506001600160a01b03813516906020013561098a565b604080519115158252519081900360200190f35b3480156102f557600080fd5b506102fe6109a8565b60408051918252519081900360200190f35b34801561031c57600080fd5b506103256109ae565b604080516001600160a01b039092168252519081900360200190f35b34801561034d57600080fd5b506102fe6109d2565b34801561036257600080fd5b506102d56004803603606081101561037957600080fd5b506001600160a01b038135811691602081013590911690604001356109d8565b3480156103a557600080fd5b506102fe600480360360208110156103bc57600080fd5b5035610a5f565b3480156103cf57600080fd5b506102fe610ac1565b3480156103e457600080fd5b50610210600480360360208110156103fb57600080fd5b50356001600160a01b0316610ac7565b34801561041757600080fd5b506102d56004803603604081101561042e57600080fd5b506001600160a01b038135169060200135610c86565b34801561045057600080fd5b506102fe610cd4565b34801561046557600080fd5b506102106004803603602081101561047c57600080fd5b5035610cda565b34801561048f57600080fd5b50610210600480360360208110156104a657600080fd5b50356001600160a01b0316610db4565b3480156104c257600080fd5b506102fe600480360360408110156104d957600080fd5b50803590602001351515610e30565b3480156104f457600080fd5b50610210610ec2565b34801561050957600080fd5b50610325610f57565b34801561051e57600080fd5b506102d5610f7b565b34801561053357600080fd5b506102106004803603602081101561054a57600080fd5b50356001600160a01b0316610f89565b34801561056657600080fd5b506102d56004803603602081101561057d57600080fd5b50356001600160a01b031661110d565b34801561059957600080fd5b506102fe61112b565b3480156105ae57600080fd5b506102fe600480360360208110156105c557600080fd5b50356001600160a01b0316611131565b3480156105e157600080fd5b50610210611193565b3480156105f657600080fd5b506102fe611223565b34801561060b57600080fd5b506102d56004803603602081101561062257600080fd5b50356001600160a01b0316611229565b34801561063e57600080fd5b50610325611247565b34801561065357600080fd5b506102106004803603602081101561066a57600080fd5b5035611256565b34801561067d57600080fd5b506102276112b3565b34801561069257600080fd5b506102d5600480360360408110156106a957600080fd5b506001600160a01b038135169060200135611314565b3480156106cb57600080fd5b5061021061137c565b3480156106e057600080fd5b506102d5600480360360408110156106f757600080fd5b506001600160a01b03813516906020013561146a565b34801561071957600080fd5b5061032561147e565b34801561072e57600080fd5b506102fe61148d565b34801561074357600080fd5b506102106004803603602081101561075a57600080fd5b50351515611493565b34801561076f57600080fd5b506102fe61153a565b34801561078457600080fd5b506102106004803603602081101561079b57600080fd5b5035611540565b3480156107ae57600080fd5b50610210600480360360208110156107c557600080fd5b50356115a4565b3480156107d857600080fd5b506102fe600480360360408110156107ef57600080fd5b506001600160a01b0381358116916020013516611642565b34801561081357600080fd5b506102106004803603602081101561082a57600080fd5b50356001600160a01b031661166d565b34801561084657600080fd5b506102106004803603602081101561085d57600080fd5b50356116e6565b34801561087057600080fd5b506102106004803603602081101561088757600080fd5b50356001600160a01b031661174a565b61089f611830565b6000546001600160a01b039081169116146108ef576040805162461bcd60e51b815260206004820181905260248201526000805160206129d6833981519152604482015290519081900360640190fd5b600f55565b600c8054604080516020601f60026000196101006001881615020190951694909404938401819004810282018101909252828152606093909290918301828280156109805780601f1061095557610100808354040283529160200191610980565b820191906000526020600020905b81548152906001019060200180831161096357829003601f168201915b5050505050905090565b600061099e610997611830565b8484611834565b5060015b92915050565b600b5490565b7f000000000000000000000000000000000000000000000000000000000000000081565b60095490565b60006109e5848484611920565b610a55846109f1611830565b610a50856040518060600160405280602881526020016129ae602891396001600160a01b038a16600090815260056020526040812090610a2f611830565b6001600160a01b031681526020810191909152604001600020549190611b66565b611834565b5060019392505050565b6000600a54821115610aa25760405162461bcd60e51b815260040180806020018281038252602a8152602001806128f3602a913960400191505060405180910390fd5b6000610aac611bfd565b9050610ab88382611c20565b9150505b919050565b600e5490565b610acf611830565b6000546001600160a01b03908116911614610b1f576040805162461bcd60e51b815260206004820181905260248201526000805160206129d6833981519152604482015290519081900360640190fd5b6001600160a01b03811660009081526007602052604090205460ff16610b8a576040805162461bcd60e51b815260206004820152601b60248201527a1058d8dbdd5b9d081a5cc8185b1c9958591e48195e18db1d591959602a1b604482015290519081900360640190fd5b60005b600854811015610c8257816001600160a01b031660088281548110610bae57fe5b6000918252602090912001546001600160a01b03161415610c7a57600880546000198101908110610bdb57fe5b600091825260209091200154600880546001600160a01b039092169183908110610c0157fe5b600091825260208083209190910180546001600160a01b0319166001600160a01b039485161790559184168152600482526040808220829055600790925220805460ff191690556008805480610c5357fe5b600082815260209020810160001990810180546001600160a01b0319169055019055610c82565b600101610b8d565b5050565b600061099e610c93611830565b84610a508560056000610ca4611830565b6001600160a01b03908116825260208083019390935260409182016000908120918c168152925290205490611c66565b600f5481565b6000610ce4611830565b6001600160a01b03811660009081526007602052604090205490915060ff1615610d3f5760405162461bcd60e51b815260040180806020018281038252602c815260200180612a88602c913960400191505060405180910390fd5b6000610d4a83611cbe565b505050506001600160a01b038416600090815260036020526040902054919250610d7691905082611d0d565b6001600160a01b038316600090815260036020526040902055600a54610d9c9082611d0d565b600a55600b54610dac9084611c66565b600b55505050565b610dbc611830565b6000546001600160a01b03908116911614610e0c576040805162461bcd60e51b815260206004820181905260248201526000805160206129d6833981519152604482015290519081900360640190fd5b6001600160a01b03166000908152600660205260409020805460ff19166001179055565b6000600954831115610e89576040805162461bcd60e51b815260206004820152601f60248201527f416d6f756e74206d757374206265206c657373207468616e20737570706c7900604482015290519081900360640190fd5b81610ea8576000610e9984611cbe565b509395506109a2945050505050565b6000610eb384611cbe565b509295506109a2945050505050565b610eca611830565b6000546001600160a01b03908116911614610f1a576040805162461bcd60e51b815260206004820181905260248201526000805160206129d6833981519152604482015290519081900360640190fd5b600080546040516001600160a01b03909116914780156108fc02929091818181858888f19350505050158015610f54573d6000803e3d6000fd5b50565b7f000000000000000000000000000000000000000000000000000000000000000081565b601354610100900460ff1681565b610f91611830565b6000546001600160a01b03908116911614610fe1576040805162461bcd60e51b815260206004820181905260248201526000805160206129d6833981519152604482015290519081900360640190fd5b6001600160a01b03811660009081526007602052604090205460ff161561104d576040805162461bcd60e51b815260206004820152601b60248201527a1058d8dbdd5b9d081a5cc8185b1c9958591e48195e18db1d591959602a1b604482015290519081900360640190fd5b6001600160a01b038116600090815260036020526040902054156110a7576001600160a01b03811660009081526003602052604090205461108d90610a5f565b6001600160a01b0382166000908152600460205260409020555b6001600160a01b03166000818152600760205260408120805460ff191660019081179091556008805491820181559091527ff3f7a9fe364faab93b216da50a3214154f22a0a2b415b23a84c8169e8b636ee30180546001600160a01b0319169091179055565b6001600160a01b031660009081526006602052604090205460ff1690565b60115481565b6001600160a01b03811660009081526007602052604081205460ff161561117157506001600160a01b038116600090815260046020526040902054610abc565b6001600160a01b0382166000908152600360205260409020546109a290610a5f565b61119b611830565b6000546001600160a01b039081169116146111eb576040805162461bcd60e51b815260206004820181905260248201526000805160206129d6833981519152604482015290519081900360640190fd5b600080546040516001600160a01b03909116906000805160206129f6833981519152908390a3600080546001600160a01b0319169055565b60145481565b6001600160a01b031660009081526007602052604090205460ff1690565b6000546001600160a01b031690565b61125e611830565b6000546001600160a01b039081169116146112ae576040805162461bcd60e51b815260206004820181905260248201526000805160206129d6833981519152604482015290519081900360640190fd5b601155565b600d8054604080516020601f60026000196101006001881615020190951694909404938401819004810282018101909252828152606093909290918301828280156109805780601f1061095557610100808354040283529160200191610980565b600061099e611321611830565b84610a5085604051806060016040528060258152602001612ad7602591396005600061134b611830565b6001600160a01b03908116825260208083019390935260409182016000908120918d16815292529020549190611b66565b6001546001600160a01b031633146113c55760405162461bcd60e51b8152600401808060200182810382526023815260200180612ab46023913960400191505060405180910390fd5b600254421161141b576040805162461bcd60e51b815260206004820152601f60248201527f436f6e7472616374206973206c6f636b656420756e74696c2037206461797300604482015290519081900360640190fd5b600154600080546040516001600160a01b0393841693909116916000805160206129f683398151915291a3600154600080546001600160a01b0319166001600160a01b03909216919091179055565b600061099e611477611830565b8484611920565b6000546001600160a01b031681565b60025490565b61149b611830565b6000546001600160a01b039081169116146114eb576040805162461bcd60e51b815260206004820181905260248201526000805160206129d6833981519152604482015290519081900360640190fd5b60138054821515610100810261ff00199092169190911790915560408051918252517f53726dfcaf90650aa7eb35524f4d3220f07413c8d6cb404cc8c18bf5591bc1599181900360200190a150565b60155481565b611548611830565b6000546001600160a01b03908116911614611598576040805162461bcd60e51b815260206004820181905260248201526000805160206129d6833981519152604482015290519081900360640190fd5b600e54600a0a02601455565b6115ac611830565b6000546001600160a01b039081169116146115fc576040805162461bcd60e51b815260206004820181905260248201526000805160206129d6833981519152604482015290519081900360640190fd5b60008054600180546001600160a01b03199081166001600160a01b0384161790915516815542820160025560405181906000805160206129f6833981519152908290a350565b6001600160a01b03918216600090815260056020908152604080832093909416825291909152205490565b611675611830565b6000546001600160a01b039081169116146116c5576040805162461bcd60e51b815260206004820181905260248201526000805160206129d6833981519152604482015290519081900360640190fd5b6001600160a01b03166000908152600660205260409020805460ff19169055565b6116ee611830565b6000546001600160a01b0390811691161461173e576040805162461bcd60e51b815260206004820181905260248201526000805160206129d6833981519152604482015290519081900360640190fd5b600e54600a0a02601555565b611752611830565b6000546001600160a01b039081169116146117a2576040805162461bcd60e51b815260206004820181905260248201526000805160206129d6833981519152604482015290519081900360640190fd5b6001600160a01b0381166117e75760405162461bcd60e51b815260040180806020018281038252602681526020018061291d6026913960400191505060405180910390fd5b600080546040516001600160a01b03808516939216916000805160206129f683398151915291a3600080546001600160a01b0319166001600160a01b0392909216919091179055565b3390565b6001600160a01b0383166118795760405162461bcd60e51b8152600401808060200182810382526024815260200180612a646024913960400191505060405180910390fd5b6001600160a01b0382166118be5760405162461bcd60e51b81526004018080602001828103825260228152602001806129436022913960400191505060405180910390fd5b6001600160a01b03808416600081815260056020908152604080832094871680845294825291829020859055815185815291517f8c5be1e5ebec7d5bd14f71427d1e84f3dd0314c0f7b2291e5b200ac8c7c3b9259281900390910190a3505050565b6001600160a01b0383166119655760405162461bcd60e51b8152600401808060200182810382526025815260200180612a3f6025913960400191505060405180910390fd5b6001600160a01b0382166119aa5760405162461bcd60e51b81526004018080602001828103825260238152602001806128d06023913960400191505060405180910390fd5b600081116119e95760405162461bcd60e51b8152600401808060200182810382526029815260200180612a166029913960400191505060405180910390fd5b6119f1611247565b6001600160a01b0316836001600160a01b031614158015611a2b5750611a15611247565b6001600160a01b0316826001600160a01b031614155b15611a7157601454811115611a715760405162461bcd60e51b81526004018080602001828103825260288152602001806129656028913960400191505060405180910390fd5b6000611a7c30611131565b90506014548110611a8c57506014545b60155481108015908190611aa3575060135460ff16155b8015611ae157507f00000000000000000000000000000000000000000000000000000000000000006001600160a01b0316856001600160a01b031614155b8015611af45750601354610100900460ff165b15611b07576015549150611b0782611d4f565b6001600160a01b03851660009081526006602052604090205460019060ff1680611b4957506001600160a01b03851660009081526006602052604090205460ff165b15611b52575060005b611b5e86868684611dec565b505050505050565b60008184841115611bf55760405162461bcd60e51b81526004018080602001828103825283818151815260200191508051906020019080838360005b83811015611bba578181015183820152602001611ba2565b50505050905090810190601f168015611be75780820380516001836020036101000a031916815260200191505b509250505060405180910390fd5b505050900390565b6000806000611c0a611f60565b9092509050611c198282611c20565b9250505090565b6000611c5f83836040518060400160405280601a815260200179536166654d6174683a206469766973696f6e206279207a65726f60301b8152506120c3565b9392505050565b600082820183811015611c5f576040805162461bcd60e51b815260206004820152601b60248201527a536166654d6174683a206164646974696f6e206f766572666c6f7760281b604482015290519081900360640190fd5b6000806000806000806000806000611cd58a612128565b9250925092506000806000611cf38d8686611cee611bfd565b61216a565b919f909e50909c50959a5093985091965092945050505050565b6000611c5f83836040518060400160405280601e81526020017f536166654d6174683a207375627472616374696f6e206f766572666c6f770000815250611b66565b6013805460ff191660011790556000611d69826002611c20565b90506000611d778383611d0d565b905047611d83836121ba565b6000611d8f4783611d0d565b9050611d9b83826123c9565b604080518581526020810183905280820185905290517f17bbfb9a6069321b6ded73bd96327c9e6b7212a5cd51ff219cd61370acafb5619181900360600190a150506013805460ff19169055505050565b80611df957611df96124c7565b6001600160a01b03841660009081526007602052604090205460ff168015611e3a57506001600160a01b03831660009081526007602052604090205460ff16155b15611e4f57611e4a8484846124f9565b611f4d565b6001600160a01b03841660009081526007602052604090205460ff16158015611e9057506001600160a01b03831660009081526007602052604090205460ff165b15611ea057611e4a84848461261d565b6001600160a01b03841660009081526007602052604090205460ff16158015611ee257506001600160a01b03831660009081526007602052604090205460ff16155b15611ef257611e4a8484846126c6565b6001600160a01b03841660009081526007602052604090205460ff168015611f3257506001600160a01b03831660009081526007602052604090205460ff165b15611f4257611e4a84848461270a565b611f4d8484846126c6565b80611f5a57611f5a61277d565b50505050565b600a546009546000918291825b60085481101561209157826003600060088481548110611f8957fe5b60009182526020808320909101546001600160a01b031683528201929092526040019020541180611fee5750816004600060088481548110611fc757fe5b60009182526020808320909101546001600160a01b03168352820192909252604001902054115b1561200557600a54600954945094505050506120bf565b612045600360006008848154811061201957fe5b60009182526020808320909101546001600160a01b031683528201929092526040019020548490611d0d565b9250612087600460006008848154811061205b57fe5b60009182526020808320909101546001600160a01b031683528201929092526040019020548390611d0d565b9150600101611f6d565b50600954600a546120a191611c20565b8210156120b957600a546009549350935050506120bf565b90925090505b9091565b600081836121125760405162461bcd60e51b8152602060048201818152835160248401528351909283926044909101919085019080838360008315611bba578181015183820152602001611ba2565b50600083858161211e57fe5b0495945050505050565b6000806000806121378561278b565b90506000612144866127ad565b9050600061215c826121568986611d0d565b90611d0d565b979296509094509092505050565b600080808061217988866127c9565b9050600061218788876127c9565b9050600061219588886127c9565b905060006121a7826121568686611d0d565b939b939a50919850919650505050505050565b604080516002808252606080830184529260208301908036833701905050905030816000815181106121e857fe5b60200260200101906001600160a01b031690816001600160a01b0316815250507f00000000000000000000000000000000000000000000000000000000000000006001600160a01b031663ad5c46486040518163ffffffff1660e01b815260040160206040518083038186803b15801561226157600080fd5b505afa158015612275573d6000803e3d6000fd5b505050506040513d602081101561228b57600080fd5b505181518290600190811061229c57fe5b60200260200101906001600160a01b031690816001600160a01b0316815250506122e7307f000000000000000000000000000000000000000000000000000000000000000084611834565b7f00000000000000000000000000000000000000000000000000000000000000006001600160a01b031663791ac9478360008430426040518663ffffffff1660e01b81526004018086815260200185815260200180602001846001600160a01b03168152602001838152602001828103825285818151815260200191508051906020019060200280838360005b8381101561238c578181015183820152602001612374565b505050509050019650505050505050600060405180830381600087803b1580156123b557600080fd5b505af1158015611b5e573d6000803e3d6000fd5b6123f4307f000000000000000000000000000000000000000000000000000000000000000084611834565b7f00000000000000000000000000000000000000000000000000000000000000006001600160a01b031663f305d719823085600080612431611247565b426040518863ffffffff1660e01b815260040180876001600160a01b03168152602001868152602001858152602001848152602001836001600160a01b0316815260200182815260200196505050505050506060604051808303818588803b15801561249c57600080fd5b505af11580156124b0573d6000803e3d6000fd5b50505050506040513d6060811015611f5a57600080fd5b600f541580156124d75750601154155b156124e1576124f7565b600f805460105560118054601255600091829055555b565b60008060008060008061250b87611cbe565b6001600160a01b038f16600090815260046020526040902054959b5093995091975095509350915061253d9088611d0d565b6001600160a01b038a1660009081526004602090815260408083209390935560039052205461256c9087611d0d565b6001600160a01b03808b1660009081526003602052604080822093909355908a168152205461259b9086611c66565b6001600160a01b0389166000908152600360205260409020556125bd81612822565b6125c784836128ab565b876001600160a01b0316896001600160a01b03167fddf252ad1be2c89b69c2b068fc378daa952ba7f163c4a11628f55a4df523b3ef856040518082815260200191505060405180910390a3505050505050505050565b60008060008060008061262f87611cbe565b6001600160a01b038f16600090815260036020526040902054959b509399509197509550935091506126619087611d0d565b6001600160a01b03808b16600090815260036020908152604080832094909455918b168152600490915220546126979084611c66565b6001600160a01b03891660009081526004602090815260408083209390935560039052205461259b9086611c66565b6000806000806000806126d887611cbe565b6001600160a01b038f16600090815260036020526040902054959b5093995091975095509350915061256c9087611d0d565b60008060008060008061271c87611cbe565b6001600160a01b038f16600090815260046020526040902054959b5093995091975095509350915061274e9088611d0d565b6001600160a01b038a166000908152600460209081526040808320939093556003905220546126619087611d0d565b601054600f55601254601155565b60006109a260646127a7600f54856127c990919063ffffffff16565b90611c20565b60006109a260646127a7601154856127c990919063ffffffff16565b6000826127d8575060006109a2565b828202828482816127e557fe5b0414611c5f5760405162461bcd60e51b815260040180806020018281038252602181526020018061298d6021913960400191505060405180910390fd5b600061282c611bfd565b9050600061283a83836127c9565b306000908152600360205260409020549091506128579082611c66565b3060009081526003602090815260408083209390935560079052205460ff16156128a657306000908152600460205260409020546128959084611c66565b306000908152600460205260409020555b505050565b600a546128b89083611d0d565b600a55600b546128c89082611c66565b600b55505056fe45524332303a207472616e7366657220746f20746865207a65726f2061646472657373416d6f756e74206d757374206265206c657373207468616e20746f74616c207265666c656374696f6e734f776e61626c653a206e6577206f776e657220697320746865207a65726f206164647265737345524332303a20617070726f766520746f20746865207a65726f20616464726573735472616e7366657220616d6f756e74206578636565647320746865206d61785478416d6f756e742e536166654d6174683a206d756c7469706c69636174696f6e206f766572666c6f7745524332303a207472616e7366657220616d6f756e74206578636565647320616c6c6f77616e63654f776e61626c653a2063616c6c6572206973206e6f7420746865206f776e65728be0079c531659141344cd1fd0a4f28419497f9722a3daafe3b4186f6b6457e05472616e7366657220616d6f756e74206d7573742062652067726561746572207468616e207a65726f45524332303a207472616e736665722066726f6d20746865207a65726f206164647265737345524332303a20617070726f76652066726f6d20746865207a65726f20616464726573734578636c75646564206164647265737365732063616e6e6f742063616c6c20746869732066756e6374696f6e596f7520646f6e27742068617665207065726d697373696f6e20746f20756e6c6f636b45524332303a2064656372656173656420616c6c6f77616e63652062656c6f77207a65726fa264697066735822122078a2b6916da19509f71a0f03432ef0da6cad9e36facfbe6644e5a8001604b06a64736f6c634300060c0033",
					"opcodes": "PUSH1 0xC0 PUSH1 0x40 MSTORE PUSH1 0x13 DUP1 SLOAD PUSH2 0xFF00 NOT AND PUSH2 0x100 OR SWAP1 SSTORE CALLVALUE DUP1 ISZERO PUSH3 0x20 JUMPI PUSH1 0x0 DUP1 REVERT JUMPDEST POP PUSH1 0x40 MLOAD PUSH3 0x3093 CODESIZE SUB DUP1 PUSH3 0x3093 DUP4 CODECOPY DUP2 DUP2 ADD PUSH1 0x40 MSTORE PUSH2 0x120 DUP2 LT ISZERO PUSH3 0x47 JUMPI PUSH1 0x0 DUP1 REVERT JUMPDEST DUP2 ADD SWAP1 DUP1 DUP1 MLOAD PUSH1 0x40 MLOAD SWAP4 SWAP3 SWAP2 SWAP1 DUP5 PUSH5 0x100000000 DUP3 GT ISZERO PUSH3 0x68 JUMPI PUSH1 0x0 DUP1 REVERT JUMPDEST SWAP1 DUP4 ADD SWAP1 PUSH1 0x20 DUP3 ADD DUP6 DUP2 GT ISZERO PUSH3 0x7E JUMPI PUSH1 0x0 DUP1 REVERT JUMPDEST DUP3 MLOAD PUSH5 0x100000000 DUP2 GT DUP3 DUP3 ADD DUP9 LT OR ISZERO PUSH3 0x99 JUMPI PUSH1 0x0 DUP1 REVERT JUMPDEST DUP3 MSTORE POP DUP2 MLOAD PUSH1 0x20 SWAP2 DUP3 ADD SWAP3 SWAP1 SWAP2 ADD SWAP1 DUP1 DUP4 DUP4 PUSH1 0x0 JUMPDEST DUP4 DUP2 LT ISZERO PUSH3 0xC8 JUMPI DUP2 DUP2 ADD MLOAD DUP4 DUP3 ADD MSTORE PUSH1 0x20 ADD PUSH3 0xAE JUMP JUMPDEST POP POP POP POP SWAP1 POP SWAP1 DUP2 ADD SWAP1 PUSH1 0x1F AND DUP1 ISZERO PUSH3 0xF6 JUMPI DUP1 DUP3 SUB DUP1 MLOAD PUSH1 0x1 DUP4 PUSH1 0x20 SUB PUSH2 0x100 EXP SUB NOT AND DUP2 MSTORE PUSH1 0x20 ADD SWAP2 POP JUMPDEST POP PUSH1 0x40 MSTORE PUSH1 0x20 ADD DUP1 MLOAD PUSH1 0x40 MLOAD SWAP4 SWAP3 SWAP2 SWAP1 DUP5 PUSH5 0x100000000 DUP3 GT ISZERO PUSH3 0x11A JUMPI PUSH1 0x0 DUP1 REVERT JUMPDEST SWAP1 DUP4 ADD SWAP1 PUSH1 0x20 DUP3 ADD DUP6 DUP2 GT ISZERO PUSH3 0x130 JUMPI PUSH1 0x0 DUP1 REVERT JUMPDEST DUP3 MLOAD PUSH5 0x100000000 DUP2 GT DUP3 DUP3 ADD DUP9 LT OR ISZERO PUSH3 0x14B JUMPI PUSH1 0x0 DUP1 REVERT JUMPDEST DUP3 MSTORE POP DUP2 MLOAD PUSH1 0x20 SWAP2 DUP3 ADD SWAP3 SWAP1 SWAP2 ADD SWAP1 DUP1 DUP4 DUP4 PUSH1 0x0 JUMPDEST DUP4 DUP2 LT ISZERO PUSH3 0x17A JUMPI DUP2 DUP2 ADD MLOAD DUP4 DUP3 ADD MSTORE PUSH1 0x20 ADD PUSH3 0x160 JUMP JUMPDEST POP POP POP POP SWAP1 POP SWAP1 DUP2 ADD SWAP1 PUSH1 0x1F AND DUP1 ISZERO PUSH3 0x1A8 JUMPI DUP1 DUP3 SUB DUP1 MLOAD PUSH1 0x1 DUP4 PUSH1 0x20 SUB PUSH2 0x100 EXP SUB NOT AND DUP2 MSTORE PUSH1 0x20 ADD SWAP2 POP JUMPDEST POP PUSH1 0x40 SWAP1 DUP2 MSTORE PUSH1 0x20 DUP3 DUP2 ADD MLOAD SWAP2 DUP4 ADD MLOAD PUSH1 0x60 DUP5 ADD MLOAD PUSH1 0x80 DUP6 ADD MLOAD PUSH1 0xA0 DUP7 ADD MLOAD PUSH1 0xC0 DUP8 ADD MLOAD PUSH1 0xE0 SWAP1 SWAP8 ADD MLOAD DUP12 MLOAD SWAP7 SWAP10 POP SWAP4 SWAP8 POP SWAP2 SWAP6 SWAP1 SWAP5 SWAP2 SWAP4 SWAP1 SWAP3 SWAP2 PUSH3 0x1F5 SWAP2 PUSH1 0xC SWAP2 SWAP1 DUP13 ADD SWAP1 PUSH3 0x47E JUMP JUMPDEST POP DUP8 MLOAD PUSH3 0x20B SWAP1 PUSH1 0xD SWAP1 PUSH1 0x20 DUP12 ADD SWAP1 PUSH3 0x47E JUMP JUMPDEST POP PUSH8 0xDE0B6B3A7640000 DUP8 MUL PUSH1 0x9 DUP2 SWAP1 SSTORE PUSH1 0x0 NOT DUP2 PUSH3 0x227 JUMPI INVALID JUMPDEST MOD NOT PUSH1 0xA DUP2 DUP2 SSTORE PUSH1 0xF DUP9 SWAP1 SSTORE PUSH1 0x11 DUP8 SWAP1 SSTORE PUSH1 0x10 DUP9 SWAP1 SSTORE PUSH1 0x12 DUP8 SWAP1 SSTORE PUSH1 0xE SLOAD SWAP1 EXP DUP6 DUP2 MUL PUSH1 0x14 SSTORE DUP5 MUL PUSH1 0x15 SSTORE PUSH1 0x1 PUSH1 0x1 PUSH1 0xA0 SHL SUB DUP1 DUP4 AND PUSH1 0x0 SWAP1 DUP2 MSTORE PUSH1 0x3 PUSH1 0x20 SWAP1 DUP2 MSTORE PUSH1 0x40 SWAP2 DUP3 SWAP1 KECCAK256 SWAP4 SWAP1 SWAP4 SSTORE DUP1 MLOAD PUSH4 0xC45A0155 PUSH1 0xE0 SHL DUP2 MSTORE SWAP1 MLOAD DUP6 SWAP4 SWAP3 DUP5 AND SWAP3 PUSH4 0xC45A0155 SWAP3 PUSH1 0x4 DUP1 DUP3 ADD SWAP4 SWAP2 DUP3 SWAP1 SUB ADD DUP2 DUP7 DUP1 EXTCODESIZE ISZERO DUP1 ISZERO PUSH3 0x2A9 JUMPI PUSH1 0x0 DUP1 REVERT JUMPDEST POP GAS STATICCALL ISZERO DUP1 ISZERO PUSH3 0x2BE JUMPI RETURNDATASIZE PUSH1 0x0 DUP1 RETURNDATACOPY RETURNDATASIZE PUSH1 0x0 REVERT JUMPDEST POP POP POP POP PUSH1 0x40 MLOAD RETURNDATASIZE PUSH1 0x20 DUP2 LT ISZERO PUSH3 0x2D5 JUMPI PUSH1 0x0 DUP1 REVERT JUMPDEST POP MLOAD PUSH1 0x40 DUP1 MLOAD PUSH4 0x15AB88C9 PUSH1 0xE3 SHL DUP2 MSTORE SWAP1 MLOAD PUSH1 0x1 PUSH1 0x1 PUSH1 0xA0 SHL SUB SWAP3 DUP4 AND SWAP3 PUSH4 0xC9C65396 SWAP3 ADDRESS SWAP3 SWAP2 DUP7 AND SWAP2 PUSH4 0xAD5C4648 SWAP2 PUSH1 0x4 DUP1 DUP3 ADD SWAP3 PUSH1 0x20 SWAP3 SWAP1 SWAP2 SWAP1 DUP3 SWAP1 SUB ADD DUP2 DUP7 DUP1 EXTCODESIZE ISZERO DUP1 ISZERO PUSH3 0x326 JUMPI PUSH1 0x0 DUP1 REVERT JUMPDEST POP GAS STATICCALL ISZERO DUP1 ISZERO PUSH3 0x33B JUMPI RETURNDATASIZE PUSH1 0x0 DUP1 RETURNDATACOPY RETURNDATASIZE PUSH1 0x0 REVERT JUMPDEST POP POP POP POP PUSH1 0x40 MLOAD RETURNDATASIZE PUSH1 0x20 DUP2 LT ISZERO PUSH3 0x352 JUMPI PUSH1 0x0 DUP1 REVERT JUMPDEST POP MLOAD PUSH1 0x40 DUP1 MLOAD PUSH1 0x1 PUSH1 0x1 PUSH1 0xE0 SHL SUB NOT PUSH1 0xE0 DUP7 SWAP1 SHL AND DUP2 MSTORE PUSH1 0x1 PUSH1 0x1 PUSH1 0xA0 SHL SUB SWAP4 DUP5 AND PUSH1 0x4 DUP3 ADD MSTORE SWAP3 SWAP1 SWAP2 AND PUSH1 0x24 DUP4 ADD MSTORE MLOAD PUSH1 0x44 DUP1 DUP4 ADD SWAP3 PUSH1 0x20 SWAP3 SWAP2 SWAP1 DUP3 SWAP1 SUB ADD DUP2 PUSH1 0x0 DUP8 DUP1 EXTCODESIZE ISZERO DUP1 ISZERO PUSH3 0x3A5 JUMPI PUSH1 0x0 DUP1 REVERT JUMPDEST POP GAS CALL ISZERO DUP1 ISZERO PUSH3 0x3BA JUMPI RETURNDATASIZE PUSH1 0x0 DUP1 RETURNDATACOPY RETURNDATASIZE PUSH1 0x0 REVERT JUMPDEST POP POP POP POP PUSH1 0x40 MLOAD RETURNDATASIZE PUSH1 0x20 DUP2 LT ISZERO PUSH3 0x3D1 JUMPI PUSH1 0x0 DUP1 REVERT JUMPDEST POP MLOAD PUSH1 0x1 PUSH1 0x1 PUSH1 0x60 SHL SUB NOT PUSH1 0x60 SWAP2 DUP3 SHL DUP2 AND PUSH1 0xA0 MSTORE SWAP1 DUP3 SWAP1 SHL AND PUSH1 0x80 MSTORE PUSH1 0x1 PUSH1 0x1 PUSH1 0xA0 SHL SUB DUP3 AND PUSH1 0x0 DUP2 DUP2 MSTORE PUSH1 0x6 PUSH1 0x20 SWAP1 DUP2 MSTORE PUSH1 0x40 DUP1 DUP4 KECCAK256 DUP1 SLOAD PUSH1 0xFF NOT SWAP1 DUP2 AND PUSH1 0x1 SWAP1 DUP2 OR SWAP1 SWAP3 SSTORE ADDRESS DUP6 MSTORE DUP3 DUP6 KECCAK256 DUP1 SLOAD SWAP1 SWAP2 AND SWAP1 SWAP2 OR SWAP1 SSTORE DUP3 SLOAD PUSH1 0x1 PUSH1 0x1 PUSH1 0xA0 SHL SUB NOT AND DUP5 OR DUP4 SSTORE PUSH1 0x9 SLOAD DUP2 MLOAD SWAP1 DUP2 MSTORE SWAP1 MLOAD PUSH32 0xDDF252AD1BE2C89B69C2B068FC378DAA952BA7F163C4A11628F55A4DF523B3EF SWAP3 SWAP2 DUP2 SWAP1 SUB SWAP1 SWAP2 ADD SWAP1 LOG3 POP POP POP POP POP POP POP POP POP POP PUSH3 0x51A JUMP JUMPDEST DUP3 DUP1 SLOAD PUSH1 0x1 DUP2 PUSH1 0x1 AND ISZERO PUSH2 0x100 MUL SUB AND PUSH1 0x2 SWAP1 DIV SWAP1 PUSH1 0x0 MSTORE PUSH1 0x20 PUSH1 0x0 KECCAK256 SWAP1 PUSH1 0x1F ADD PUSH1 0x20 SWAP1 DIV DUP2 ADD SWAP3 DUP3 PUSH1 0x1F LT PUSH3 0x4C1 JUMPI DUP1 MLOAD PUSH1 0xFF NOT AND DUP4 DUP1 ADD OR DUP6 SSTORE PUSH3 0x4F1 JUMP JUMPDEST DUP3 DUP1 ADD PUSH1 0x1 ADD DUP6 SSTORE DUP3 ISZERO PUSH3 0x4F1 JUMPI SWAP2 DUP3 ADD JUMPDEST DUP3 DUP2 GT ISZERO PUSH3 0x4F1 JUMPI DUP3 MLOAD DUP3 SSTORE SWAP2 PUSH1 0x20 ADD SWAP2 SWAP1 PUSH1 0x1 ADD SWAP1 PUSH3 0x4D4 JUMP JUMPDEST POP PUSH3 0x4FF SWAP3 SWAP2 POP PUSH3 0x503 JUMP JUMPDEST POP SWAP1 JUMP JUMPDEST JUMPDEST DUP1 DUP3 GT ISZERO PUSH3 0x4FF JUMPI PUSH1 0x0 DUP2 SSTORE PUSH1 0x1 ADD PUSH3 0x504 JUMP JUMPDEST PUSH1 0x80 MLOAD PUSH1 0x60 SHR PUSH1 0xA0 MLOAD PUSH1 0x60 SHR PUSH2 0x2B31 PUSH3 0x562 PUSH1 0x0 CODECOPY DUP1 PUSH2 0xF59 MSTORE DUP1 PUSH2 0x1AAC MSTORE POP DUP1 PUSH2 0x9B0 MSTORE DUP1 PUSH2 0x220A MSTORE DUP1 PUSH2 0x22C2 MSTORE DUP1 PUSH2 0x22E9 MSTORE DUP1 PUSH2 0x23CF MSTORE DUP1 PUSH2 0x23F6 MSTORE POP PUSH2 0x2B31 PUSH1 0x0 RETURN INVALID PUSH1 0x80 PUSH1 0x40 MSTORE PUSH1 0x4 CALLDATASIZE LT PUSH2 0x1DA JUMPI PUSH1 0x0 CALLDATALOAD PUSH1 0xE0 SHR DUP1 PUSH4 0x61C82D0 EQ PUSH2 0x1E6 JUMPI DUP1 PUSH4 0x6FDDE03 EQ PUSH2 0x212 JUMPI DUP1 PUSH4 0x95EA7B3 EQ PUSH2 0x29C JUMPI DUP1 PUSH4 0x13114A9D EQ PUSH2 0x2E9 JUMPI DUP1 PUSH4 0x1694505E EQ PUSH2 0x310 JUMPI DUP1 PUSH4 0x18160DDD EQ PUSH2 0x341 JUMPI DUP1 PUSH4 0x23B872DD EQ PUSH2 0x356 JUMPI DUP1 PUSH4 0x2D838119 EQ PUSH2 0x399 JUMPI DUP1 PUSH4 0x313CE567 EQ PUSH2 0x3C3 JUMPI DUP1 PUSH4 0x3685D419 EQ PUSH2 0x3D8 JUMPI DUP1 PUSH4 0x39509351 EQ PUSH2 0x40B JUMPI DUP1 PUSH4 0x3B124FE7 EQ PUSH2 0x444 JUMPI DUP1 PUSH4 0x3BD5D173 EQ PUSH2 0x459 JUMPI DUP1 PUSH4 0x437823EC EQ PUSH2 0x483 JUMPI DUP1 PUSH4 0x4549B039 EQ PUSH2 0x4B6 JUMPI DUP1 PUSH4 0x48C54B9D EQ PUSH2 0x4E8 JUMPI DUP1 PUSH4 0x49BD5A5E EQ PUSH2 0x4FD JUMPI DUP1 PUSH4 0x4A74BB02 EQ PUSH2 0x512 JUMPI DUP1 PUSH4 0x52390C02 EQ PUSH2 0x527 JUMPI DUP1 PUSH4 0x5342ACB4 EQ PUSH2 0x55A JUMPI DUP1 PUSH4 0x6BC87C3A EQ PUSH2 0x58D JUMPI DUP1 PUSH4 0x70A08231 EQ PUSH2 0x5A2 JUMPI DUP1 PUSH4 0x715018A6 EQ PUSH2 0x5D5 JUMPI DUP1 PUSH4 0x7D1DB4A5 EQ PUSH2 0x5EA JUMPI DUP1 PUSH4 0x88F82020 EQ PUSH2 0x5FF JUMPI DUP1 PUSH4 0x8DA5CB5B EQ PUSH2 0x632 JUMPI DUP1 PUSH4 0x8EE88C53 EQ PUSH2 0x647 JUMPI DUP1 PUSH4 0x95D89B41 EQ PUSH2 0x671 JUMPI DUP1 PUSH4 0xA457C2D7 EQ PUSH2 0x686 JUMPI DUP1 PUSH4 0xA69DF4B5 EQ PUSH2 0x6BF JUMPI DUP1 PUSH4 0xA9059CBB EQ PUSH2 0x6D4 JUMPI DUP1 PUSH4 0xB2BDFA7B EQ PUSH2 0x70D JUMPI DUP1 PUSH4 0xB6C52324 EQ PUSH2 0x722 JUMPI DUP1 PUSH4 0xC49B9A80 EQ PUSH2 0x737 JUMPI DUP1 PUSH4 0xD12A7688 EQ PUSH2 0x763 JUMPI DUP1 PUSH4 0xD543DBEB EQ PUSH2 0x778 JUMPI DUP1 PUSH4 0xDD467064 EQ PUSH2 0x7A2 JUMPI DUP1 PUSH4 0xDD62ED3E EQ PUSH2 0x7CC JUMPI DUP1 PUSH4 0xEA2F0B37 EQ PUSH2 0x807 JUMPI DUP1 PUSH4 0xF0F165AF EQ PUSH2 0x83A JUMPI DUP1 PUSH4 0xF2FDE38B EQ PUSH2 0x864 JUMPI PUSH2 0x1E1 JUMP JUMPDEST CALLDATASIZE PUSH2 0x1E1 JUMPI STOP JUMPDEST PUSH1 0x0 DUP1 REVERT JUMPDEST CALLVALUE DUP1 ISZERO PUSH2 0x1F2 JUMPI PUSH1 0x0 DUP1 REVERT JUMPDEST POP PUSH2 0x210 PUSH1 0x4 DUP1 CALLDATASIZE SUB PUSH1 0x20 DUP2 LT ISZERO PUSH2 0x209 JUMPI PUSH1 0x0 DUP1 REVERT JUMPDEST POP CALLDATALOAD PUSH2 0x897 JUMP JUMPDEST STOP JUMPDEST CALLVALUE DUP1 ISZERO PUSH2 0x21E JUMPI PUSH1 0x0 DUP1 REVERT JUMPDEST POP PUSH2 0x227 PUSH2 0x8F4 JUMP JUMPDEST PUSH1 0x40 DUP1 MLOAD PUSH1 0x20 DUP1 DUP3 MSTORE DUP4 MLOAD DUP2 DUP4 ADD MSTORE DUP4 MLOAD SWAP2 SWAP3 DUP4 SWAP3 SWAP1 DUP4 ADD SWAP2 DUP6 ADD SWAP1 DUP1 DUP4 DUP4 PUSH1 0x0 JUMPDEST DUP4 DUP2 LT ISZERO PUSH2 0x261 JUMPI DUP2 DUP2 ADD MLOAD DUP4 DUP3 ADD MSTORE PUSH1 0x20 ADD PUSH2 0x249 JUMP JUMPDEST POP POP POP POP SWAP1 POP SWAP1 DUP2 ADD SWAP1 PUSH1 0x1F AND DUP1 ISZERO PUSH2 0x28E JUMPI DUP1 DUP3 SUB DUP1 MLOAD PUSH1 0x1 DUP4 PUSH1 0x20 SUB PUSH2 0x100 EXP SUB NOT AND DUP2 MSTORE PUSH1 0x20 ADD SWAP2 POP JUMPDEST POP SWAP3 POP POP POP PUSH1 0x40 MLOAD DUP1 SWAP2 SUB SWAP1 RETURN JUMPDEST CALLVALUE DUP1 ISZERO PUSH2 0x2A8 JUMPI PUSH1 0x0 DUP1 REVERT JUMPDEST POP PUSH2 0x2D5 PUSH1 0x4 DUP1 CALLDATASIZE SUB PUSH1 0x40 DUP2 LT ISZERO PUSH2 0x2BF JUMPI PUSH1 0x0 DUP1 REVERT JUMPDEST POP PUSH1 0x1 PUSH1 0x1 PUSH1 0xA0 SHL SUB DUP2 CALLDATALOAD AND SWAP1 PUSH1 0x20 ADD CALLDATALOAD PUSH2 0x98A JUMP JUMPDEST PUSH1 0x40 DUP1 MLOAD SWAP2 ISZERO ISZERO DUP3 MSTORE MLOAD SWAP1 DUP2 SWAP1 SUB PUSH1 0x20 ADD SWAP1 RETURN JUMPDEST CALLVALUE DUP1 ISZERO PUSH2 0x2F5 JUMPI PUSH1 0x0 DUP1 REVERT JUMPDEST POP PUSH2 0x2FE PUSH2 0x9A8 JUMP JUMPDEST PUSH1 0x40 DUP1 MLOAD SWAP2 DUP3 MSTORE MLOAD SWAP1 DUP2 SWAP1 SUB PUSH1 0x20 ADD SWAP1 RETURN JUMPDEST CALLVALUE DUP1 ISZERO PUSH2 0x31C JUMPI PUSH1 0x0 DUP1 REVERT JUMPDEST POP PUSH2 0x325 PUSH2 0x9AE JUMP JUMPDEST PUSH1 0x40 DUP1 MLOAD PUSH1 0x1 PUSH1 0x1 PUSH1 0xA0 SHL SUB SWAP1 SWAP3 AND DUP3 MSTORE MLOAD SWAP1 DUP2 SWAP1 SUB PUSH1 0x20 ADD SWAP1 RETURN JUMPDEST CALLVALUE DUP1 ISZERO PUSH2 0x34D JUMPI PUSH1 0x0 DUP1 REVERT JUMPDEST POP PUSH2 0x2FE PUSH2 0x9D2 JUMP JUMPDEST CALLVALUE DUP1 ISZERO PUSH2 0x362 JUMPI PUSH1 0x0 DUP1 REVERT JUMPDEST POP PUSH2 0x2D5 PUSH1 0x4 DUP1 CALLDATASIZE SUB PUSH1 0x60 DUP2 LT ISZERO PUSH2 0x379 JUMPI PUSH1 0x0 DUP1 REVERT JUMPDEST POP PUSH1 0x1 PUSH1 0x1 PUSH1 0xA0 SHL SUB DUP2 CALLDATALOAD DUP2 AND SWAP2 PUSH1 0x20 DUP2 ADD CALLDATALOAD SWAP1 SWAP2 AND SWAP1 PUSH1 0x40 ADD CALLDATALOAD PUSH2 0x9D8 JUMP JUMPDEST CALLVALUE DUP1 ISZERO PUSH2 0x3A5 JUMPI PUSH1 0x0 DUP1 REVERT JUMPDEST POP PUSH2 0x2FE PUSH1 0x4 DUP1 CALLDATASIZE SUB PUSH1 0x20 DUP2 LT ISZERO PUSH2 0x3BC JUMPI PUSH1 0x0 DUP1 REVERT JUMPDEST POP CALLDATALOAD PUSH2 0xA5F JUMP JUMPDEST CALLVALUE DUP1 ISZERO PUSH2 0x3CF JUMPI PUSH1 0x0 DUP1 REVERT JUMPDEST POP PUSH2 0x2FE PUSH2 0xAC1 JUMP JUMPDEST CALLVALUE DUP1 ISZERO PUSH2 0x3E4 JUMPI PUSH1 0x0 DUP1 REVERT JUMPDEST POP PUSH2 0x210 PUSH1 0x4 DUP1 CALLDATASIZE SUB PUSH1 0x20 DUP2 LT ISZERO PUSH2 0x3FB JUMPI PUSH1 0x0 DUP1 REVERT JUMPDEST POP CALLDATALOAD PUSH1 0x1 PUSH1 0x1 PUSH1 0xA0 SHL SUB AND PUSH2 0xAC7 JUMP JUMPDEST CALLVALUE DUP1 ISZERO PUSH2 0x417 JUMPI PUSH1 0x0 DUP1 REVERT JUMPDEST POP PUSH2 0x2D5 PUSH1 0x4 DUP1 CALLDATASIZE SUB PUSH1 0x40 DUP2 LT ISZERO PUSH2 0x42E JUMPI PUSH1 0x0 DUP1 REVERT JUMPDEST POP PUSH1 0x1 PUSH1 0x1 PUSH1 0xA0 SHL SUB DUP2 CALLDATALOAD AND SWAP1 PUSH1 0x20 ADD CALLDATALOAD PUSH2 0xC86 JUMP JUMPDEST CALLVALUE DUP1 ISZERO PUSH2 0x450 JUMPI PUSH1 0x0 DUP1 REVERT JUMPDEST POP PUSH2 0x2FE PUSH2 0xCD4 JUMP JUMPDEST CALLVALUE DUP1 ISZERO PUSH2 0x465 JUMPI PUSH1 0x0 DUP1 REVERT JUMPDEST POP PUSH2 0x210 PUSH1 0x4 DUP1 CALLDATASIZE SUB PUSH1 0x20 DUP2 LT ISZERO PUSH2 0x47C JUMPI PUSH1 0x0 DUP1 REVERT JUMPDEST POP CALLDATALOAD PUSH2 0xCDA JUMP JUMPDEST CALLVALUE DUP1 ISZERO PUSH2 0x48F JUMPI PUSH1 0x0 DUP1 REVERT JUMPDEST POP PUSH2 0x210 PUSH1 0x4 DUP1 CALLDATASIZE SUB PUSH1 0x20 DUP2 LT ISZERO PUSH2 0x4A6 JUMPI PUSH1 0x0 DUP1 REVERT JUMPDEST POP CALLDATALOAD PUSH1 0x1 PUSH1 0x1 PUSH1 0xA0 SHL SUB AND PUSH2 0xDB4 JUMP JUMPDEST CALLVALUE DUP1 ISZERO PUSH2 0x4C2 JUMPI PUSH1 0x0 DUP1 REVERT JUMPDEST POP PUSH2 0x2FE PUSH1 0x4 DUP1 CALLDATASIZE SUB PUSH1 0x40 DUP2 LT ISZERO PUSH2 0x4D9 JUMPI PUSH1 0x0 DUP1 REVERT JUMPDEST POP DUP1 CALLDATALOAD SWAP1 PUSH1 0x20 ADD CALLDATALOAD ISZERO ISZERO PUSH2 0xE30 JUMP JUMPDEST CALLVALUE DUP1 ISZERO PUSH2 0x4F4 JUMPI PUSH1 0x0 DUP1 REVERT JUMPDEST POP PUSH2 0x210 PUSH2 0xEC2 JUMP JUMPDEST CALLVALUE DUP1 ISZERO PUSH2 0x509 JUMPI PUSH1 0x0 DUP1 REVERT JUMPDEST POP PUSH2 0x325 PUSH2 0xF57 JUMP JUMPDEST CALLVALUE DUP1 ISZERO PUSH2 0x51E JUMPI PUSH1 0x0 DUP1 REVERT JUMPDEST POP PUSH2 0x2D5 PUSH2 0xF7B JUMP JUMPDEST CALLVALUE DUP1 ISZERO PUSH2 0x533 JUMPI PUSH1 0x0 DUP1 REVERT JUMPDEST POP PUSH2 0x210 PUSH1 0x4 DUP1 CALLDATASIZE SUB PUSH1 0x20 DUP2 LT ISZERO PUSH2 0x54A JUMPI PUSH1 0x0 DUP1 REVERT JUMPDEST POP CALLDATALOAD PUSH1 0x1 PUSH1 0x1 PUSH1 0xA0 SHL SUB AND PUSH2 0xF89 JUMP JUMPDEST CALLVALUE DUP1 ISZERO PUSH2 0x566 JUMPI PUSH1 0x0 DUP1 REVERT JUMPDEST POP PUSH2 0x2D5 PUSH1 0x4 DUP1 CALLDATASIZE SUB PUSH1 0x20 DUP2 LT ISZERO PUSH2 0x57D JUMPI PUSH1 0x0 DUP1 REVERT JUMPDEST POP CALLDATALOAD PUSH1 0x1 PUSH1 0x1 PUSH1 0xA0 SHL SUB AND PUSH2 0x110D JUMP JUMPDEST CALLVALUE DUP1 ISZERO PUSH2 0x599 JUMPI PUSH1 0x0 DUP1 REVERT JUMPDEST POP PUSH2 0x2FE PUSH2 0x112B JUMP JUMPDEST CALLVALUE DUP1 ISZERO PUSH2 0x5AE JUMPI PUSH1 0x0 DUP1 REVERT JUMPDEST POP PUSH2 0x2FE PUSH1 0x4 DUP1 CALLDATASIZE SUB PUSH1 0x20 DUP2 LT ISZERO PUSH2 0x5C5 JUMPI PUSH1 0x0 DUP1 REVERT JUMPDEST POP CALLDATALOAD PUSH1 0x1 PUSH1 0x1 PUSH1 0xA0 SHL SUB AND PUSH2 0x1131 JUMP JUMPDEST CALLVALUE DUP1 ISZERO PUSH2 0x5E1 JUMPI PUSH1 0x0 DUP1 REVERT JUMPDEST POP PUSH2 0x210 PUSH2 0x1193 JUMP JUMPDEST CALLVALUE DUP1 ISZERO PUSH2 0x5F6 JUMPI PUSH1 0x0 DUP1 REVERT JUMPDEST POP PUSH2 0x2FE PUSH2 0x1223 JUMP JUMPDEST CALLVALUE DUP1 ISZERO PUSH2 0x60B JUMPI PUSH1 0x0 DUP1 REVERT JUMPDEST POP PUSH2 0x2D5 PUSH1 0x4 DUP1 CALLDATASIZE SUB PUSH1 0x20 DUP2 LT ISZERO PUSH2 0x622 JUMPI PUSH1 0x0 DUP1 REVERT JUMPDEST POP CALLDATALOAD PUSH1 0x1 PUSH1 0x1 PUSH1 0xA0 SHL SUB AND PUSH2 0x1229 JUMP JUMPDEST CALLVALUE DUP1 ISZERO PUSH2 0x63E JUMPI PUSH1 0x0 DUP1 REVERT JUMPDEST POP PUSH2 0x325 PUSH2 0x1247 JUMP JUMPDEST CALLVALUE DUP1 ISZERO PUSH2 0x653 JUMPI PUSH1 0x0 DUP1 REVERT JUMPDEST POP PUSH2 0x210 PUSH1 0x4 DUP1 CALLDATASIZE SUB PUSH1 0x20 DUP2 LT ISZERO PUSH2 0x66A JUMPI PUSH1 0x0 DUP1 REVERT JUMPDEST POP CALLDATALOAD PUSH2 0x1256 JUMP JUMPDEST CALLVALUE DUP1 ISZERO PUSH2 0x67D JUMPI PUSH1 0x0 DUP1 REVERT JUMPDEST POP PUSH2 0x227 PUSH2 0x12B3 JUMP JUMPDEST CALLVALUE DUP1 ISZERO PUSH2 0x692 JUMPI PUSH1 0x0 DUP1 REVERT JUMPDEST POP PUSH2 0x2D5 PUSH1 0x4 DUP1 CALLDATASIZE SUB PUSH1 0x40 DUP2 LT ISZERO PUSH2 0x6A9 JUMPI PUSH1 0x0 DUP1 REVERT JUMPDEST POP PUSH1 0x1 PUSH1 0x1 PUSH1 0xA0 SHL SUB DUP2 CALLDATALOAD AND SWAP1 PUSH1 0x20 ADD CALLDATALOAD PUSH2 0x1314 JUMP JUMPDEST CALLVALUE DUP1 ISZERO PUSH2 0x6CB JUMPI PUSH1 0x0 DUP1 REVERT JUMPDEST POP PUSH2 0x210 PUSH2 0x137C JUMP JUMPDEST CALLVALUE DUP1 ISZERO PUSH2 0x6E0 JUMPI PUSH1 0x0 DUP1 REVERT JUMPDEST POP PUSH2 0x2D5 PUSH1 0x4 DUP1 CALLDATASIZE SUB PUSH1 0x40 DUP2 LT ISZERO PUSH2 0x6F7 JUMPI PUSH1 0x0 DUP1 REVERT JUMPDEST POP PUSH1 0x1 PUSH1 0x1 PUSH1 0xA0 SHL SUB DUP2 CALLDATALOAD AND SWAP1 PUSH1 0x20 ADD CALLDATALOAD PUSH2 0x146A JUMP JUMPDEST CALLVALUE DUP1 ISZERO PUSH2 0x719 JUMPI PUSH1 0x0 DUP1 REVERT JUMPDEST POP PUSH2 0x325 PUSH2 0x147E JUMP JUMPDEST CALLVALUE DUP1 ISZERO PUSH2 0x72E JUMPI PUSH1 0x0 DUP1 REVERT JUMPDEST POP PUSH2 0x2FE PUSH2 0x148D JUMP JUMPDEST CALLVALUE DUP1 ISZERO PUSH2 0x743 JUMPI PUSH1 0x0 DUP1 REVERT JUMPDEST POP PUSH2 0x210 PUSH1 0x4 DUP1 CALLDATASIZE SUB PUSH1 0x20 DUP2 LT ISZERO PUSH2 0x75A JUMPI PUSH1 0x0 DUP1 REVERT JUMPDEST POP CALLDATALOAD ISZERO ISZERO PUSH2 0x1493 JUMP JUMPDEST CALLVALUE DUP1 ISZERO PUSH2 0x76F JUMPI PUSH1 0x0 DUP1 REVERT JUMPDEST POP PUSH2 0x2FE PUSH2 0x153A JUMP JUMPDEST CALLVALUE DUP1 ISZERO PUSH2 0x784 JUMPI PUSH1 0x0 DUP1 REVERT JUMPDEST POP PUSH2 0x210 PUSH1 0x4 DUP1 CALLDATASIZE SUB PUSH1 0x20 DUP2 LT ISZERO PUSH2 0x79B JUMPI PUSH1 0x0 DUP1 REVERT JUMPDEST POP CALLDATALOAD PUSH2 0x1540 JUMP JUMPDEST CALLVALUE DUP1 ISZERO PUSH2 0x7AE JUMPI PUSH1 0x0 DUP1 REVERT JUMPDEST POP PUSH2 0x210 PUSH1 0x4 DUP1 CALLDATASIZE SUB PUSH1 0x20 DUP2 LT ISZERO PUSH2 0x7C5 JUMPI PUSH1 0x0 DUP1 REVERT JUMPDEST POP CALLDATALOAD PUSH2 0x15A4 JUMP JUMPDEST CALLVALUE DUP1 ISZERO PUSH2 0x7D8 JUMPI PUSH1 0x0 DUP1 REVERT JUMPDEST POP PUSH2 0x2FE PUSH1 0x4 DUP1 CALLDATASIZE SUB PUSH1 0x40 DUP2 LT ISZERO PUSH2 0x7EF JUMPI PUSH1 0x0 DUP1 REVERT JUMPDEST POP PUSH1 0x1 PUSH1 0x1 PUSH1 0xA0 SHL SUB DUP2 CALLDATALOAD DUP2 AND SWAP2 PUSH1 0x20 ADD CALLDATALOAD AND PUSH2 0x1642 JUMP JUMPDEST CALLVALUE DUP1 ISZERO PUSH2 0x813 JUMPI PUSH1 0x0 DUP1 REVERT JUMPDEST POP PUSH2 0x210 PUSH1 0x4 DUP1 CALLDATASIZE SUB PUSH1 0x20 DUP2 LT ISZERO PUSH2 0x82A JUMPI PUSH1 0x0 DUP1 REVERT JUMPDEST POP CALLDATALOAD PUSH1 0x1 PUSH1 0x1 PUSH1 0xA0 SHL SUB AND PUSH2 0x166D JUMP JUMPDEST CALLVALUE DUP1 ISZERO PUSH2 0x846 JUMPI PUSH1 0x0 DUP1 REVERT JUMPDEST POP PUSH2 0x210 PUSH1 0x4 DUP1 CALLDATASIZE SUB PUSH1 0x20 DUP2 LT ISZERO PUSH2 0x85D JUMPI PUSH1 0x0 DUP1 REVERT JUMPDEST POP CALLDATALOAD PUSH2 0x16E6 JUMP JUMPDEST CALLVALUE DUP1 ISZERO PUSH2 0x870 JUMPI PUSH1 0x0 DUP1 REVERT JUMPDEST POP PUSH2 0x210 PUSH1 0x4 DUP1 CALLDATASIZE SUB PUSH1 0x20 DUP2 LT ISZERO PUSH2 0x887 JUMPI PUSH1 0x0 DUP1 REVERT JUMPDEST POP CALLDATALOAD PUSH1 0x1 PUSH1 0x1 PUSH1 0xA0 SHL SUB AND PUSH2 0x174A JUMP JUMPDEST PUSH2 0x89F PUSH2 0x1830 JUMP JUMPDEST PUSH1 0x0 SLOAD PUSH1 0x1 PUSH1 0x1 PUSH1 0xA0 SHL SUB SWAP1 DUP2 AND SWAP2 AND EQ PUSH2 0x8EF JUMPI PUSH1 0x40 DUP1 MLOAD PUSH3 0x461BCD PUSH1 0xE5 SHL DUP2 MSTORE PUSH1 0x20 PUSH1 0x4 DUP3 ADD DUP2 SWAP1 MSTORE PUSH1 0x24 DUP3 ADD MSTORE PUSH1 0x0 DUP1 MLOAD PUSH1 0x20 PUSH2 0x29D6 DUP4 CODECOPY DUP2 MLOAD SWAP2 MSTORE PUSH1 0x44 DUP3 ADD MSTORE SWAP1 MLOAD SWAP1 DUP2 SWAP1 SUB PUSH1 0x64 ADD SWAP1 REVERT JUMPDEST PUSH1 0xF SSTORE JUMP JUMPDEST PUSH1 0xC DUP1 SLOAD PUSH1 0x40 DUP1 MLOAD PUSH1 0x20 PUSH1 0x1F PUSH1 0x2 PUSH1 0x0 NOT PUSH2 0x100 PUSH1 0x1 DUP9 AND ISZERO MUL ADD SWAP1 SWAP6 AND SWAP5 SWAP1 SWAP5 DIV SWAP4 DUP5 ADD DUP2 SWAP1 DIV DUP2 MUL DUP3 ADD DUP2 ADD SWAP1 SWAP3 MSTORE DUP3 DUP2 MSTORE PUSH1 0x60 SWAP4 SWAP1 SWAP3 SWAP1 SWAP2 DUP4 ADD DUP3 DUP3 DUP1 ISZERO PUSH2 0x980 JUMPI DUP1 PUSH1 0x1F LT PUSH2 0x955 JUMPI PUSH2 0x100 DUP1 DUP4 SLOAD DIV MUL DUP4 MSTORE SWAP2 PUSH1 0x20 ADD SWAP2 PUSH2 0x980 JUMP JUMPDEST DUP3 ADD SWAP2 SWAP1 PUSH1 0x0 MSTORE PUSH1 0x20 PUSH1 0x0 KECCAK256 SWAP1 JUMPDEST DUP2 SLOAD DUP2 MSTORE SWAP1 PUSH1 0x1 ADD SWAP1 PUSH1 0x20 ADD DUP1 DUP4 GT PUSH2 0x963 JUMPI DUP3 SWAP1 SUB PUSH1 0x1F AND DUP3 ADD SWAP2 JUMPDEST POP POP POP POP POP SWAP1 POP SWAP1 JUMP JUMPDEST PUSH1 0x0 PUSH2 0x99E PUSH2 0x997 PUSH2 0x1830 JUMP JUMPDEST DUP5 DUP5 PUSH2 0x1834 JUMP JUMPDEST POP PUSH1 0x1 JUMPDEST SWAP3 SWAP2 POP POP JUMP JUMPDEST PUSH1 0xB SLOAD SWAP1 JUMP JUMPDEST PUSH32 0x0 DUP2 JUMP JUMPDEST PUSH1 0x9 SLOAD SWAP1 JUMP JUMPDEST PUSH1 0x0 PUSH2 0x9E5 DUP5 DUP5 DUP5 PUSH2 0x1920 JUMP JUMPDEST PUSH2 0xA55 DUP5 PUSH2 0x9F1 PUSH2 0x1830 JUMP JUMPDEST PUSH2 0xA50 DUP6 PUSH1 0x40 MLOAD DUP1 PUSH1 0x60 ADD PUSH1 0x40 MSTORE DUP1 PUSH1 0x28 DUP2 MSTORE PUSH1 0x20 ADD PUSH2 0x29AE PUSH1 0x28 SWAP2 CODECOPY PUSH1 0x1 PUSH1 0x1 PUSH1 0xA0 SHL SUB DUP11 AND PUSH1 0x0 SWAP1 DUP2 MSTORE PUSH1 0x5 PUSH1 0x20 MSTORE PUSH1 0x40 DUP2 KECCAK256 SWAP1 PUSH2 0xA2F PUSH2 0x1830 JUMP JUMPDEST PUSH1 0x1 PUSH1 0x1 PUSH1 0xA0 SHL SUB AND DUP2 MSTORE PUSH1 0x20 DUP2 ADD SWAP2 SWAP1 SWAP2 MSTORE PUSH1 0x40 ADD PUSH1 0x0 KECCAK256 SLOAD SWAP2 SWAP1 PUSH2 0x1B66 JUMP JUMPDEST PUSH2 0x1834 JUMP JUMPDEST POP PUSH1 0x1 SWAP4 SWAP3 POP POP POP JUMP JUMPDEST PUSH1 0x0 PUSH1 0xA SLOAD DUP3 GT ISZERO PUSH2 0xAA2 JUMPI PUSH1 0x40 MLOAD PUSH3 0x461BCD PUSH1 0xE5 SHL DUP2 MSTORE PUSH1 0x4 ADD DUP1 DUP1 PUSH1 0x20 ADD DUP3 DUP2 SUB DUP3 MSTORE PUSH1 0x2A DUP2 MSTORE PUSH1 0x20 ADD DUP1 PUSH2 0x28F3 PUSH1 0x2A SWAP2 CODECOPY PUSH1 0x40 ADD SWAP2 POP POP PUSH1 0x40 MLOAD DUP1 SWAP2 SUB SWAP1 REVERT JUMPDEST PUSH1 0x0 PUSH2 0xAAC PUSH2 0x1BFD JUMP JUMPDEST SWAP1 POP PUSH2 0xAB8 DUP4 DUP3 PUSH2 0x1C20 JUMP JUMPDEST SWAP2 POP POP JUMPDEST SWAP2 SWAP1 POP JUMP JUMPDEST PUSH1 0xE SLOAD SWAP1 JUMP JUMPDEST PUSH2 0xACF PUSH2 0x1830 JUMP JUMPDEST PUSH1 0x0 SLOAD PUSH1 0x1 PUSH1 0x1 PUSH1 0xA0 SHL SUB SWAP1 DUP2 AND SWAP2 AND EQ PUSH2 0xB1F JUMPI PUSH1 0x40 DUP1 MLOAD PUSH3 0x461BCD PUSH1 0xE5 SHL DUP2 MSTORE PUSH1 0x20 PUSH1 0x4 DUP3 ADD DUP2 SWAP1 MSTORE PUSH1 0x24 DUP3 ADD MSTORE PUSH1 0x0 DUP1 MLOAD PUSH1 0x20 PUSH2 0x29D6 DUP4 CODECOPY DUP2 MLOAD SWAP2 MSTORE PUSH1 0x44 DUP3 ADD MSTORE SWAP1 MLOAD SWAP1 DUP2 SWAP1 SUB PUSH1 0x64 ADD SWAP1 REVERT JUMPDEST PUSH1 0x1 PUSH1 0x1 PUSH1 0xA0 SHL SUB DUP2 AND PUSH1 0x0 SWAP1 DUP2 MSTORE PUSH1 0x7 PUSH1 0x20 MSTORE PUSH1 0x40 SWAP1 KECCAK256 SLOAD PUSH1 0xFF AND PUSH2 0xB8A JUMPI PUSH1 0x40 DUP1 MLOAD PUSH3 0x461BCD PUSH1 0xE5 SHL DUP2 MSTORE PUSH1 0x20 PUSH1 0x4 DUP3 ADD MSTORE PUSH1 0x1B PUSH1 0x24 DUP3 ADD MSTORE PUSH27 0x1058D8DBDD5B9D081A5CC8185B1C9958591E48195E18DB1D591959 PUSH1 0x2A SHL PUSH1 0x44 DUP3 ADD MSTORE SWAP1 MLOAD SWAP1 DUP2 SWAP1 SUB PUSH1 0x64 ADD SWAP1 REVERT JUMPDEST PUSH1 0x0 JUMPDEST PUSH1 0x8 SLOAD DUP2 LT ISZERO PUSH2 0xC82 JUMPI DUP2 PUSH1 0x1 PUSH1 0x1 PUSH1 0xA0 SHL SUB AND PUSH1 0x8 DUP3 DUP2 SLOAD DUP2 LT PUSH2 0xBAE JUMPI INVALID JUMPDEST PUSH1 0x0 SWAP2 DUP3 MSTORE PUSH1 0x20 SWAP1 SWAP2 KECCAK256 ADD SLOAD PUSH1 0x1 PUSH1 0x1 PUSH1 0xA0 SHL SUB AND EQ ISZERO PUSH2 0xC7A JUMPI PUSH1 0x8 DUP1 SLOAD PUSH1 0x0 NOT DUP2 ADD SWAP1 DUP2 LT PUSH2 0xBDB JUMPI INVALID JUMPDEST PUSH1 0x0 SWAP2 DUP3 MSTORE PUSH1 0x20 SWAP1 SWAP2 KECCAK256 ADD SLOAD PUSH1 0x8 DUP1 SLOAD PUSH1 0x1 PUSH1 0x1 PUSH1 0xA0 SHL SUB SWAP1 SWAP3 AND SWAP2 DUP4 SWAP1 DUP2 LT PUSH2 0xC01 JUMPI INVALID JUMPDEST PUSH1 0x0 SWAP2 DUP3 MSTORE PUSH1 0x20 DUP1 DUP4 KECCAK256 SWAP2 SWAP1 SWAP2 ADD DUP1 SLOAD PUSH1 0x1 PUSH1 0x1 PUSH1 0xA0 SHL SUB NOT AND PUSH1 0x1 PUSH1 0x1 PUSH1 0xA0 SHL SUB SWAP5 DUP6 AND OR SWAP1 SSTORE SWAP2 DUP5 AND DUP2 MSTORE PUSH1 0x4 DUP3 MSTORE PUSH1 0x40 DUP1 DUP3 KECCAK256 DUP3 SWAP1 SSTORE PUSH1 0x7 SWAP1 SWAP3 MSTORE KECCAK256 DUP1 SLOAD PUSH1 0xFF NOT AND SWAP1 SSTORE PUSH1 0x8 DUP1 SLOAD DUP1 PUSH2 0xC53 JUMPI INVALID JUMPDEST PUSH1 0x0 DUP3 DUP2 MSTORE PUSH1 0x20 SWAP1 KECCAK256 DUP2 ADD PUSH1 0x0 NOT SWAP1 DUP2 ADD DUP1 SLOAD PUSH1 0x1 PUSH1 0x1 PUSH1 0xA0 SHL SUB NOT AND SWAP1 SSTORE ADD SWAP1 SSTORE PUSH2 0xC82 JUMP JUMPDEST PUSH1 0x1 ADD PUSH2 0xB8D JUMP JUMPDEST POP POP JUMP JUMPDEST PUSH1 0x0 PUSH2 0x99E PUSH2 0xC93 PUSH2 0x1830 JUMP JUMPDEST DUP5 PUSH2 0xA50 DUP6 PUSH1 0x5 PUSH1 0x0 PUSH2 0xCA4 PUSH2 0x1830 JUMP JUMPDEST PUSH1 0x1 PUSH1 0x1 PUSH1 0xA0 SHL SUB SWAP1 DUP2 AND DUP3 MSTORE PUSH1 0x20 DUP1 DUP4 ADD SWAP4 SWAP1 SWAP4 MSTORE PUSH1 0x40 SWAP2 DUP3 ADD PUSH1 0x0 SWAP1 DUP2 KECCAK256 SWAP2 DUP13 AND DUP2 MSTORE SWAP3 MSTORE SWAP1 KECCAK256 SLOAD SWAP1 PUSH2 0x1C66 JUMP JUMPDEST PUSH1 0xF SLOAD DUP2 JUMP JUMPDEST PUSH1 0x0 PUSH2 0xCE4 PUSH2 0x1830 JUMP JUMPDEST PUSH1 0x1 PUSH1 0x1 PUSH1 0xA0 SHL SUB DUP2 AND PUSH1 0x0 SWAP1 DUP2 MSTORE PUSH1 0x7 PUSH1 0x20 MSTORE PUSH1 0x40 SWAP1 KECCAK256 SLOAD SWAP1 SWAP2 POP PUSH1 0xFF AND ISZERO PUSH2 0xD3F JUMPI PUSH1 0x40 MLOAD PUSH3 0x461BCD PUSH1 0xE5 SHL DUP2 MSTORE PUSH1 0x4 ADD DUP1 DUP1 PUSH1 0x20 ADD DUP3 DUP2 SUB DUP3 MSTORE PUSH1 0x2C DUP2 MSTORE PUSH1 0x20 ADD DUP1 PUSH2 0x2A88 PUSH1 0x2C SWAP2 CODECOPY PUSH1 0x40 ADD SWAP2 POP POP PUSH1 0x40 MLOAD DUP1 SWAP2 SUB SWAP1 REVERT JUMPDEST PUSH1 0x0 PUSH2 0xD4A DUP4 PUSH2 0x1CBE JUMP JUMPDEST POP POP POP POP PUSH1 0x1 PUSH1 0x1 PUSH1 0xA0 SHL SUB DUP5 AND PUSH1 0x0 SWAP1 DUP2 MSTORE PUSH1 0x3 PUSH1 0x20 MSTORE PUSH1 0x40 SWAP1 KECCAK256 SLOAD SWAP2 SWAP3 POP PUSH2 0xD76 SWAP2 SWAP1 POP DUP3 PUSH2 0x1D0D JUMP JUMPDEST PUSH1 0x1 PUSH1 0x1 PUSH1 0xA0 SHL SUB DUP4 AND PUSH1 0x0 SWAP1 DUP2 MSTORE PUSH1 0x3 PUSH1 0x20 MSTORE PUSH1 0x40 SWAP1 KECCAK256 SSTORE PUSH1 0xA SLOAD PUSH2 0xD9C SWAP1 DUP3 PUSH2 0x1D0D JUMP JUMPDEST PUSH1 0xA SSTORE PUSH1 0xB SLOAD PUSH2 0xDAC SWAP1 DUP5 PUSH2 0x1C66 JUMP JUMPDEST PUSH1 0xB SSTORE POP POP POP JUMP JUMPDEST PUSH2 0xDBC PUSH2 0x1830 JUMP JUMPDEST PUSH1 0x0 SLOAD PUSH1 0x1 PUSH1 0x1 PUSH1 0xA0 SHL SUB SWAP1 DUP2 AND SWAP2 AND EQ PUSH2 0xE0C JUMPI PUSH1 0x40 DUP1 MLOAD PUSH3 0x461BCD PUSH1 0xE5 SHL DUP2 MSTORE PUSH1 0x20 PUSH1 0x4 DUP3 ADD DUP2 SWAP1 MSTORE PUSH1 0x24 DUP3 ADD MSTORE PUSH1 0x0 DUP1 MLOAD PUSH1 0x20 PUSH2 0x29D6 DUP4 CODECOPY DUP2 MLOAD SWAP2 MSTORE PUSH1 0x44 DUP3 ADD MSTORE SWAP1 MLOAD SWAP1 DUP2 SWAP1 SUB PUSH1 0x64 ADD SWAP1 REVERT JUMPDEST PUSH1 0x1 PUSH1 0x1 PUSH1 0xA0 SHL SUB AND PUSH1 0x0 SWAP1 DUP2 MSTORE PUSH1 0x6 PUSH1 0x20 MSTORE PUSH1 0x40 SWAP1 KECCAK256 DUP1 SLOAD PUSH1 0xFF NOT AND PUSH1 0x1 OR SWAP1 SSTORE JUMP JUMPDEST PUSH1 0x0 PUSH1 0x9 SLOAD DUP4 GT ISZERO PUSH2 0xE89 JUMPI PUSH1 0x40 DUP1 MLOAD PUSH3 0x461BCD PUSH1 0xE5 SHL DUP2 MSTORE PUSH1 0x20 PUSH1 0x4 DUP3 ADD MSTORE PUSH1 0x1F PUSH1 0x24 DUP3 ADD MSTORE PUSH32 0x416D6F756E74206D757374206265206C657373207468616E20737570706C7900 PUSH1 0x44 DUP3 ADD MSTORE SWAP1 MLOAD SWAP1 DUP2 SWAP1 SUB PUSH1 0x64 ADD SWAP1 REVERT JUMPDEST DUP2 PUSH2 0xEA8 JUMPI PUSH1 0x0 PUSH2 0xE99 DUP5 PUSH2 0x1CBE JUMP JUMPDEST POP SWAP4 SWAP6 POP PUSH2 0x9A2 SWAP5 POP POP POP POP POP JUMP JUMPDEST PUSH1 0x0 PUSH2 0xEB3 DUP5 PUSH2 0x1CBE JUMP JUMPDEST POP SWAP3 SWAP6 POP PUSH2 0x9A2 SWAP5 POP POP POP POP POP JUMP JUMPDEST PUSH2 0xECA PUSH2 0x1830 JUMP JUMPDEST PUSH1 0x0 SLOAD PUSH1 0x1 PUSH1 0x1 PUSH1 0xA0 SHL SUB SWAP1 DUP2 AND SWAP2 AND EQ PUSH2 0xF1A JUMPI PUSH1 0x40 DUP1 MLOAD PUSH3 0x461BCD PUSH1 0xE5 SHL DUP2 MSTORE PUSH1 0x20 PUSH1 0x4 DUP3 ADD DUP2 SWAP1 MSTORE PUSH1 0x24 DUP3 ADD MSTORE PUSH1 0x0 DUP1 MLOAD PUSH1 0x20 PUSH2 0x29D6 DUP4 CODECOPY DUP2 MLOAD SWAP2 MSTORE PUSH1 0x44 DUP3 ADD MSTORE SWAP1 MLOAD SWAP1 DUP2 SWAP1 SUB PUSH1 0x64 ADD SWAP1 REVERT JUMPDEST PUSH1 0x0 DUP1 SLOAD PUSH1 0x40 MLOAD PUSH1 0x1 PUSH1 0x1 PUSH1 0xA0 SHL SUB SWAP1 SWAP2 AND SWAP2 SELFBALANCE DUP1 ISZERO PUSH2 0x8FC MUL SWAP3 SWAP1 SWAP2 DUP2 DUP2 DUP2 DUP6 DUP9 DUP9 CALL SWAP4 POP POP POP POP ISZERO DUP1 ISZERO PUSH2 0xF54 JUMPI RETURNDATASIZE PUSH1 0x0 DUP1 RETURNDATACOPY RETURNDATASIZE PUSH1 0x0 REVERT JUMPDEST POP JUMP JUMPDEST PUSH32 0x0 DUP2 JUMP JUMPDEST PUSH1 0x13 SLOAD PUSH2 0x100 SWAP1 DIV PUSH1 0xFF AND DUP2 JUMP JUMPDEST PUSH2 0xF91 PUSH2 0x1830 JUMP JUMPDEST PUSH1 0x0 SLOAD PUSH1 0x1 PUSH1 0x1 PUSH1 0xA0 SHL SUB SWAP1 DUP2 AND SWAP2 AND EQ PUSH2 0xFE1 JUMPI PUSH1 0x40 DUP1 MLOAD PUSH3 0x461BCD PUSH1 0xE5 SHL DUP2 MSTORE PUSH1 0x20 PUSH1 0x4 DUP3 ADD DUP2 SWAP1 MSTORE PUSH1 0x24 DUP3 ADD MSTORE PUSH1 0x0 DUP1 MLOAD PUSH1 0x20 PUSH2 0x29D6 DUP4 CODECOPY DUP2 MLOAD SWAP2 MSTORE PUSH1 0x44 DUP3 ADD MSTORE SWAP1 MLOAD SWAP1 DUP2 SWAP1 SUB PUSH1 0x64 ADD SWAP1 REVERT JUMPDEST PUSH1 0x1 PUSH1 0x1 PUSH1 0xA0 SHL SUB DUP2 AND PUSH1 0x0 SWAP1 DUP2 MSTORE PUSH1 0x7 PUSH1 0x20 MSTORE PUSH1 0x40 SWAP1 KECCAK256 SLOAD PUSH1 0xFF AND ISZERO PUSH2 0x104D JUMPI PUSH1 0x40 DUP1 MLOAD PUSH3 0x461BCD PUSH1 0xE5 SHL DUP2 MSTORE PUSH1 0x20 PUSH1 0x4 DUP3 ADD MSTORE PUSH1 0x1B PUSH1 0x24 DUP3 ADD MSTORE PUSH27 0x1058D8DBDD5B9D081A5CC8185B1C9958591E48195E18DB1D591959 PUSH1 0x2A SHL PUSH1 0x44 DUP3 ADD MSTORE SWAP1 MLOAD SWAP1 DUP2 SWAP1 SUB PUSH1 0x64 ADD SWAP1 REVERT JUMPDEST PUSH1 0x1 PUSH1 0x1 PUSH1 0xA0 SHL SUB DUP2 AND PUSH1 0x0 SWAP1 DUP2 MSTORE PUSH1 0x3 PUSH1 0x20 MSTORE PUSH1 0x40 SWAP1 KECCAK256 SLOAD ISZERO PUSH2 0x10A7 JUMPI PUSH1 0x1 PUSH1 0x1 PUSH1 0xA0 SHL SUB DUP2 AND PUSH1 0x0 SWAP1 DUP2 MSTORE PUSH1 0x3 PUSH1 0x20 MSTORE PUSH1 0x40 SWAP1 KECCAK256 SLOAD PUSH2 0x108D SWAP1 PUSH2 0xA5F JUMP JUMPDEST PUSH1 0x1 PUSH1 0x1 PUSH1 0xA0 SHL SUB DUP3 AND PUSH1 0x0 SWAP1 DUP2 MSTORE PUSH1 0x4 PUSH1 0x20 MSTORE PUSH1 0x40 SWAP1 KECCAK256 SSTORE JUMPDEST PUSH1 0x1 PUSH1 0x1 PUSH1 0xA0 SHL SUB AND PUSH1 0x0 DUP2 DUP2 MSTORE PUSH1 0x7 PUSH1 0x20 MSTORE PUSH1 0x40 DUP2 KECCAK256 DUP1 SLOAD PUSH1 0xFF NOT AND PUSH1 0x1 SWAP1 DUP2 OR SWAP1 SWAP2 SSTORE PUSH1 0x8 DUP1 SLOAD SWAP2 DUP3 ADD DUP2 SSTORE SWAP1 SWAP2 MSTORE PUSH32 0xF3F7A9FE364FAAB93B216DA50A3214154F22A0A2B415B23A84C8169E8B636EE3 ADD DUP1 SLOAD PUSH1 0x1 PUSH1 0x1 PUSH1 0xA0 SHL SUB NOT AND SWAP1 SWAP2 OR SWAP1 SSTORE JUMP JUMPDEST PUSH1 0x1 PUSH1 0x1 PUSH1 0xA0 SHL SUB AND PUSH1 0x0 SWAP1 DUP2 MSTORE PUSH1 0x6 PUSH1 0x20 MSTORE PUSH1 0x40 SWAP1 KECCAK256 SLOAD PUSH1 0xFF AND SWAP1 JUMP JUMPDEST PUSH1 0x11 SLOAD DUP2 JUMP JUMPDEST PUSH1 0x1 PUSH1 0x1 PUSH1 0xA0 SHL SUB DUP2 AND PUSH1 0x0 SWAP1 DUP2 MSTORE PUSH1 0x7 PUSH1 0x20 MSTORE PUSH1 0x40 DUP2 KECCAK256 SLOAD PUSH1 0xFF AND ISZERO PUSH2 0x1171 JUMPI POP PUSH1 0x1 PUSH1 0x1 PUSH1 0xA0 SHL SUB DUP2 AND PUSH1 0x0 SWAP1 DUP2 MSTORE PUSH1 0x4 PUSH1 0x20 MSTORE PUSH1 0x40 SWAP1 KECCAK256 SLOAD PUSH2 0xABC JUMP JUMPDEST PUSH1 0x1 PUSH1 0x1 PUSH1 0xA0 SHL SUB DUP3 AND PUSH1 0x0 SWAP1 DUP2 MSTORE PUSH1 0x3 PUSH1 0x20 MSTORE PUSH1 0x40 SWAP1 KECCAK256 SLOAD PUSH2 0x9A2 SWAP1 PUSH2 0xA5F JUMP JUMPDEST PUSH2 0x119B PUSH2 0x1830 JUMP JUMPDEST PUSH1 0x0 SLOAD PUSH1 0x1 PUSH1 0x1 PUSH1 0xA0 SHL SUB SWAP1 DUP2 AND SWAP2 AND EQ PUSH2 0x11EB JUMPI PUSH1 0x40 DUP1 MLOAD PUSH3 0x461BCD PUSH1 0xE5 SHL DUP2 MSTORE PUSH1 0x20 PUSH1 0x4 DUP3 ADD DUP2 SWAP1 MSTORE PUSH1 0x24 DUP3 ADD MSTORE PUSH1 0x0 DUP1 MLOAD PUSH1 0x20 PUSH2 0x29D6 DUP4 CODECOPY DUP2 MLOAD SWAP2 MSTORE PUSH1 0x44 DUP3 ADD MSTORE SWAP1 MLOAD SWAP1 DUP2 SWAP1 SUB PUSH1 0x64 ADD SWAP1 REVERT JUMPDEST PUSH1 0x0 DUP1 SLOAD PUSH1 0x40 MLOAD PUSH1 0x1 PUSH1 0x1 PUSH1 0xA0 SHL SUB SWAP1 SWAP2 AND SWAP1 PUSH1 0x0 DUP1 MLOAD PUSH1 0x20 PUSH2 0x29F6 DUP4 CODECOPY DUP2 MLOAD SWAP2 MSTORE SWAP1 DUP4 SWAP1 LOG3 PUSH1 0x0 DUP1 SLOAD PUSH1 0x1 PUSH1 0x1 PUSH1 0xA0 SHL SUB NOT AND SWAP1 SSTORE JUMP JUMPDEST PUSH1 0x14 SLOAD DUP2 JUMP JUMPDEST PUSH1 0x1 PUSH1 0x1 PUSH1 0xA0 SHL SUB AND PUSH1 0x0 SWAP1 DUP2 MSTORE PUSH1 0x7 PUSH1 0x20 MSTORE PUSH1 0x40 SWAP1 KECCAK256 SLOAD PUSH1 0xFF AND SWAP1 JUMP JUMPDEST PUSH1 0x0 SLOAD PUSH1 0x1 PUSH1 0x1 PUSH1 0xA0 SHL SUB AND SWAP1 JUMP JUMPDEST PUSH2 0x125E PUSH2 0x1830 JUMP JUMPDEST PUSH1 0x0 SLOAD PUSH1 0x1 PUSH1 0x1 PUSH1 0xA0 SHL SUB SWAP1 DUP2 AND SWAP2 AND EQ PUSH2 0x12AE JUMPI PUSH1 0x40 DUP1 MLOAD PUSH3 0x461BCD PUSH1 0xE5 SHL DUP2 MSTORE PUSH1 0x20 PUSH1 0x4 DUP3 ADD DUP2 SWAP1 MSTORE PUSH1 0x24 DUP3 ADD MSTORE PUSH1 0x0 DUP1 MLOAD PUSH1 0x20 PUSH2 0x29D6 DUP4 CODECOPY DUP2 MLOAD SWAP2 MSTORE PUSH1 0x44 DUP3 ADD MSTORE SWAP1 MLOAD SWAP1 DUP2 SWAP1 SUB PUSH1 0x64 ADD SWAP1 REVERT JUMPDEST PUSH1 0x11 SSTORE JUMP JUMPDEST PUSH1 0xD DUP1 SLOAD PUSH1 0x40 DUP1 MLOAD PUSH1 0x20 PUSH1 0x1F PUSH1 0x2 PUSH1 0x0 NOT PUSH2 0x100 PUSH1 0x1 DUP9 AND ISZERO MUL ADD SWAP1 SWAP6 AND SWAP5 SWAP1 SWAP5 DIV SWAP4 DUP5 ADD DUP2 SWAP1 DIV DUP2 MUL DUP3 ADD DUP2 ADD SWAP1 SWAP3 MSTORE DUP3 DUP2 MSTORE PUSH1 0x60 SWAP4 SWAP1 SWAP3 SWAP1 SWAP2 DUP4 ADD DUP3 DUP3 DUP1 ISZERO PUSH2 0x980 JUMPI DUP1 PUSH1 0x1F LT PUSH2 0x955 JUMPI PUSH2 0x100 DUP1 DUP4 SLOAD DIV MUL DUP4 MSTORE SWAP2 PUSH1 0x20 ADD SWAP2 PUSH2 0x980 JUMP JUMPDEST PUSH1 0x0 PUSH2 0x99E PUSH2 0x1321 PUSH2 0x1830 JUMP JUMPDEST DUP5 PUSH2 0xA50 DUP6 PUSH1 0x40 MLOAD DUP1 PUSH1 0x60 ADD PUSH1 0x40 MSTORE DUP1 PUSH1 0x25 DUP2 MSTORE PUSH1 0x20 ADD PUSH2 0x2AD7 PUSH1 0x25 SWAP2 CODECOPY PUSH1 0x5 PUSH1 0x0 PUSH2 0x134B PUSH2 0x1830 JUMP JUMPDEST PUSH1 0x1 PUSH1 0x1 PUSH1 0xA0 SHL SUB SWAP1 DUP2 AND DUP3 MSTORE PUSH1 0x20 DUP1 DUP4 ADD SWAP4 SWAP1 SWAP4 MSTORE PUSH1 0x40 SWAP2 DUP3 ADD PUSH1 0x0 SWAP1 DUP2 KECCAK256 SWAP2 DUP14 AND DUP2 MSTORE SWAP3 MSTORE SWAP1 KECCAK256 SLOAD SWAP2 SWAP1 PUSH2 0x1B66 JUMP JUMPDEST PUSH1 0x1 SLOAD PUSH1 0x1 PUSH1 0x1 PUSH1 0xA0 SHL SUB AND CALLER EQ PUSH2 0x13C5 JUMPI PUSH1 0x40 MLOAD PUSH3 0x461BCD PUSH1 0xE5 SHL DUP2 MSTORE PUSH1 0x4 ADD DUP1 DUP1 PUSH1 0x20 ADD DUP3 DUP2 SUB DUP3 MSTORE PUSH1 0x23 DUP2 MSTORE PUSH1 0x20 ADD DUP1 PUSH2 0x2AB4 PUSH1 0x23 SWAP2 CODECOPY PUSH1 0x40 ADD SWAP2 POP POP PUSH1 0x40 MLOAD DUP1 SWAP2 SUB SWAP1 REVERT JUMPDEST PUSH1 0x2 SLOAD TIMESTAMP GT PUSH2 0x141B JUMPI PUSH1 0x40 DUP1 MLOAD PUSH3 0x461BCD PUSH1 0xE5 SHL DUP2 MSTORE PUSH1 0x20 PUSH1 0x4 DUP3 ADD MSTORE PUSH1 0x1F PUSH1 0x24 DUP3 ADD MSTORE PUSH32 0x436F6E7472616374206973206C6F636B656420756E74696C2037206461797300 PUSH1 0x44 DUP3 ADD MSTORE SWAP1 MLOAD SWAP1 DUP2 SWAP1 SUB PUSH1 0x64 ADD SWAP1 REVERT JUMPDEST PUSH1 0x1 SLOAD PUSH1 0x0 DUP1 SLOAD PUSH1 0x40 MLOAD PUSH1 0x1 PUSH1 0x1 PUSH1 0xA0 SHL SUB SWAP4 DUP5 AND SWAP4 SWAP1 SWAP2 AND SWAP2 PUSH1 0x0 DUP1 MLOAD PUSH1 0x20 PUSH2 0x29F6 DUP4 CODECOPY DUP2 MLOAD SWAP2 MSTORE SWAP2 LOG3 PUSH1 0x1 SLOAD PUSH1 0x0 DUP1 SLOAD PUSH1 0x1 PUSH1 0x1 PUSH1 0xA0 SHL SUB NOT AND PUSH1 0x1 PUSH1 0x1 PUSH1 0xA0 SHL SUB SWAP1 SWAP3 AND SWAP2 SWAP1 SWAP2 OR SWAP1 SSTORE JUMP JUMPDEST PUSH1 0x0 PUSH2 0x99E PUSH2 0x1477 PUSH2 0x1830 JUMP JUMPDEST DUP5 DUP5 PUSH2 0x1920 JUMP JUMPDEST PUSH1 0x0 SLOAD PUSH1 0x1 PUSH1 0x1 PUSH1 0xA0 SHL SUB AND DUP2 JUMP JUMPDEST PUSH1 0x2 SLOAD SWAP1 JUMP JUMPDEST PUSH2 0x149B PUSH2 0x1830 JUMP JUMPDEST PUSH1 0x0 SLOAD PUSH1 0x1 PUSH1 0x1 PUSH1 0xA0 SHL SUB SWAP1 DUP2 AND SWAP2 AND EQ PUSH2 0x14EB JUMPI PUSH1 0x40 DUP1 MLOAD PUSH3 0x461BCD PUSH1 0xE5 SHL DUP2 MSTORE PUSH1 0x20 PUSH1 0x4 DUP3 ADD DUP2 SWAP1 MSTORE PUSH1 0x24 DUP3 ADD MSTORE PUSH1 0x0 DUP1 MLOAD PUSH1 0x20 PUSH2 0x29D6 DUP4 CODECOPY DUP2 MLOAD SWAP2 MSTORE PUSH1 0x44 DUP3 ADD MSTORE SWAP1 MLOAD SWAP1 DUP2 SWAP1 SUB PUSH1 0x64 ADD SWAP1 REVERT JUMPDEST PUSH1 0x13 DUP1 SLOAD DUP3 ISZERO ISZERO PUSH2 0x100 DUP2 MUL PUSH2 0xFF00 NOT SWAP1 SWAP3 AND SWAP2 SWAP1 SWAP2 OR SWAP1 SWAP2 SSTORE PUSH1 0x40 DUP1 MLOAD SWAP2 DUP3 MSTORE MLOAD PUSH32 0x53726DFCAF90650AA7EB35524F4D3220F07413C8D6CB404CC8C18BF5591BC159 SWAP2 DUP2 SWAP1 SUB PUSH1 0x20 ADD SWAP1 LOG1 POP JUMP JUMPDEST PUSH1 0x15 SLOAD DUP2 JUMP JUMPDEST PUSH2 0x1548 PUSH2 0x1830 JUMP JUMPDEST PUSH1 0x0 SLOAD PUSH1 0x1 PUSH1 0x1 PUSH1 0xA0 SHL SUB SWAP1 DUP2 AND SWAP2 AND EQ PUSH2 0x1598 JUMPI PUSH1 0x40 DUP1 MLOAD PUSH3 0x461BCD PUSH1 0xE5 SHL DUP2 MSTORE PUSH1 0x20 PUSH1 0x4 DUP3 ADD DUP2 SWAP1 MSTORE PUSH1 0x24 DUP3 ADD MSTORE PUSH1 0x0 DUP1 MLOAD PUSH1 0x20 PUSH2 0x29D6 DUP4 CODECOPY DUP2 MLOAD SWAP2 MSTORE PUSH1 0x44 DUP3 ADD MSTORE SWAP1 MLOAD SWAP1 DUP2 SWAP1 SUB PUSH1 0x64 ADD SWAP1 REVERT JUMPDEST PUSH1 0xE SLOAD PUSH1 0xA EXP MUL PUSH1 0x14 SSTORE JUMP JUMPDEST PUSH2 0x15AC PUSH2 0x1830 JUMP JUMPDEST PUSH1 0x0 SLOAD PUSH1 0x1 PUSH1 0x1 PUSH1 0xA0 SHL SUB SWAP1 DUP2 AND SWAP2 AND EQ PUSH2 0x15FC JUMPI PUSH1 0x40 DUP1 MLOAD PUSH3 0x461BCD PUSH1 0xE5 SHL DUP2 MSTORE PUSH1 0x20 PUSH1 0x4 DUP3 ADD DUP2 SWAP1 MSTORE PUSH1 0x24 DUP3 ADD MSTORE PUSH1 0x0 DUP1 MLOAD PUSH1 0x20 PUSH2 0x29D6 DUP4 CODECOPY DUP2 MLOAD SWAP2 MSTORE PUSH1 0x44 DUP3 ADD MSTORE SWAP1 MLOAD SWAP1 DUP2 SWAP1 SUB PUSH1 0x64 ADD SWAP1 REVERT JUMPDEST PUSH1 0x0 DUP1 SLOAD PUSH1 0x1 DUP1 SLOAD PUSH1 0x1 PUSH1 0x1 PUSH1 0xA0 SHL SUB NOT SWAP1 DUP2 AND PUSH1 0x1 PUSH1 0x1 PUSH1 0xA0 SHL SUB DUP5 AND OR SWAP1 SWAP2 SSTORE AND DUP2 SSTORE TIMESTAMP DUP3 ADD PUSH1 0x2 SSTORE PUSH1 0x40 MLOAD DUP2 SWAP1 PUSH1 0x0 DUP1 MLOAD PUSH1 0x20 PUSH2 0x29F6 DUP4 CODECOPY DUP2 MLOAD SWAP2 MSTORE SWAP1 DUP3 SWAP1 LOG3 POP JUMP JUMPDEST PUSH1 0x1 PUSH1 0x1 PUSH1 0xA0 SHL SUB SWAP2 DUP3 AND PUSH1 0x0 SWAP1 DUP2 MSTORE PUSH1 0x5 PUSH1 0x20 SWAP1 DUP2 MSTORE PUSH1 0x40 DUP1 DUP4 KECCAK256 SWAP4 SWAP1 SWAP5 AND DUP3 MSTORE SWAP2 SWAP1 SWAP2 MSTORE KECCAK256 SLOAD SWAP1 JUMP JUMPDEST PUSH2 0x1675 PUSH2 0x1830 JUMP JUMPDEST PUSH1 0x0 SLOAD PUSH1 0x1 PUSH1 0x1 PUSH1 0xA0 SHL SUB SWAP1 DUP2 AND SWAP2 AND EQ PUSH2 0x16C5 JUMPI PUSH1 0x40 DUP1 MLOAD PUSH3 0x461BCD PUSH1 0xE5 SHL DUP2 MSTORE PUSH1 0x20 PUSH1 0x4 DUP3 ADD DUP2 SWAP1 MSTORE PUSH1 0x24 DUP3 ADD MSTORE PUSH1 0x0 DUP1 MLOAD PUSH1 0x20 PUSH2 0x29D6 DUP4 CODECOPY DUP2 MLOAD SWAP2 MSTORE PUSH1 0x44 DUP3 ADD MSTORE SWAP1 MLOAD SWAP1 DUP2 SWAP1 SUB PUSH1 0x64 ADD SWAP1 REVERT JUMPDEST PUSH1 0x1 PUSH1 0x1 PUSH1 0xA0 SHL SUB AND PUSH1 0x0 SWAP1 DUP2 MSTORE PUSH1 0x6 PUSH1 0x20 MSTORE PUSH1 0x40 SWAP1 KECCAK256 DUP1 SLOAD PUSH1 0xFF NOT AND SWAP1 SSTORE JUMP JUMPDEST PUSH2 0x16EE PUSH2 0x1830 JUMP JUMPDEST PUSH1 0x0 SLOAD PUSH1 0x1 PUSH1 0x1 PUSH1 0xA0 SHL SUB SWAP1 DUP2 AND SWAP2 AND EQ PUSH2 0x173E JUMPI PUSH1 0x40 DUP1 MLOAD PUSH3 0x461BCD PUSH1 0xE5 SHL DUP2 MSTORE PUSH1 0x20 PUSH1 0x4 DUP3 ADD DUP2 SWAP1 MSTORE PUSH1 0x24 DUP3 ADD MSTORE PUSH1 0x0 DUP1 MLOAD PUSH1 0x20 PUSH2 0x29D6 DUP4 CODECOPY DUP2 MLOAD SWAP2 MSTORE PUSH1 0x44 DUP3 ADD MSTORE SWAP1 MLOAD SWAP1 DUP2 SWAP1 SUB PUSH1 0x64 ADD SWAP1 REVERT JUMPDEST PUSH1 0xE SLOAD PUSH1 0xA EXP MUL PUSH1 0x15 SSTORE JUMP JUMPDEST PUSH2 0x1752 PUSH2 0x1830 JUMP JUMPDEST PUSH1 0x0 SLOAD PUSH1 0x1 PUSH1 0x1 PUSH1 0xA0 SHL SUB SWAP1 DUP2 AND SWAP2 AND EQ PUSH2 0x17A2 JUMPI PUSH1 0x40 DUP1 MLOAD PUSH3 0x461BCD PUSH1 0xE5 SHL DUP2 MSTORE PUSH1 0x20 PUSH1 0x4 DUP3 ADD DUP2 SWAP1 MSTORE PUSH1 0x24 DUP3 ADD MSTORE PUSH1 0x0 DUP1 MLOAD PUSH1 0x20 PUSH2 0x29D6 DUP4 CODECOPY DUP2 MLOAD SWAP2 MSTORE PUSH1 0x44 DUP3 ADD MSTORE SWAP1 MLOAD SWAP1 DUP2 SWAP1 SUB PUSH1 0x64 ADD SWAP1 REVERT JUMPDEST PUSH1 0x1 PUSH1 0x1 PUSH1 0xA0 SHL SUB DUP2 AND PUSH2 0x17E7 JUMPI PUSH1 0x40 MLOAD PUSH3 0x461BCD PUSH1 0xE5 SHL DUP2 MSTORE PUSH1 0x4 ADD DUP1 DUP1 PUSH1 0x20 ADD DUP3 DUP2 SUB DUP3 MSTORE PUSH1 0x26 DUP2 MSTORE PUSH1 0x20 ADD DUP1 PUSH2 0x291D PUSH1 0x26 SWAP2 CODECOPY PUSH1 0x40 ADD SWAP2 POP POP PUSH1 0x40 MLOAD DUP1 SWAP2 SUB SWAP1 REVERT JUMPDEST PUSH1 0x0 DUP1 SLOAD PUSH1 0x40 MLOAD PUSH1 0x1 PUSH1 0x1 PUSH1 0xA0 SHL SUB DUP1 DUP6 AND SWAP4 SWAP3 AND SWAP2 PUSH1 0x0 DUP1 MLOAD PUSH1 0x20 PUSH2 0x29F6 DUP4 CODECOPY DUP2 MLOAD SWAP2 MSTORE SWAP2 LOG3 PUSH1 0x0 DUP1 SLOAD PUSH1 0x1 PUSH1 0x1 PUSH1 0xA0 SHL SUB NOT AND PUSH1 0x1 PUSH1 0x1 PUSH1 0xA0 SHL SUB SWAP3 SWAP1 SWAP3 AND SWAP2 SWAP1 SWAP2 OR SWAP1 SSTORE JUMP JUMPDEST CALLER SWAP1 JUMP JUMPDEST PUSH1 0x1 PUSH1 0x1 PUSH1 0xA0 SHL SUB DUP4 AND PUSH2 0x1879 JUMPI PUSH1 0x40 MLOAD PUSH3 0x461BCD PUSH1 0xE5 SHL DUP2 MSTORE PUSH1 0x4 ADD DUP1 DUP1 PUSH1 0x20 ADD DUP3 DUP2 SUB DUP3 MSTORE PUSH1 0x24 DUP2 MSTORE PUSH1 0x20 ADD DUP1 PUSH2 0x2A64 PUSH1 0x24 SWAP2 CODECOPY PUSH1 0x40 ADD SWAP2 POP POP PUSH1 0x40 MLOAD DUP1 SWAP2 SUB SWAP1 REVERT JUMPDEST PUSH1 0x1 PUSH1 0x1 PUSH1 0xA0 SHL SUB DUP3 AND PUSH2 0x18BE JUMPI PUSH1 0x40 MLOAD PUSH3 0x461BCD PUSH1 0xE5 SHL DUP2 MSTORE PUSH1 0x4 ADD DUP1 DUP1 PUSH1 0x20 ADD DUP3 DUP2 SUB DUP3 MSTORE PUSH1 0x22 DUP2 MSTORE PUSH1 0x20 ADD DUP1 PUSH2 0x2943 PUSH1 0x22 SWAP2 CODECOPY PUSH1 0x40 ADD SWAP2 POP POP PUSH1 0x40 MLOAD DUP1 SWAP2 SUB SWAP1 REVERT JUMPDEST PUSH1 0x1 PUSH1 0x1 PUSH1 0xA0 SHL SUB DUP1 DUP5 AND PUSH1 0x0 DUP2 DUP2 MSTORE PUSH1 0x5 PUSH1 0x20 SWAP1 DUP2 MSTORE PUSH1 0x40 DUP1 DUP4 KECCAK256 SWAP5 DUP8 AND DUP1 DUP5 MSTORE SWAP5 DUP3 MSTORE SWAP2 DUP3 SWAP1 KECCAK256 DUP6 SWAP1 SSTORE DUP2 MLOAD DUP6 DUP2 MSTORE SWAP2 MLOAD PUSH32 0x8C5BE1E5EBEC7D5BD14F71427D1E84F3DD0314C0F7B2291E5B200AC8C7C3B925 SWAP3 DUP2 SWAP1 SUB SWAP1 SWAP2 ADD SWAP1 LOG3 POP POP POP JUMP JUMPDEST PUSH1 0x1 PUSH1 0x1 PUSH1 0xA0 SHL SUB DUP4 AND PUSH2 0x1965 JUMPI PUSH1 0x40 MLOAD PUSH3 0x461BCD PUSH1 0xE5 SHL DUP2 MSTORE PUSH1 0x4 ADD DUP1 DUP1 PUSH1 0x20 ADD DUP3 DUP2 SUB DUP3 MSTORE PUSH1 0x25 DUP2 MSTORE PUSH1 0x20 ADD DUP1 PUSH2 0x2A3F PUSH1 0x25 SWAP2 CODECOPY PUSH1 0x40 ADD SWAP2 POP POP PUSH1 0x40 MLOAD DUP1 SWAP2 SUB SWAP1 REVERT JUMPDEST PUSH1 0x1 PUSH1 0x1 PUSH1 0xA0 SHL SUB DUP3 AND PUSH2 0x19AA JUMPI PUSH1 0x40 MLOAD PUSH3 0x461BCD PUSH1 0xE5 SHL DUP2 MSTORE PUSH1 0x4 ADD DUP1 DUP1 PUSH1 0x20 ADD DUP3 DUP2 SUB DUP3 MSTORE PUSH1 0x23 DUP2 MSTORE PUSH1 0x20 ADD DUP1 PUSH2 0x28D0 PUSH1 0x23 SWAP2 CODECOPY PUSH1 0x40 ADD SWAP2 POP POP PUSH1 0x40 MLOAD DUP1 SWAP2 SUB SWAP1 REVERT JUMPDEST PUSH1 0x0 DUP2 GT PUSH2 0x19E9 JUMPI PUSH1 0x40 MLOAD PUSH3 0x461BCD PUSH1 0xE5 SHL DUP2 MSTORE PUSH1 0x4 ADD DUP1 DUP1 PUSH1 0x20 ADD DUP3 DUP2 SUB DUP3 MSTORE PUSH1 0x29 DUP2 MSTORE PUSH1 0x20 ADD DUP1 PUSH2 0x2A16 PUSH1 0x29 SWAP2 CODECOPY PUSH1 0x40 ADD SWAP2 POP POP PUSH1 0x40 MLOAD DUP1 SWAP2 SUB SWAP1 REVERT JUMPDEST PUSH2 0x19F1 PUSH2 0x1247 JUMP JUMPDEST PUSH1 0x1 PUSH1 0x1 PUSH1 0xA0 SHL SUB AND DUP4 PUSH1 0x1 PUSH1 0x1 PUSH1 0xA0 SHL SUB AND EQ ISZERO DUP1 ISZERO PUSH2 0x1A2B JUMPI POP PUSH2 0x1A15 PUSH2 0x1247 JUMP JUMPDEST PUSH1 0x1 PUSH1 0x1 PUSH1 0xA0 SHL SUB AND DUP3 PUSH1 0x1 PUSH1 0x1 PUSH1 0xA0 SHL SUB AND EQ ISZERO JUMPDEST ISZERO PUSH2 0x1A71 JUMPI PUSH1 0x14 SLOAD DUP2 GT ISZERO PUSH2 0x1A71 JUMPI PUSH1 0x40 MLOAD PUSH3 0x461BCD PUSH1 0xE5 SHL DUP2 MSTORE PUSH1 0x4 ADD DUP1 DUP1 PUSH1 0x20 ADD DUP3 DUP2 SUB DUP3 MSTORE PUSH1 0x28 DUP2 MSTORE PUSH1 0x20 ADD DUP1 PUSH2 0x2965 PUSH1 0x28 SWAP2 CODECOPY PUSH1 0x40 ADD SWAP2 POP POP PUSH1 0x40 MLOAD DUP1 SWAP2 SUB SWAP1 REVERT JUMPDEST PUSH1 0x0 PUSH2 0x1A7C ADDRESS PUSH2 0x1131 JUMP JUMPDEST SWAP1 POP PUSH1 0x14 SLOAD DUP2 LT PUSH2 0x1A8C JUMPI POP PUSH1 0x14 SLOAD JUMPDEST PUSH1 0x15 SLOAD DUP2 LT DUP1 ISZERO SWAP1 DUP2 SWAP1 PUSH2 0x1AA3 JUMPI POP PUSH1 0x13 SLOAD PUSH1 0xFF AND ISZERO JUMPDEST DUP1 ISZERO PUSH2 0x1AE1 JUMPI POP PUSH32 0x0 PUSH1 0x1 PUSH1 0x1 PUSH1 0xA0 SHL SUB AND DUP6 PUSH1 0x1 PUSH1 0x1 PUSH1 0xA0 SHL SUB AND EQ ISZERO JUMPDEST DUP1 ISZERO PUSH2 0x1AF4 JUMPI POP PUSH1 0x13 SLOAD PUSH2 0x100 SWAP1 DIV PUSH1 0xFF AND JUMPDEST ISZERO PUSH2 0x1B07 JUMPI PUSH1 0x15 SLOAD SWAP2 POP PUSH2 0x1B07 DUP3 PUSH2 0x1D4F JUMP JUMPDEST PUSH1 0x1 PUSH1 0x1 PUSH1 0xA0 SHL SUB DUP6 AND PUSH1 0x0 SWAP1 DUP2 MSTORE PUSH1 0x6 PUSH1 0x20 MSTORE PUSH1 0x40 SWAP1 KECCAK256 SLOAD PUSH1 0x1 SWAP1 PUSH1 0xFF AND DUP1 PUSH2 0x1B49 JUMPI POP PUSH1 0x1 PUSH1 0x1 PUSH1 0xA0 SHL SUB DUP6 AND PUSH1 0x0 SWAP1 DUP2 MSTORE PUSH1 0x6 PUSH1 0x20 MSTORE PUSH1 0x40 SWAP1 KECCAK256 SLOAD PUSH1 0xFF AND JUMPDEST ISZERO PUSH2 0x1B52 JUMPI POP PUSH1 0x0 JUMPDEST PUSH2 0x1B5E DUP7 DUP7 DUP7 DUP5 PUSH2 0x1DEC JUMP JUMPDEST POP POP POP POP POP POP JUMP JUMPDEST PUSH1 0x0 DUP2 DUP5 DUP5 GT ISZERO PUSH2 0x1BF5 JUMPI PUSH1 0x40 MLOAD PUSH3 0x461BCD PUSH1 0xE5 SHL DUP2 MSTORE PUSH1 0x4 ADD DUP1 DUP1 PUSH1 0x20 ADD DUP3 DUP2 SUB DUP3 MSTORE DUP4 DUP2 DUP2 MLOAD DUP2 MSTORE PUSH1 0x20 ADD SWAP2 POP DUP1 MLOAD SWAP1 PUSH1 0x20 ADD SWAP1 DUP1 DUP4 DUP4 PUSH1 0x0 JUMPDEST DUP4 DUP2 LT ISZERO PUSH2 0x1BBA JUMPI DUP2 DUP2 ADD MLOAD DUP4 DUP3 ADD MSTORE PUSH1 0x20 ADD PUSH2 0x1BA2 JUMP JUMPDEST POP POP POP POP SWAP1 POP SWAP1 DUP2 ADD SWAP1 PUSH1 0x1F AND DUP1 ISZERO PUSH2 0x1BE7 JUMPI DUP1 DUP3 SUB DUP1 MLOAD PUSH1 0x1 DUP4 PUSH1 0x20 SUB PUSH2 0x100 EXP SUB NOT AND DUP2 MSTORE PUSH1 0x20 ADD SWAP2 POP JUMPDEST POP SWAP3 POP POP POP PUSH1 0x40 MLOAD DUP1 SWAP2 SUB SWAP1 REVERT JUMPDEST POP POP POP SWAP1 SUB SWAP1 JUMP JUMPDEST PUSH1 0x0 DUP1 PUSH1 0x0 PUSH2 0x1C0A PUSH2 0x1F60 JUMP JUMPDEST SWAP1 SWAP3 POP SWAP1 POP PUSH2 0x1C19 DUP3 DUP3 PUSH2 0x1C20 JUMP JUMPDEST SWAP3 POP POP POP SWAP1 JUMP JUMPDEST PUSH1 0x0 PUSH2 0x1C5F DUP4 DUP4 PUSH1 0x40 MLOAD DUP1 PUSH1 0x40 ADD PUSH1 0x40 MSTORE DUP1 PUSH1 0x1A DUP2 MSTORE PUSH1 0x20 ADD PUSH26 0x536166654D6174683A206469766973696F6E206279207A65726F PUSH1 0x30 SHL DUP2 MSTORE POP PUSH2 0x20C3 JUMP JUMPDEST SWAP4 SWAP3 POP POP POP JUMP JUMPDEST PUSH1 0x0 DUP3 DUP3 ADD DUP4 DUP2 LT ISZERO PUSH2 0x1C5F JUMPI PUSH1 0x40 DUP1 MLOAD PUSH3 0x461BCD PUSH1 0xE5 SHL DUP2 MSTORE PUSH1 0x20 PUSH1 0x4 DUP3 ADD MSTORE PUSH1 0x1B PUSH1 0x24 DUP3 ADD MSTORE PUSH27 0x536166654D6174683A206164646974696F6E206F766572666C6F77 PUSH1 0x28 SHL PUSH1 0x44 DUP3 ADD MSTORE SWAP1 MLOAD SWAP1 DUP2 SWAP1 SUB PUSH1 0x64 ADD SWAP1 REVERT JUMPDEST PUSH1 0x0 DUP1 PUSH1 0x0 DUP1 PUSH1 0x0 DUP1 PUSH1 0x0 DUP1 PUSH1 0x0 PUSH2 0x1CD5 DUP11 PUSH2 0x2128 JUMP JUMPDEST SWAP3 POP SWAP3 POP SWAP3 POP PUSH1 0x0 DUP1 PUSH1 0x0 PUSH2 0x1CF3 DUP14 DUP7 DUP7 PUSH2 0x1CEE PUSH2 0x1BFD JUMP JUMPDEST PUSH2 0x216A JUMP JUMPDEST SWAP2 SWAP16 SWAP1 SWAP15 POP SWAP1 SWAP13 POP SWAP6 SWAP11 POP SWAP4 SWAP9 POP SWAP2 SWAP7 POP SWAP3 SWAP5 POP POP POP POP POP JUMP JUMPDEST PUSH1 0x0 PUSH2 0x1C5F DUP4 DUP4 PUSH1 0x40 MLOAD DUP1 PUSH1 0x40 ADD PUSH1 0x40 MSTORE DUP1 PUSH1 0x1E DUP2 MSTORE PUSH1 0x20 ADD PUSH32 0x536166654D6174683A207375627472616374696F6E206F766572666C6F770000 DUP2 MSTORE POP PUSH2 0x1B66 JUMP JUMPDEST PUSH1 0x13 DUP1 SLOAD PUSH1 0xFF NOT AND PUSH1 0x1 OR SWAP1 SSTORE PUSH1 0x0 PUSH2 0x1D69 DUP3 PUSH1 0x2 PUSH2 0x1C20 JUMP JUMPDEST SWAP1 POP PUSH1 0x0 PUSH2 0x1D77 DUP4 DUP4 PUSH2 0x1D0D JUMP JUMPDEST SWAP1 POP SELFBALANCE PUSH2 0x1D83 DUP4 PUSH2 0x21BA JUMP JUMPDEST PUSH1 0x0 PUSH2 0x1D8F SELFBALANCE DUP4 PUSH2 0x1D0D JUMP JUMPDEST SWAP1 POP PUSH2 0x1D9B DUP4 DUP3 PUSH2 0x23C9 JUMP JUMPDEST PUSH1 0x40 DUP1 MLOAD DUP6 DUP2 MSTORE PUSH1 0x20 DUP2 ADD DUP4 SWAP1 MSTORE DUP1 DUP3 ADD DUP6 SWAP1 MSTORE SWAP1 MLOAD PUSH32 0x17BBFB9A6069321B6DED73BD96327C9E6B7212A5CD51FF219CD61370ACAFB561 SWAP2 DUP2 SWAP1 SUB PUSH1 0x60 ADD SWAP1 LOG1 POP POP PUSH1 0x13 DUP1 SLOAD PUSH1 0xFF NOT AND SWAP1 SSTORE POP POP POP JUMP JUMPDEST DUP1 PUSH2 0x1DF9 JUMPI PUSH2 0x1DF9 PUSH2 0x24C7 JUMP JUMPDEST PUSH1 0x1 PUSH1 0x1 PUSH1 0xA0 SHL SUB DUP5 AND PUSH1 0x0 SWAP1 DUP2 MSTORE PUSH1 0x7 PUSH1 0x20 MSTORE PUSH1 0x40 SWAP1 KECCAK256 SLOAD PUSH1 0xFF AND DUP1 ISZERO PUSH2 0x1E3A JUMPI POP PUSH1 0x1 PUSH1 0x1 PUSH1 0xA0 SHL SUB DUP4 AND PUSH1 0x0 SWAP1 DUP2 MSTORE PUSH1 0x7 PUSH1 0x20 MSTORE PUSH1 0x40 SWAP1 KECCAK256 SLOAD PUSH1 0xFF AND ISZERO JUMPDEST ISZERO PUSH2 0x1E4F JUMPI PUSH2 0x1E4A DUP5 DUP5 DUP5 PUSH2 0x24F9 JUMP JUMPDEST PUSH2 0x1F4D JUMP JUMPDEST PUSH1 0x1 PUSH1 0x1 PUSH1 0xA0 SHL SUB DUP5 AND PUSH1 0x0 SWAP1 DUP2 MSTORE PUSH1 0x7 PUSH1 0x20 MSTORE PUSH1 0x40 SWAP1 KECCAK256 SLOAD PUSH1 0xFF AND ISZERO DUP1 ISZERO PUSH2 0x1E90 JUMPI POP PUSH1 0x1 PUSH1 0x1 PUSH1 0xA0 SHL SUB DUP4 AND PUSH1 0x0 SWAP1 DUP2 MSTORE PUSH1 0x7 PUSH1 0x20 MSTORE PUSH1 0x40 SWAP1 KECCAK256 SLOAD PUSH1 0xFF AND JUMPDEST ISZERO PUSH2 0x1EA0 JUMPI PUSH2 0x1E4A DUP5 DUP5 DUP5 PUSH2 0x261D JUMP JUMPDEST PUSH1 0x1 PUSH1 0x1 PUSH1 0xA0 SHL SUB DUP5 AND PUSH1 0x0 SWAP1 DUP2 MSTORE PUSH1 0x7 PUSH1 0x20 MSTORE PUSH1 0x40 SWAP1 KECCAK256 SLOAD PUSH1 0xFF AND ISZERO DUP1 ISZERO PUSH2 0x1EE2 JUMPI POP PUSH1 0x1 PUSH1 0x1 PUSH1 0xA0 SHL SUB DUP4 AND PUSH1 0x0 SWAP1 DUP2 MSTORE PUSH1 0x7 PUSH1 0x20 MSTORE PUSH1 0x40 SWAP1 KECCAK256 SLOAD PUSH1 0xFF AND ISZERO JUMPDEST ISZERO PUSH2 0x1EF2 JUMPI PUSH2 0x1E4A DUP5 DUP5 DUP5 PUSH2 0x26C6 JUMP JUMPDEST PUSH1 0x1 PUSH1 0x1 PUSH1 0xA0 SHL SUB DUP5 AND PUSH1 0x0 SWAP1 DUP2 MSTORE PUSH1 0x7 PUSH1 0x20 MSTORE PUSH1 0x40 SWAP1 KECCAK256 SLOAD PUSH1 0xFF AND DUP1 ISZERO PUSH2 0x1F32 JUMPI POP PUSH1 0x1 PUSH1 0x1 PUSH1 0xA0 SHL SUB DUP4 AND PUSH1 0x0 SWAP1 DUP2 MSTORE PUSH1 0x7 PUSH1 0x20 MSTORE PUSH1 0x40 SWAP1 KECCAK256 SLOAD PUSH1 0xFF AND JUMPDEST ISZERO PUSH2 0x1F42 JUMPI PUSH2 0x1E4A DUP5 DUP5 DUP5 PUSH2 0x270A JUMP JUMPDEST PUSH2 0x1F4D DUP5 DUP5 DUP5 PUSH2 0x26C6 JUMP JUMPDEST DUP1 PUSH2 0x1F5A JUMPI PUSH2 0x1F5A PUSH2 0x277D JUMP JUMPDEST POP POP POP POP JUMP JUMPDEST PUSH1 0xA SLOAD PUSH1 0x9 SLOAD PUSH1 0x0 SWAP2 DUP3 SWAP2 DUP3 JUMPDEST PUSH1 0x8 SLOAD DUP2 LT ISZERO PUSH2 0x2091 JUMPI DUP3 PUSH1 0x3 PUSH1 0x0 PUSH1 0x8 DUP5 DUP2 SLOAD DUP2 LT PUSH2 0x1F89 JUMPI INVALID JUMPDEST PUSH1 0x0 SWAP2 DUP3 MSTORE PUSH1 0x20 DUP1 DUP4 KECCAK256 SWAP1 SWAP2 ADD SLOAD PUSH1 0x1 PUSH1 0x1 PUSH1 0xA0 SHL SUB AND DUP4 MSTORE DUP3 ADD SWAP3 SWAP1 SWAP3 MSTORE PUSH1 0x40 ADD SWAP1 KECCAK256 SLOAD GT DUP1 PUSH2 0x1FEE JUMPI POP DUP2 PUSH1 0x4 PUSH1 0x0 PUSH1 0x8 DUP5 DUP2 SLOAD DUP2 LT PUSH2 0x1FC7 JUMPI INVALID JUMPDEST PUSH1 0x0 SWAP2 DUP3 MSTORE PUSH1 0x20 DUP1 DUP4 KECCAK256 SWAP1 SWAP2 ADD SLOAD PUSH1 0x1 PUSH1 0x1 PUSH1 0xA0 SHL SUB AND DUP4 MSTORE DUP3 ADD SWAP3 SWAP1 SWAP3 MSTORE PUSH1 0x40 ADD SWAP1 KECCAK256 SLOAD GT JUMPDEST ISZERO PUSH2 0x2005 JUMPI PUSH1 0xA SLOAD PUSH1 0x9 SLOAD SWAP5 POP SWAP5 POP POP POP POP PUSH2 0x20BF JUMP JUMPDEST PUSH2 0x2045 PUSH1 0x3 PUSH1 0x0 PUSH1 0x8 DUP5 DUP2 SLOAD DUP2 LT PUSH2 0x2019 JUMPI INVALID JUMPDEST PUSH1 0x0 SWAP2 DUP3 MSTORE PUSH1 0x20 DUP1 DUP4 KECCAK256 SWAP1 SWAP2 ADD SLOAD PUSH1 0x1 PUSH1 0x1 PUSH1 0xA0 SHL SUB AND DUP4 MSTORE DUP3 ADD SWAP3 SWAP1 SWAP3 MSTORE PUSH1 0x40 ADD SWAP1 KECCAK256 SLOAD DUP5 SWAP1 PUSH2 0x1D0D JUMP JUMPDEST SWAP3 POP PUSH2 0x2087 PUSH1 0x4 PUSH1 0x0 PUSH1 0x8 DUP5 DUP2 SLOAD DUP2 LT PUSH2 0x205B JUMPI INVALID JUMPDEST PUSH1 0x0 SWAP2 DUP3 MSTORE PUSH1 0x20 DUP1 DUP4 KECCAK256 SWAP1 SWAP2 ADD SLOAD PUSH1 0x1 PUSH1 0x1 PUSH1 0xA0 SHL SUB AND DUP4 MSTORE DUP3 ADD SWAP3 SWAP1 SWAP3 MSTORE PUSH1 0x40 ADD SWAP1 KECCAK256 SLOAD DUP4 SWAP1 PUSH2 0x1D0D JUMP JUMPDEST SWAP2 POP PUSH1 0x1 ADD PUSH2 0x1F6D JUMP JUMPDEST POP PUSH1 0x9 SLOAD PUSH1 0xA SLOAD PUSH2 0x20A1 SWAP2 PUSH2 0x1C20 JUMP JUMPDEST DUP3 LT ISZERO PUSH2 0x20B9 JUMPI PUSH1 0xA SLOAD PUSH1 0x9 SLOAD SWAP4 POP SWAP4 POP POP POP PUSH2 0x20BF JUMP JUMPDEST SWAP1 SWAP3 POP SWAP1 POP JUMPDEST SWAP1 SWAP2 JUMP JUMPDEST PUSH1 0x0 DUP2 DUP4 PUSH2 0x2112 JUMPI PUSH1 0x40 MLOAD PUSH3 0x461BCD PUSH1 0xE5 SHL DUP2 MSTORE PUSH1 0x20 PUSH1 0x4 DUP3 ADD DUP2 DUP2 MSTORE DUP4 MLOAD PUSH1 0x24 DUP5 ADD MSTORE DUP4 MLOAD SWAP1 SWAP3 DUP4 SWAP3 PUSH1 0x44 SWAP1 SWAP2 ADD SWAP2 SWAP1 DUP6 ADD SWAP1 DUP1 DUP4 DUP4 PUSH1 0x0 DUP4 ISZERO PUSH2 0x1BBA JUMPI DUP2 DUP2 ADD MLOAD DUP4 DUP3 ADD MSTORE PUSH1 0x20 ADD PUSH2 0x1BA2 JUMP JUMPDEST POP PUSH1 0x0 DUP4 DUP6 DUP2 PUSH2 0x211E JUMPI INVALID JUMPDEST DIV SWAP6 SWAP5 POP POP POP POP POP JUMP JUMPDEST PUSH1 0x0 DUP1 PUSH1 0x0 DUP1 PUSH2 0x2137 DUP6 PUSH2 0x278B JUMP JUMPDEST SWAP1 POP PUSH1 0x0 PUSH2 0x2144 DUP7 PUSH2 0x27AD JUMP JUMPDEST SWAP1 POP PUSH1 0x0 PUSH2 0x215C DUP3 PUSH2 0x2156 DUP10 DUP7 PUSH2 0x1D0D JUMP JUMPDEST SWAP1 PUSH2 0x1D0D JUMP JUMPDEST SWAP8 SWAP3 SWAP7 POP SWAP1 SWAP5 POP SWAP1 SWAP3 POP POP POP JUMP JUMPDEST PUSH1 0x0 DUP1 DUP1 DUP1 PUSH2 0x2179 DUP9 DUP7 PUSH2 0x27C9 JUMP JUMPDEST SWAP1 POP PUSH1 0x0 PUSH2 0x2187 DUP9 DUP8 PUSH2 0x27C9 JUMP JUMPDEST SWAP1 POP PUSH1 0x0 PUSH2 0x2195 DUP9 DUP9 PUSH2 0x27C9 JUMP JUMPDEST SWAP1 POP PUSH1 0x0 PUSH2 0x21A7 DUP3 PUSH2 0x2156 DUP7 DUP7 PUSH2 0x1D0D JUMP JUMPDEST SWAP4 SWAP12 SWAP4 SWAP11 POP SWAP2 SWAP9 POP SWAP2 SWAP7 POP POP POP POP POP POP POP JUMP JUMPDEST PUSH1 0x40 DUP1 MLOAD PUSH1 0x2 DUP1 DUP3 MSTORE PUSH1 0x60 DUP1 DUP4 ADD DUP5 MSTORE SWAP3 PUSH1 0x20 DUP4 ADD SWAP1 DUP1 CALLDATASIZE DUP4 CALLDATACOPY ADD SWAP1 POP POP SWAP1 POP ADDRESS DUP2 PUSH1 0x0 DUP2 MLOAD DUP2 LT PUSH2 0x21E8 JUMPI INVALID JUMPDEST PUSH1 0x20 MUL PUSH1 0x20 ADD ADD SWAP1 PUSH1 0x1 PUSH1 0x1 PUSH1 0xA0 SHL SUB AND SWAP1 DUP2 PUSH1 0x1 PUSH1 0x1 PUSH1 0xA0 SHL SUB AND DUP2 MSTORE POP POP PUSH32 0x0 PUSH1 0x1 PUSH1 0x1 PUSH1 0xA0 SHL SUB AND PUSH4 0xAD5C4648 PUSH1 0x40 MLOAD DUP2 PUSH4 0xFFFFFFFF AND PUSH1 0xE0 SHL DUP2 MSTORE PUSH1 0x4 ADD PUSH1 0x20 PUSH1 0x40 MLOAD DUP1 DUP4 SUB DUP2 DUP7 DUP1 EXTCODESIZE ISZERO DUP1 ISZERO PUSH2 0x2261 JUMPI PUSH1 0x0 DUP1 REVERT JUMPDEST POP GAS STATICCALL ISZERO DUP1 ISZERO PUSH2 0x2275 JUMPI RETURNDATASIZE PUSH1 0x0 DUP1 RETURNDATACOPY RETURNDATASIZE PUSH1 0x0 REVERT JUMPDEST POP POP POP POP PUSH1 0x40 MLOAD RETURNDATASIZE PUSH1 0x20 DUP2 LT ISZERO PUSH2 0x228B JUMPI PUSH1 0x0 DUP1 REVERT JUMPDEST POP MLOAD DUP2 MLOAD DUP3 SWAP1 PUSH1 0x1 SWAP1 DUP2 LT PUSH2 0x229C JUMPI INVALID JUMPDEST PUSH1 0x20 MUL PUSH1 0x20 ADD ADD SWAP1 PUSH1 0x1 PUSH1 0x1 PUSH1 0xA0 SHL SUB AND SWAP1 DUP2 PUSH1 0x1 PUSH1 0x1 PUSH1 0xA0 SHL SUB AND DUP2 MSTORE POP POP PUSH2 0x22E7 ADDRESS PUSH32 0x0 DUP5 PUSH2 0x1834 JUMP JUMPDEST PUSH32 0x0 PUSH1 0x1 PUSH1 0x1 PUSH1 0xA0 SHL SUB AND PUSH4 0x791AC947 DUP4 PUSH1 0x0 DUP5 ADDRESS TIMESTAMP PUSH1 0x40 MLOAD DUP7 PUSH4 0xFFFFFFFF AND PUSH1 0xE0 SHL DUP2 MSTORE PUSH1 0x4 ADD DUP1 DUP7 DUP2 MSTORE PUSH1 0x20 ADD DUP6 DUP2 MSTORE PUSH1 0x20 ADD DUP1 PUSH1 0x20 ADD DUP5 PUSH1 0x1 PUSH1 0x1 PUSH1 0xA0 SHL SUB AND DUP2 MSTORE PUSH1 0x20 ADD DUP4 DUP2 MSTORE PUSH1 0x20 ADD DUP3 DUP2 SUB DUP3 MSTORE DUP6 DUP2 DUP2 MLOAD DUP2 MSTORE PUSH1 0x20 ADD SWAP2 POP DUP1 MLOAD SWAP1 PUSH1 0x20 ADD SWAP1 PUSH1 0x20 MUL DUP1 DUP4 DUP4 PUSH1 0x0 JUMPDEST DUP4 DUP2 LT ISZERO PUSH2 0x238C JUMPI DUP2 DUP2 ADD MLOAD DUP4 DUP3 ADD MSTORE PUSH1 0x20 ADD PUSH2 0x2374 JUMP JUMPDEST POP POP POP POP SWAP1 POP ADD SWAP7 POP POP POP POP POP POP POP PUSH1 0x0 PUSH1 0x40 MLOAD DUP1 DUP4 SUB DUP2 PUSH1 0x0 DUP8 DUP1 EXTCODESIZE ISZERO DUP1 ISZERO PUSH2 0x23B5 JUMPI PUSH1 0x0 DUP1 REVERT JUMPDEST POP GAS CALL ISZERO DUP1 ISZERO PUSH2 0x1B5E JUMPI RETURNDATASIZE PUSH1 0x0 DUP1 RETURNDATACOPY RETURNDATASIZE PUSH1 0x0 REVERT JUMPDEST PUSH2 0x23F4 ADDRESS PUSH32 0x0 DUP5 PUSH2 0x1834 JUMP JUMPDEST PUSH32 0x0 PUSH1 0x1 PUSH1 0x1 PUSH1 0xA0 SHL SUB AND PUSH4 0xF305D719 DUP3 ADDRESS DUP6 PUSH1 0x0 DUP1 PUSH2 0x2431 PUSH2 0x1247 JUMP JUMPDEST TIMESTAMP PUSH1 0x40 MLOAD DUP9 PUSH4 0xFFFFFFFF AND PUSH1 0xE0 SHL DUP2 MSTORE PUSH1 0x4 ADD DUP1 DUP8 PUSH1 0x1 PUSH1 0x1 PUSH1 0xA0 SHL SUB AND DUP2 MSTORE PUSH1 0x20 ADD DUP7 DUP2 MSTORE PUSH1 0x20 ADD DUP6 DUP2 MSTORE PUSH1 0x20 ADD DUP5 DUP2 MSTORE PUSH1 0x20 ADD DUP4 PUSH1 0x1 PUSH1 0x1 PUSH1 0xA0 SHL SUB AND DUP2 MSTORE PUSH1 0x20 ADD DUP3 DUP2 MSTORE PUSH1 0x20 ADD SWAP7 POP POP POP POP POP POP POP PUSH1 0x60 PUSH1 0x40 MLOAD DUP1 DUP4 SUB DUP2 DUP6 DUP9 DUP1 EXTCODESIZE ISZERO DUP1 ISZERO PUSH2 0x249C JUMPI PUSH1 0x0 DUP1 REVERT JUMPDEST POP GAS CALL ISZERO DUP1 ISZERO PUSH2 0x24B0 JUMPI RETURNDATASIZE PUSH1 0x0 DUP1 RETURNDATACOPY RETURNDATASIZE PUSH1 0x0 REVERT JUMPDEST POP POP POP POP POP PUSH1 0x40 MLOAD RETURNDATASIZE PUSH1 0x60 DUP2 LT ISZERO PUSH2 0x1F5A JUMPI PUSH1 0x0 DUP1 REVERT JUMPDEST PUSH1 0xF SLOAD ISZERO DUP1 ISZERO PUSH2 0x24D7 JUMPI POP PUSH1 0x11 SLOAD ISZERO JUMPDEST ISZERO PUSH2 0x24E1 JUMPI PUSH2 0x24F7 JUMP JUMPDEST PUSH1 0xF DUP1 SLOAD PUSH1 0x10 SSTORE PUSH1 0x11 DUP1 SLOAD PUSH1 0x12 SSTORE PUSH1 0x0 SWAP2 DUP3 SWAP1 SSTORE SSTORE JUMPDEST JUMP JUMPDEST PUSH1 0x0 DUP1 PUSH1 0x0 DUP1 PUSH1 0x0 DUP1 PUSH2 0x250B DUP8 PUSH2 0x1CBE JUMP JUMPDEST PUSH1 0x1 PUSH1 0x1 PUSH1 0xA0 SHL SUB DUP16 AND PUSH1 0x0 SWAP1 DUP2 MSTORE PUSH1 0x4 PUSH1 0x20 MSTORE PUSH1 0x40 SWAP1 KECCAK256 SLOAD SWAP6 SWAP12 POP SWAP4 SWAP10 POP SWAP2 SWAP8 POP SWAP6 POP SWAP4 POP SWAP2 POP PUSH2 0x253D SWAP1 DUP9 PUSH2 0x1D0D JUMP JUMPDEST PUSH1 0x1 PUSH1 0x1 PUSH1 0xA0 SHL SUB DUP11 AND PUSH1 0x0 SWAP1 DUP2 MSTORE PUSH1 0x4 PUSH1 0x20 SWAP1 DUP2 MSTORE PUSH1 0x40 DUP1 DUP4 KECCAK256 SWAP4 SWAP1 SWAP4 SSTORE PUSH1 0x3 SWAP1 MSTORE KECCAK256 SLOAD PUSH2 0x256C SWAP1 DUP8 PUSH2 0x1D0D JUMP JUMPDEST PUSH1 0x1 PUSH1 0x1 PUSH1 0xA0 SHL SUB DUP1 DUP12 AND PUSH1 0x0 SWAP1 DUP2 MSTORE PUSH1 0x3 PUSH1 0x20 MSTORE PUSH1 0x40 DUP1 DUP3 KECCAK256 SWAP4 SWAP1 SWAP4 SSTORE SWAP1 DUP11 AND DUP2 MSTORE KECCAK256 SLOAD PUSH2 0x259B SWAP1 DUP7 PUSH2 0x1C66 JUMP JUMPDEST PUSH1 0x1 PUSH1 0x1 PUSH1 0xA0 SHL SUB DUP10 AND PUSH1 0x0 SWAP1 DUP2 MSTORE PUSH1 0x3 PUSH1 0x20 MSTORE PUSH1 0x40 SWAP1 KECCAK256 SSTORE PUSH2 0x25BD DUP2 PUSH2 0x2822 JUMP JUMPDEST PUSH2 0x25C7 DUP5 DUP4 PUSH2 0x28AB JUMP JUMPDEST DUP8 PUSH1 0x1 PUSH1 0x1 PUSH1 0xA0 SHL SUB AND DUP10 PUSH1 0x1 PUSH1 0x1 PUSH1 0xA0 SHL SUB AND PUSH32 0xDDF252AD1BE2C89B69C2B068FC378DAA952BA7F163C4A11628F55A4DF523B3EF DUP6 PUSH1 0x40 MLOAD DUP1 DUP3 DUP2 MSTORE PUSH1 0x20 ADD SWAP2 POP POP PUSH1 0x40 MLOAD DUP1 SWAP2 SUB SWAP1 LOG3 POP POP POP POP POP POP POP POP POP JUMP JUMPDEST PUSH1 0x0 DUP1 PUSH1 0x0 DUP1 PUSH1 0x0 DUP1 PUSH2 0x262F DUP8 PUSH2 0x1CBE JUMP JUMPDEST PUSH1 0x1 PUSH1 0x1 PUSH1 0xA0 SHL SUB DUP16 AND PUSH1 0x0 SWAP1 DUP2 MSTORE PUSH1 0x3 PUSH1 0x20 MSTORE PUSH1 0x40 SWAP1 KECCAK256 SLOAD SWAP6 SWAP12 POP SWAP4 SWAP10 POP SWAP2 SWAP8 POP SWAP6 POP SWAP4 POP SWAP2 POP PUSH2 0x2661 SWAP1 DUP8 PUSH2 0x1D0D JUMP JUMPDEST PUSH1 0x1 PUSH1 0x1 PUSH1 0xA0 SHL SUB DUP1 DUP12 AND PUSH1 0x0 SWAP1 DUP2 MSTORE PUSH1 0x3 PUSH1 0x20 SWAP1 DUP2 MSTORE PUSH1 0x40 DUP1 DUP4 KECCAK256 SWAP5 SWAP1 SWAP5 SSTORE SWAP2 DUP12 AND DUP2 MSTORE PUSH1 0x4 SWAP1 SWAP2 MSTORE KECCAK256 SLOAD PUSH2 0x2697 SWAP1 DUP5 PUSH2 0x1C66 JUMP JUMPDEST PUSH1 0x1 PUSH1 0x1 PUSH1 0xA0 SHL SUB DUP10 AND PUSH1 0x0 SWAP1 DUP2 MSTORE PUSH1 0x4 PUSH1 0x20 SWAP1 DUP2 MSTORE PUSH1 0x40 DUP1 DUP4 KECCAK256 SWAP4 SWAP1 SWAP4 SSTORE PUSH1 0x3 SWAP1 MSTORE KECCAK256 SLOAD PUSH2 0x259B SWAP1 DUP7 PUSH2 0x1C66 JUMP JUMPDEST PUSH1 0x0 DUP1 PUSH1 0x0 DUP1 PUSH1 0x0 DUP1 PUSH2 0x26D8 DUP8 PUSH2 0x1CBE JUMP JUMPDEST PUSH1 0x1 PUSH1 0x1 PUSH1 0xA0 SHL SUB DUP16 AND PUSH1 0x0 SWAP1 DUP2 MSTORE PUSH1 0x3 PUSH1 0x20 MSTORE PUSH1 0x40 SWAP1 KECCAK256 SLOAD SWAP6 SWAP12 POP SWAP4 SWAP10 POP SWAP2 SWAP8 POP SWAP6 POP SWAP4 POP SWAP2 POP PUSH2 0x256C SWAP1 DUP8 PUSH2 0x1D0D JUMP JUMPDEST PUSH1 0x0 DUP1 PUSH1 0x0 DUP1 PUSH1 0x0 DUP1 PUSH2 0x271C DUP8 PUSH2 0x1CBE JUMP JUMPDEST PUSH1 0x1 PUSH1 0x1 PUSH1 0xA0 SHL SUB DUP16 AND PUSH1 0x0 SWAP1 DUP2 MSTORE PUSH1 0x4 PUSH1 0x20 MSTORE PUSH1 0x40 SWAP1 KECCAK256 SLOAD SWAP6 SWAP12 POP SWAP4 SWAP10 POP SWAP2 SWAP8 POP SWAP6 POP SWAP4 POP SWAP2 POP PUSH2 0x274E SWAP1 DUP9 PUSH2 0x1D0D JUMP JUMPDEST PUSH1 0x1 PUSH1 0x1 PUSH1 0xA0 SHL SUB DUP11 AND PUSH1 0x0 SWAP1 DUP2 MSTORE PUSH1 0x4 PUSH1 0x20 SWAP1 DUP2 MSTORE PUSH1 0x40 DUP1 DUP4 KECCAK256 SWAP4 SWAP1 SWAP4 SSTORE PUSH1 0x3 SWAP1 MSTORE KECCAK256 SLOAD PUSH2 0x2661 SWAP1 DUP8 PUSH2 0x1D0D JUMP JUMPDEST PUSH1 0x10 SLOAD PUSH1 0xF SSTORE PUSH1 0x12 SLOAD PUSH1 0x11 SSTORE JUMP JUMPDEST PUSH1 0x0 PUSH2 0x9A2 PUSH1 0x64 PUSH2 0x27A7 PUSH1 0xF SLOAD DUP6 PUSH2 0x27C9 SWAP1 SWAP2 SWAP1 PUSH4 0xFFFFFFFF AND JUMP JUMPDEST SWAP1 PUSH2 0x1C20 JUMP JUMPDEST PUSH1 0x0 PUSH2 0x9A2 PUSH1 0x64 PUSH2 0x27A7 PUSH1 0x11 SLOAD DUP6 PUSH2 0x27C9 SWAP1 SWAP2 SWAP1 PUSH4 0xFFFFFFFF AND JUMP JUMPDEST PUSH1 0x0 DUP3 PUSH2 0x27D8 JUMPI POP PUSH1 0x0 PUSH2 0x9A2 JUMP JUMPDEST DUP3 DUP3 MUL DUP3 DUP5 DUP3 DUP2 PUSH2 0x27E5 JUMPI INVALID JUMPDEST DIV EQ PUSH2 0x1C5F JUMPI PUSH1 0x40 MLOAD PUSH3 0x461BCD PUSH1 0xE5 SHL DUP2 MSTORE PUSH1 0x4 ADD DUP1 DUP1 PUSH1 0x20 ADD DUP3 DUP2 SUB DUP3 MSTORE PUSH1 0x21 DUP2 MSTORE PUSH1 0x20 ADD DUP1 PUSH2 0x298D PUSH1 0x21 SWAP2 CODECOPY PUSH1 0x40 ADD SWAP2 POP POP PUSH1 0x40 MLOAD DUP1 SWAP2 SUB SWAP1 REVERT JUMPDEST PUSH1 0x0 PUSH2 0x282C PUSH2 0x1BFD JUMP JUMPDEST SWAP1 POP PUSH1 0x0 PUSH2 0x283A DUP4 DUP4 PUSH2 0x27C9 JUMP JUMPDEST ADDRESS PUSH1 0x0 SWAP1 DUP2 MSTORE PUSH1 0x3 PUSH1 0x20 MSTORE PUSH1 0x40 SWAP1 KECCAK256 SLOAD SWAP1 SWAP2 POP PUSH2 0x2857 SWAP1 DUP3 PUSH2 0x1C66 JUMP JUMPDEST ADDRESS PUSH1 0x0 SWAP1 DUP2 MSTORE PUSH1 0x3 PUSH1 0x20 SWAP1 DUP2 MSTORE PUSH1 0x40 DUP1 DUP4 KECCAK256 SWAP4 SWAP1 SWAP4 SSTORE PUSH1 0x7 SWAP1 MSTORE KECCAK256 SLOAD PUSH1 0xFF AND ISZERO PUSH2 0x28A6 JUMPI ADDRESS PUSH1 0x0 SWAP1 DUP2 MSTORE PUSH1 0x4 PUSH1 0x20 MSTORE PUSH1 0x40 SWAP1 KECCAK256 SLOAD PUSH2 0x2895 SWAP1 DUP5 PUSH2 0x1C66 JUMP JUMPDEST ADDRESS PUSH1 0x0 SWAP1 DUP2 MSTORE PUSH1 0x4 PUSH1 0x20 MSTORE PUSH1 0x40 SWAP1 KECCAK256 SSTORE JUMPDEST POP POP POP JUMP JUMPDEST PUSH1 0xA SLOAD PUSH2 0x28B8 SWAP1 DUP4 PUSH2 0x1D0D JUMP JUMPDEST PUSH1 0xA SSTORE PUSH1 0xB SLOAD PUSH2 0x28C8 SWAP1 DUP3 PUSH2 0x1C66 JUMP JUMPDEST PUSH1 0xB SSTORE POP POP JUMP INVALID GASLIMIT MSTORE NUMBER ORIGIN ADDRESS GASPRICE KECCAK256 PUSH21 0x72616E7366657220746F20746865207A65726F2061 PUSH5 0x6472657373 COINBASE PUSH14 0x6F756E74206D757374206265206C PUSH6 0x737320746861 PUSH15 0x20746F74616C207265666C65637469 PUSH16 0x6E734F776E61626C653A206E6577206F PUSH24 0x6E657220697320746865207A65726F206164647265737345 MSTORE NUMBER ORIGIN ADDRESS GASPRICE KECCAK256 PUSH2 0x7070 PUSH19 0x6F766520746F20746865207A65726F20616464 PUSH19 0x6573735472616E7366657220616D6F756E7420 PUSH6 0x786365656473 KECCAK256 PUSH21 0x6865206D61785478416D6F756E742E536166654D61 PUSH21 0x683A206D756C7469706C69636174696F6E206F7665 PUSH19 0x666C6F7745524332303A207472616E73666572 KECCAK256 PUSH2 0x6D6F PUSH22 0x6E74206578636565647320616C6C6F77616E63654F77 PUSH15 0x61626C653A2063616C6C6572206973 KECCAK256 PUSH15 0x6F7420746865206F776E65728BE007 SWAP13 MSTORE8 AND MSIZE EQ SGT DIFFICULTY 0xCD 0x1F 0xD0 LOG4 CALLCODE DUP5 NOT 0x49 PUSH32 0x9722A3DAAFE3B4186F6B6457E05472616E7366657220616D6F756E74206D7573 PUSH21 0x2062652067726561746572207468616E207A65726F GASLIMIT MSTORE NUMBER ORIGIN ADDRESS GASPRICE KECCAK256 PUSH21 0x72616E736665722066726F6D20746865207A65726F KECCAK256 PUSH2 0x6464 PUSH19 0x65737345524332303A20617070726F76652066 PUSH19 0x6F6D20746865207A65726F2061646472657373 GASLIMIT PUSH25 0x636C75646564206164647265737365732063616E6E6F742063 PUSH2 0x6C6C KECCAK256 PUSH21 0x6869732066756E6374696F6E596F7520646F6E2774 KECCAK256 PUSH9 0x617665207065726D69 PUSH20 0x73696F6E20746F20756E6C6F636B45524332303A KECCAK256 PUSH5 0x6563726561 PUSH20 0x656420616C6C6F77616E63652062656C6F77207A PUSH6 0x726FA2646970 PUSH7 0x735822122078A2 0xB6 SWAP2 PUSH14 0xA19509F71A0F03432EF0DA6CAD9E CALLDATASIZE STATICCALL 0xCF 0xBE PUSH7 0x44E5A8001604B0 PUSH11 0x64736F6C634300060C0033 "
				},
				"gasEstimates": {
					"creation": {
						"codeDepositCost": "2211400",
						"executionCost": "infinite",
						"totalCost": "infinite"
					},
					"external": {
						"_liquidityFee()": "1416",
						"_maxTxAmount()": "1482",
						"_owner()": "1697",
						"_taxFee()": "1218",
						"allowance(address,address)": "2042",
						"approve(address,uint256)": "infinite",
						"balanceOf(address)": "infinite",
						"claimTokens()": "infinite",
						"decimals()": "1152",
						"decreaseAllowance(address,uint256)": "infinite",
						"deliver(uint256)": "infinite",
						"excludeFromFee(address)": "infinite",
						"excludeFromReward(address)": "infinite",
						"geUnlockTime()": "1680",
						"includeInFee(address)": "infinite",
						"includeInReward(address)": "infinite",
						"increaseAllowance(address,uint256)": "infinite",
						"isExcludedFromFee(address)": "1550",
						"isExcludedFromReward(address)": "1660",
						"lock(uint256)": "infinite",
						"name()": "infinite",
						"numTokensSellToAddToLiquidity()": "1724",
						"owner()": "1565",
						"reflectionFromToken(uint256,bool)": "infinite",
						"renounceOwnership()": "infinite",
						"setLiquidityFeePercent(uint256)": "infinite",
						"setMaxTxPercent(uint256)": "infinite",
						"setNumTokensSellToAddToLiquidity(uint256)": "infinite",
						"setSwapAndLiquifyEnabled(bool)": "infinite",
						"setTaxFeePercent(uint256)": "infinite",
						"swapAndLiquifyEnabled()": "1373",
						"symbol()": "infinite",
						"tokenFromReflection(uint256)": "infinite",
						"totalFees()": "1042",
						"totalSupply()": "1086",
						"transfer(address,uint256)": "infinite",
						"transferFrom(address,address,uint256)": "infinite",
						"transferOwnership(address)": "infinite",
						"uniswapV2Pair()": "infinite",
						"uniswapV2Router()": "infinite",
						"unlock()": "infinite"
					},
					"internal": {
						"_approve(address,address,uint256)": "infinite",
						"_getCurrentSupply()": "infinite",
						"_getRValues(uint256,uint256,uint256,uint256)": "infinite",
						"_getRate()": "infinite",
						"_getTValues(uint256)": "infinite",
						"_getValues(uint256)": "infinite",
						"_reflectFee(uint256,uint256)": "infinite",
						"_takeLiquidity(uint256)": "infinite",
						"_tokenTransfer(address,address,uint256,bool)": "infinite",
						"_transfer(address,address,uint256)": "infinite",
						"_transferBothExcluded(address,address,uint256)": "infinite",
						"_transferFromExcluded(address,address,uint256)": "infinite",
						"_transferStandard(address,address,uint256)": "infinite",
						"_transferToExcluded(address,address,uint256)": "infinite",
						"addLiquidity(uint256,uint256)": "infinite",
						"calculateLiquidityFee(uint256)": "infinite",
						"calculateTaxFee(uint256)": "infinite",
						"removeAllFee()": "53291",
						"restoreAllFee()": "41621",
						"swapAndLiquify(uint256)": "infinite",
						"swapTokensForEth(uint256)": "infinite"
					}
				},
				"methodIdentifiers": {
					"_liquidityFee()": "6bc87c3a",
					"_maxTxAmount()": "7d1db4a5",
					"_owner()": "b2bdfa7b",
					"_taxFee()": "3b124fe7",
					"allowance(address,address)": "dd62ed3e",
					"approve(address,uint256)": "095ea7b3",
					"balanceOf(address)": "70a08231",
					"claimTokens()": "48c54b9d",
					"decimals()": "313ce567",
					"decreaseAllowance(address,uint256)": "a457c2d7",
					"deliver(uint256)": "3bd5d173",
					"excludeFromFee(address)": "437823ec",
					"excludeFromReward(address)": "52390c02",
					"geUnlockTime()": "b6c52324",
					"includeInFee(address)": "ea2f0b37",
					"includeInReward(address)": "3685d419",
					"increaseAllowance(address,uint256)": "39509351",
					"isExcludedFromFee(address)": "5342acb4",
					"isExcludedFromReward(address)": "88f82020",
					"lock(uint256)": "dd467064",
					"name()": "06fdde03",
					"numTokensSellToAddToLiquidity()": "d12a7688",
					"owner()": "8da5cb5b",
					"reflectionFromToken(uint256,bool)": "4549b039",
					"renounceOwnership()": "715018a6",
					"setLiquidityFeePercent(uint256)": "8ee88c53",
					"setMaxTxPercent(uint256)": "d543dbeb",
					"setNumTokensSellToAddToLiquidity(uint256)": "f0f165af",
					"setSwapAndLiquifyEnabled(bool)": "c49b9a80",
					"setTaxFeePercent(uint256)": "061c82d0",
					"swapAndLiquifyEnabled()": "4a74bb02",
					"symbol()": "95d89b41",
					"tokenFromReflection(uint256)": "2d838119",
					"totalFees()": "13114a9d",
					"totalSupply()": "18160ddd",
					"transfer(address,uint256)": "a9059cbb",
					"transferFrom(address,address,uint256)": "23b872dd",
					"transferOwnership(address)": "f2fde38b",
					"uniswapV2Pair()": "49bd5a5e",
					"uniswapV2Router()": "1694505e",
					"unlock()": "a69df4b5"
				}
			},
			"storageLayout": {
				"storage": [
					{
						"astId": 497,
						"contract": "contracts/Token.sol:Token",
						"label": "_owner",
						"offset": 0,
						"slot": "0",
						"type": "t_address"
					},
					{
						"astId": 499,
						"contract": "contracts/Token.sol:Token",
						"label": "_previousOwner",
						"offset": 0,
						"slot": "1",
						"type": "t_address"
					},
					{
						"astId": 501,
						"contract": "contracts/Token.sol:Token",
						"label": "_lockTime",
						"offset": 0,
						"slot": "2",
						"type": "t_uint256"
					},
					{
						"astId": 1357,
						"contract": "contracts/Token.sol:Token",
						"label": "_rOwned",
						"offset": 0,
						"slot": "3",
						"type": "t_mapping(t_address,t_uint256)"
					},
					{
						"astId": 1361,
						"contract": "contracts/Token.sol:Token",
						"label": "_tOwned",
						"offset": 0,
						"slot": "4",
						"type": "t_mapping(t_address,t_uint256)"
					},
					{
						"astId": 1367,
						"contract": "contracts/Token.sol:Token",
						"label": "_allowances",
						"offset": 0,
						"slot": "5",
						"type": "t_mapping(t_address,t_mapping(t_address,t_uint256))"
					},
					{
						"astId": 1371,
						"contract": "contracts/Token.sol:Token",
						"label": "_isExcludedFromFee",
						"offset": 0,
						"slot": "6",
						"type": "t_mapping(t_address,t_bool)"
					},
					{
						"astId": 1375,
						"contract": "contracts/Token.sol:Token",
						"label": "_isExcluded",
						"offset": 0,
						"slot": "7",
						"type": "t_mapping(t_address,t_bool)"
					},
					{
						"astId": 1378,
						"contract": "contracts/Token.sol:Token",
						"label": "_excluded",
						"offset": 0,
						"slot": "8",
						"type": "t_array(t_address)dyn_storage"
					},
					{
						"astId": 1387,
						"contract": "contracts/Token.sol:Token",
						"label": "_tTotal",
						"offset": 0,
						"slot": "9",
						"type": "t_uint256"
					},
					{
						"astId": 1389,
						"contract": "contracts/Token.sol:Token",
						"label": "_rTotal",
						"offset": 0,
						"slot": "10",
						"type": "t_uint256"
					},
					{
						"astId": 1391,
						"contract": "contracts/Token.sol:Token",
						"label": "_tFeeTotal",
						"offset": 0,
						"slot": "11",
						"type": "t_uint256"
					},
					{
						"astId": 1393,
						"contract": "contracts/Token.sol:Token",
						"label": "_name",
						"offset": 0,
						"slot": "12",
						"type": "t_string_storage"
					},
					{
						"astId": 1395,
						"contract": "contracts/Token.sol:Token",
						"label": "_symbol",
						"offset": 0,
						"slot": "13",
						"type": "t_string_storage"
					},
					{
						"astId": 1397,
						"contract": "contracts/Token.sol:Token",
						"label": "_decimals",
						"offset": 0,
						"slot": "14",
						"type": "t_uint256"
					},
					{
						"astId": 1399,
						"contract": "contracts/Token.sol:Token",
						"label": "_taxFee",
						"offset": 0,
						"slot": "15",
						"type": "t_uint256"
					},
					{
						"astId": 1401,
						"contract": "contracts/Token.sol:Token",
						"label": "_previousTaxFee",
						"offset": 0,
						"slot": "16",
						"type": "t_uint256"
					},
					{
						"astId": 1403,
						"contract": "contracts/Token.sol:Token",
						"label": "_liquidityFee",
						"offset": 0,
						"slot": "17",
						"type": "t_uint256"
					},
					{
						"astId": 1405,
						"contract": "contracts/Token.sol:Token",
						"label": "_previousLiquidityFee",
						"offset": 0,
						"slot": "18",
						"type": "t_uint256"
					},
					{
						"astId": 1411,
						"contract": "contracts/Token.sol:Token",
						"label": "inSwapAndLiquify",
						"offset": 0,
						"slot": "19",
						"type": "t_bool"
					},
					{
						"astId": 1414,
						"contract": "contracts/Token.sol:Token",
						"label": "swapAndLiquifyEnabled",
						"offset": 1,
						"slot": "19",
						"type": "t_bool"
					},
					{
						"astId": 1416,
						"contract": "contracts/Token.sol:Token",
						"label": "_maxTxAmount",
						"offset": 0,
						"slot": "20",
						"type": "t_uint256"
					},
					{
						"astId": 1418,
						"contract": "contracts/Token.sol:Token",
						"label": "numTokensSellToAddToLiquidity",
						"offset": 0,
						"slot": "21",
						"type": "t_uint256"
					}
				],
				"types": {
					"t_address": {
						"encoding": "inplace",
						"label": "address",
						"numberOfBytes": "20"
					},
					"t_array(t_address)dyn_storage": {
						"base": "t_address",
						"encoding": "dynamic_array",
						"label": "address[]",
						"numberOfBytes": "32"
					},
					"t_bool": {
						"encoding": "inplace",
						"label": "bool",
						"numberOfBytes": "1"
					},
					"t_mapping(t_address,t_bool)": {
						"encoding": "mapping",
						"key": "t_address",
						"label": "mapping(address => bool)",
						"numberOfBytes": "32",
						"value": "t_bool"
					},
					"t_mapping(t_address,t_mapping(t_address,t_uint256))": {
						"encoding": "mapping",
						"key": "t_address",
						"label": "mapping(address => mapping(address => uint256))",
						"numberOfBytes": "32",
						"value": "t_mapping(t_address,t_uint256)"
					},
					"t_mapping(t_address,t_uint256)": {
						"encoding": "mapping",
						"key": "t_address",
						"label": "mapping(address => uint256)",
						"numberOfBytes": "32",
						"value": "t_uint256"
					},
					"t_string_storage": {
						"encoding": "bytes",
						"label": "string",
						"numberOfBytes": "32"
					},
					"t_uint256": {
						"encoding": "inplace",
						"label": "uint256",
						"numberOfBytes": "32"
					}
				}
			},
			"userdoc": {
				"kind": "user",
				"methods": {},
				"version": 1
			}
		}
	}
}